:02000004085F93
:10B0000000B05F08FCFF5F0800000600200005019B
:08B010000401E015000000003E
:10B018001348144908B5884205D0134A824202D021
:10B02800124B121A98471248124A0021124B121A50
:10B03800984712481249884205D0124A824202D0E3
:10B048000A4B121A984710481049884205D0104AEE
:10B05800824202D0054B121A9847014808BD00BF2A
:10B0680030AD071000F55F08A0AD07102D0D1110C9
:10B07800A0AD0710E8AF0710A10E111098BB3F0252
:10B08800A8B05F08A0BB3F02A0BB3F02B0B05F08FA
:0CB09800F0FF3F0219B05F08000000004C
:08B0A8009CB05F08B0F03F020C
:10B0B000034613F8012B002AFBD1181A01387047F8
:10B0C00070B503F01DF80025054E064CA41BA4081E
:10B0D000AC4200D170BD56F8043B98470135F7E704
:10B0E000C0FF3F02F0FF3F0200F022B808B500F0B9
:10B0F00095F8BDE8084002F0BBBF02F075BA02F057
:10B1000073BA02F07FBA00000C2008B5024A034966
:10B1100002F044F9FEE700BFDDD83F02C0F03F0275
:10B120000078B0FA80F0400970470123037070473F
:10B1300007B5012002F056FD00221146104602F02C
:10B1400061FD02F005FF4FF4165102F0F1FE03F02D
:10B15000F3F84FF4165102F093FE02F0F9FE02F0FC
:10B16000EBFE10B902F060F9F7E702F0F1FE02F031
:10B17000E3FE234800F0F0F80221214800F007F92F
:10B1800001211F4800F00AF94FF4967002F072FA9C
:10B1900044211C4800F0E2FD20B902F0D9FE1A4912
:10B1A00002F0C7FC174800F0CFFD01233C2202212A
:10B1B0001648009300F0B8FF20B902F0C9FE144908
:10B1C00002F0A4FC0121114801F06AFA0F4800F0D6
:10B1D0009CFF03F05DF802230246009301216823DF
:10B1E0000C4801F013FC38B902F0B2FE0A4903B072
:10B1F0005DF804EB02F09DBC03B05DF804FB00BFFA
:10B20000C6AD0710CCAD0710D5F03F02E8AD071072
:10B21000E9F03F0268AE0710FFF03F0208B50648AC
:10B2200000F054F8012806D102F092FEBDE8084073
:10B23000024902F06BBC08BDC4AD071015F13F0216
:10B2400010B50024134B144AC3E900449A6003204C
:10B2500002F0B2F803F01CF80146104800F046FD79
:10B260000F210F4800F028F810210E4800F024F8B4
:10B270000A210D4800F020F80C4800F0AFF80C4B04
:10B280001A1D1A600B4AC3E902445A6001221C616C
:10B290001A7510BDA0AD07100000FFFFCCAD071060
:10B2A000C4AD0710C8AD0710C5AD0710C7AD071076
:10B2B000ACAD07101000030038B50D460446002160
:10B2C000284602F08DFF2046257038BD70B51F4C12
:10B2D0001F4D2378032B18D8DFE803F0020B1C3135
:10B2E000007802F0A7FF08B90123237000232B7018
:10B2F0000BE0007802F09EFF064640B9022323705F
:10B3000001F082FD134B2E701860287870BD002369
:10B310002370ECE7007802F08DFF18B10023237052
:10B320000123E4E701F070FD0A4B1B68C01AB0F579
:10B33000FA6FEAD302232B7003232370E5E700782A
:10B3400002F078FF0028D1D00023CEE7E4AD07104B
:10B35000DCAD0710E0AD071008B50221152002F0A2
:10B360003FFF0021022002F03BFF01210E2002F0EE
:10B3700037FF00210E2002F044FF0121142002F0CB
:10B380002FFFBDE808400021142002F03ABF012938
:10B390000CBF00210121142002F033BF01B10121B3
:10B3A000122002F02EBF00001FB502F071FF084A04
:10B3B00008490346CDE901214FF0FF328021009278
:10B3C0000548202200F0A6FD05B05DF804FB00BF93
:10B3D000801A0600A0860100E8AD071010B50446EB
:10B3E0000121062002F0FCFE0021062002F009FFE8
:10B3F0000121122002F0F4FE0021122002F001FFD0
:10B40000204610BD2DE9F04F1F4685B0BDF93880AC
:10B41000A7EB010AA8EB0209B9F1000FB8BFC9F107
:10B420000009BAF1000FB8BFCAF1000AD14583463E
:10B430000C461546BDF83C3004DD3A462C464746DE
:10B440000D469046BC4205DD2A46454690462246BA
:10B450003C4617463E1BB2B20092A8EB050282EAB8
:10B46000E271A1EBE271C6F3C03202FA86F64545FD
:10B47000B4BF01224FF0FF32019176100292BC421C
:10B480001CDCDBF80020D145D2F81880C7BF294664
:10B4900022462A46214603935846C047019A039BF9
:10B4A000B61AB1B236B2002E05DA029A1544009AE5
:10B4B0002DB2561836B2013424B2E0E705B0BDE82B
:10B4C000F08F704710B404682469A4465DF8044BFB
:10B4D000604730B4BDF8085004680295A46BA446D8
:10B4E00030BC604730B4BDF8085004680295E46B86
:10B4F000A44630BC604770B4BDF90C50BDF8106074
:10B500000468CDE90356246CA44670BC60472DE95D
:10B51000F3411C46164605460F460368013CBDF83C
:10B5200020805B693444984724B22B68CDF80480AE
:10B53000009428469C6A32463B463946A047284636
:10B540002B68DB6A02B0BDE8F04118472DE9F341F2
:10B55000174604461D460E460368BDF820805B6909
:10B560009847CDE9007822686B1E33442046956ADF
:10B5700031463A461BB2A84720462368DB6A02B030
:10B58000BDE8F04118472DE9F3471E4603680C4615
:10B590005B6905461746BDF92890BDF82C80984791
:10B5A0002644B4422B680BDACDF800802146D3F84C
:10B5B00020A03A464B4628460134D04724B2F0E753
:10B5C0002846DB6A02B0BDE8F047184713B5019181
:10B5D000B0F90E1002680091146C0022B0F90C3022
:10B5E0001146A04702B010BD2DE9F7439942164617
:10B5F00080460D461C46BDF92870BDF82C900268A7
:10B6000012D1BE42C2BF33463E461F46CDF82890F7
:10B610007B1C946B9B1B324629464046A4461BB2BA
:10B6200003B0BDE8F0436047BE420AD19942C2BFB1
:10B630000B4625461C46CDF82890631C5B1BD46B3B
:10B64000E9E753699847CDE90079D8F800304046DA
:10B650009F6A324623462946B8474046D8F800300C
:10B66000DB6A03B0BDE8F04318472DE9F347044611
:10B670000F4616461D460368BDF82C805B69BDF970
:10B68000289098472368CDF80080324639462046F6
:10B69000D3F824A02B46D047236809F1FF32CDF818
:10B6A0000080324439462046D3F824A012B22B46FB
:10B6B000D0472368CDF80080324639462046D3F87B
:10B6C00020A04B46D0476B1ED9192368CDF80080C7
:10B6D00020461D6A32464B4609B2A84720462368D9
:10B6E000DB6A02B0BDE8F0471847704701F003037A
:10B6F000B0F90A208376B0F90830C90759BF8381B1
:10B70000C2818281C381704730B50181002481816B
:10B710004FF0FF31054D4281C281054A4460C0E9C6
:10B720000512056004610477046230BD28F63F020B
:10B73000010100012DE9F04F0026354689B0CDE921
:10B74000021204930268BDF94C30BDF94880526979
:10B7500005930446BDF850A0904718F1070248BF72
:10B7600008F10E024FEAE20B0196039B019ABDF924
:10B7700004109A18059B12B28B4227DD4FF0000986
:10B78000049B334406930FFA89F080451FFA89F130
:10B7900017DD4F0705BF069BC0106D001D5C18BF6D
:10B7A000EDB22B060AD5029B2068194483690792E3
:10B7B0001F462046534609B2B847079A09F10109C6
:10B7C000E1E7019B5E4401330193CEE72046236805
:10B7D000DB6A09B0BDE8F04F184700002DE9F04FD3
:10B7E0002DED028B91B016461F46026ABDF87030EF
:10B7F0008346BDF874809DF878509DF87C40039195
:10B800000493002A40F0C580B0F90C308B4240F31D
:10B810004C81B0F90E30B34240F34781062313FB4D
:10B820000513002B40F3418106EBC403002B40F3CA
:10B830003C81037F1BB9AF2F84BF0137FFB2DBF818
:10B84000003058465B69984705220992002205920C
:10B85000984A07EB8703D3180C93B3B20693059A63
:10B860000C9B02FB05F99B5C0793ABB20B93BDF8F5
:10B870000C300893039B19FA83F90FFA89F308EE49
:10B88000103A08234FF000090A93039B02EB030AC6
:10B890000FFA8AFA079ADBF80030D20752D5012D49
:10B8A0001FFA89F23ED1012C3CD19B6906991F46B3
:10B8B000049B0A445146584612B2B84709F10103A5
:10B8C0004FFA83F9079B5B0807930A9B013B13F030
:10B8D000FF030A93DED1059F01377BB20593099BD5
:10B8E000013B13F0FF030993B9D1049B43450FD0EB
:10B8F000012DDBF800303BD1012C39D10899CDF86E
:10B90000008005311C6A32460823584609B2A04718
:10B910005846DBF80030DB6A11B0BDEC028BBDE8A5
:10B92000F04F184714FB02F206990A44049901915A
:10B930000094DB6918EE101A1F4658462B4612B2C7
:10B94000B847BBE7049A4245B8D0012D1FFA89F2E7
:10B9500007D1012C05D19B6906991F460A4443462D
:10B96000A8E714FB02F20699CDF804800A44DFE749
:10B970000B9AE40002EB8201089ACDF804800A4495
:10B9800011460094DC6932462B46584609B2A0475E
:10B99000BEE7137A5168FF1A1268FFB20B9231F8B2
:10B9A000372001EBC70306929A78012D0992DA78C5
:10B9B00093F906A00C9293F905200A9201D8012C64
:10B9C00057D9BDF9283008930FFA8AF307934FF03F
:10B9D0000008C1464746DBF8003058465B69984787
:10B9E000B3B20E931AFA86F30F930C9B9F428FD239
:10B9F000079B0E9A3B4403FB042300221BB208EE74
:10BA0000103A434605920F9A02EB070A0FFA8AFA98
:10BA1000099A0599914241D25A1CD2B25B070D9204
:10BA200007D1069B06990B9A01339BB212F801903D
:10BA3000069319F0800F12D0012DDBF80030BDF80D
:10BA40000C101AD1012C18D10A9A9B691144059A3D
:10BA50001E46114458465246049B09B2B047059E03
:10BA60004FEA49090136F3B205935FFA89F90D9B54
:10BA7000CEE70023CDE90733A9E70598089A0244E9
:10BA800002FB0511049A5846CDE90042DB6918EE25
:10BA9000102A1E4609B22B46B047E0E7099B013742
:10BAA00098445FFA88F8FFB29FE711B0BDEC028BB3
:10BAB000BDE8F08F1DF13F02F0B5026A04460B4667
:10BAC00085B0002A34D10A2908D1438A0282427EF5
:10BAD00003EBC2036382012005B0F0BD0D29FAD04B
:10BAE000E17E007E657E71B10621B4F9106011FB24
:10BAF0000061B4F90C60B142C1BFB4F912102282E6
:10BB000001EBC5026282E28ACDE902050192A28AB6
:10BB100020460092B4F91010B4F91220FFF75EFE2F
:10BB2000237E228A03EB430302EB43032382D2E703
:10BB30000A2907D100230382417E127B438A01FB3D
:10BB40000233C7E70D29C6D0157AA942C3D3917A2B
:10BB50009942C0D351685D1BEDB201EBC505A878D1
:10BB600028B3E97819B3E17E267E677E91B195F915
:10BB700005100844B4F9101006FB0011B4F90C00CC
:10BB8000814207DD00202082B4F91210127B02FBF3
:10BB900007126282E28A20460192A28ACDE90267F8
:10BBA0000092B4F91010B4F91220FFF717FE2979AA
:10BBB000227E238A01FB0233B8E742600022027230
:10BBC00020220170C260704710B5037A044653B159
:10BBD0002178606801F018FE606801F020FEB0FA7C
:10BBE00080F0400910BD012100F003F80028EFD1DA
:10BBF000F8E738B5044640680D4601F0D3FD012052
:10BC0000207225B12046BDE83840FFF7DDBF38BDC2
:10BC10002DE9F8431F46DDE90896C368154632440E
:10BC20009A420446884602D90020BDE8F88301788C
:10BC3000406801F0E9FD7EB960682A460368414624
:10BC4000DB6898478542EFD13946606801F0E3FD33
:10BC5000B0FA80F04009E8E7B9F1000FECD0606875
:10BC6000324603684946DB6898478642DCD1E3E701
:10BC70002DE9F041154604460E46D2B201784068DF
:10BC800001F0ADFD85420DD100271FFA87F8A845C8
:10BC900007F1010709D2606803685B69984706F8F5
:10BCA0000800F2E70020BDE8F0810120FBE72DE964
:10BCB000F84307468846164699460025B54212D2F3
:10BCC000FA68741B944228BF1446331BAB4294BFDE
:10BCD0004B4600232246384608EB0501FFF7C8FF14
:10BCE00010B12544EAE70120BDE8F8830022C0E94D
:10BCF0000212024A02604260704700BF0000C07F2B
:10BD00001FB50B0A8DF80C300023CDE900338DF8F8
:10BD10000D100123022203A9C068FFF779FF05B0C7
:10BD20005DF804FB13B504464FF22D31FFF7E8FF31
:10BD300001230322E06801A9FFF7B9FFBDF8040061
:10BD400040BA80B202B010BD08B543F2A201FFF7BD
:10BD5000D7FFBDE808400A2001F08CBC70B504464E
:10BD6000C0680E4610B11021FFF7CBF91020FFF785
:10BD7000C4F9054618B13146A268FFF71EFF01213C
:10BD80002846E560FFF735FF50B12046FFF7DCFF9E
:10BD90002046FFF7C7FF4FF6FF73C01A18BF0120F8
:10BDA00070BD704710B504461021FFF7AAF9204670
:10BDB00010BD0EB403B503AB53F8042B002101935F
:10BDC00001F0DFFE02B05DF804EB03B07047000045
:10BDD00073B5044622790846A36832B1A3B90B496A
:10BDE00002B0BDE8704001F091BE094A267B094DC2
:10BDF0000949647B012E18BF2946CDE90014074983
:10BE0000FFF7D7FF02B070BD054AEFE789F63F02A2
:10BE100080F63F0285F63F0281F63F029FF63F0221
:10BE200078F63F0210B5044B04460360C06A08B1BF
:10BE300001F0E8FB204610BD78FB3F0210B5044638
:10BE4000FFF7F0FF20467421FFF75BF9204610BD95
:10BE5000002910B54BDBB0F90C408C4247DD002ABD
:10BE600045DBB0F90E40944241DD847E022C1FD0A8
:10BE7000032C26D0012C04D1D243048914440A4651
:10BE800021B2012B23D0022B32D083BB1346002AD0
:10BE90000489B8BFD31DDB1013FB04110123C06A52
:10BEA00002F007029340425C22EA030242541EE081
:10BEB000D2430489013C611A448909B2224412B276
:10BEC000DFE74489013C641A114622B2D9E71346E0
:10BED000002A0489B8BFD31DDB1013FB0411C36A09
:10BEE00002F0070001228240585C02435A5410BD00
:10BEF0001346002A0489B8BFD31DDB1013FB0411BD
:10BF00000123C06A02F0070203FA02F2435C5A40BE
:10BF1000CCE7000070B504461D460026FFF7F4FB91
:10BF2000114B6662236015B902F0B2F90546FF2392
:10BF300084F8333084F836309DF910304FF6FF72B4
:10BF400084F83730059B2046A365069BC4E90A5652
:10BF5000E365064BA28663660123E66684F86830D3
:10BF6000A4F8706070BD00BF78FB3F02C4F63F02CA
:10BF700070B50446806A0D4690B194F9301001F016
:10BF800047FCA06A002103689B689847A06A29467D
:10BF900003689B689847A06ABDE8704001F03FBC09
:10BFA000226C206D136823EA00031360606A18B1E5
:10BFB000BDE8704001F0ECBE08228021A36BA66CA6
:10BFC00018680D4214BF3043B0431860E06BE66C54
:10BFD0000368013A43EA06030360E06BE66C03681A
:10BFE0004FEA510123EA06030360E7D170BD38B57B
:10BFF0000446806A0D4680B1A16D01F0CFFB002D93
:10C00000204614BFA721A621FFF7B2FFA06A88B17E
:10C01000E16DBDE8384001F0C1BB606A18B104F1C0
:10C02000640101F047FE626C616D136823EA01034D
:10C030001360E4E7626C616D13680B431360606A20
:10C0400018B1BDE8384001F01BBE38BDF8B5044654
:10C05000806A0D468F1840B394F9301001F0D8FB78
:10C06000A06A0021036801269B689847BD42A06A28
:10C0700017D01F2E0CD901F0D2FB94F93010A06A12
:10C0800001F0C6FBA06A0021036801269B6898475F
:10C09000A06A15F8011B036801369B689847B6B281
:10C0A000E4E7BDE8F84001F0BABB226C216D1368EB
:10C0B00023EA01031360BD4226D0606A15F8011B14
:10C0C00010B101F065FEF6E74FF0080E8020A36B7B
:10C0D000D4F848C01E68014214BF46EA0C0626EA9E
:10C0E0000C061E60E66BE26C3368BEF1010E43EA9B
:10C0F00002033360E66BE26C33684FEA500023EAD8
:10C1000002033360E3D1D6E7F8BDB0F90A3000216D
:10C11000DA1D48BF03F10E02B0F90830D2105A43BD
:10C12000C06A02F0AEB900002DE9FF411E46C36AA5
:10C1300004460F4615469DF82880C3B12046FFF7F8
:10C14000E4FFB4F90A00B4F90810202821DC202308
:10C150000122CDE901327323203800EBD07073390E
:10C16000009301EBD171B84B40F34F0221E0B0F9DD
:10C170000A30D81D48BF03F10E00B4F90830C010D2
:10C18000584301F031FAE0620028D7D104B0BDE88D
:10C19000F0814038C0F3C032402302FA80F201201F
:10C1A000CDE90130522352390093A84B01EBD171F4
:10C1B0005210204641F34F01FFF7BCFAA06A84F801
:10C1C0003170002800F09A80002D40F09580B4F97D
:10C1D0000A30202B0CBF3C253D2584F83050B8F1A7
:10C1E000000F01D001F0DEFAFEB194F9370000280B
:10C1F0001BDB012180B201F0F3FF94F9370001212C
:10C2000080B201F0FEFF012001F034FA94F937000A
:10C21000002180B201F0F5FF0A2001F02BFA94F919
:10C220003700012180B201F0ECFFA06A002800F085
:10C23000E580A16D01F0B2FA042220468449FFF79F
:10C2400005FF618920460139C9B2FFF791FE814996
:10C2500004222046FFF7FAFE94F931302046012BE4
:10C260000CBF10211421FFF783FE042220467A49D7
:10C27000FFF7ECFE8F23794A84F86030A36893427D
:10C2800000F0D48002F50012934240F0C48094F98B
:10C2900031301225012B0CBF9F23CF2384F860304F
:10C2A000DA212046FFF764FE29462046FFF760FEAC
:10C2B00081212046FFF75CFE204694F86010FFF7CE
:10C2C00057FED9212046FFF753FE94F9313020461E
:10C2D000012B0CBF2221F121FFF74AFE2046062246
:10C2E0005F49FFF7B3FEA06A002800F0A180E16D6E
:10C2F00001F054FA012049E76DB26EE794F9350078
:10C30000012180B201F06CFF94F93600012180B266
:10C3100001F066FF00F086FD94F93530514D03EBD6
:10C32000430310F8233055F82330236400F07AFDDE
:10C3300094F9353003EB430300EB83035B7823650B
:10C3400000F070FD94F9363003EB430310F823300E
:10C3500055F82330636400F065FD94F93630626C63
:10C3600003EB430300EB83035B78636511680B43C6
:10C370001360606A30B1B8F1000F3FF435AF01F0DF
:10C380006BFC31E794F93300012180B201F028FF02
:10C3900094F93400012180B201F022FF00F042FD47
:10C3A00094F9333003EB430310F8233055F823306E
:10C3B000A36300F037FD94F9333003EB430300EB44
:10C3C00083035B78A36400F02DFD94F9343003EB14
:10C3D000430310F8233055F82330E36300F022FDC7
:10C3E00094F93430E26B03EB430300EB8303597899
:10C3F000E164136823EA01031360F5E6606A18B18B
:10C4000004F1640101F056FC626C616D136823EA6B
:10C410000103136010E7144A934207D194F93130B5
:10C42000012B0CBF1023AF2384F86030022537E7BF
:10C43000626C616D13680B431360606A00283FF4FF
:10C4400059AF01F01DFC55E790F93F02D0F63F02CD
:10C45000D8FB3F02DCFB3F02E0FB3F0280002000F4
:10C46000E4FB3F0224001C106000100070B5002A9D
:10C47000BDF810503FDBB0F90A4094423BDD002983
:10C48000BEBF5B1800211BB2B0F90840CE18A6420F
:10C49000C4BF631A1BB2002B2DDDD61014FB06118E
:10C4A000C06A012D014402F007004FF0010202FAB8
:10C4B00000F2D2B216D0022D0BD0E5B9D2430B4414
:10C4C000D2B2994217D011F8010B104001F8010CBB
:10C4D000F7E70B4499420ED011F8010B504001F8D8
:10C4E000010CF7E70B44994205D011F8010B1043FA
:10C4F00001F8010CF7E770BDF0B50029BDF8145044
:10C5000077DBB0F90860B14273DA002ABEBF9B182E
:10C5100000221BB2B0F90A40D718A742C4BFA31A21
:10C520001BB2002B65DDC2F3C40416FB0416C76AF8
:10C5300012F00702DBB207EB060424D0C2F10802B6
:10C54000D2B2934238BF4FF0FF0C2C4938BFA2EB58
:10C55000030E895C3CBF4CFA0EFC0CEA0101012D74
:10C5600007D0022D2ED04DB917F806C02CEA0101D4
:10C5700003E017F806C041EA0C01B955934238D3DD
:10C58000B0F908100C449A1AD2B2072A0ED9022D1B
:10C590001DD113462178083BC9432170B0F908101A
:10C5A000DBB2072B0C44F5D802F007020AB3144B98
:10C5B000012D9B5C1AD0022D1CD0D5B9227822EA1D
:10C5C000030315E017F806C081EA0C01D5E7291E20
:10C5D00018BF012113464942C9B22170083BB0F986
:10C5E0000860DBB2072B3444F7D8DDE72278134329
:10C5F0002370F0BD22785340FAE700BFC8FB3F022A
:10C60000D0FB3F0270B41446827EBDF80C60022A53
:10C610000DD0032A18D0012A11D1E4430289144411
:10C6200024B20A460396214670BCFFF765BFE44377
:10C630004289058919441444691A24B209B2224670
:10C64000039670BCFFF712BF45891944691A09B2F5
:10C65000E7E730B41446827EBDF80850022A0DD0B8
:10C66000032A18D0012A11D1E2180489A41A24B28D
:10C670000A460295214630BCFFF7F8BEC94302893D
:10C680001144E218448909B2A41A24B22246029540
:10C6900030BCFFF731BFC9434289114409B2E7E713
:10C6A00038B50446806A0D4698B1A16D01F076F860
:10C6B00081212046FFF75CFCC5B994F86010204644
:10C6C000FFF756FCA06A98B1E16DBDE8384001F073
:10C6D00065B8606A18B104F1640101F0EBFA626CAC
:10C6E000616D136823EA01031360E1E70021E6E7C7
:10C6F000626C616D13680B431360606A18B1BDE82A
:10C70000384001F0BDBA38BD13B50A4CD4E88F1FCC
:10C7100011F001010BD120460191FEF701FD0199B5
:10C7200028B1054801F08EFA2046FEF7FEFC0248CB
:10C7300002B010BD5CAE071060AE071013B5036801
:10C740008DF804101C68012301A91A46A0479DF822
:10C75000040002B010BD13B503688DF804108DF805
:10C7600005201C680222002301A9A04702B010BDC9
:10C770002DE9F84301259846144606460F46DDF894
:10C780002090FFF7DBFF05FA09F5013D05FA08F5F2
:10C7900004FA08F420EA0500E4B2C2B22C4039469B
:10C7A00030462243BDE8F843FFF7D5BF0021FFF72D
:10C7B000C5BF032307B50A46009343210023FFF7B3
:10C7C000D7FF03B05DF804FB042307B50A460093C6
:10C7D00041210023FFF7CCFF03B05DF804FB73B5E4
:10C7E0000446B6227E21FFF7B6FF012000F042FF8B
:10C7F0007F212046FFF7A2FF012000F03BFF11221E
:10C800007E212046FFF7A7FF012000F033FF032120
:10C810002046FFF793FFC0F30115012DF4D1204608
:10C8200015227E21FFF797FF284600F023FF032102
:10C830002046FFF783FFC0F38105012D01D00120C1
:10C84000F3E7022603212046FFF7B3FF032120462A
:10C85000FFF7BAFF19227E212046FFF77CFF3C201C
:10C8600000F008FF402269212046FFF774FF3722BD
:10C870007E212046FFF76FFF9A227E212046FFF798
:10C880006AFFC0227E212046FFF765FF90227F21AC
:10C890002046FFF760FF042332460521204600961C
:10C8A000FFF766FF80227F212046FFF754FF2022FA
:10C8B0004B212046FFF74FFF83224C212046FFF7F4
:10C8C0004AFF042332466B2120460096FFF750FFB3
:10C8D0002A464F212046FFF73EFF4B224E2120469D
:10C8E000FFF739FF032000F0C5FE04224F21204648
:10C8F000FFF731FF51224E212046FFF72CFF0E2279
:10C900004F212046FFF727FF52224E212046FFF7F6
:10C9100022FF32464F212046FFF71DFF4C224E21B9
:10C920002046FFF718FF42224D212046FFF713FF54
:10C93000062244212046FFF70EFF072300224C2148
:10C9400020460095FFF714FF03212046FFF7F6FE6F
:10C9500000F00300012803D0012000F08BFEF3E774
:10C960002046FF225521FFF7F6FE2046F0225621F1
:10C97000FFF7F1FE00225721204602B0BDE87040CB
:10C98000FFF7E9BE70B506460C4615462AB9BDE864
:10C9900070400368C9B29B68184700290BDA0A2A5D
:10C9A00009D12D2101F0B6F861423046EAB2BDE866
:10C9B000704001F0C8B82146F7E7000038B50D1EF9
:10C9C00004461ADB856001F0C3FA0E4901F09EF8B7
:10C9D00001F0BEFA0A222946FFF7D4FF01F0B8FAA7
:10C9E000094901F093F801F0B3FA05460A22A1685B
:10C9F000FFF7C8FF284601F090F82046BDE8384010
:10CA000000F0B4B9EAFB3F0209FC3F0210B40C4647
:10CA1000012C01990475826105D0022C08D00020F8
:10CA20005DF8044B7047C3605DF8044BFFF7C6BF69
:10CA30000361F9E738B5044601F08AFA144901F0B8
:10CA400078F8A069E16800F0E3FEA06900F0E7FE75
:10CA500020B101F07DFA0F4901F06BF82046FFF795
:10CA6000A5FE054601F074FA0B4901F04FF801F0FC
:10CA70006FFA044629461022FFF784FF204601F092
:10CA80004CF801F065FABDE83840044901F051B8AE
:10CA900018FC3F0236FC3F025EFC3F0287FC3F026F
:10CAA0002DE9F0410C4617461E46054601F050FAA6
:10CAB000324901F02BF801F04BFA1022217801F0F5
:10CAC00042F801F045FA2E4901F020F801F040FA51
:10CAD0000A22394601F037F801F03AFA294901F003
:10CAE00015F801F035FA0A22314601F02CF801F070
:10CAF0002FFA254901F00AF8E968A86900F088FED4
:10CB0000A0462744B845A86905D0036818F8011B5A
:10CB10009B689847F6E700F082FE20B101F018FA12
:10CB20001A4901F006F80EB33246297BA86900F0D5
:10CB300068FEDFF860802644A86903681B6998478F
:10CB4000A0B1B44212D0A86903685B699847074650
:10CB500004F8010B01F0FCF9414600F0D7FF01F0A9
:10CB6000F7F91022F9B2FFF70DFFE5E701F0F0F950
:10CB7000074900F0DEFF0020BDE8F081A9FC3F027C
:10CB8000BAFC3F02C0FC3F02C6FC3F02C9FC3F02A8
:10CB900080F63F027FF63F0210B5044601F0D8F957
:10CBA0000D4900F0C6FFFFF7AFFD01F055F8206911
:10CBB00000280ADB012180B201F012FB01F0C8F964
:10CBC000BDE81040054900F0B4BF01F0C1F90449C7
:10CBD00000F0AFFFF2E700BFE8FC3F0249FD3F0273
:10CBE00006FD3F0290F91430012B02D0022B02D037
:10CBF0007047FFF71FBFFFF7CFBF00002DE9F341DC
:10CC00000C4616461D46074601F0A2F9354900F0CC
:10CC10007DFF01F09DF91022214600F094FF01F004
:10CC200097F9314900F072FF01F092F91022217852
:10CC300000F089FF01F08CF92C4900F067FF01F04A
:10CC400087F90A22314600F07EFF01F081F9274979
:10CC500000F05CFF01F07CF90A22294600F073FF26
:10CC600001F076F9224900F051FF3869002803DB12
:10CC7000002180B201F0C5FAA0462644464518D1ED
:10CC8000DFF874802544AC421CD0FFF73DFD002145
:10CC900001F07EF8064604F8010B01F059F941460F
:10CCA00000F034FF01F054F910223146FFF76AFE1C
:10CCB000E9E718F8011B0191FFF726FD019901F042
:10CCC00067F8DBE73869002803DB012180B201F057
:10CCD00098FA01F03DF9074900F02BFF002002B05F
:10CCE000BDE8F0816BFD3F0207FC3F0285FD3F027E
:10CCF000C6FC3F0280F63F027FF63F02F0B490F997
:10CD000014C00546BCF1010F0C4617461E4605D05F
:10CD1000BCF1020F05D0F0BC00207047F0BCFFF75B
:10CD2000BFBE1BB10B7863F07F030B7033463A46EE
:10CD300021462846F0BCFFF761BF0000044B054ABE
:10CD40001A604FF0FF32C3E902221A61704700BF38
:10CD500068AE071090FD3F0270470020704710B486
:10CD60000468A468A4465DF8044B604737B50368BF
:10CD700004465B6898477F238DF8073023680DF1E0
:10CD800007011D68012320461A46A8472046FFF7E1
:10CD900026FD2046FFF70AFDA0F1D1035842584175
:10CDA00003B030BD014B024A1A60704784AE0710D1
:10CDB000A4FD3F0209B504480068044B03441B6806
:10CDC0005B6C029309BD000030AD0710300000001D
:10CDD00009B504480068044B03441B685B68029370
:10CDE00009BD000030AD07100000000009B504487F
:10CDF0000068044B03441B68DB68029309BD000014
:10CE000030AD07100000000009B504480068044B6D
:10CE100003441B685B69029309BD000030AD071035
:10CE20000000000009B504480068044B03441B6877
:10CE30001B68029309BD000030AD0710140000000C
:10CE400009B504480068044B03441B689B680293BF
:10CE500009BD000030AD07101400000009B50448FA
:10CE60000068044B03441B68DB68029309BD0000A3
:10CE700030AD07101400000009B504480068044BE9
:10CE800003441B681B69029309BD000030AD071005
:10CE90001400000009B504480068044B03441B68F3
:10CEA0005B69029309BD000030AD0710140000005B
:10CEB00009B504480068044B03441B681B680293CF
:10CEC00009BD000030AD07101000000009B504488E
:10CED0000068044B03441B68DB68029309BD000033
:10CEE00030AD07101000000009B504480068044B7D
:10CEF00003441B689B69029309BD000030AD071015
:10CF00001000000009B504480068044B03441B6886
:10CF1000DB69029309BD000030AD0710100000006E
:10CF200009B504480068044B03441B681B6A02935C
:10CF300009BD000030AD07101000000009B504481D
:10CF40000068044B03441B685B6A029309BD000040
:10CF500030AD07101000000009B504480068044B0C
:10CF600003441B689B6A029309BD000030AD0710A3
:10CF70001000000009B504480068044B03441B6816
:10CF8000DB6A029309BD000030AD071010000000FD
:10CF900009B504480068044B03441B681B6B0293EB
:10CFA00009BD000030AD07101000000009B50448AD
:10CFB0000068044B03441B685B6B029309BD0000CF
:10CFC00030AD07101000000009B504480068044B9C
:10CFD00003441B681B6C029309BD000030AD0710B1
:10CFE0001000000009B504480068044B03441B68A6
:10CFF0001B6D029309BD000030AD0710100000004A
:10D0000009B504480068044B03441B685B6902933C
:10D0100009BD000030AD07104C00000009B5044800
:10D020000068044B03441B689B68029309BD000021
:10D0300030AD07105000000009B504480068044BEB
:10D0400003441B68DB68029309BD000030AD071084
:10D050005000000009B504480068044B03441B68F5
:10D060001B68029309BD000030AD071018000000D6
:10D0700009B504480068044B03441B685B690293CC
:10D0800009BD000030AD07101800000009B50448C4
:10D090000068044B03441B68DB69029309BD000070
:10D0A00030AD07101800000009B504480068044BB3
:10D0B00003441B681B6A029309BD000030AD0710D2
:10D0C0001800000009B504480068044B03441B68BD
:10D0D0005B6A029309BD000030AD07101800000024
:10D0E00009B504480068044B03441B68DB6B0293DA
:10D0F00009BD000030AD07101800000009B5044854
:10D100000068044B03441B681B6C029309BD0000BC
:10D1100030AD07101800000009B504480068044B42
:10D1200003441B685B6C029309BD000030AD07101F
:10D130001800000009B504480068044B03441B684C
:10D14000DB68029309BD000030AD07102400000029
:10D1500009B504480068044B03441B681B6902932B
:10D1600009BD000030AD07102400000009B50448D7
:10D170000068044B03441B685B69029309BD00000F
:10D1800030AD07102400000009B504480068044BC6
:10D1900003441B689B69029309BD000030AD071072
:10D1A0002400000009B504480068044B03441B68D0
:10D1B000DB69029309BD000030AD071024000000B8
:10D1C00009B504480068044B03441B681B6A0293BA
:10D1D00009BD000030AD07102400000009B5044867
:10D1E0000068044B03441B689B6A029309BD00005E
:10D1F00030AD07102400000009B504480068044B56
:10D2000003441B68DB6A029309BD000030AD0710C0
:10D210002400000009B504480068044B03441B685F
:10D220001B6C029309BD000030AD07102400000004
:10D2300009B504480068044B03441B681B6802934B
:10D2400009BD000030AD07103400000009B50448E6
:10D250000068044B03441B685B68029309BD00002F
:10D2600030AD07103400000009B504480068044BD5
:10D2700003441B681B69029309BD000030AD071011
:10D280003400000009B504480068044B03441B68DF
:10D290005B69029309BD000030AD07103400000047
:10D2A00009B504480068044B03441B689B6902935A
:10D2B00009BD000030AD07103400000009B5044876
:10D2C0000068044B03441B68DB69029309BD00003E
:10D2D00030AD07103400000009B504480068044B65
:10D2E00003441B681B6A029309BD000030AD0710A0
:10D2F0003400000009B504480068044B03441B686F
:10D300009B6A029309BD000030AD07103400000095
:10D3100009B504480068044B03441B685B6802932A
:10D3200009BD000030AD07104800000009B50448F1
:10D330000068044B03441B689B68029309BD00000E
:10D3400030AD07104800000009B504480068044BE0
:10D3500003441B68DB68029309BD000030AD071071
:10D360004800000009B504480068044B03441B68EA
:10D370009B69029309BD000030AD07104800000012
:10D3800009B504480068044B03441B68DB69029339
:10D3900009BD000030AD07104800000009B5044881
:10D3A0000068044B03441B685B6B029309BD0000DB
:10D3B00030AD07104800000009B504480068044B70
:10D3C00003441B685B68029309BD000030AD071081
:10D3D0000800000009B504480068044B03441B68BA
:10D3E0005B69029309BD000030AD07100800000022
:10D3F00009B504480068044B03441B68D3F888301F
:10D40000029309BD30AD07100800000009B50448BB
:10D410000068044B03441B68D3F89430029309BDA1
:10D4200030AD07100800000009B504480068044B3F
:10D4300003441B689B68029309BD000030AD0710D0
:10D440002C00000009B504480068044B03441B6825
:10D45000DB6B029309BD000030AD07102C0000000B
:10D4600009B504480068044B03441B685B680293D9
:10D4700009BD000030AD07102800000009B50448C0
:10D480000068044B03441B689B68029309BD0000BD
:10D4900030AD07102800000009B504480068044BAF
:10D4A00003441B68DB68029309BD000030AD071020
:10D4B0002800000009B504480068044B03441B68B9
:10D4C0001B69029309BD000030AD07102800000061
:10D4D00009B504480068044B03441B685B69029368
:10D4E00009BD000030AD07102800000009B5044850
:10D4F0000068044B03441B689B69029309BD00004C
:10D5000030AD07102800000009B504480068044B3E
:10D5100003441B68DB69029309BD000030AD0710AE
:10D520002800000009B504480068044B03441B6848
:10D530001B6A029309BD000030AD071028000000EF
:10D5400009B504480068044B03441B681B6B029335
:10D5500009BD000030AD07102800000009B50448DF
:10D560000068044B03441B685B6B029309BD000019
:10D5700030AD07102800000009B504480068044BCE
:10D5800003441B681B6C029309BD000030AD0710FB
:10D590002800000009B504480068044B03441B68D8
:10D5A0005B6C029309BD000030AD0710280000003D
:10D5B00009B504480068044B03441B685B6D029383
:10D5C00009BD000030AD07102800000009B504486F
:10D5D0000068044B03441B689B6D029309BD000067
:10D5E00030AD07102800000009B504480068044B5E
:10D5F00003441B681B68029309BD000030AD07108F
:10D600000400000009B504480068044B03441B688B
:10D610005B68029309BD000030AD071004000000F4
:10D6200009B504480068044B03441B685B6A029315
:10D6300009BD000030AD07100400000009B5044822
:10D640000068044B03441B681B6C029309BD000077
:10D6500030AD07100400000009B504480068044B11
:10D6600003441B685B6C029309BD000030AD0710DA
:10D67000040000000021FFF7ADBE000000230248B7
:10D680000360FFF797BB00BF8CAE07100022406815
:10D690001146FFF747BF002240681146FFF75EBF03
:10D6A00000224068FFF74CBF0022406881F0010172
:10D6B000FFF72ABF002340681A461946FFF716BF36
:10D6C000002340681A461946FFF702BF002240684F
:10D6D0001146FFF7EFBE002240681146FFF7CEBEAD
:10D6E000002202214068FFF7D7BE002340681A4697
:10D6F000FFF7B6BE0322024B5A60024A1A60704717
:10D7000090AE0710B8FD3F027047F8B506461546C3
:10D710000C468F18BC4206D0336830469B6814F81C
:10D72000011B9847F6E72846F8BD0022007CFFF76A
:10D73000F7BB0021007CFFF701BC0021007CFFF754
:10D740000BBC0021007CFFF715BC0021007CFFF71B
:10D750001FBC10B504461421FDF7D3FC204610BDB4
:10D7600038B5044615464FF47A730022C4E9012304
:10D77000094B0846217423602946FFF725FCBF307A
:10D7800008D16B69DB0705D56868FFF73BFFE868E0
:10D79000FFF738FF204638BDFCFD3F020022007C29
:10D7A000FFF786BB0023007C1A461946FFF78EBBA5
:10D7B0007FB500221423CDE90122ADF804300B78A7
:10D7C000007C8DF808304B680393CB6804930B7A88
:10D7D00001A90593FFF706FC07B05DF804FB1FB530
:10D7E000003B8DF800104FF0640118BF0123039136
:10D7F000694601928DF80830FFF7DAFF05B05DF851
:10D8000004FB0123FFF7EBBF0022007CFFF76CBB9A
:10D81000C9B2FFF7F9BF0022007CFFF773BB0121FB
:10D82000FFF7F9BF704710B504461821FDF769FCF2
:10D83000204610BDF0B5037D0E46062B4FF00004C8
:10D840008DB000F1040712D000F1080515F8011D94
:10D850000A22304600F077F9AF42044419D0002C78
:10D86000F4D02E21304600F055F90444EEE72F2382
:10D870006A4639460A208DF80040FFF7C1FB68462A
:10D88000FDF716FC3368024669463046DB68984768
:10D89000044620460DB0F0BD10B50446044B1122DD
:10D8A000002140F8043B00F0ECFD204610BD00BF15
:10D8B00024FE3F020346074A10B543F8042B01F14A
:10D8C000100251F8044B914243F8044BF9D10A7805
:10D8D0001A7010BD24FE3F0210B59DF8084044EABE
:10D8E000032343EA0242042342EA016141600375D3
:10D8F00010BD000007B5064B0360CB7800938B7812
:10D900004A780978FFF7E8FF03B05DF804FB00BF31
:10D9100024FE3F02014B024A1A60704798AE07107E
:10D9200030FE3F02002340681A46FFF799BD0022EF
:10D9300002214068FFF7B0BD002240681146FFF7A2
:10D940009DBD002240681146FFF7B4BD002340682A
:10D950001A461946FFF7BCBD002340681A4619460F
:10D96000FFF7C4BD00214068FFF706BE00214068F4
:10D97000FFF710BE0022406881F00101FFF7C4BD2F
:10D9800000224068FFF7DCBD002240681146FFF727
:10D99000E5BD002240681146FFF7C4BD0021406884
:10D9A000FFF714BE2DE9F04395B014460D46074627
:10D9B000FFF772FF00211C220DA8009100F061FD0D
:10D9C000402320460C9300216B460CAAFFF734FB42
:10D9D000044600284BD1024601216868FFF76AFD22
:10D9E0000221804622466868FFF764FD2146814691
:10D9F000009E002E3BD0002939D17368022B03D042
:10DA00000A2B11D0F669F4E7B8F1000FFAD071696A
:10DA100006A804313C1D07ADFFF76CFF0FCD0FC406
:10DA20002B6841462370EDE7B9F1000FEAD01022D0
:10DA300001A8746900F025FD062301AD8DF81430AE
:10DA400004F1080318342A4618685968083303C2D9
:10DA5000A3421546F7D101A906A83C1D07ADFFF763
:10DA600029FF0FCD0FC42B6849462370CAE70098E1
:10DA7000FFF7D4FA384615B0BDE8F0830338022822
:10DA80009ABF024B53F820000148704734FE3F0212
:10DA90009CAE071008B500224068FFF789FDBDE87D
:10DAA0000840FFF7EBBF0000024B034A1A60002258
:10DAB0005A6070479CAE071048FE3F02F8B5064614
:10DAC0000D4600248F18BD420CD0336830469B6849
:10DAD00015F8011B9847031E01DB1C44F3E7002CDB
:10DAE00008BF1C462046F8BD13B50446084659B188
:10DAF0000191FDF7DDFA0246204623680199DB68B3
:10DB000002B0BDE81040184702B010BD08B5FFF7DD
:10DB1000EBFF08BD03689B68184738B50D21054623
:10DB2000FFF7F8FF0A2104462846FFF7F3FF2044D9
:10DB300038BD38B50546FFF7D7FF04462846FFF73E
:10DB4000ECFF204438BD0023012A98BF0A2230B5DB
:10DB50008BB08DF8243009AC0D46B1FBF2F101FB1E
:10DB6000125303F0FF03092B94BF30333733DBB27A
:10DB7000AA4204F8013DEFD92146FFF7B5FF0BB0EB
:10DB800030BD2DE9F04186B000AF05460E46381D88
:10DB9000142114463B60FFF743FD13280ED8284696
:10DBA000391DFFF7A1FF04461EB12846FFF7B5FF58
:10DBB000044420461837BD46BDE8F08100F1080353
:10DBC00023F00703E846ADEB030D2246411C3B68FA
:10DBD0006846FFF725FD69462846FFF785FF04469E
:10DBE000C546E1E710B50446FFF7BCFB844208D008
:10DBF0001CB1BDE81040FFF799BBBDE81040FFF72E
:10DC0000A3BB10BD70B505460E461446FFF7AAFB30
:10DC100050B144EA062444EA0540FFF779FBBDE829
:10DC20007040E720FFF7ACBB70BD00000022014B45
:10DC30009A607047A4AE07100021FFF76DBA00216B
:10DC4000FFF75CBA10B5044608462170FFF71EFACC
:10DC500000232046636010BD13B504460078FFF72B
:10DC6000EEFF58B920784FF6FF710190FFF7F2F9F7
:10DC7000019802B0BDE81040FFF7DEBF02B010BD52
:10DC80000078FFF7D9BF000030B5002440081860C5
:10DC90001868E5B2884206D90134082C02D0400841
:10DCA0001860F5E70725024B5B5D137030BD00BFC0
:10DCB00084FE3F022DE9F04306468FB000780C4603
:10DCC000FFF7BDFF00281BDB1422002109A83578CF
:10DCD00000F0D7FB0B230022284609A9ADF8243019
:10DCE000FFF7F0F99DF82D3013B19DF82C5055B188
:10DCF00000270125B946B84623795DB1C3B100209C
:10DD00000FB0BDE8F083DDF830809DF834909DF8C9
:10DD10003570F1E7002B35D1A368434508D18DF864
:10DD200020908DF82170BDF82020A3899A42E6D07A
:10DD30000023A1688DF80F300A9804AB0DF10F0293
:10DD4000FFF7A2FF217985B989B9A36843450ED3AE
:10DD50008DF820908DF82170BDF82020A3899A427B
:10DD600005D1049B434502D1C9E70029F9D100231D
:10DD70000193637B9DF80F200093237B3078FFF79E
:10DD8000AFF9BCE72B462A460121CDE90055F5E75E
:10DD900008B50078FFF76CF9C0B208BD0222002078
:10DDA000044B1A60044B054AC3E900009A60FFF770
:10DDB00003BB00BFC0AE0710B4AE07100000FFFFEA
:10DDC000024B1A68024B1A60704700BF34AD07104F
:10DDD000C4AE071070474174704708B5007CFFF768
:10DDE000FDF920EAE07008BD08B5007CFFF7B0F946
:10DDF00020EAE07008BD08B5007CFFF7C5F940EAED
:10DE0000E07008BD08B5007CFFF7B0F940EAE070AB
:10DE100008BD007CFFF7C6B937B5457C04462DB177
:10DE2000207C03B0BDE83040FFF784B9007C01914D
:10DE3000FFF7D4F900280199F2DC284603B030BD81
:10DE400010B504461421FDF75CF9204610BD000012
:10DE500010B54FF47A730446084611460022C4E90F
:10DE60000123044B2074236001236374FFF7D2F96C
:10DE7000204610BDB0FE3F020023007CFFF7BCB976
:10DE80000022FFF7F9BF007CFFF79AB94174704791
:10DE90007047704708B50021007CFFF701FA40EA9F
:10DEA000E07008BD08B50121007CFFF7F9F940EAF0
:10DEB000E07008BD08B5007CFFF7E4F920EAE070E7
:10DEC00008BD08B5007CFFF7CFF920EAE07008BD77
:10DED00013B50446007C0191FFF7D4F9002801999D
:10DEE00001DC607C20B1207CFFF7E8F920EAE070DB
:10DEF00002B010BD007CFFF7EFB910B50446142145
:10DF0000FDF7FFF8204610BD10B54FF47A730446B4
:10DF100008460021C4E90113044B20742360012347
:10DF200011466374FFF784F9204610BDE0FE3F02FE
:10DF30000022007CFFF78AB9007CFFF7DBB910B53F
:10DF400004461422002100F09CFA204610BD000077
:10DF500010B588B003A8FFF7F2FF0C4CD4E88F1F70
:10DF600011F001010FD120460191FDF7D9F8019977
:10DF700048B103AA0648FFF7C7FF2046FDF7D5F8CA
:10DF8000044800F06BFA024808B010BDC8AE071094
:10DF9000CCAE071081E93F02002240681146FFF72E
:10DFA00089BA002240681146FFF7BCBA00224068D7
:10DFB0001146FFF7D3BA00224068FFF7C1BA00222A
:10DFC000406881F00101FFF79FBA002340681A46BC
:10DFD0001946FFF78BBA002340681A461946FFF727
:10DFE00077BA002240681146FFF748BA00220221A2
:10DFF0004068FFF751BA002340681A46FFF730BA6D
:10E000000422024B5A60024A1A607047E0AE0710C1
:10E0100010FF3F02014B1860704700BF38AD07107A
:10E0200008B50F4B43B1FFF793FF03681B6998478F
:10E03000002801DD00E000BF0A4B43B100F07CF98D
:10E0400003681B699847002801DD00E000BF064B0C
:10E050000BB100F0B7F9054B0BB100F0E9F908BDC1
:10E0600000000000000000000000000000000000B0
:10E0700008B5FFF7D5FFFEF7C7FE014B186008BDD6
:10E08000F0AE07100548064A08B5121A054900F017
:10E09000EBF9054B054A1A6008BD00BF00B4071034
:10E0A00004B4071070F55F0800B407101E1C279A0F
:10E0B000002307B51A466FF077010093FFF7A6F922
:10E0C00003B05DF804FB000007B543880A2B08D0B5
:10E0D000502B0BD1094B1B684BB103B05DF804EB1F
:10E0E0001847FFF7E5FF03B05DF804FB00231A466D
:10E0F0006FF077010093FFF789F9F4E7ECAE0710B2
:10E10000002110B51148FFF7A7FA114B1A68114BFF
:10E110009A420CBF012200220F4B1A7001D0FFF768
:10E12000B1FFFEF755FE044600F0B4F90B4B13B1F6
:10E13000204600E000BF00210848FFF783F9BDE852
:10E14000104000210648FFF753B900BF05EB3F021E
:10E1500000B407101E1C279AE8AE0710000000004C
:10E16000B9EB3F021B2837B5044602D9002003B0A3
:10E1700030BDA0F10F03022B0BD9012821D800F0EC
:10E1800087F80021007CFEF711FF80F00100C0B28B
:10E19000EDE7114DD5E88F1F11F001010BD1284695
:10E1A0000191FCF7BDFF019928B10C48FFF74AFD2A
:10E1B0002846FCF7BAFF094B1878FEF775FF0028D0
:10E1C000D4D1083C012C05D800F0B6F8007CFEF74D
:10E1D000F7FFDAE70120CAE75CAE071060AE071070
:10E1E0001B2838B504460D460AD8FF2908D0FFF78A
:10E1F000B9FF28B129462046BDE83840FEF720BEC9
:10E2000038BD38B504460D46FEF728FEFF2810D06D
:10E21000062804D84D2323FA00F0C30709D420466A
:10E22000FFF7A0FF28B129462046BDE83840FEF799
:10E2300023BE38BD10B50446FEF710FE031FDBB247
:10E24000012B08D92046FFF78DFF20B12046BDE8FD
:10E250001040FEF71FBE002010BD704738B50A4BB6
:10E2600004460360012309494361202000F0F4F8CB
:10E270002025606005492846A56000F0EDF8C4E956
:10E280000305204638BD00BF180001004CFF3F02C7
:10E2900030B50E4D87B0D5E88F1F11F0010411D1B4
:10E2A0002846FCF73DFF68B16846FFF7D7FF6A468E
:10E2B00021460748FFF754FA2846FCF736FF054881
:10E2C00000F0CCF8024807B030BD00BFF4AE071034
:10E2D000F8AE07104BED3F027047000038B514252B
:10E2E00004462A46002100F0CCF825804025074945
:10E2F00028462581258200F0AFF804496060284651
:10E3000000F0AAF8E060204638BD00BF4CFF3F0295
:10E310007047704710B50446FFF7E0FF204610BD78
:10E3200010B50446FFF7DAFF204610BD10B50446CD
:10E33000FFF7D4FF204610BD30B50E4D87B0D5E8AD
:10E340008F1F11F0010411D12846FCF7E9FE68B1D6
:10E3500001A8FFF7DFFF214601AA0748FFF778FD74
:10E360002846FCF7E2FE054800F078F8024807B0BE
:10E3700030BD00BF0CAF071018AF0710C9ED3F024A
:10E3800010B50D4C86B0D4E88F3FDB0711D4204682
:10E39000FCF7C6FE68B101A8FFF7C2FF012101AA80
:10E3A0000648FFF755FD2046FCF7BFFE044800F085
:10E3B00055F8024806B010BD10AF07102CAF07107B
:10E3C00003EE3F0210B5FFF7DBFF074B044653B1E6
:10E3D000FFF759FD38B1236820461B69984700288C
:10E3E00001DD00E000BF10BD0000000010B50D4CC5
:10E3F00086B0D4E88F3FDB0711D42046FCF790FEAF
:10E4000068B101A8FFF792FF022101AA0648FFF7B1
:10E410001FFD2046FCF789FE044800F01FF8024863
:10E4200006B010BD14AF071040AF071001EE3F0259
:10E4300010B5FFF7DBFF074B044653B1FFF723FD91
:10E4400038B1236820461B699847002801DD00E0A9
:10E4500000BF10BD00000000FCF751BE00230146C4
:10E460001A46184600F044B80A44431E914200D1AF
:10E47000704710B511F8014B914203F8014FF9D1E3
:10E4800010BD02440346934200D1704703F8011BBC
:10E49000F9E7000038B5104B04461D68AB6BB3B903
:10E4A0001820FFF7A1F80246A86320B90B4B4221C0
:10E4B0000B48FFF7C3F80B490B4BC0E900130B4B9C
:10E4C000002183600B2383810120C2E90401AB6B2F
:10E4D00000221C615A6138BD38AD07104DFF3F0264
:10E4E00064FF3F020E33CDAB34126DE6ECDE050067
:10E4F0002DE9F843DFF8BC8006461F460D46D8F8E4
:10E500000000914600F058F8264B1C6834B9264CA0
:10E510001C60264B13B11B68C4F8883063681F2B3E
:10E5200007DDD8F8000000F049F84FF0FF30BDE8F3
:10E53000F8835EB3D4F8880088B91D4B23B9D8F8A6
:10E54000000000F03AF8F0E74FF48470FFF74CF861
:10E550000028F4D00023C0E94033C4F88800636881
:10E560000122022E40F8239002FA03F200EB83010D
:10E57000D0F8003143EA0203C0F80031C1F88070DE
:10E5800002BFD0F804311343C0F804316368D8F8EF
:10E5900000005A1C0233626044F8235000F00EF869
:10E5A0000020C4E7E0AF071054AF071000000000E0
:10E5B000D9E03F029CAD07107047704770470000DC
:10E5C000B1BB3F02D9BB3F02DDBB3F0200000000F0
:10E5D00043616C6C206F6E20707572652076697275
:10E5E0007475616C00436F756C646E277420666986
:10E5F0006E6420534854333100436F756C646E274A
:10E60000742066696E64207373643133303600435E
:10E610006F6F756C646E27742066696E6420424D5E
:10E620004931363000707265737365640000000014
:10E6300000003E5B4F5B3E3E6B4F6B3E1C3E7C3EA4
:10E640001C183C7E3C181C577D571C1C5E7F5E1CB2
:10E6500000183C1800FFE7C3E7FF0018241800FF6C
:10E66000E7DBE7FF30483A060E2629792926407F66
:10E67000050507407F05253F5A3CE73C5A7F3E1C75
:10E680001C08081C1C3E7F14227F22145F5F005F61
:10E690005F06097F017F006689956A60606060603F
:10E6A00094A2FFA29408047E040810207E20100883
:10E6B000082A1C08081C2A08081E101010100C1E1E
:10E6C0000C1E0C30383E3830060E3E0E06000000A0
:10E6D000000000005F00000007000700147F147FA7
:10E6E00014242A7F2A1223130864623649562050C4
:10E6F0000008070300001C2241000041221C002AE0
:10E700001C7F1C2A08083E0808008070300008089A
:10E71000080808000060600020100804023E51490B
:10E72000453E00427F400072494949462141494DDA
:10E73000331814127F1027454545393C4A49493161
:10E7400041211109073649494936464949291E00E0
:10E75000001400000040340000000814224114148A
:10E76000141414004122140802015909063E415DA7
:10E77000594E7C1211127C7F494949363E41414134
:10E78000227F4141413E7F494949417F09090901B1
:10E790003E414151737F0808087F00417F410020BE
:10E7A00040413F017F081422417F404040407F02AA
:10E7B0001C027F7F0408107F3E4141413E7F0909D2
:10E7C00009063E4151215E7F0919294626494949DA
:10E7D0003203017F01033F4040403F1F2040201F84
:10E7E0003F4038403F631408146303047804036116
:10E7F00059494D43007F4141410204081020004126
:10E8000041417F04020102044040404040000307B0
:10E81000080020545478407F284444383844444405
:10E8200028384444287F385454541800087E09027C
:10E8300018A4A49C787F0804047800447D4000203C
:10E8400040403D007F1028440000417F40007C0490
:10E850007804787C080404783844444438FC18244C
:10E86000241818242418FC7C080404084854545420
:10E870002404043F44243C4040207C1C2040201CB5
:10E880003C4030403C44281028444C9090907C44BC
:10E8900064544C44000836410000007700000041F9
:10E8A00036080002010204023C2623263C1EA1A1D8
:10E8B00061123A4040207A385454555921555579BF
:10E8C000412254547842215554784020545579407F
:10E8D0000C1E5272123955555559395454545939E0
:10E8E000555454580000457C410002457D420001CA
:10E8F000457C407D1211127DF0282528F07C54556E
:10E9000045002054547C547C0A097F4932494949C6
:10E91000323A4444443A324A4848303A4141217AF2
:10E920003A42402078009DA0A07D3D4242423D3DBC
:10E930004040403D3C24FF2424487E4943662B2F21
:10E94000FC2F2BFF0929F620C0887E090320545490
:10E9500079410000447D413048484A3238404022E5
:10E960007A007A0A0A727D0D19317D2629292F280D
:10E97000262929292630484D40203808080808084B
:10E98000080808382F10C8ACBA2F102834FA000035
:10E990007B000008142A142222142A14085500555A
:10E9A0000055AA55AA55AAFF55FF55FF000000FFC4
:10E9B00000101010FF00141414FF001010FF00FFCF
:10E9C0001010F010F0141414FC001414F700FF00E1
:10E9D00000FF00FF1414F404FC141417101F10108F
:10E9E0001F101F1414141F00101010F0000000005E
:10E9F0001F101010101F10101010F010000000FF5A
:10EA0000101010101010101010FF10000000FF1454
:10EA10000000FF00FF00001F10170000FC04F414AA
:10EA2000141710171414F404F40000FF00F7141462
:10EA30001414141414F700F7141414171410101FDE
:10EA4000101F141414F4141010F010F000001F1014
:10EA50001F0000001F14000000FC140000F010F064
:10EA60001010FF10FF141414FF141010101F0000DA
:10EA70000000F010FFFFFFFFFFF0F0F0F0F0FFFFED
:10EA8000FF0000000000FFFF0F0F0F0F0F3844447E
:10EA90003844FC4A4A4A347E02020606027E027E5E
:10EAA0000263554941633844443C04407E201E20A3
:10EAB00006027E020299A5E7A5991C2A492A1C4C48
:10EAC0007201724C304A4D4D303048784830BC624B
:10EAD0005A463D3E494949007E0101017E2A2A2AC3
:10EAE0002A2A44445F444440514A444040444A51E5
:10EAF000400000FF0103E080FF000008086B6B0886
:10EB00003612362436060F090F06000018180000CA
:10EB1000001010003040FF0101001F01011E00190C
:10EB20001D1712003C3C3C3C0000000000000000AF
:10EB300000000000000000000000000000000000D5
:10EB4000A9C53F02ADE53F02F9BB3F02B3BF3F029B
:10EB5000B5BF3F02E7BF3F02C3BF3F02D5BF3F0281
:10EB6000F5BE3F02B3BF3F02DDC13F02DBC13F0242
:10EB7000FFBF3F023DC03F0277C03F02BDC03F0222
:10EB8000D9C03F025BC13F0264656661756C742049
:10EB9000004D5342004C5342003C5350495365745E
:10EBA00074696E67732064656661756C743E003CC1
:10EBB00053504953657474696E67732025732575C6
:10EBC000202573204D4F444525753E000000000070
:10EBD00000000000C1C83F0293C83F0295C83F0231
:10EBE00000000000000180000000000000000000A4
:10EBF000038000000000000000000007C0000000CB
:10EC000000000000000007C000000000000000003D
:10EC1000000FC00000000000000000001FE0000026
:10EC2000000000000000001FE000000000000000E5
:10EC300000003FE00000000000000000003FF00086
:10EC400000000000000000007FF000000000000055
:10EC5000001FF87FF0000000000000003FFE7FF082
:10EC6000000000000000003FFF7FF00000000000F7
:10EC700000001FFFFBE0000000000000000FFFF994
:10EC8000FFC00000000000000FFFF9FFF8000000C7
:10EC900000000007FFF1FFFF00000000000003FC80
:10ECA00073FFFF80000000000001FE3FFFFF8000B7
:10ECB0000000000000FF1E0FFF0000000000000029
:10ECC0007FFE1FFC000000000000003FFFFFF80077
:10ECD0000000000000000FDFFFE000000000000067
:10ECE000001F19FFC0000000000000003F3CFF00B3
:10ECF000000000000000007E7CF800000000000022
:10ED000000007FFE7C0000000000000000FFFFFC10
:10ED10000000000000000000FFFFFE0000000000F7
:10ED2000000000FFFFFE0000000000000001FFEFF8
:10ED3000FE0000000000000001FFCFFE0000000008
:10ED400000000003FF07FE0000000000000003FCBD
:10ED500007FE0000000000000003F003FE000000BA
:10ED600000000000018000FE000000000000000024
:10ED700000007E000000000000000000003E0000D7
:10ED800000000000000000000C0000000000000770
:10ED90008000FC000003C0000000078001FC0000B0
:10EDA00003C0000000078001FC000003C000000059
:10EDB000078001E00000001E000000078001E00065
:10EDC00000001E007FE3F79FF9FDE7787BDFC0FFBF
:10EDD000F7FFBFFDFDFF787BDFC0FFF7FFBFFDFD45
:10EDE000FF787BDFC0F0F787BC3DE1FF787BDE007A
:10EDF000F0F787BC3DE1F0787BDE0000F787803DCF
:10EE0000E1E0787BDE007FF7879FFDE1E0787BDE45
:10EE100000FFF787BFFDE1E0787BDE00F0F787BCFD
:10EE20003DE1E0787BDE00F0F787BC3DE1E0787BF8
:10EE3000DE00F0F787BC3DE1E0787BDE00FFF7FF06
:10EE4000BFFDE1E07FFBDFC0FFF7FFBFFDE1E07F3B
:10EE5000FBDFC07CF3F39F3DE1E03E7BCFC00000D1
:10EE6000000000000000000000FFFFFFFFFFFFFFA9
:10EE7000FFFFFFC0FFFFFFFFFD68DB111A31C0FF7E
:10EE8000FFFFFFFD2B5AFB6AEFC0FFFFFFFFFD4BAB
:10EE90005B3B1A33C0FFFFFFFFFD6B5BDB6AFDC00E
:10EEA0000000600000000000000000000000000002
:10EEB00000E0000000000000000000000000000171
:10EEC000E00000000000000000000000000001F071
:10EED0000000000000000000000000000003F0003F
:10EEE00000000000000000000000000007F000002B
:10EEF000000000000000000000000007F800000013
:10EF0000000000000000000000000FF800000003F7
:10EF1000C0007E000001E0007F0FF800000003C089
:10EF200000FE000001E000FFEFF800000003C00059
:10EF3000FE000001E000FFFFF800000003C000F049
:10EF40000000000F007FFE7FC0000003C000F00043
:10EF500000000F003FFE7FF83FF1FBCFFCFEF3BC4B
:10EF60003DEFE01FFE7FFF7FFBFFDFFEFEFFBC3DAE
:10EF7000EFE01FC6FFFF7FFBFFDFFEFEFFBC3DEFA4
:10EF8000E00FE3C7FE787BC3DE1EF0FFBC3DEF0061
:10EF900007FF87FC787BC3DE1EF0F83C3DEF0001E5
:10EFA000FFFFF0007BC3C01EF0F03C3DEF0001F31B
:10EFB0007FE03FFBC3CFFEF0F03C3DEF0003E33FBB
:10EFC000807FFBC3DFFEF0F03C3DEF0007E73C0035
:10EFD000787BC3DE1EF0F03C3DEF0007FFBE0078FB
:10EFE0007BC3DE1EF0F03C3DEF0007FFFE00787BA8
:10EFF000C3DE1EF0F03C3DEF000FFFFE007FFBFF85
:10F00000DFFEF0F03FFDEFE00FFFFF007FFBFFDFD3
:10F01000FEF0F03FFDEFE00FF9FF003E79F9CF9EE3
:10F02000F0F01F3DE7E01FF1FF00000000000000CE
:10F0300000000000001F80FF007FFFFFFFFFFFFFB9
:10F04000FFFFFFE01C007F007FFFFFFFFEB46D8825
:10F050008D18E000001F007FFFFFFFFE95AD7DB51E
:10F0600077E000000F007FFFFFFFFEA5AD9D8D192B
:10F07000E0000006007FFFFFFFFEB5ADEDB57EE0CE
:10F08000000000000000000015C93F022DC93F022A
:10F09000A9C53F02ADE53F0241C93F02B3BF3F02F0
:10F0A000B5BF3F02E7BF3F02C3BF3F02D5BF3F022C
:10F0B000F5BE3F02B3BF3F02DDC13F02DFCA3F02E0
:10F0C00043D13F02F5D03F0277C03F02BDC03F02AF
:10F0D000D9C03F025BC13F020080C0E0F0F8FCFEF7
:10F0E000000103070F1F3F7FAED580A8D300408DDE
:10F0F0002000A1C8DB40A4A62EAF424D49313630D6
:10F1000047656E436C6173733A3A626567696E284E
:10F11000293A2070696E233D00202D3E20696E74CF
:10F120006572727570743D00424D493136304765E5
:10F130006E436C6173733A3A6932635F696E6974E6
:10F1400028292E2E2E00424D4931363047656E4318
:10F150006C6173733A3A6932635F696E6974282926
:10F160003A20493243206661696C65642E00424D45
:10F170004931363047656E436C6173733A3A693290
:10F18000635F696E697428293A20434849502049D1
:10F1900044203D20307800424D4931363047656E7D
:10F1A000436C6173733A3A6932635F696E697428BC
:10F1B000292E2E2E646F6E65006932635F78666556
:10F1C00072286F6666733D3078002C2074783D009D
:10F1D0002C2072783D00293A00576972652E656EC1
:10F1E000645472616E736D697373696F6E28292040
:10F1F0006661696C65642E00424D49313630476561
:10F200006E436C6173733A3A7370695F696E6974C7
:10F2100028292E2E2E00424D4931363047656E4347
:10F220006C6173733A3A7370695F696E6974282907
:10F230003A205741524E494E473A204E6F2063685C
:10F2400069702073656C6563742070696E207370DB
:10F25000656369666965642E00424D493136304701
:10F26000656E436C6173733A3A7370695F696E6976
:10F270007428292E2E2E646F6E6500424D4931365A
:10F280003047656E436C6173733A3A7370695F78A7
:10F2900066657228002C00000000000000000000DD
:10F2A0004FD83F02D5D63F02EDD73F020000000005
:10F2B000000000004FD83F0249D83F024BD83F0220
:10F2C0000000000000000000DBE13F02D1E13F024E
:10F2D000C7E13F02BDE13F02B1E13F02A5E13F02CC
:10F2E00055E43F025DE43F0299E13F0291E13F02B4
:10F2F00087E13F027DE13F0285E53F028DE43F0269
:10F3000095E43F020000000000000000F9E13F0228
:10F3100043E23F021BE23F02FBE13F0223E23F02E6
:10F320002BE23F0233E23F023BE23F0200000000DB
:10F330000000000025E33F0215E33F0217E33F0210
:10F340006170700090AE0710E0AE07109CAE071021
:10F35000000000000000000015E43F021FE43F022F
:10F3600029E43F0233E43F023DE43F0249E43F0227
:10F3700055E43F025DE43F0265E43F0271E43F0271
:10F3800079E43F0283E43F0285E53F028DE43F02DA
:10F3900095E43F02000810182028303825592D2503
:10F3A0006D2D25645425483A254D3A2553257A007C
:10F3B00061736374696D6500000000000000000067
:10F3C000C5E83F0231E93F0209E93F02ADE53F02EE
:10F3D000D9E83F02F5E83F02E7E83F0203E93F02D0
:10F3E000C7E83F02CBE83F02000000000000000039
:10F3F00083E93F02EBE93F02C1E93F02ADE53F028D
:10F40000B3E93F0285E93F0295E93F02E5E93F02A2
:10F41000A5E93F027DE93F02000000000000000076
:10F42000E7EA3F02DDEA3F02D3EA3F0289EA3F0210
:10F43000C7EA3F02BBEA3F0255E43F025DE43F02F8
:10F44000AFEA3F02A7EA3F029DEA3F0293EA3F028A
:10F4500085E53F028DE43F0295E43F0200524545B9
:10F460004E54206D616C6C6F6320737563636565CA
:10F47000646564002F746D702F6A656E6B696E73BE
:10F480002D4743432D31302D706970656C696E6571
:10F490002D34385F32303230313132345F313630F2
:10F4A000363138303633392F7372632F6E65776C8F
:10F4B00069622F6E65776C69622F6C6962632F7366
:10F4C00074646C69622F72616E642E6300000000C8
:10F4D00031BD3F0299BE3F022DD83F0295D83F0271
:10F4E0006DE13F02E5E13F0205E43F0299E53F029D
:10F4F0001DE73F028DE83F02B1E83F02F1EA3F021B
:10F5000000000002A0FE3F023CAD0710000000001A
:10F5100000000000000000000000000000000000EB
:10F5200000000000000000000000000000000000DB
:10F5300000000000000000000000000000000000CB
:10F5400000000000000000000000000000000000BB
:10F5500000000000000000000000000000000000AB
:10F56000000000000000000000000000E4AF0710F1
:04F570000000000097
:10FFBE000200100000B05F08A8B05F0898BB3F02B7
:10FFCE0001000A00FFFFFFFFFFFF00000102030414
:10FFDE0005060708090A0B0C0D0E0F10111213144B
:0EFFEE0015161718191A1B1C1D1E1F203E0089
:04FFFC0078563412ED
:04000005085FB018C8
:00000001FF
