:02000004085F93
:10B0000000B05F08FCFF5F0800000600200005019B
:08B010000401A118000000007A
:10B018001348144908B5884205D0134A824202D021
:10B02800124B121A98471248124A0021124B121A50
:10B03800984712481249884205D0124A824202D0E3
:10B048000A4B121A984710481049884205D0104AEE
:10B05800824202D0054B121A9847014808BD00BF2A
:10B06800B0AD071004FA5F081CAE07102D0D1110C3
:10B078001CAE0710FCAF0710A10E1110A0B63F02BE
:10B08800A8B05F08A8B63F02A8B63F02B0B05F08F4
:0CB09800FCFF3F0219B05F080000000040
:08B0A8009CB05F08B8F03F0204
:10B0B000034613F8012B002AFBD1181A01387047F8
:10B0C00070B503F0E5FA0025054E064CA41BA40854
:10B0D000AC4200D170BD56F8043B98470135F7E704
:10B0E000C4FF3F02FCFF3F0200F028B808B500F0A3
:10B0F0006BF8BDE8084003F083BA02F0B9B902F07A
:10B10000B7B902F0C3B90000744600B58DB02C2267
:10B11000002101A803F080FC054B04940193054B2A
:10B1200002937B46002101A8039302F035F8FEE765
:10B130002C000C00C8F03F027047000007B54FF428
:10B140007A7002F013FA012002F0DEFF02F0A2F89A
:10B15000024670BB0146642002F0E6FF03F0C0F92E
:10B160004FF4165103F0B0F9144800F06FF90221C2
:10B17000124800F08AF90121104800F08DF90123EE
:10B180003C2202210E48009300F09CFF20B903F0FE
:10B19000A7F90C4902F04CFF0121094801F0EAFA35
:10B1A000074800F080FF064803B05DF804EB01F0AB
:10B1B00045BA002211461046CEE700BF4EAE07103A
:10B1C00070AE0710DDF03F0210B586B001F00CFD47
:10B1D0004B4C2368C01A27286DD901F005FD20606B
:10B1E000484800F0F1F80128044664D103F078F9EA
:10B1F000454902F030FF2146444800F04DF9C8208F
:10B2000002F0B4F902F046F8044600286AD00022A1
:10B210001146104602F088FF3D4B3C221B783D4909
:10B220008DF80830002304A8CDE9003205233A4AFE
:10B2300002F040FB059C7CB16368013B63605BB935
:10B24000236820469B689847A368013BA3601BB90D
:10B2500023682046DB68984701233C2202212F48BF
:10B26000009300F02FFF20B903F03AF92C4902F0C7
:10B27000DFFE0121294801F07DFA284800F013FF84
:10B28000264801F0DBF90121264800F039F94FF496
:10B29000C87164220E2003F059F8204800F003FF23
:10B2A0001E4801F0CBF94FF47A7002F05FF90021EB
:10B2B000164800F0F1F801F097FC1B4C2368C01A07
:10B2C0004EF65F23984219D901F08EFC206001F000
:10B2D000E1FF024670B90146642006B0BDE81040A7
:10B2E00002F022BF01F0C8FF22462146642002F08E
:10B2F0001BFFB1E7002211461046EEE706B010BD75
:10B300002CAE07104DAE0710F3F03F024EAE071003
:10B3100028AE071015F13F020FF13F0270AE071083
:10B32000DDF03F024FAE071030AE071038B50125F3
:10B330000024164B164A1D70164B28469A60C3E926
:10B34000004401F037FF2146204601F04FFF03F093
:10B3500067FA0146104800F0E9FC0F210F4800F0A1
:10B3600029F810210E4800F025F80A210D4800F0B8
:10B3700021F80D4800F0EAF80C4B1A1D1A60C3E9D9
:10B3800002440B4A1C615A601D7538BD28AE071077
:10B390000000FFFF1CAE071054AE07104CAE0710A4
:10B3A00051AE07104DAE071050AE071034AE071067
:10B3B0001000030038B50D4604460021284603F06E
:10B3C000D7F92046257038BD38B51D4C1D4D237862
:10B3D000032B0BD8DFE803F0020C172C007803F0E6
:10B3E000F1F908B90123237000232B70287838BDA8
:10B3F000007803F0E7F900BB0223237001F0F4FBAF
:10B40000114B1860F0E7007803F0DCF918B1002365
:10B4100023700123E9E701F0E7FB0B4B1B68C01A1F
:10B42000B0F5FA6FE2D302232B7003232370DDE71C
:10B43000007803F0C7F90028D6D00023D3E700BF77
:10B440006CAE071064AE071068AE071008B5022195
:10B45000152003F08DF900210C2003F089F900215B
:10B46000022003F085F901210E2003F081F900216B
:10B470000E2003F08EF90121142003F079F9BDE8C4
:10B4800008400021142003F084B901290CBF0021D9
:10B490000121142003F07DB901B10121122003F034
:10B4A00078B900001FB503F0BBF9084A0849034604
:10B4B000CDE901214FF0FF32802100920548202282
:10B4C00000F0F6FC05B05DF804FB00BF801A060032
:10B4D000A086010070AE071007B520230122CDE938
:10B4E0000032002280231146044800F076F9034818
:10B4F00003B05DF804EB01F0A1B800BF70AE071017
:10B5000070B504460125104800F0CDFD2046FFF738
:10B51000E3FF2C460C4E224601232946304600F01C
:10B5200065FC0134304601F089F8E4B240F2911034
:10B5300002F01CF8202CEED16B1CDDB21B0600D5EE
:10B5400070BD0124E7E700BF70AE071010B50446D8
:10B550000121062003F00CF90021062003F019F95F
:10B560000121122003F004F90021122003F011F947
:10B57000204610BD2DE9F04F1F4685B0BDF938803B
:10B58000A7EB010AA8EB0209B9F1000FB8BFC9F196
:10B590000009BAF1000FB8BFCAF1000AD1458346CD
:10B5A0000C461546BDF83C3004DD3A462C4647466D
:10B5B0000D469046BC4205DD2A4645469046224649
:10B5C0003C4617463E1BB2B20092A8EB050282EA47
:10B5D000E271A1EBE271C6F3C03202FA86F645458C
:10B5E000B4BF01224FF0FF32019176100292BC42AB
:10B5F0001CDCDBF80020D145D2F81880C7BF2946F3
:10B6000022462A46214603935846C047019A039B87
:10B61000B61AB1B236B2002E05DA029A1544009A73
:10B620002DB2561836B2013424B2E0E705B0BDE8B9
:10B63000F08F704710B404682469A4465DF8044B89
:10B64000604730B4BDF8085004680295A46BA44666
:10B6500030BC604730B4BDF8085004680295E46B14
:10B66000A44630BC604770B4BDF90C50BDF8106002
:10B670000468CDE90356246CA44670BC60472DE9EC
:10B68000F3411C46164605460F460368013CBDF8CB
:10B6900020805B693444984724B22B68CDF804803D
:10B6A000009428469C6A32463B463946A0472846C5
:10B6B0002B68DB6A02B0BDE8F04118472DE9F34181
:10B6C000174604461D460E460368BDF820805B6998
:10B6D0009847CDE9007822686B1E33442046956A6E
:10B6E00031463A461BB2A84720462368DB6A02B0BF
:10B6F000BDE8F04118472DE9F3471E4603680C46A4
:10B700005B6905461746BDF92890BDF82C8098471F
:10B710002644B4422B680BDACDF800802146D3F8DA
:10B7200020A03A464B4628460134D04724B2F0E7E1
:10B730002846DB6A02B0BDE8F047184713B501910F
:10B74000B0F90E1002680091146C0022B0F90C30B0
:10B750001146A04702B010BD2DE9F74399421646A5
:10B7600080460D461C46BDF92870BDF82C90026835
:10B7700012D1BE42C2BF33463E461F46CDF8289086
:10B780007B1C946B9B1B324629464046A4461BB249
:10B7900003B0BDE8F0436047BE420AD19942C2BF40
:10B7A0000B4625461C46CDF82890631C5B1BD46BCA
:10B7B000E9E753699847CDE90079D8F80030404669
:10B7C0009F6A324623462946B8474046D8F800309B
:10B7D000DB6A03B0BDE8F04318472DE9F3470446A0
:10B7E0000F4616461D460368BDF82C805B69BDF9FF
:10B7F000289098472368CDF8008032463946204685
:10B80000D3F824A02B46D047236809F1FF32CDF8A6
:10B810000080324439462046D3F824A012B22B4689
:10B82000D0472368CDF80080324639462046D3F809
:10B8300020A04B46D0476B1ED9192368CDF8008055
:10B8400020461D6A32464B4609B2A8472046236867
:10B85000DB6A02B0BDE8F0471847704701F0030308
:10B86000B0F90A208376B0F90830C90759BF83813F
:10B87000C2818281C381704730B5018100248181FA
:10B880004FF0FF31054D4281C281054A4460C0E955
:10B890000512056004610477046230BD2CF63F0296
:10B8A000010100012DE9F04F0026354689B0CDE9B0
:10B8B000021204930268BDF94C30BDF94880526908
:10B8C00005930446BDF850A0904718F1070248BF01
:10B8D00008F10E024FEAE20B0196039B019ABDF9B3
:10B8E00004109A18059B12B28B4227DD4FF0000915
:10B8F000049B334406930FFA89F080451FFA89F1BF
:10B9000017DD4F0705BF069BC0106D001D5C18BFFB
:10B91000EDB22B060AD5029B206819448369079271
:10B920001F462046534609B2B847079A09F1010954
:10B93000E1E7019B5E4401330193CEE72046236893
:10B94000DB6A09B0BDE8F04F184700002DE9F04F61
:10B950002DED028B91B016461F46026ABDF870307D
:10B960008346BDF874809DF878509DF87C40039123
:10B970000493002A40F0C580B0F90C308B4240F3AC
:10B980004C81B0F90E30B34240F34781062313FBDC
:10B990000513002B40F3418106EBC403002B40F359
:10B9A0003C81037F1BB9AF2F84BF0137FFB2DBF8A7
:10B9B000003058465B69984705220992002205929B
:10B9C000984A07EB8703D3180C93B3B20693059AF2
:10B9D0000C9B02FB05F99B5C0793ABB20B93BDF884
:10B9E0000C300893039B19FA83F90FFA89F308EED8
:10B9F000103A08234FF000090A93039B02EB030A55
:10BA00000FFA8AFA079ADBF80030D20752D5012DD7
:10BA10001FFA89F23ED1012C3CD19B6906991F4641
:10BA2000049B0A445146584612B2B84709F1010333
:10BA30004FFA83F9079B5B0807930A9B013B13F0BE
:10BA4000FF030A93DED1059F01377BB20593099B63
:10BA5000013B13F0FF030993B9D1049B43450FD079
:10BA6000012DDBF800303BD1012C39D10899CDF8FC
:10BA7000008005311C6A32460823584609B2A047A7
:10BA80005846DBF80030DB6A11B0BDEC028BBDE834
:10BA9000F04F184714FB02F206990A4404990191E9
:10BAA0000094DB6918EE101A1F4658462B4612B256
:10BAB000B847BBE7049A4245B8D0012D1FFA89F276
:10BAC00007D1012C05D19B6906991F460A444346BC
:10BAD000A8E714FB02F20699CDF804800A44DFE7D8
:10BAE0000B9AE40002EB8201089ACDF804800A4424
:10BAF00011460094DC6932462B46584609B2A047ED
:10BB0000BEE7137A5168FF1A1268FFB20B9231F840
:10BB1000372001EBC70306929A78012D0992DA7853
:10BB200093F906A00C9293F905200A9201D8012CF2
:10BB300057D9BDF9283008930FFA8AF307934FF0CD
:10BB40000008C1464746DBF8003058465B69984715
:10BB5000B3B20E931AFA86F30F930C9B9F428FD2C7
:10BB6000079B0E9A3B4403FB042300221BB208EE02
:10BB7000103A434605920F9A02EB070A0FFA8AFA27
:10BB8000099A0599914241D25A1CD2B25B070D9293
:10BB900007D1069B06990B9A01339BB212F80190CC
:10BBA000069319F0800F12D0012DDBF80030BDF89C
:10BBB0000C101AD1012C18D10A9A9B691144059ACC
:10BBC0001E46114458465246049B09B2B047059E92
:10BBD0004FEA49090136F3B205935FFA89F90D9BE3
:10BBE000CEE70023CDE90733A9E70598089A024478
:10BBF00002FB0511049A5846CDE90042DB6918EEB4
:10BC0000102A1E4609B22B46B047E0E7099B0137D0
:10BC100098445FFA88F8FFB29FE711B0BDEC028B41
:10BC2000BDE8F08F24F13F02F0B5026A04460B46EE
:10BC300085B0002A34D10A2908D1438A0282427E83
:10BC400003EBC2036382012005B0F0BD0D29FAD0D9
:10BC5000E17E007E657E71B10621B4F9106011FBB2
:10BC60000061B4F90C60B142C1BFB4F91210228274
:10BC700001EBC5026282E28ACDE902050192A28A45
:10BC800020460092B4F91010B4F91220FFF75EFEBE
:10BC9000237E228A03EB430302EB43032382D2E792
:10BCA0000A2907D100230382417E127B438A01FBCC
:10BCB0000233C7E70D29C6D0157AA942C3D3917ABA
:10BCC0009942C0D351685D1BEDB201EBC505A87860
:10BCD00028B3E97819B3E17E267E677E91B195F9A4
:10BCE00005100844B4F9101006FB0011B4F90C005B
:10BCF000814207DD00202082B4F91210127B02FB82
:10BD000007126282E28A20460192A28ACDE9026786
:10BD10000092B4F91010B4F91220FFF717FE297938
:10BD2000227E238A01FB0233B8E700000022C0E92B
:10BD30000212024A02604260704700BF0000C07FEA
:10BD4000704710B504461021FFF7DBF9204610BDFF
:10BD50000EB403B503AB53F8042B0021019302F09A
:10BD6000A2F902B05DF804EB03B0704773B5044666
:10BD700022790846A36832B1A3B90B4902B0BDE8E5
:10BD8000704002F055B9094A267B094D0949647B88
:10BD9000012E18BF2946CDE900140749FFF7D8FF47
:10BDA00002B070BD054AEFE78DF63F0284F63F0210
:10BDB00089F63F0285F63F02A3F63F027CF63F027A
:10BDC00010B5044B04460360C06A08B101F05EFB85
:10BDD000204610BD7CFB3F0210B50446FFF7F0FF84
:10BDE00020467421FFF78DF9204610BD002910B5BB
:10BDF0004BDBB0F90C408C4247DD002A45DBB0F943
:10BE00000E40944241DD847E022C1FD0032C26D0AC
:10BE1000012C04D1D243048914440A4621B2012BD7
:10BE200023D0022B32D083BB1346002A0489B8BF2B
:10BE3000D31DDB1013FB04110123C06A02F00702BB
:10BE40009340425C22EA030242541EE0D24304893A
:10BE5000013C611A448909B2224412B2DFE74489E5
:10BE6000013C641A114622B2D9E71346002A04891C
:10BE7000B8BFD31DDB1013FB0411C36A02F0070027
:10BE800001228240585C02435A5410BD1346002AD6
:10BE90000489B8BFD31DDB1013FB04110123C06A52
:10BEA00002F0070203FA02F2435C5A40CCE70000BA
:10BEB00070B504461D460026FFF7DEFC114B666296
:10BEC000236015B902F0ACFC0546FF2384F833303B
:10BED00084F836309DF910304FF6FF7284F8373011
:10BEE000059B2046A365069BC4E90A56E365064BFD
:10BEF000A28663660123E66684F86830A4F8706061
:10BF000070BD00BF7CFB3F02C8F63F0270B504461F
:10BF1000806A0D4690B194F9301001F0EBFEA06AF2
:10BF2000002103689B689847A06A294603689B68BC
:10BF30009847A06ABDE8704001F0E3BE226C206D16
:10BF4000136823EA00031360606A18B1BDE870400B
:10BF500002F0B0B908228021A36BA66C18680D42CC
:10BF600014BF3043B0431860E06BE66C0368013ADD
:10BF700043EA06030360E06BE66C03684FEA510195
:10BF800023EA06030360E7D170BD38B50446806A32
:10BF90000D4680B1A16D01F07BFE002D204614BF3F
:10BFA000A721A621FFF7B2FFA06A88B1E16DBDE825
:10BFB000384001F06DBE606A18B104F1640102F00E
:10BFC0000BF9626C616D136823EA01031360E4E707
:10BFD000626C616D13680B431360606A18B1BDE851
:10BFE000384002F0DFB838BDF8B50446806A0D4627
:10BFF0008F1840B394F9301001F07CFEA06A002144
:10C00000036801269B689847BD42A06A17D01F2E7F
:10C010000CD901F076FE94F93010A06A01F06AFEA6
:10C02000A06A0021036801269B689847A06A15F85A
:10C03000011B036801369B689847B6B2E4E7BDE888
:10C04000F84001F05EBE226C216D136823EA010303
:10C050001360BD4226D0606A15F8011B10B102F0D2
:10C0600029F9F6E74FF0080E8020A36BD4F848C0FA
:10C070001E68014214BF46EA0C0626EA0C061E6042
:10C08000E66BE26C3368BEF1010E43EA02033360F3
:10C09000E66BE26C33684FEA500023EA0203336038
:10C0A000E3D1D6E7F8BDB0F90A300021DA1D48BF68
:10C0B00003F10E02B0F90830D2105A43C06A02F000
:10C0C000ABBC00002DE9FF411E46C36A04460F4683
:10C0D00015469DF82880C3B12046FFF7E4FFB4F968
:10C0E0000A00B4F90810202821DC20230122CDE920
:10C0F00001327323203800EBD0707339009301EBC9
:10C10000D171B84B40F34F0221E0B0F90A30D81D8D
:10C1100048BF03F10E00B4F90830C010584301F0D5
:10C12000A7F9E0620028D7D104B0BDE8F08140381B
:10C13000C0F3C032402302FA80F20120CDE9013081
:10C14000522352390093A84B01EBD1715210204673
:10C1500041F34F01FFF7A6FBA06A84F83170002875
:10C1600000F09A80002D40F09580B4F90A30202B21
:10C170000CBF3C253D2584F83050B8F1000F01D0AC
:10C1800001F08AFDFEB194F9370000281BDB012184
:10C1900080B202F0EDFA94F93700012180B202F08A
:10C1A000F8FA012001F0E2F994F93700002180B299
:10C1B00002F0EFFA0A2001F0D9F994F937000121D1
:10C1C00080B202F0E6FAA06A002800F0E580A16DD6
:10C1D00001F05EFD042220468449FFF705FF6189D6
:10C1E00020460139C9B2FFF791FE81490422204659
:10C1F000FFF7FAFE94F931302046012B0CBF1021D5
:10C200001421FFF783FE042220467A49FFF7ECFE53
:10C210008F23794A84F86030A368934200F0D48079
:10C2200002F50012934240F0C48094F93130122597
:10C23000012B0CBF9F23CF2384F86030DA212046E6
:10C24000FFF764FE29462046FFF760FE8121204665
:10C25000FFF75CFE204694F86010FFF757FED921E7
:10C260002046FFF753FE94F931302046012B0CBFD6
:10C270002221F121FFF74AFE204606225F49FFF7FF
:10C28000B3FEA06A002800F0A180E16D01F000FD7E
:10C29000012049E76DB26EE794F93500012180B2C3
:10C2A00002F066FA94F93600012180B202F060FAD9
:10C2B00000F0A8FC94F93530514D03EB430310F81E
:10C2C000233055F82330236400F09CFC94F935307A
:10C2D00003EB430300EB83035B78236500F092FCE0
:10C2E00094F9363003EB430310F8233055F823302C
:10C2F000636400F087FC94F93630626C03EB43030F
:10C3000000EB83035B78636511680B431360606A1D
:10C3100030B1B8F1000F3FF435AF01F02FFF31E736
:10C3200094F93300012180B202F022FA94F934002A
:10C33000012180B202F01CFA00F064FC94F9333061
:10C3400003EB430310F8233055F82330A36300F0C8
:10C3500059FC94F9333003EB430300EB83035B7820
:10C36000A36400F04FFC94F9343003EB430310F85E
:10C37000233055F82330E36300F044FC94F9343063
:10C38000E26B03EB430300EB83035978E16413682A
:10C3900023EA01031360F5E6606A18B104F1640151
:10C3A00001F01AFF626C616D136823EA01031360E8
:10C3B00010E7144A934207D194F93130012B0CBF96
:10C3C0001023AF2384F86030022537E7626C616D7B
:10C3D00013680B431360606A00283FF459AF01F003
:10C3E000E1FE55E794F93F02D4F63F02DCFB3F0241
:10C3F000E0FB3F02E4FB3F0280002000E8FB3F023D
:10C4000024001C106000100070B5002ABDF8105008
:10C410003FDBB0F90A4094423BDD0029BEBF5B1808
:10C4200000211BB2B0F90840CE18A642C4BF631A5F
:10C430001BB2002B2DDDD61014FB0611C06A012D96
:10C44000014402F007004FF0010202FA00F2D2B2FA
:10C4500016D0022D0BD0E5B9D2430B44D2B299428B
:10C4600017D011F8010B104001F8010CF7E70B444D
:10C4700099420ED011F8010B504001F8010CF7E77A
:10C480000B44994205D011F8010B104301F8010C3F
:10C49000F7E770BDF0B50029BDF8145077DBB0F9AF
:10C4A0000860B14273DA002ABEBF9B1800221BB29B
:10C4B000B0F90A40D718A742C4BFA31A1BB2002B79
:10C4C00065DDC2F3C40416FB0416C76A12F0070246
:10C4D000DBB207EB060424D0C2F10802D2B29342C9
:10C4E00038BF4FF0FF0C2C4938BFA2EB030E895C1C
:10C4F0003CBF4CFA0EFC0CEA0101012D07D0022DC5
:10C500002ED04DB917F806C02CEA010103E017F848
:10C5100006C041EA0C01B955934238D3B0F908106E
:10C520000C449A1AD2B2072A0ED9022D1DD11346F5
:10C530002178083BC9432170B0F90810DBB2072B02
:10C540000C44F5D802F007020AB3144B012D9B5C92
:10C550001AD0022D1CD0D5B9227822EA030315E0A7
:10C5600017F806C081EA0C01D5E7291E18BF012182
:10C5700013464942C9B22170083BB0F90860DBB2EA
:10C58000072B3444F7D8DDE7227813432370F0BD3E
:10C5900022785340FAE700BFCCFB3F02D4FB3F02B6
:10C5A00070B41446827EBDF80C60022A0DD0032AB6
:10C5B00018D0012A11D1E4430289144424B20A4656
:10C5C0000396214670BCFFF765BFE44342890589A5
:10C5D00019441444691A24B209B22246039670BC65
:10C5E000FFF712BF45891944691A09B2E7E730B469
:10C5F0001446827EBDF80850022A0DD0032A18D0B6
:10C60000012A11D1E2180489A41A24B20A4602951B
:10C61000214630BCFFF7F8BEC94302891144E21835
:10C62000448909B2A41A24B22246029530BCFFF70D
:10C6300031BFC9434289114409B2E7E7F8B504465E
:10C64000806A002842D0A16D01F022FB052220461D
:10C650004749FFF7C9FC218920460139C9B2FFF7D4
:10C6600055FCD4E90A05B4F90A30DE1D48BF03F1D0
:10C670000E062389F61013FB06F615FA86F6002837
:10C680003BD094F9301001F035FBA06A40210368DB
:10C6900001279B689847AE42A06A24D01F2F0CD96F
:10C6A00001F02FFB94F93010A06A01F023FBA06A7F
:10C6B0004021036801279B689847A06A15F8011B71
:10C6C000036801379B689847BFB2E4E7606A18B116
:10C6D00004F1640101F080FD626C616D136823EA6E
:10C6E00001031360B2E701F00CFBA06A002832D00E
:10C6F000E16DBDE8F84001F0CBBA226C216D136802
:10C700000B431360B542F0D0606A15F8011B10B1FD
:10C7100001F0D0FDF6E74FF0080E8020A36BD4F8AF
:10C7200048C01F68014214BF47EA0C0727EA0C07FC
:10C730001F60E76BE26C3B68BEF1010E43EA020347
:10C740003B60E76BE26C3B684FEA500023EA020370
:10C750003B60E3D1D6E7626C616D13680B431360F5
:10C76000606A18B1BDE8F84001F01CBDF8BD00BF1B
:10C77000EEFB3F0238B50446806A0D4698B1A16DC4
:10C7800001F086FA81212046FFF7C0FBC5B994F875
:10C7900060102046FFF7BAFBA06A98B1E16DBDE8D2
:10C7A000384001F075BA606A18B104F1640101F013
:10C7B00013FD626C616D136823EA01031360E1E706
:10C7C0000021E6E7626C616D13680B431360606AD9
:10C7D00018B1BDE8384001F0E5BC38BD13B50A4CCE
:10C7E000D4E88F1F11F001010BD12046019100F018
:10C7F000A1FE019928B1054801F0B6FC204600F0E1
:10C80000A7FE024802B010BDE4AE0710E8AE071064
:10C8100013B503688DF804101C68012301A91A469A
:10C82000A0479DF8040002B010BD0021FFF7F0BF43
:10C8300070B506460C4615462AB9BDE87040036837
:10C84000C9B29B68184700290BDA0A2A09D12D21A1
:10C8500001F0F2FB61423046EAB2BDE8704001F0FF
:10C8600004BC2146F7E7000038B5044601F038FE65
:10C87000144901F0F0FBA069E16801F03BFAA069FE
:10C8800001F03FFA20B101F02BFE0F4901F0E3FB6C
:10C890002046FFF7CAFF054601F022FE0B4901F0D2
:10C8A000C7FB01F01DFE044629461022FFF7C0FF1A
:10C8B000204601F0C4FB01F013FEBDE838400449F6
:10C8C00001F0C9BBF3FB3F0211FC3F0239FC3F0200
:10C8D00062FC3F022DE9F0410C4617461E46054614
:10C8E00001F0FEFD324901F0A3FB01F0F9FD102239
:10C8F000217801F0BAFB01F0F3FD2E4901F098FB1D
:10C9000001F0EEFD0A22394601F0AFFB01F0E8FD2F
:10C91000294901F08DFB01F0E3FD0A22314601F0C7
:10C92000A4FB01F0DDFD254901F082FBE968A8695F
:10C9300001F0E0F9A0462744B845A86905D003688E
:10C9400018F8011B9B689847F6E701F0DAF920B167
:10C9500001F0C6FD1A4901F07EFB0EB33246297B79
:10C96000A86901F0C0F9DFF860802644A86903686F
:10C970001B699847A0B1B44212D0A86903685B69EB
:10C980009847074604F8010B01F0AAFD414601F063
:10C990004FFB01F0A5FD1022F9B2FFF749FFE5E7D3
:10C9A00001F09EFD074901F056FB0020BDE8F08133
:10C9B00084FC3F0295FC3F029BFC3F02A1FC3F022E
:10C9C000A4FC3F0284F63F0283F63F0210B5044602
:10C9D00001F086FD0D4901F03EFBFFF7FFFE01F07F
:10C9E000CDFB206900280ADB012180B201F0C0FEE6
:10C9F00001F076FDBDE81040054901F02CBB01F0C7
:10CA00006FFD044901F027FBF2E700BFC3FC3F02C2
:10CA100024FD3F02E1FC3F0290F91430012B02D0CB
:10CA2000022B02D07047FFF71FBFFFF7CFBF0000F8
:10CA30002DE9F3410C4616461D46074601F050FD10
:10CA4000354901F0F5FA01F04BFD1022214601F0C5
:10CA50000CFB01F045FD314901F0EAFA01F040FD1F
:10CA60001022217801F001FB01F03AFD2C4901F080
:10CA7000DFFA01F035FD0A22314601F0F6FA01F045
:10CA80002FFD274901F0D4FA01F02AFD0A22294698
:10CA900001F0EBFA01F024FD224901F0C9FA3869EE
:10CAA000002803DB002180B201F073FEA04626447B
:10CAB000464518D1DFF874802544AC421CD0FFF7FE
:10CAC0008DFE002101F0F6FB064604F8010B01F093
:10CAD00007FD414601F0ACFA01F002FD102231469B
:10CAE000FFF7A6FEE9E718F8011B0191FFF776FEB4
:10CAF000019901F0DFFBDBE73869002803DB012146
:10CB000080B201F046FE01F0EBFC074901F0A3FA08
:10CB1000002002B0BDE8F08146FD3F029FFC3F02CD
:10CB200060FD3F02A1FC3F0284F63F0283F63F0214
:10CB3000F0B490F914C00546BCF1010F0C4617463D
:10CB40001E4605D0BCF1020F05D0F0BC0020704796
:10CB5000F0BCFFF7BFBE1BB10B7863F07F030B7017
:10CB600033463A4621462846F0BCFFF761BF000035
:10CB7000044B054A1A604FF0FF32C3E902221A61E2
:10CB8000704700BFF0AE07106CFD3F0270470020F9
:10CB9000704710B40468A468A4465DF8044B60476D
:10CBA000014B024A1A6070470CAF071080FD3F022C
:10CBB00009B504480068044B03441B685B6C02938E
:10CBC00009BD0000B0AD07103000000009B50448F1
:10CBD0000068044B03441B685B68029309BD0000B6
:10CBE000B0AD07100000000009B504480068044B10
:10CBF00003441B685B69029309BD0000B0AD0710D8
:10CC00000000000009B504480068044B03441B6899
:10CC10001B68029309BD0000B0AD071014000000AE
:10CC200009B504480068044B03441B685B68029321
:10CC300009BD0000B0AD07101400000009B504489C
:10CC40000068044B03441B689B68029309BD000005
:10CC5000B0AD07101400000009B504480068044B8B
:10CC600003441B68DB68029309BD0000B0AD0710E8
:10CC70001400000009B504480068044B03441B6815
:10CC80001B69029309BD0000B0AD0710140000003D
:10CC900009B504480068044B03441B685B690293B0
:10CCA00009BD0000B0AD07101400000009B504482C
:10CCB0000068044B03441B681B68029309BD000015
:10CCC000B0AD07101000000009B504480068044B1F
:10CCD00003441B68DB68029309BD0000B0AD071078
:10CCE0001000000009B504480068044B03441B68A9
:10CCF0009B69029309BD0000B0AD07101000000051
:10CD000009B504480068044B03441B68DB690293BF
:10CD100009BD0000B0AD07101000000009B50448BF
:10CD20000068044B03441B681B6A029309BD0000A2
:10CD3000B0AD07101000000009B504480068044BAE
:10CD400003441B685B6A029309BD0000B0AD071085
:10CD50001000000009B504480068044B03441B6838
:10CD60009B6A029309BD0000B0AD071010000000DF
:10CD700009B504480068044B03441B68DB6A02934E
:10CD800009BD0000B0AD07101000000009B504484F
:10CD90000068044B03441B681B6B029309BD000031
:10CDA000B0AD07101000000009B504480068044B3E
:10CDB00003441B685B6B029309BD0000B0AD071014
:10CDC0001000000009B504480068044B03441B68C8
:10CDD0001B6C029309BD0000B0AD071010000000ED
:10CDE00009B504480068044B03441B681B6D02939B
:10CDF00009BD0000B0AD07101000000009B50448DF
:10CE00000068044B03441B689B69029309BD000042
:10CE1000B0AD07105400000009B504480068044B89
:10CE200003441B685B69029309BD0000B0AD0710A5
:10CE30004C00000009B504480068044B03441B681B
:10CE40009B68029309BD0000B0AD071050000000C0
:10CE500009B504480068044B03441B685B690293EE
:10CE600009BD0000B0AD07105000000009B504482E
:10CE70000068044B03441B681B68029309BD000053
:10CE8000B0AD07100C00000009B504480068044B61
:10CE900003441B681B68029309BD0000B0AD071076
:10CEA0001800000009B504480068044B03441B68DF
:10CEB0005B69029309BD0000B0AD071018000000C7
:10CEC00009B504480068044B03441B68DB690293FE
:10CED00009BD0000B0AD07101800000009B50448F6
:10CEE0000068044B03441B681B6A029309BD0000E1
:10CEF000B0AD07101800000009B504480068044BE5
:10CF000003441B685B6A029309BD0000B0AD0710C3
:10CF10001800000009B504480068044B03441B686E
:10CF2000DB6B029309BD0000B0AD071018000000D4
:10CF300009B504480068044B03441B681B6C02934A
:10CF400009BD0000B0AD07101800000009B5044885
:10CF50000068044B03441B685B6C029309BD00002E
:10CF6000B0AD07101800000009B504480068044B74
:10CF700003441B68DB68029309BD0000B0AD0710D5
:10CF80002400000009B504480068044B03441B68F2
:10CF90001B69029309BD0000B0AD0710240000001A
:10CFA00009B504480068044B03441B685B6902939D
:10CFB00009BD0000B0AD07102400000009B5044809
:10CFC0000068044B03441B689B69029309BD000081
:10CFD000B0AD07102400000009B504480068044BF8
:10CFE00003441B68DB69029309BD0000B0AD071064
:10CFF0002400000009B504480068044B03441B6882
:10D000001B6A029309BD0000B0AD071024000000A8
:10D0100009B504480068044B03441B689B6A0293EB
:10D0200009BD0000B0AD07102400000009B5044898
:10D030000068044B03441B681B6C029309BD00008D
:10D04000B0AD07102400000009B504480068044B87
:10D0500003441B681B68029309BD0000B0AD0710B4
:10D060003400000009B504480068044B03441B6801
:10D070005B68029309BD0000B0AD071034000000EA
:10D0800009B504480068044B03441B681B690293FC
:10D0900009BD0000B0AD07103400000009B5044818
:10D0A0000068044B03441B685B69029309BD0000E0
:10D0B000B0AD07103400000009B504480068044B07
:10D0C00003441B689B69029309BD0000B0AD0710C3
:10D0D0003400000009B504480068044B03441B6891
:10D0E000DB69029309BD0000B0AD071034000000F9
:10D0F00009B504480068044B03441B681B6A02938B
:10D1000009BD0000B0AD07103400000009B50448A7
:10D110000068044B03441B685B68029309BD000070
:10D12000B0AD07104800000009B504480068044B82
:10D1300003441B689B68029309BD0000B0AD071053
:10D140004800000009B504480068044B03441B680C
:10D15000DB68029309BD0000B0AD07104800000075
:10D1600009B504480068044B03441B689B6902939B
:10D1700009BD0000B0AD07104800000009B5044823
:10D180000068044B03441B68DB69029309BD00007F
:10D19000B0AD07104800000009B504480068044B12
:10D1A00003441B68D3F8D430029309BDB0AD071017
:10D1B0004800000009B504480068044B03441B689C
:10D1C0005B68029309BD0000B0AD071008000000C5
:10D1D00009B504480068044B03441B685B6902936B
:10D1E00009BD0000B0AD07100800000009B50448F3
:10D1F0000068044B03441B68DB6A029309BD00000E
:10D20000B0AD07100800000009B504480068044BE1
:10D2100003441B68DB6C029309BD0000B0AD07102E
:10D220000800000009B504480068044B03441B686B
:10D230005B6D029309BD0000B0AD0710080000004F
:10D2400009B504480068044B03441B68D3F88830D0
:10D25000029309BDB0AD07100800000009B50448ED
:10D260000068044B03441B68D3F89430029309BD53
:10D27000B0AD07100800000009B504480068044B71
:10D2800003441B68DB68029309BD0000B0AD0710C2
:10D290002C00000009B504480068044B03441B68D7
:10D2A0005B69029309BD0000B0AD07102C000000BF
:10D2B00009B504480068044B03441B681B6A0293C9
:10D2C00009BD0000B0AD07102C00000009B50448EE
:10D2D0000068044B03441B68DB6B029309BD00002C
:10D2E000B0AD07102C00000009B504480068044BDD
:10D2F00003441B685B68029309BD0000B0AD0710D2
:10D300002800000009B504480068044B03441B686A
:10D310009B68029309BD0000B0AD07102800000013
:10D3200009B504480068044B03441B68DB6802939A
:10D3300009BD0000B0AD07102800000009B5044881
:10D340000068044B03441B681B69029309BD00007D
:10D35000B0AD07102800000009B504480068044B70
:10D3600003441B685B69029309BD0000B0AD071060
:10D370002800000009B504480068044B03441B68FA
:10D380009B69029309BD0000B0AD071028000000A2
:10D3900009B504480068044B03441B68DB69029329
:10D3A00009BD0000B0AD07102800000009B5044811
:10D3B0000068044B03441B681B6A029309BD00000C
:10D3C000B0AD07102800000009B504480068044B00
:10D3D00003441B681B6B029309BD0000B0AD07102E
:10D3E0002800000009B504480068044B03441B688A
:10D3F0005B6B029309BD0000B0AD07102800000070
:10D4000009B504480068044B03441B681B6C029375
:10D4100009BD0000B0AD07102800000009B50448A0
:10D420000068044B03441B685B6C029309BD000059
:10D43000B0AD07102800000009B504480068044B8F
:10D4400003441B685B6D029309BD0000B0AD07107B
:10D450002800000009B504480068044B03441B6819
:10D460009B6D029309BD0000B0AD071028000000BD
:10D4700009B504480068044B03441B681B68029309
:10D4800009BD0000B0AD07100400000009B5044854
:10D490000068044B03441B685B68029309BD0000ED
:10D4A000B0AD07100400000009B504480068044B43
:10D4B00003441B685B6A029309BD0000B0AD07100E
:10D4C0000400000009B504480068044B03441B68CD
:10D4D000DB6A029309BD0000B0AD07100400000034
:10D4E00009B504480068044B03441B681B6B029396
:10D4F00009BD0000B0AD07100400000009B50448E4
:10D500000068044B03441B681B6C029309BD0000B8
:10D51000B0AD07100400000009B504480068044BD2
:10D5200003441B685B6C029309BD0000B0AD07109B
:10D530000400000009B504480068044B03441B685C
:10D540009B6D029309BD0000B0AD07100400000000
:10D5500009B504480068044B03441B68DB6D029363
:10D5600009BD0000B0AD0710040000000021FFF766
:10D570002FBE38B5046805467CB16368013B636023
:10D580005BB9236820469B689847A368013BA3606A
:10D590001BB923682046DB689847284638BD10B57C
:10D5A000836804460BB901F021FAC3689847A36861
:10D5B0001BB103222146204698472046BDE8104073
:10D5C0001021FDF79EBD10B58368044613B10322F8
:10D5D00001469847204610BD13B56C460B460246DF
:10D5E000D0E9000184E8030093E8030082E8030027
:10D5F00094E8030083E8030002B010BD0023024852
:10D600000360FFF7D5BA00BF14AF071070470020C2
:10D61000704710B504461021FDF773FD204610BD7C
:10D6200008B5FFF7F6FF08BD002230B54FF69C7431
:10D63000026084808D888C800C68858004600A601C
:10D6400030BD10B504460068FFF720FF204610BD2E
:10D6500038B5C46814B32378DBB2022B03D104F1CC
:10D660000C00FFF7EEFF231D1D6835B12846FFF7BC
:10D67000AAFF10212846FDF744FD04F108031D68A8
:10D6800035B12846FFF79FFF10212846FDF739FDE9
:10D690002046BDE838401421FDF733BD38BD0B6886
:10D6A00003604B68436013B15A6801325A60704797
:10D6B00037B5044668460D46FFF7F1FF009B019A17
:10D6C00023600023626001A801930093FFF751FFDC
:10D6D00035B1281DFFF74DFF08212846FDF711FD44
:10D6E000204603B030BD826810B50AB901F07EF95A
:10D6F000C368BDE81040184708B5006800F1100184
:10D70000FFF7F1FF08BD826810B50AB901F06EF9A4
:10D71000C368BDE81040184708B5006800F1100163
:10D72000FFF7F1FF08BD000038B500230446036091
:10D7300010200D46FDF7E1FC28B10123C0E90133BB
:10D74000024BC56003602060204638BD94FD3F0257
:10D750007FB50026ADF804100546694602A800967C
:10D76000FFF762FF1420FDF7C8FC044648B102230E
:10D7700003700123C0E90166437002A90C30FFF772
:10D7800053FF2846214640F8044BFFF7CDFF02A87F
:10D79000FFF757FF6846FFF754FF284604B070BDF7
:10D7A00038B5002383608B6804460D462BB10222F6
:10D7B0009847EB68E360AB68A360204638BD000083
:10D7C000F0B589B004686846FFF72EFF4FF00203FA
:10D7D000D4E84F2F002A03D1C4E8413F0029F7D1F4
:10D7E00021D104F10C0569462846FFF71DFF0122EF
:10D7F000631CC3E88F2F002004F10803D3E8EF6F08
:10D80000C3E8E20F002AF9D16EB1FFF7FDFC78B151
:10D8100029463046FFF767FF3046FFF7D4FE102158
:10D820003046FDF76EFC6846FFF70BFF09B0F0BD10
:10D83000314602A8FFF7B4FFE068B4F9105008B110
:10D8400001F020F906901020ADF81C50FDF755FCB2
:10D850000546E8B1002787601820FDF74EFC044616
:10D8600088B10146876002A8FFF7B6FE049BA26854
:10D87000A360059B0492E26806A9E36004F110002E
:10D880000592FFF7D1FE084B2C60EB60074BAB60B5
:10D8900006A8FFF7D6FE02A8FFF795FE002229464C
:10D8A0000348FFF7BFFCB7E7F1DC3F0285DF3F022B
:10D8B00097DB3F022DE9F0438DB004460E46174634
:10D8C00099469DF85880FFF7E5FC40B96FF0D1010B
:10D8D0002046FFF73DFF20460DB0BDE8F083142041
:10D8E0000025149BCDE908550790CDF828900B939F
:10D8F000FDF703FC014618B1C0E9015505704570FC
:10D9000004A80391FFF710FF1F4B08200893FDF7B1
:10D91000F4FB054610B103A9FFF7C1FE07AB009366
:10D9200039463046159A5FFA88F30995FFF7C0FC2F
:10D93000B8B9039B01331B78DBB293B905934FF65B
:10D940009C7305A903A8ADF81830FFF739FF05A8A7
:10D95000FFF777FE05A80999FFF7AAFE06A8FFF7CB
:10D9600008FE03A905A8FFF79AFE059B069A236007
:10D970000023626006A806930593FFF7FAFD04A84A
:10D98000FFF7F7FDA7E700BF49E03F02012AF8B51E
:10D99000054603D10B6803600020F8BD022A10D0B1
:10D9A000032AF9D10468002CF6D004F11000FFF727
:10D9B00048FE2046FFF707FE18212046FDF7A1FB91
:10D9C000EAE718200E68FDF798FB044650B131468F
:10D9D000FFF7E6FE3069B6F9147008B101F052F8AD
:10D9E0002061A7822C60D7E738B5002383608B685D
:10D9F00004460D462BB102229847EB68E360AB6802
:10DA0000A360204638BD012A70B5044603D10B68D7
:10DA10000360002070BD022A0CD0032AF9D10468EB
:10DA2000002CF6D02046FFF7CEFD14212046FDF74E
:10DA300068FBEEE714200E68FDF75FFB054620B19A
:10DA40003146FFF7D1FF337C2B742560E1E70000FE
:10DA5000F0B5044689B00D4601A81146FFF728FE2F
:10DA6000A4B124B21DB1284601F00CF8054601A866
:10DA700003A90395ADF81040FFF7A2FE03A8FFF736
:10DA8000E0FD02A8FFF775FD09B0F0BD0123019D7F
:10DA9000D5E84F2F002A03D1C5E8413F0029F7D12F
:10DAA000EFD12B730122EB18C3E88F2F2B1DD3E886
:10DAB000EF6FC3E8E24F002AF9D1002EE1D02046F3
:10DAC000FFF7A2FB074660B1304605F10C01FFF7F6
:10DAD0001AFE3046FFF777FD10213046FDF711FBA7
:10DAE000CFE7314603A8FFF77FFF2B7B10208DF88F
:10DAF0001C30FDF702FB0546D0B187601420FDF70E
:10DB0000FCFA044678B10146876003A8FFF764FD7C
:10DB1000059BA268A360069B0592E268E3609DF8FE
:10DB20001C3006922374074B2C60EB60064BAB60F5
:10DB300003A8FFF748FD002229460448FFF772FBBF
:10DB4000C7E700BF11DD3F02FFDF3F0297DB3F0267
:10DB50000022024BC3E900229A60704718AF0710F9
:10DB6000002240681146FFF721BC002240681146A0
:10DB7000FFF738BC00224068FFF726BC002240684F
:10DB800081F00101FFF704BC002340681A461946E2
:10DB9000FFF7F0BB002340681A461946FFF7DCBBCD
:10DBA000002240681146FFF7C9BB002240681146B9
:10DBB000FFF7A8BB002202214068FFF7B1BB00239A
:10DBC00040681A46FFF790BB0322024B5A60024A94
:10DBD0001A60704724AF0710B0FD3F027047F8B5D8
:10DBE000064615460C468F18BC4206D033683046B0
:10DBF0009B6814F8011B9847F6E72846F8BD0022F9
:10DC0000007CFFF78BB80021007CFFF795B800215E
:10DC1000007CFFF79FB80021007CFFF7A9B8002126
:10DC2000007CFFF7B3B810B504461421FDF769FA7C
:10DC3000204610BD0022C0E90022182202800A7886
:10DC400002714A688260CA68C2600A7A02610A691F
:10DC50004261704738B5044615464FF47A73002286
:10DC6000C4E90123094B0846217423602946FFF7C4
:10DC7000A9F8BF3008D16B69DB0705D56868FFF7E5
:10DC800005FCE868FFF702FC204638BDF4FD3F02C2
:10DC90000022007CFFF70AB80023007C1A461946D0
:10DCA000FFF712B810B5044686B06846FFF7C2FF0A
:10DCB00000226946207CFFF793F806B010BD7FB5BF
:10DCC0008DF8041000214FF0640C5B1A18BF01237B
:10DCD000CDE904C101A902928DF80C30FFF7E2FFF3
:10DCE00007B05DF804FB0123FFF7E9BF0022007CC9
:10DCF000FEF7F8BFC9B2FFF7F9BF0022007CFEF7BC
:10DD0000FFBF0121FFF7F9BFFF210022044B0120D3
:10DD1000C3E9001264211A61C3E90201704700BF20
:10DD20002CAF0710704710B504461821FDF7E9F92C
:10DD3000204610BDF0B5037D0E46062B4FF00004C3
:10DD40008DB000F1040712D000F1080515F8011D8F
:10DD50000A22304600F089F9AF42044419D0002C61
:10DD6000F4D02E21304600F067F90444EEE72F236B
:10DD70006A4639460A208DF80040FFF74DF868469C
:10DD8000FDF796F93368024669463046DB689847E6
:10DD9000044620460DB0F0BD10B50446044B1122D8
:10DDA000002140F8043B00F037FE204610BD00BFC4
:10DDB00020FE3F020346074A10B543F8042B01F149
:10DDC000100251F8044B914243F8044BF9D10A7800
:10DDD0001A7010BD20FE3F0210B59DF8084044EABD
:10DDE000032343EA0242042342EA016141600375CE
:10DDF00010BD000007B5064B0360CB7800938B780D
:10DE00004A780978FFF7E8FF03B05DF804FB00BF2C
:10DE100020FE3F02014B024A1A60704740AF0710D4
:10DE20002CFE3F02002340681A46FFF75DBA00222D
:10DE300002214068FFF774BA002240681146FFF7DC
:10DE400061BA002240681146FFF778BA00234068A3
:10DE50001A461946FFF780BA002340681A46194649
:10DE6000FFF788BA00214068FFF7CABA002140686E
:10DE7000FFF7D4BA0022406881F00101FFF788BAA9
:10DE800000224068FFF7A0BA002240681146FFF761
:10DE9000A9BA002240681146FFF788BA00214068FD
:10DEA000FFF7D8BA2DE9F0430026984699B00D4601
:10DEB00014460746FFF770FF1C22314611A803964F
:10DEC00000F0AAFDB8F1000F2CD140236868109330
:10DED000049618B104A9C0B2FEF790FF049B204637
:10DEE0000093002103AB10AAFEF7B2FF04460028FE
:10DEF0004DD1024601216868FFF720FA02218046D1
:10DF000022466868FFF71AFA21468146039E002ED2
:10DF10003DD000293BD17368022B05D00A2B13D0CA
:10DF2000F669F4E71D4BD1E7B8F1000FF8D071693D
:10DF30000AA804313C1D0BADFFF75CFF0FCD0FC4E9
:10DF40002B6841462370EBE7B9F1000FE8D01022AF
:10DF500005A8746900F060FD062305AD8DF8243036
:10DF600004F1080318342A4618685968083303C2B4
:10DF7000A3421546F7D105A90AA83C1D0BADFFF732
:10DF800019FF0FCD0FC42B6849462370C8E70398CB
:10DF9000FEF750FF384619B0BDE8F083400000405E
:10DFA000033802289ABF024B53F8200001487047FB
:10DFB00030FE3F0244AF071008B500224068FFF76B
:10DFC0003BFABDE80840FFF7EBBF0000024B034AF5
:10DFD0001A6000225A60704744AF071044FE3F02A7
:10DFE000F8B506460D4600248F18BD420CD03368A4
:10DFF00030469B6815F8011B9847031E01DB1C4443
:10E00000F3E7002C08BF1C462046F8BD13B50446B4
:10E01000084659B10191FDF74BF8024620462368A6
:10E020000199DB6802B0BDE81040184702B010BD8E
:10E0300008B5FFF7EBFF08BD03689B68184738B5C4
:10E040000D210546FFF7F8FF0A2104462846FFF791
:10E05000F3FF204438BD38B50546FFF7D7FF044627
:10E060002846FFF7ECFF204438BD0023012A98BF63
:10E070000A2230B58BB08DF8243009AC0D46B1FBC7
:10E08000F2F101FB125303F0FF03092B94BF30336D
:10E090003733DBB2AA4204F8013DEFD92146FFF73E
:10E0A000B5FF0BB030BD2DE9F04186B000AF05469D
:10E0B0000E46381D142114463B60FFF7F5F913286E
:10E0C0000ED82846391DFFF7A1FF04461EB1284689
:10E0D000FFF7B5FF044420461837BD46BDE8F08180
:10E0E00000F1080323F00703E846ADEB030D2246D9
:10E0F000411C3B686846FFF7D7F969462846FFF799
:10E1000085FF0446C546E1E710B50446FFF728F849
:10E11000844208D01CB1BDE81040FFF705B8BDE847
:10E120001040FFF70FB810BD70B505460E461446F7
:10E13000FFF716F850B144EA062444EA0540FEF71A
:10E14000E5FFBDE87040E720FFF718B870BD00009C
:10E150000022014B9A6070474CAF07100021FEF778
:10E16000F5BE0021FEF7E4BE10B504460846217056
:10E17000FEF7A6FE00232046636010BD13B50446DB
:10E180000078FFF7EEFF58B920784FF6FF71019045
:10E19000FEF77AFE019802B0BDE81040FFF7DEBF3F
:10E1A00002B010BD0078FFF7D9BF000030B50024E1
:10E1B000400818601868E5B2884206D90134082C76
:10E1C00002D040081860F5E70725024B5B5D13702D
:10E1D00030BD00BF80FE3F022DE9F04306468FB000
:10E1E00000780C46FFF7BDFF00281BDB142200213E
:10E1F00009A8357800F010FC0B230022284609A955
:10E20000ADF82430FEF778FE9DF82D3013B19DF85F
:10E210002C5055B100270125B946B84623795DB188
:10E22000C3B100200FB0BDE8F083DDF830809DF869
:10E2300034909DF83570F1E7002B35D1A368434544
:10E2400008D18DF820908DF82170BDF82020A38989
:10E250009A42E6D00023A1688DF80F300A9804ABEB
:10E260000DF10F02FFF7A2FF217985B989B9A368E3
:10E2700043450ED38DF820908DF82170BDF82020F5
:10E28000A3899A4205D1049B434502D1C9E70029DD
:10E29000F9D100230193637B9DF80F200093237B2A
:10E2A0003078FEF737FEBCE72B462A460121CDE940
:10E2B0000055F5E708B50078FEF7F4FDC0B208BDDB
:10E2C00010B50446FEF790FCE060236820465B69C9
:10E2D0009847002808DAFEF787FCE368C01AA368AD
:10E2E0009842F2D34FF0FF3010BD2DE9F0410746C0
:10E2F0000C460D468E18B542A5EB040807D03846EB
:10E30000FFF7DEFF031E02DB05F8013BF3E74046A3
:10E31000BDE8F08102220020044B1A60044B054A3C
:10E32000C3E900009A60FEF745BF00BF68AF071061
:10E330005CAF07100000FFFF024B1A68024B1A6027
:10E34000704700BFB4AD07106CAF0710F8B587B2C7
:10E35000044638460D46164600F0CCF960B102215D
:10E360003846FEF75DFC022806D132462946204693
:10E37000BDE8F840FEF77ABDF8BD704741747047BC
:10E3800008B5007CFEF744FE20EAE07008BD08B541
:10E39000007CFEF7F7FD20EAE07008BD08B5007CC0
:10E3A000FEF70CFE40EAE07008BD08B5007CFEF701
:10E3B000F7FD40EAE07008BD007CFEF70DBE37B502
:10E3C000457C04462DB1207C03B0BDE83040FEF70B
:10E3D000CBBD007C0191FEF71BFE00280199F2DC09
:10E3E000284603B030BD10B504461421FCF789FE61
:10E3F000204610BD10B54FF47A7304460846114606
:10E400000022C4E90123044B2074236001236374B8
:10E41000FEF70CFE204610BDACFE3F02007CFEF76E
:10E42000E9BD417470477047704708B50021007C12
:10E43000FEF742FE40EAE07008BD08B50121007C0D
:10E44000FEF73AFE40EAE07008BD08B5007CFEF732
:10E4500025FE20EAE07008BD08B5007CFEF710FE3E
:10E4600020EAE07008BD13B50446007C0191FEF778
:10E4700015FE0028019901DC607C20B1207CFEF7AC
:10E4800029FE20EAE07002B010BD007CFEF730BE2D
:10E4900010B504461421FCF734FE204610BD0000E0
:10E4A00010B54FF47A73044608460021C4E90113FD
:10E4B000044B20742360012311466374FEF7C4FDEE
:10E4C000204610BDE0FE3F020022007CFEF7CABDE0
:10E4D00010B504461422002100F09EFA204610BD1B
:10E4E00010B588B003A8FFF7F3FF0C4CD4E88F1FDA
:10E4F00011F001010FD120460191FFF71BF801999E
:10E5000048B103AA0648FFF7CBFF2046FFF720F8E3
:10E51000044800F06EFA024808B010BD70AF071052
:10E5200074AF07101FEA3F02002240681146FEF751
:10E5300005BF002240681146FEF738BF0022406840
:10E540001146FEF74FBF00224068FEF73DBF002294
:10E55000406881F00101FEF71BBF002340681A46A6
:10E560001946FEF707BF002340681A461946FEF712
:10E57000F3BE002240681146FEF7C4BE002202210D
:10E580004068FEF7CDBE002340681A46FEF7ACBED9
:10E590000422024B5A60024A1A60704788AF071083
:10E5A00014FF3F02014B1860704700BFB8AD071061
:10E5B00008B50F4B43B1FFF793FF03681B699847FA
:10E5C000002801DD00E000BF0A4B43B100F07CF9F8
:10E5D00003681B699847002801DD00E000BF064B77
:10E5E0000BB100F0B7F9054B0BB100F0E9F908BD2C
:10E5F000000000000000000000000000000000001B
:10E6000008B5FFF7D5FFFEF7EFFA014B186008BD1C
:10E6100098AF07100548064A08B5121A054900F0D8
:10E62000EEF9054B054A1A6008BD00BF00B407109B
:10E6300004B4071070FA5F0800B407101E1C279A74
:10E64000002307B51A466FF077010093FEF706FE28
:10E6500003B05DF804FB000007B543880A2B08D01F
:10E66000502B0BD1094B1B684BB103B05DF804EB89
:10E670001847FFF7E5FF03B05DF804FB00231A46D7
:10E680006FF077010093FEF7E9FDF4E794AF071010
:10E69000002110B51148FEF73FFF114B1A68114BCE
:10E6A0009A420CBF012200220F4B1A7001D0FFF7D3
:10E6B000B1FFFEF78BFA044600F0B6F90B4B13B12D
:10E6C000204600E000BF00210848FEF7FFFDBDE83E
:10E6D000104000210648FEF7B3BD00BF9DEB3F028E
:10E6E00000B407101E1C279A90AF0710000000000E
:10E6F00051EC3F021B2837B5044602D9002003B075
:10E7000030BDA0F10F03022B0BD9012821D800F056
:10E7100087F80021007CFEF747FB80F00100C0B2C3
:10E72000EDE7114DD5E88F1F11F001010BD12846FF
:10E730000191FEF7FFFE019928B10C48FFF714FD87
:10E740002846FEF705FF094B1878FEF7C7FB00289F
:10E75000D4D1083C012C05D800F0B6F8007CFEF7B7
:10E7600049FCDAE70120CAE7E4AE0710E8AE07107B
:10E770001B2838B504460D460AD8FF2908D0FFF7F4
:10E78000B9FF28B129462046BDE83840FEF756BA01
:10E7900038BD38B504460D46FEF75EFAFF2810D0A6
:10E7A000062804D84D2323FA00F0C30709D42046D5
:10E7B000FFF7A0FF28B129462046BDE83840FEF704
:10E7C00059BA38BD10B50446FEF746FA031FDBB24E
:10E7D000012B08D92046FFF78DFF20B12046BDE868
:10E7E0001040FEF755BA002010BD704738B50A4BEF
:10E7F00004460360012309494361202000F0F4F836
:10E800002025606005492846A56000F0EDF8C4E9C0
:10E810000305204638BD00BF1800010050FF3F022D
:10E8200030B50E4D87B0D5E88F1F11F0010411D11E
:10E830002846FEF77FFE68B16846FFF7D7FF6A46B5
:10E8400021460748FFF706FA2846FEF781FE0548ED
:10E8500000F0CFF8024807B030BD00BF9CAF0710F2
:10E86000A0AF0710E3ED3F027047000038B5142554
:10E8700004462A46002100F0CFF8258040250749AC
:10E8800028462581258200F0AFF8044960602846BB
:10E8900000F0AAF8E060204638BD00BF50FF3F02FC
:10E8A0007047704710B50446FFF7E0FF204610BDE3
:10E8B00010B50446FFF7DAFF204610BD10B5044638
:10E8C000FFF7D4FF204610BD30B50E4D87B0D5E818
:10E8D0008F1F11F0010411D12846FEF72BFE68B1FD
:10E8E00001A8FFF7DFFF214601AA0748FFF782FDD5
:10E8F0002846FEF72DFE054800F07BF8024807B0D9
:10E9000030BD00BFB4AF0710C0AF071061EE3F02CB
:10E9100010B50D4C86B0D4E88F3FDB0711D42046EC
:10E92000FEF708FE68B101A8FFF7C2FF012101AAA6
:10E930000648FFF75FFD2046FEF70AFE044800F098
:10E9400058F8024806B010BDB8AF0710D4AF071092
:10E950009BEE3F0210B5FFF7DBFF074B044653B1B8
:10E96000FFF75CFD38B1236820461B6998470028F3
:10E9700001DD00E000BF10BD0000000010B50D4C2F
:10E9800086B0D4E88F3FDB0711D42046FEF7D2FDD6
:10E9900068B101A8FFF792FF022101AA0648FFF71C
:10E9A00029FD2046FEF7D4FD044800F022F8024875
:10E9B00006B010BDBCAF0710E8AF071099EE3F02DC
:10E9C00010B5FFF7DBFF074B044653B1FFF726FDF9
:10E9D00038B1236820461B699847002801DD00E014
:10E9E00000BF10BD00000000FCF789BB08B5FEF7B2
:10E9F00069FD002301461A461846FCF79DBB0A44F0
:10EA0000431E914200D1704710B511F8014B91425D
:10EA100003F8014FF9D110BD02440346934200D1DF
:10EA2000704703F8011BF9E738B5104B04461D6821
:10EA3000AB6BB3B91820FEF71BFD0246A86320B9E3
:10EA40000B4B42210B48FEF759FD0B490B4BC0E91C
:10EA500000130B4B002183600B2383810120C2E94B
:10EA60000401AB6B00221C615A6138BDB8AD0710C0
:10EA700051FF3F0268FF3F020E33CDAB34126DE60B
:10EA8000ECDE0500024B0146186800F003B800BF39
:10EA9000B8AD071037B5044608460D46FCF708FB2D
:10EAA000421C204611460192FEF71AFD044618B199
:10EAB000019A2946FFF7A3FF204603B030BD0000AE
:10EAC000B9B63F02E1B63F02E5B63F0200000000E2
:10EAD00043616C6C206F6E20707572652076697270
:10EAE0007475616C00436F756C646E277420666981
:10EAF0006E642073736431333036006D6964646C06
:10EB00006520627574746F6E2073686F7274207004
:10EB100072657373656400737461727400746F6DF1
:10EB200061746F2F7072657373656400000000007C
:10EB3000003E5B4F5B3E3E6B4F6B3E1C3E7C3E1C83
:10EB4000183C7E3C181C577D571C1C5E7F5E1C00C9
:10EB5000183C1800FFE7C3E7FF0018241800FFE780
:10EB6000DBE7FF30483A060E2629792926407F0543
:10EB70000507407F05253F5A3CE73C5A7F3E1C1C59
:10EB800008081C1C3E7F14227F22145F5F005F5F19
:10EB900006097F017F006689956A60606060609405
:10EBA000A2FFA29408047E040810207E201008080A
:10EBB0002A1C08081C2A08081E101010100C1E0C15
:10EBC0001E0C30383E3830060E3E0E0600000000A7
:10EBD0000000005F00000007000700147F147F148E
:10EBE000242A7F2A122313086462364956205000D3
:10EBF00008070300001C2241000041221C002A1CBF
:10EC00007F1C2A08083E08080080703000080808A9
:10EC10000808000060600020100804023E514945C9
:10EC20003E00427F400072494949462141494D33E7
:10EC30001814127F1027454545393C4A494931414E
:10EC4000211109073649494936464949291E00001C
:10EC50001400000040340000000814224114141471
:10EC60001414004122140802015909063E415D595D
:10EC70004E7C1211127C7F494949363E4141412266
:10EC80007F4141413E7F494949417F090909013E90
:10EC9000414151737F0808087F00417F41002040B7
:10ECA000413F017F081422417F404040407F021CC9
:10ECB000027F7F0408107F3E4141413E7F090909E0
:10ECC000063E4151215E7F091929462649494932AC
:10ECD00003017F01033F4040403F1F2040201F3F72
:10ECE0004038403F631408146303047804036159F7
:10ECF000494D43007F414141020408102000414139
:10ED0000417F0402010204404040404000030708E4
:10ED10000020545478407F284444383844444428E0
:10ED2000384444287F385454541800087E09021887
:10ED3000A4A49C787F0804047800447D400020400F
:10ED4000403D007F1028440000417F40007C047853
:10ED500004787C080404783844444438FC1824249B
:10ED60001818242418FC7C0804040848545454241B
:10ED700004043F44243C4040207C1C2040201C3C98
:10ED80004030403C44281028444C9090907C44648F
:10ED9000544C440008364100000077000000413622
:10EDA000080002010204023C2623263C1EA1A161A8
:10EDB000123A4040207A38545455592155557941DA
:10EDC0002254547842215554784020545579400CAF
:10EDD0001E52721239555555593954545459395592
:10EDE0005454580000457C410002457D42000145D5
:10EDF0007C407D1211127DF0282528F07C54554569
:10EE0000002054547C547C0A097F493249494932D4
:10EE10003A4444443A324A4848303A4141217A3AE5
:10EE200042402078009DA0A07D3D4242423D3D40B1
:10EE300040403D3C24FF2424487E4943662B2FFC60
:10EE40002F2BFF0929F620C0887E0903205454790E
:10EE5000410000447D413048484A32384040227ADF
:10EE6000007A0A0A727D0D19317D2629292F28265C
:10EE70002929292630484D40203808080808080864
:10EE80000808382F10C8ACBA2F102834FA00007BBD
:10EE9000000008142A142222142A140855005500D0
:10EEA00055AA55AA55AAFF55FF55FF000000FF00BF
:10EEB000101010FF00141414FF001010FF00FF10BA
:10EEC00010F010F0141414FC001414F700FF0000EC
:10EED000FF00FF1414F404FC141417101F10101F6B
:10EEE000101F1414141F00101010F0000000001F59
:10EEF000101010101F10101010F010000000FF1064
:10EF00001010101010101010FF10000000FF14005F
:10EF100000FF00FF00001F10170000FC04F4141491
:10EF20001710171414F404F40000FF00F71414145D
:10EF300014141414F700F7141414171410101F10DD
:10EF40001F141414F4141010F010F000001F101F00
:10EF50000000001F14000000FC140000F010F0106E
:10EF600010FF10FF141414FF141010101F000000E5
:10EF700000F010FFFFFFFFFFF0F0F0F0F0FFFFFFE9
:10EF80000000000000FFFF0F0F0F0F0F3844443840
:10EF900044FC4A4A4A347E02020606027E027E028F
:10EFA00063554941633844443C04407E201E20069A
:10EFB000027E020299A5E7A5991C2A492A1C4C72D7
:10EFC00001724C304A4D4D303048784830BC625A5E
:10EFD000463D3E494949007E0101017E2A2A2A2AEE
:10EFE0002A44445F444440514A444040444A5140CA
:10EFF0000000FF0103E080FF000008086B6B08368B
:10F0000012362436060F090F0600001818000000FB
:10F010001010003040FF0101001F01011E00191DEA
:10F020001712003C3C3C3C000000000000000000C7
:10F0300000000000000000000000000021C23F02AC
:10F04000D9E53F0201B73F022BBC3F022DBC3F0276
:10F050005FBC3F023BBC3F024DBC3F026DBB3F0269
:10F060002BBC3F0255BE3F0253BE3F0277BC3F025E
:10F07000B5BC3F02EFBC3F0235BD3F0251BD3F0270
:10F08000D3BD3F0264656661756C7420004D5342C8
:10F09000004C5342003C53504953657474696E6789
:10F0A000732064656661756C743E003C535049532F
:10F0B000657474696E677320257325752025732028
:10F0C0004D4F444525753E00000000000000000043
:10F0D00065C33F0239C33F023BC33F02000000004B
:10F0E000000180000000000000000000038000001C
:10F0F0000000000000000007C00000000000000049
:10F10000000007C00000000000000000000FC00069
:10F1100000000000000000001FE0000000000000F0
:10F120000000001FE00000000000000000003FE0C1
:10F130000000000000000000003FF00000000000A0
:10F14000000000007FF0000000000000001FF87FBA
:10F15000F0000000000000003FFE7FF00000000013
:10F160000000003FFF7FF0000000000000001FFFD4
:10F17000FBE0000000000000000FFFF9FFC00000EE
:10F18000000000000FFFF9FFF8000000000000077A
:10F19000FFF1FFFF00000000000003FC73FFFF8091
:10F1A000000000000001FE3FFFFF800000000000A3
:10F1B00000FF1E0FFF000000000000007FFE1FFC8C
:10F1C000000000000000003FFFFFF800000000000A
:10F1D00000000FDFFFE0000000000000001F19FF2B
:10F1E000C0000000000000003F3CFF0000000000E5
:10F1F0000000007E7CF800000000000000007FFEA0
:10F200007C0000000000000000FFFFFC0000000088
:10F2100000000000FFFFFE0000000000000000FFF3
:10F22000FFFE0000000000000001FFEFFE000000F4
:10F230000000000001FFCFFE0000000000000003FE
:10F24000FF07FE0000000000000003FC07FE0000B6
:10F25000000000000003F003FE00000000000000BA
:10F26000018000FE000000000000000000007E00A1
:10F270000000000000000000003E00000000000050
:10F28000000000000C000000000000078000FC00EF
:10F290000003C0000000078001FC000003C0000064
:10F2A00000078001FC000003C0000000078001E0AF
:10F2B0000000001E000000078001E00000001E00AA
:10F2C0007FE3F79FF9FDE7787BDFC0FFF7FFBFFD26
:10F2D000FDFF787BDFC0FFF7FFBFFDFDFF787BDF21
:10F2E000C0F0F787BC3DE1FF787BDE00F0F787BC1C
:10F2F0003DE1F0787BDE0000F787803DE1E0787B40
:10F30000DE007FF7879FFDE1E0787BDE00FFF78777
:10F31000BFFDE1E0787BDE00F0F787BC3DE1E078FF
:10F320007BDE00F0F787BC3DE1E0787BDE00F0F7A4
:10F3300087BC3DE1E0787BDE00FFF7FFBFFDE1E049
:10F340007FFBDFC0FFF7FFBFFDE1E07FFBDFC07C9D
:10F35000F3F39F3DE1E03E7BCFC0000000000000E2
:10F360000000000000FFFFFFFFFFFFFFFFFFFFC0E7
:10F37000FFFFFFFFFD68DB111A31C0FFFFFFFFFD3C
:10F380002B5AFB6AEFC0FFFFFFFFFD4B5B3B1A33BD
:10F39000C0FFFFFFFFFD6B5BDB6AFDC0000060008C
:10F3A00000000000000000000000000000E000007D
:10F3B000000000000000000000000001E00000006C
:10F3C0000000000000000000000001F0000000004C
:10F3D00000000000000000000003F000000000003A
:10F3E000000000000000000007F000000000000026
:10F3F0000000000000000007F8000000000000000E
:10F400000000000000000FF800000003C0007E00B4
:10F410000001E0007F0FF800000003C000FE0000C4
:10F4200001E000FFEFF800000003C000FE00000153
:10F43000E000FFFFF800000003C000F00000000F34
:10F44000007FFE7FC0000003C000F00000000F003E
:10F450003FFE7FF83FF1FBCFFCFEF3BC3DEFE01F2A
:10F46000FE7FFF7FFBFFDFFEFEFFBC3DEFE01FC620
:10F47000FFFF7FFBFFDFFEFEFFBC3DEFE00FE3C7BA
:10F48000FE787BC3DE1EF0FFBC3DEF0007FF87FC6C
:10F49000787BC3DE1EF0F83C3DEF0001FFFFF0007B
:10F4A0007BC3C01EF0F03C3DEF0001F37FE03FFB6B
:10F4B000C3CFFEF0F03C3DEF0003E33F807FFBC392
:10F4C000DFFEF0F03C3DEF0007E73C00787BC3DE59
:10F4D0001EF0F03C3DEF0007FFBE00787BC3DE1E50
:10F4E000F0F03C3DEF0007FFFE00787BC3DE1EF02E
:10F4F000F03C3DEF000FFFFE007FFBFFDFFEF0F072
:10F500003FFDEFE00FFFFF007FFBFFDFFEF0F03F6E
:10F51000FDEFE00FF9FF003E79F9CF9EF0F01F3DBF
:10F52000E7E01FF1FF000000000000000000000005
:10F53000001F80FF007FFFFFFFFFFFFFFFFFFFE0D7
:10F540001C007F007FFFFFFFFEB46D888D18E00078
:10F55000001F007FFFFFFFFE95AD7DB577E0000047
:10F560000F007FFFFFFFFEA5AD9D8D19E000000697
:10F57000007FFFFFFFFEB5ADEDB57EE000000000AF
:10F5800000000000B9C33F02D1C33F0221C23F02C5
:10F59000D9E53F02E5C33F022BBC3F022DBC3F0231
:10F5A0005FBC3F023BBC3F024DBC3F026DBB3F0214
:10F5B0002BBC3F0255BE3F0283C53F02E7CB3F0253
:10F5C00099CB3F02EFBC3F0235BD3F0251BD3F0228
:10F5D000D3BD3F020080C0E0F0F8FCFE000103074D
:10F5E0000F1F3F7FAED580A8D300408D2000A1C85B
:10F5F000DB40A4A62EAF2200FF2100424D49313648
:10F600003047656E436C6173733A3A6932635F6980
:10F610006E697428292E2E2E00424D49313630470E
:10F62000656E436C6173733A3A6932635F696E6900
:10F630007428293A20493243206661696C65642E3A
:10F6400000424D4931363047656E436C6173733A01
:10F650003A6932635F696E697428293A20434849E0
:10F6600050204944203D20307800424D4931363009
:10F6700047656E436C6173733A3A6932635F696ED2
:10F68000697428292E2E2E646F6E65006932635FBF
:10F6900078666572286F6666733D3078002C20743A
:10F6A000783D002C2072783D00293A005769726538
:10F6B0002E656E645472616E736D697373696F6EDB
:10F6C0002829206661696C65642E00424D493136F7
:10F6D0003047656E436C6173733A3A7370695F6962
:10F6E0006E697428292E2E2E00424D49313630473E
:10F6F000656E436C6173733A3A7370695F696E69E2
:10F700007428293A205741524E494E473A204E6FAD
:10F7100020636869702073656C6563742070696E1E
:10F72000207370656369666965642E00424D4931D6
:10F73000363047656E436C6173733A3A7370695F34
:10F74000696E697428292E2E2E646F6E6500424DF5
:10F750004931363047656E436C6173733A3A737062
:10F76000695F7866657228002C00000000000000C8
:10F77000000000008BD13F0211D03F0229D13F028F
:10F7800000000000000000008BD13F0285D13F0245
:10F7900087D13F02000000000000000005DC3F02AE
:10F7A0000BDC3F0249DC3F0219DC3F0207DC3F0271
:10F7B0000000000000000000B7E13F02ADE13F02A1
:10F7C000A3E13F0299E13F028DE13F0281E13F0267
:10F7D0005DE43F0265E43F0275E13F026DE13F02F7
:10F7E00063E13F0259E13F02B1E53F0295E43F0288
:10F7F0009DE43F020000000000000000D5E13F0250
:10F800001FE23F02F7E13F02D7E13F02FFE13F0283
:10F8100007E23F020FE23F0217E23F02E3E83F0246
:10F8200000000000000000002DE33F021DE33F0246
:10F830001FE33F026170700024AF071088AF07100C
:10F8400044AF071000000000000000001DE43F026C
:10F8500027E43F0231E43F023BE43F0245E43F023C
:10F8600051E43F025DE43F0265E43F026DE43F0284
:10F8700079E43F0281E43F028BE43F02B1E53F02BD
:10F8800095E43F029DE43F0200081018202830381C
:10F8900025592D256D2D25645425483A254D3A25A9
:10F8A00053257A0061736374696D65000000000080
:10F8B0000000000073E93F02DFE93F02B7E93F02C1
:10F8C000D9E53F0287E93F02A3E93F0295E93F02FC
:10F8D000B1E93F02E3E83F0275E93F0279E93F02FF
:10F8E000000000000000000021EA3F0289EA3F0218
:10F8F0005FEA3F02D9E53F0251EA3F0223EA3F02B5
:10F9000033EA3F0283EA3F02E3E83F0243EA3F0271
:10F910001BEA3F0200000000000000007FEB3F02F6
:10F9200075EB3F026BEB3F0221EB3F025FEB3F02C7
:10F9300053EB3F025DE43F0265E43F0247EB3F02C9
:10F940003FEB3F0235EB3F022BEB3F02B1E53F02BD
:10F9500095E43F029DE43F02005245454E54206D20
:10F96000616C6C6F632073756363656564656400C7
:10F970002F746D702F6A656E6B696E732D474343EC
:10F980002D31302D706970656C696E652D34385F6E
:10F9900032303230313132345F3136303631383016
:10F9A0003633392F7372632F6E65776C69622F6EF1
:10F9B00065776C69622F6C6962632F7374646C691C
:10F9C000622F72616E642E630000000025B93F0251
:10F9D0009DBA3F0269D13F0299D13F02F5DB3F0258
:10F9E00049E13F02C1E13F0201E33F020DE43F0272
:10F9F000C5E53F0249E73F020DE93F0231E93F0219
:04FA000089EB3F024D
:10FA0400000000029CFE3F02BCAD07100000000095
:10FA140000000000000000000000000000000000E2
:10FA240000000000000000000000000000000000D2
:10FA340000000000000000000000000000000000C2
:10FA440000000000000000000000000000000000B2
:10FA540000000000000000000000000000000000A2
:0CFA640000000000000000000000000096
:04FA70000000000092
:10FFBE000200100000B05F08A8B05F08A0B63F02B4
:10FFCE0001000A00FFFFFFFFFFFF00000102030414
:10FFDE0005060708090A0B0C0D0E0F10111213144B
:0EFFEE0015161718191A1B1C1D1E1F203E0089
:04FFFC0078563412ED
:04000005085FB018C8
:00000001FF
