:02000004085F93
:10B0000000B05F08FCFF5F0800000600200005019B
:08B0100004010D17000000000F
:10B018001348144908B5884205D0134A824202D021
:10B02800124B121A98471248124A0021124B121A50
:10B03800984712481249884205D0124A824202D0E3
:10B048000A4B121A984710481049884205D0104AEE
:10B05800824202D0054B121A9847014808BD00BF2A
:10B0680024AD071064F75F0894AD07102D0D11107B
:10B0780094AD0710FCAF0710A10E111040B93F02A4
:10B08800A8B05F0848B93F0248B93F02B0B05F08AE
:0CB09800FCFF3F0219B05F080000000040
:08B0A8009CB05F0890F03F022C
:10B0B000034613F8012B002AFBD1181A01387047F8
:10B0C00070B503F039F90025054E064CA41BA40801
:10B0D000AC4200D170BD56F8043B98470135F7E704
:10B0E000C8FF3F02FCFF3F0200F022B808B500F0A5
:10B0F00073F8BDE8084003F0D7B802F0AFBA02F029
:10B10000ADBA02F0B9BA00000C2008B5024A0349F2
:10B1100002F062F9FEE700BFA5D63F02A0F03F02B1
:10B120000078B0FA80F0400970470123037070473F
:10B1300007B5012002F0A6FD00221146104602F0DC
:10B14000B1FD03F021F84FF4165103F011F803F0AC
:10B150000FFA4FF4165102F0B3FF1A4800F07CF9D1
:10B160000221184800F097F90121164800F09AF9D9
:10B17000642002F0B9FA4421134800F0CFFE20B950
:10B1800003F002F8114902F024FD0F4800F0BCFE64
:10B1900001233C2202210E48009301F0A5F820B9BA
:10B1A00002F0F2FF0B4902F001FD0121084801F015
:10B1B000F3FB074801F089F8054803B05DF804EB9C
:10B1C00001F04EBBC6AD0710CCAD0710B5F03F0285
:10B1D000E8AD0710C9F03F0210B5504C86B0D4E876
:10B1E0008F1F11F001010BD120460191FFF798FF4D
:10B1F000019928B14A4800F05BF92046FFF795FF16
:10B2000001F012FE474C2368C01A27281DD901F00F
:10B210000BFE2060444800F0DDF8012804462CD1E4
:10B2200002F0B2FF414902F0D4FC2146404800F050
:10B230008FF964224FF4C8710E2002F0D5FE3D480C
:10B2400001F043F83B4801F00BFB01F0EDFD3A4CF7
:10B250002368C01A63285FD901F0E6FD20603048FA
:10B2600000F03CF90246002854D000226420114628
:10B2700006B0BDE8104002F015BD0228E5D102F08D
:10B2800083FF2E4902F0A5FC2A4801F01EF8294848
:10B2900001F0E6FA0021224800F004F9284C0121CF
:10B2A0001F4800F0F8F84FF4967002F01DFA237D65
:10B2B0009BB1032323722368DB68C3B19A88012AF8
:10B2C00006D09B68F9E79B688BB19A88012AFAD16E
:10B2D0009A890A2AF7D102229A7303A8184902F020
:10B2E00007FE03980028B0D002F0C6F9ADE70021B0
:10B2F000102002F0C5F808B92075EEE7114B036085
:10B3000001238380236983600A238381022383735B
:10B310002061E2E70146ABE706B010BDA0AD071023
:10B32000C6AD0710A4AD0710C5AD0710DFF03F0292
:10B33000C7AD0710E8AD0710A8AD0710FBF03F023E
:10B34000ACAD07101000030010B50024134B144AD5
:10B35000C3E900449A60032002F05AF803F0B4F8FD
:10B360000146104800F0A2FD0F210F4800F028F818
:10B3700010210E4800F024F80A210D4800F020F8B2
:10B380000C4800F00BF90C4B1A1D1A600B4AC3E96C
:10B3900002445A6001221C611A7510BD94AD071059
:10B3A0000000FFFFCCAD0710C4AD0710C9AD0710FA
:10B3B000C5AD0710C8AD0710ACAD071010000300F5
:10B3C00038B50D4604460021284603F025F82046EE
:10B3D000257038BD38B51D4C1D4D2378032B0BD877
:10B3E000DFE803F0020C172C007803F03FF808B9EF
:10B3F0000123237000232B70287838BD007803F0D8
:10B4000035F800BB0223237001F00EFD114B1860CC
:10B41000F0E7007803F02AF818B100232370012325
:10B42000E9E701F001FD0B4B1B68C01AB0F5FA6F9C
:10B43000E2D302232B7003232370DDE7007803F0AF
:10B4400015F80028D6D00023D3E700BFE4AD0710DD
:10B45000DCAD0710E0AD071008B50221152002F0A1
:10B46000DBFF00210C2002F0D7FF0021022002F0B8
:10B47000D3FF01210E2002F0CFFF00210E2002F0A9
:10B48000DCFF0121142002F0C7FFBDE808400021C5
:10B49000142002F0D2BF01290CBF00210121142089
:10B4A00002F0CBBF01B10121122002F0C6BF0000A3
:10B4B000094A0129137807D10133DBB2042B88BF75
:10B4C00000231370107870470229FBD1013BDBB2D7
:10B4D000052B88BF0423F4E7E5AD071008B50C2061
:10B4E00002F0C4FF28B1152002F0C0FFB0FA80F0CE
:10B4F000400908BD1FB502F0E7FF084A08490346A6
:10B50000CDE901214FF0FF32802100920548202231
:10B5100000F0E0FD05B05DF804FB00BF801A0600F6
:10B52000A0860100E8AD071007B520230122CDE970
:10B530000032002280231146044800F076F90348C7
:10B5400003B05DF804EB01F08BB900BFE8AD071064
:10B5500070B504460125104800F0B7FE2046FFF7FD
:10B56000E3FF2C460C4E224601232946304600F0CC
:10B570004FFD0134304601F073F9E4B240F291100E
:10B5800002F0B2F8202CEED16B1CDDB21B0600D508
:10B5900070BD0124E7E700BFE8AD071010B5044611
:10B5A0000121062002F038FF0021062002F045FFAD
:10B5B0000121122002F030FF0021122002F03DFF95
:10B5C000204610BD2DE9F04F1F4685B0BDF93880EB
:10B5D000A7EB010AA8EB0209B9F1000FB8BFC9F146
:10B5E0000009BAF1000FB8BFCAF1000AD14583467D
:10B5F0000C461546BDF83C3004DD3A462C4647461D
:10B600000D469046BC4205DD2A46454690462246F8
:10B610003C4617463E1BB2B20092A8EB050282EAF6
:10B62000E271A1EBE271C6F3C03202FA86F645453B
:10B63000B4BF01224FF0FF32019176100292BC425A
:10B640001CDCDBF80020D145D2F81880C7BF2946A2
:10B6500022462A46214603935846C047019A039B37
:10B66000B61AB1B236B2002E05DA029A1544009A23
:10B670002DB2561836B2013424B2E0E705B0BDE869
:10B68000F08F704710B404682469A4465DF8044B39
:10B69000604730B4BDF8085004680295A46BA44616
:10B6A00030BC604730B4BDF8085004680295E46BC4
:10B6B000A44630BC604770B4BDF90C50BDF81060B2
:10B6C0000468CDE90356246CA44670BC60472DE99C
:10B6D000F3411C46164605460F460368013CBDF87B
:10B6E00020805B693444984724B22B68CDF80480ED
:10B6F000009428469C6A32463B463946A047284675
:10B700002B68DB6A02B0BDE8F04118472DE9F34130
:10B71000174604461D460E460368BDF820805B6947
:10B720009847CDE9007822686B1E33442046956A1D
:10B7300031463A461BB2A84720462368DB6A02B06E
:10B74000BDE8F04118472DE9F3471E4603680C4653
:10B750005B6905461746BDF92890BDF82C809847CF
:10B760002644B4422B680BDACDF800802146D3F88A
:10B7700020A03A464B4628460134D04724B2F0E791
:10B780002846DB6A02B0BDE8F047184713B50191BF
:10B79000B0F90E1002680091146C0022B0F90C3060
:10B7A0001146A04702B010BD2DE9F7439942164655
:10B7B00080460D461C46BDF92870BDF82C900268E5
:10B7C00012D1BE42C2BF33463E461F46CDF8289036
:10B7D0007B1C946B9B1B324629464046A4461BB2F9
:10B7E00003B0BDE8F0436047BE420AD19942C2BFF0
:10B7F0000B4625461C46CDF82890631C5B1BD46B7A
:10B80000E9E753699847CDE90079D8F80030404618
:10B810009F6A324623462946B8474046D8F800304A
:10B82000DB6A03B0BDE8F04318472DE9F34704464F
:10B830000F4616461D460368BDF82C805B69BDF9AE
:10B84000289098472368CDF8008032463946204634
:10B85000D3F824A02B46D047236809F1FF32CDF856
:10B860000080324439462046D3F824A012B22B4639
:10B87000D0472368CDF80080324639462046D3F8B9
:10B8800020A04B46D0476B1ED9192368CDF8008005
:10B8900020461D6A32464B4609B2A8472046236817
:10B8A000DB6A02B0BDE8F0471847704701F00303B8
:10B8B000B0F90A208376B0F90830C90759BF8381EF
:10B8C000C2818281C381704730B5018100248181AA
:10B8D0004FF0FF31054D4281C281054A4460C0E905
:10B8E0000512056004610477046230BD1CF63F0256
:10B8F000010100012DE9F04F0026354689B0CDE960
:10B90000021204930268BDF94C30BDF948805269B7
:10B9100005930446BDF850A0904718F1070248BFB0
:10B9200008F10E024FEAE20B0196039B019ABDF962
:10B9300004109A18059B12B28B4227DD4FF00009C4
:10B94000049B334406930FFA89F080451FFA89F16E
:10B9500017DD4F0705BF069BC0106D001D5C18BFAB
:10B96000EDB22B060AD5029B206819448369079221
:10B970001F462046534609B2B847079A09F1010904
:10B98000E1E7019B5E4401330193CEE72046236843
:10B99000DB6A09B0BDE8F04F184700002DE9F04F11
:10B9A0002DED028B91B016461F46026ABDF870302D
:10B9B0008346BDF874809DF878509DF87C400391D3
:10B9C0000493002A40F0C580B0F90C308B4240F35C
:10B9D0004C81B0F90E30B34240F34781062313FB8C
:10B9E0000513002B40F3418106EBC403002B40F309
:10B9F0003C81037F1BB9AF2F84BF0137FFB2DBF857
:10BA0000003058465B69984705220992002205924A
:10BA1000984A07EB8703D3180C93B3B20693059AA1
:10BA20000C9B02FB05F99B5C0793ABB20B93BDF833
:10BA30000C300893039B19FA83F90FFA89F308EE87
:10BA4000103A08234FF000090A93039B02EB030A04
:10BA50000FFA8AFA079ADBF80030D20752D5012D87
:10BA60001FFA89F23ED1012C3CD19B6906991F46F1
:10BA7000049B0A445146584612B2B84709F10103E3
:10BA80004FFA83F9079B5B0807930A9B013B13F06E
:10BA9000FF030A93DED1059F01377BB20593099B13
:10BAA000013B13F0FF030993B9D1049B43450FD029
:10BAB000012DDBF800303BD1012C39D10899CDF8AC
:10BAC000008005311C6A32460823584609B2A04757
:10BAD0005846DBF80030DB6A11B0BDEC028BBDE8E4
:10BAE000F04F184714FB02F206990A440499019199
:10BAF0000094DB6918EE101A1F4658462B4612B206
:10BB0000B847BBE7049A4245B8D0012D1FFA89F225
:10BB100007D1012C05D19B6906991F460A4443466B
:10BB2000A8E714FB02F20699CDF804800A44DFE787
:10BB30000B9AE40002EB8201089ACDF804800A44D3
:10BB400011460094DC6932462B46584609B2A0479C
:10BB5000BEE7137A5168FF1A1268FFB20B9231F8F0
:10BB6000372001EBC70306929A78012D0992DA7803
:10BB700093F906A00C9293F905200A9201D8012CA2
:10BB800057D9BDF9283008930FFA8AF307934FF07D
:10BB90000008C1464746DBF8003058465B699847C5
:10BBA000B3B20E931AFA86F30F930C9B9F428FD277
:10BBB000079B0E9A3B4403FB042300221BB208EEB2
:10BBC000103A434605920F9A02EB070A0FFA8AFAD7
:10BBD000099A0599914241D25A1CD2B25B070D9243
:10BBE00007D1069B06990B9A01339BB212F801907C
:10BBF000069319F0800F12D0012DDBF80030BDF84C
:10BC00000C101AD1012C18D10A9A9B691144059A7B
:10BC10001E46114458465246049B09B2B047059E41
:10BC20004FEA49090136F3B205935FFA89F90D9B92
:10BC3000CEE70023CDE90733A9E70598089A024427
:10BC400002FB0511049A5846CDE90042DB6918EE63
:10BC5000102A1E4609B22B46B047E0E7099B013780
:10BC600098445FFA88F8FFB29FE711B0BDEC028BF1
:10BC7000BDE8F08F14F13F02F0B5026A04460B46AE
:10BC800085B0002A34D10A2908D1438A0282427E33
:10BC900003EBC2036382012005B0F0BD0D29FAD089
:10BCA000E17E007E657E71B10621B4F9106011FB62
:10BCB0000061B4F90C60B142C1BFB4F91210228224
:10BCC00001EBC5026282E28ACDE902050192A28AF5
:10BCD00020460092B4F91010B4F91220FFF75EFE6E
:10BCE000237E228A03EB430302EB43032382D2E742
:10BCF0000A2907D100230382417E127B438A01FB7C
:10BD00000233C7E70D29C6D0157AA942C3D3917A69
:10BD10009942C0D351685D1BEDB201EBC505A8780F
:10BD200028B3E97819B3E17E267E677E91B195F953
:10BD300005100844B4F9101006FB0011B4F90C000A
:10BD4000814207DD00202082B4F91210127B02FB31
:10BD500007126282E28A20460192A28ACDE9026736
:10BD60000092B4F91010B4F91220FFF717FE2979E8
:10BD7000227E238A01FB0233B8E74260002202726E
:10BD800020220170C260704710B5037A044653B197
:10BD90002178606801F07AFD606801F082FDB0FAF8
:10BDA00080F0400910BD012100F003F80028EFD118
:10BDB000F8E738B5044640680D4601F03DFD012026
:10BDC000207225B12046BDE83840FFF7DDBF38BD01
:10BDD0002DE9F8431F46DDE90896C368154632444D
:10BDE0009A420446884602D90020BDE8F8830178CB
:10BDF000406801F04BFD7EB960682A460368414601
:10BE0000DB6898478542EFD13946606801F045FD0F
:10BE1000B0FA80F04009E8E7B9F1000FECD06068B3
:10BE2000324603684946DB6898478642DCD1E3E73F
:10BE30002DE9F041154604460E46D2B2017840681D
:10BE400001F00DFD85420DD100271FFA87F8A845A6
:10BE500007F1010709D2606803685B69984706F833
:10BE60000800F2E70020BDE8F0810120FBE72DE9A2
:10BE7000F84307468846164699460025B54212D231
:10BE8000FA68741B944228BF1446331BAB4294BF1C
:10BE90004B4600232246384608EB0501FFF7C8FF52
:10BEA00010B12544EAE70120BDE8F8830022C0E98B
:10BEB0000212024A02604260704700BF0000C07F69
:10BEC0001FB50B0A8DF80C300023CDE900338DF837
:10BED0000D100123022203A9C068FFF779FF05B006
:10BEE0005DF804FB13B504464FF22D31FFF7E8FF70
:10BEF00001230322E06801A9FFF7B9FFBDF80400A0
:10BF000040BA80B202B010BD08B543F2A201FFF7FB
:10BF1000D7FFBDE808400A2001F0E6BB70B5044633
:10BF2000C0680E4610B11021FFF7EBF81020FFF7A4
:10BF3000E4F8054618B13146A268FFF71EFF01215B
:10BF40002846E560FFF735FF50B12046FFF7DCFFDC
:10BF50002046FFF7C7FF4FF6FF73C01A18BF012036
:10BF600070BD704710B504461021FFF7CAF820468F
:10BF700010BD0EB403B503AB53F8042B002101939D
:10BF800001F04FFE02B05DF804EB03B07047000013
:10BF900073B5044622790846A36832B1A3B90B49A8
:10BFA00002B0BDE8704001F001BE094A267B094D90
:10BFB0000949647B012E18BF2946CDE900140749C1
:10BFC000FFF7D7FF02B070BD054AEFE77DF63F02ED
:10BFD00074F63F0279F63F0275F63F0293F63F0290
:10BFE0006CF63F0210B5044B04460360C06A08B10A
:10BFF00001F042FB204610BD6CFB3F0210B5044629
:10C00000FFF7F0FF20467421FFF77BF8204610BDB4
:10C01000002910B54BDBB0F90C408C4247DD002AFB
:10C0200045DBB0F90E40944241DD847E022C1FD0E6
:10C03000032C26D0012C04D1D243048914440A468F
:10C0400021B2012B23D0022B32D083BB1346002A0E
:10C050000489B8BFD31DDB1013FB04110123C06A90
:10C0600002F007029340425C22EA030242541EE0BF
:10C07000D2430489013C611A448909B2224412B2B4
:10C08000DFE74489013C641A114622B2D9E713461E
:10C09000002A0489B8BFD31DDB1013FB0411C36A47
:10C0A00002F0070001228240585C02435A5410BD3E
:10C0B0001346002A0489B8BFD31DDB1013FB0411FB
:10C0C0000123C06A02F0070203FA02F2435C5A40FD
:10C0D000CCE7000070B504461D460026FFF7F4FBD0
:10C0E000114B6662236015B902F0EEF90546FF2395
:10C0F00084F8333084F836309DF910304FF6FF72F3
:10C1000084F83730059B2046A365069BC4E90A5690
:10C11000E365064BA28663660123E66684F8683011
:10C12000A4F8706070BD00BF6CFB3F02B8F63F0220
:10C1300070B50446806A0D4690B194F9301001F054
:10C14000A9FBA06A002103689B689847A06A29465A
:10C1500003689B689847A06ABDE8704001F0A1BBE6
:10C16000226C206D136823EA00031360606A18B123
:10C17000BDE8704001F05CBE08228021A36BA66C74
:10C1800018680D4214BF3043B0431860E06BE66C92
:10C190000368013A43EA06030360E06BE66C036858
:10C1A0004FEA510123EA06030360E7D170BD38B5B9
:10C1B0000446806A0D4680B1A16D01F039FB002D67
:10C1C000204614BFA721A621FFF7B2FFA06A88B1BD
:10C1D000E16DBDE8384001F02BBB606A18B104F195
:10C1E000640101F0B7FD626C616D136823EA01031D
:10C1F0001360E4E7626C616D13680B431360606A5F
:10C2000018B1BDE8384001F08BBD38BDF8B5044623
:10C21000806A0D468F1840B394F9301001F03AFB54
:10C22000A06A0021036801269B689847BD42A06A66
:10C2300017D01F2E0CD901F034FB94F93010A06AEE
:10C2400001F028FBA06A0021036801269B6898473B
:10C25000A06A15F8011B036801369B689847B6B2BF
:10C26000E4E7BDE8F84001F01CBB226C216D1368C7
:10C2700023EA01031360BD4226D0606A15F8011B52
:10C2800010B101F0D5FDF6E74FF0080E8020A36B4A
:10C29000D4F848C01E68014214BF46EA0C0626EADC
:10C2A0000C061E60E66BE26C3368BEF1010E43EAD9
:10C2B00002033360E66BE26C33684FEA500023EA16
:10C2C00002033360E3D1D6E7F8BDB0F90A300021AC
:10C2D000DA1D48BF03F10E02B0F90830D2105A43FC
:10C2E000C06A02F0EAB900002DE9FF411E46C36AA8
:10C2F00004460F4615469DF82880C3B12046FFF737
:10C30000E4FFB4F90A00B4F90810202821DC202346
:10C310000122CDE901327323203800EBD07073394C
:10C32000009301EBD171B84B40F34F0221E0B0F91B
:10C330000A30D81D48BF03F10E00B4F90830C01010
:10C34000584301F08BF9E0620028D7D104B0BDE872
:10C35000F0814038C0F3C032402302FA80F201205D
:10C36000CDE90130522352390093A84B01EBD17132
:10C370005210204641F34F01FFF7BCFAA06A84F83F
:10C380003170002800F09A80002D40F09580B4F9BB
:10C390000A30202B0CBF3C253D2584F83050B8F1E5
:10C3A000000F01D001F048FAFEB194F937000028DF
:10C3B0001BDB012180B202F02FF894F93700012134
:10C3C00080B202F03AF8012001F08EF994F93700BA
:10C3D000002180B202F031F80A2001F085F994F9C9
:10C3E0003700012180B202F028F8A06A002800F08E
:10C3F000E580A16D01F01CFA042220468449FFF774
:10C4000005FF618920460139C9B2FFF791FE8149D4
:10C4100004222046FFF7FAFE94F931302046012B22
:10C420000CBF10211421FFF783FE042220467A4915
:10C43000FFF7ECFE8F23794A84F86030A3689342BB
:10C4400000F0D48002F50012934240F0C48094F9C9
:10C4500031301225012B0CBF9F23CF2384F860308D
:10C46000DA212046FFF764FE29462046FFF760FEEA
:10C4700081212046FFF75CFE204694F86010FFF70C
:10C4800057FED9212046FFF753FE94F9313020465C
:10C49000012B0CBF2221F121FFF74AFE2046062284
:10C4A0005F49FFF7B3FEA06A002800F0A180E16DAC
:10C4B00001F0BEF9012049E76DB26EE794F935004D
:10C4C000012180B201F0A8FF94F93600012180B269
:10C4D00001F0A2FF00F0B6FC94F93530514D03EBAA
:10C4E000430310F8233055F82330236400F0AAFCEE
:10C4F00094F9353003EB430300EB83035B7823654A
:10C5000000F0A0FC94F9363003EB430310F823301D
:10C5100055F82330636400F095FC94F93630626C72
:10C5200003EB430300EB83035B78636511680B4304
:10C530001360606A30B1B8F1000F3FF435AF01F01D
:10C54000DBFB31E794F93300012180B201F064FF95
:10C5500094F93400012180B201F05EFF00F072FC1A
:10C5600094F9333003EB430310F8233055F82330AC
:10C57000A36300F067FC94F9333003EB430300EB53
:10C5800083035B78A36400F05DFC94F9343003EB23
:10C59000430310F8233055F82330E36300F052FCD6
:10C5A00094F93430E26B03EB430300EB83035978D7
:10C5B000E164136823EA01031360F5E6606A18B1C9
:10C5C00004F1640101F0C6FB626C616D136823EA3B
:10C5D0000103136010E7144A934207D194F93130F4
:10C5E000012B0CBF1023AF2384F86030022537E7FE
:10C5F000626C616D13680B431360606A00283FF43E
:10C6000059AF01F08DFB55E784F93F02C4F63F02B4
:10C61000CCFB3F02D0FB3F02D4FB3F028000200056
:10C62000D8FB3F0224001C106000100070B5002AE7
:10C63000BDF810503FDBB0F90A4094423BDD0029C1
:10C64000BEBF5B1800211BB2B0F90840CE18A6424D
:10C65000C4BF631A1BB2002B2DDDD61014FB0611CC
:10C66000C06A012D014402F007004FF0010202FAF6
:10C6700000F2D2B216D0022D0BD0E5B9D2430B4452
:10C68000D2B2994217D011F8010B104001F8010CF9
:10C69000F7E70B4499420ED011F8010B504001F816
:10C6A000010CF7E70B44994205D011F8010B104338
:10C6B00001F8010CF7E770BDF0B50029BDF8145082
:10C6C00077DBB0F90860B14273DA002ABEBF9B186D
:10C6D00000221BB2B0F90A40D718A742C4BFA31A60
:10C6E0001BB2002B65DDC2F3C40416FB0416C76A37
:10C6F00012F00702DBB207EB060424D0C2F10802F5
:10C70000D2B2934238BF4FF0FF0C2C4938BFA2EB96
:10C71000030E895C3CBF4CFA0EFC0CEA0101012DB2
:10C7200007D0022D2ED04DB917F806C02CEA010112
:10C7300003E017F806C041EA0C01B955934238D31B
:10C74000B0F908100C449A1AD2B2072A0ED9022D59
:10C750001DD113462178083BC9432170B0F9081058
:10C76000DBB2072B0C44F5D802F007020AB3144BD6
:10C77000012D9B5C1AD0022D1CD0D5B9227822EA5B
:10C78000030315E017F806C081EA0C01D5E7291E5E
:10C7900018BF012113464942C9B22170083BB0F9C4
:10C7A0000860DBB2072B3444F7D8DDE72278134367
:10C7B0002370F0BD22785340FAE700BFBCFB3F0274
:10C7C000C4FB3F0270B41446827EBDF80C60022A9E
:10C7D0000DD0032A18D0012A11D1E4430289144450
:10C7E00024B20A460396214670BCFFF765BFE443B6
:10C7F0004289058919441444691A24B209B22246AF
:10C80000039670BCFFF712BF45891944691A09B233
:10C81000E7E730B41446827EBDF80850022A0DD0F6
:10C82000032A18D0012A11D1E2180489A41A24B2CB
:10C830000A460295214630BCFFF7F8BEC94302897B
:10C840001144E218448909B2A41A24B2224602957E
:10C8500030BCFFF731BFC9434289114409B2E7E751
:10C86000F8B50446806A002842D0A16D00F0E0FFD0
:10C87000052220464749FFF7C9FC21892046013996
:10C88000C9B2FFF755FCD4E90A05B4F90A30DE1D38
:10C8900048BF03F10E062389F61013FB06F615FABE
:10C8A00086F600283BD094F9301000F0F3FFA06A20
:10C8B0004021036801279B689847AE42A06A24D0B4
:10C8C0001F2F0CD900F0EDFF94F93010A06A00F092
:10C8D000E1FFA06A4021036801279B689847A06A8E
:10C8E00015F8011B036801379B689847BFB2E4E75E
:10C8F000606A18B104F1640101F02CFA626C616D98
:10C90000136823EA01031360B2E700F0CAFFA06ACC
:10C91000002832D0E16DBDE8F84000F089BF226CFC
:10C92000216D13680B431360B542F0D0606A15F8AF
:10C93000011B10B101F07CFAF6E74FF0080E8020E1
:10C94000A36BD4F848C01F68014214BF47EA0C0724
:10C9500027EA0C071F60E76BE26C3B68BEF1010E33
:10C9600043EA02033B60E76BE26C3B684FEA50002E
:10C9700023EA02033B60E3D1D6E7626C616D136882
:10C980000B431360606A18B1BDE8F84001F0C8B904
:10C99000F8BD00BFDEFB3F0238B50446806A0D4695
:10C9A00098B1A16D00F044FF81212046FFF7C0FB44
:10C9B000C5B994F860102046FFF7BAFBA06A98B199
:10C9C000E16DBDE8384000F033BF606A18B104F192
:10C9D000640101F0BFF9626C616D136823EA010321
:10C9E0001360E1E70021E6E7626C616D13680B43B9
:10C9F0001360606A18B1BDE8384001F091B938BDE4
:10CA000013B50A4CD4E88F1F11F001010BD1204659
:10CA10000191FEF785FB019928B1054801F062F903
:10CA20002046FEF782FB024802B010BD5CAE071044
:10CA300060AE071013B503688DF804101C6801235D
:10CA400001A91A46A0479DF8040002B010BD0021BC
:10CA5000FFF7F0BF70B506460C4615462AB9BDE88B
:10CA600070400368C9B29B68184700290BDA0A2A8C
:10CA700009D12D2101F09EF861423046EAB2BDE8AD
:10CA8000704001F0B0B82146F7E7000038B5044621
:10CA900001F07AFB144901F09CF8A069E16800F00C
:10CAA000F9FEA06900F0FDFE20B101F06DFB0F4919
:10CAB00001F08FF82046FFF7CAFF054601F064FB3E
:10CAC0000B4901F073F801F05FFB04462946102280
:10CAD000FFF7C0FF204601F070F801F055FBBDE8FC
:10CAE0003840044901F075B8E3FB3F0201FC3F0206
:10CAF00029FC3F0252FC3F022DE9F0410C4617464B
:10CB00001E46054601F040FB324901F04FF801F0A6
:10CB10003BFB1022217801F066F801F035FB2E492D
:10CB200001F044F801F030FB0A22394601F05BF8CD
:10CB300001F02AFB294901F039F801F025FB0A220E
:10CB4000314601F050F801F01FFB254901F02EF8A5
:10CB5000E968A86900F09EFEA0462744B845A86988
:10CB600005D0036818F8011B9B689847F6E700F0AA
:10CB700098FE20B101F008FB1A4901F02AF80EB323
:10CB80003246297BA86900F07EFEDFF860802644EB
:10CB9000A86903681B699847A0B1B44212D0A8697C
:10CBA00003685B699847074604F8010B01F0ECFA4B
:10CBB000414600F0FBFF01F0E7FA1022F9B2FFF75F
:10CBC00049FFE5E701F0E0FA074901F002F800202B
:10CBD000BDE8F08174FC3F0285FC3F028BFC3F0204
:10CBE00091FC3F0294FC3F0274F63F0273F63F0251
:10CBF00010B5044601F0C8FA0D4900F0EAFFFFF74E
:10CC0000FFFE01F079F8206900280ADB012180B2DB
:10CC100001F002FC01F0B8FABDE81040054900F04F
:10CC2000D8BF01F0B1FA044900F0D3FFF2E700BF2A
:10CC3000B3FC3F0214FD3F02D1FC3F0290F91430D7
:10CC4000012B02D0022B02D07047FFF71FBFFFF766
:10CC5000CFBF00002DE9F3410C4616461D4607469E
:10CC600001F092FA354900F0A1FF01F08DFA10228F
:10CC7000214600F0B8FF01F087FA314900F096FF35
:10CC800001F082FA1022217800F0ADFF01F07CFA69
:10CC90002C4900F08BFF01F077FA0A22314600F0B0
:10CCA000A2FF01F071FA274900F080FF01F06CFA51
:10CCB0000A22294600F097FF01F066FA224900F0A7
:10CCC00075FF3869002803DB002180B201F0B5FB55
:10CCD000A0462644464518D1DFF874802544AC426E
:10CCE0001CD0FFF78DFE002101F0A2F8064604F8E3
:10CCF000010B01F049FA414600F058FF01F044FAF7
:10CD000010223146FFF7A6FEE9E718F8011B019152
:10CD1000FFF776FE019901F08BF8DBE73869002810
:10CD200003DB012180B201F088FB01F02DFA0749F5
:10CD300000F04FFF002002B0BDE8F08136FD3F0259
:10CD40008FFC3F0250FD3F0291FC3F0274F63F0210
:10CD500073F63F02F0B490F914C00546BCF1010F20
:10CD60000C4617461E4605D0BCF1020F05D0F0BC9C
:10CD700000207047F0BCFFF7BFBE1BB10B7863F01B
:10CD80007F030B7033463A4621462846F0BCFFF736
:10CD900061BF0000044B054A1A604FF0FF32C3E93F
:10CDA00002221A61704700BF68AE07105CFD3F02A7
:10CDB00070470020704710B40468A468A4465DF86A
:10CDC000044B6047014B024A1A60704784AE07105B
:10CDD00070FD3F0209B504480068044B03441B681A
:10CDE0005B6C029309BD000024AD07103000000009
:10CDF00009B504480068044B03441B685B68029350
:10CE000009BD000024AD07100000000009B504486A
:10CE10000068044B03441B68DB68029309BD0000F3
:10CE200024AD07100000000009B504480068044B59
:10CE300003441B685B69029309BD000024AD071021
:10CE40000000000009B504480068044B03441B6857
:10CE50001B68029309BD000024AD071014000000F8
:10CE600009B504480068044B03441B685B680293DF
:10CE700009BD000024AD07101400000009B50448E6
:10CE80000068044B03441B689B68029309BD0000C3
:10CE900024AD07101400000009B504480068044BD5
:10CEA00003441B68DB68029309BD000024AD071032
:10CEB0001400000009B504480068044B03441B68D3
:10CEC0001B69029309BD000024AD07101400000087
:10CED00009B504480068044B03441B685B6902936E
:10CEE00009BD000024AD07101400000009B5044876
:10CEF0000068044B03441B681B68029309BD0000D3
:10CF000024AD07101000000009B504480068044B68
:10CF100003441B68DB68029309BD000024AD0710C1
:10CF20001000000009B504480068044B03441B6866
:10CF30009B69029309BD000024AD0710100000009A
:10CF400009B504480068044B03441B68DB6902937D
:10CF500009BD000024AD07101000000009B5044809
:10CF60000068044B03441B681B6A029309BD000060
:10CF700024AD07101000000009B504480068044BF8
:10CF800003441B685B6A029309BD000024AD0710CF
:10CF90001000000009B504480068044B03441B68F6
:10CFA0009B6A029309BD000024AD07101000000029
:10CFB00009B504480068044B03441B68DB6A02930C
:10CFC00009BD000024AD07101000000009B5044899
:10CFD0000068044B03441B681B6B029309BD0000EF
:10CFE00024AD07101000000009B504480068044B88
:10CFF00003441B685B6B029309BD000024AD07105E
:10D000001000000009B504480068044B03441B6885
:10D010001B6C029309BD000024AD07101000000036
:10D0200009B504480068044B03441B681B6D029358
:10D0300009BD000024AD07101000000009B5044828
:10D040000068044B03441B685B69029309BD000040
:10D0500024AD07104C00000009B504480068044BDB
:10D0600003441B689B68029309BD000024AD0710B0
:10D070005000000009B504480068044B03441B68D5
:10D08000DB68029309BD000024AD071050000000CA
:10D0900009B504480068044B03441B681B680293ED
:10D0A00009BD000024AD07100C00000009B50448BC
:10D0B0000068044B03441B681B68029309BD000011
:10D0C00024AD07101800000009B504480068044B9F
:10D0D00003441B685B69029309BD000024AD07107F
:10D0E0001800000009B504480068044B03441B689D
:10D0F000DB69029309BD000024AD07101800000091
:10D1000009B504480068044B03441B681B6A02937A
:10D1100009BD000024AD07101800000009B504483F
:10D120000068044B03441B685B6A029309BD00005E
:10D1300024AD07101800000009B504480068044B2E
:10D1400003441B68DB6B029309BD000024AD07108C
:10D150001800000009B504480068044B03441B682C
:10D160001B6C029309BD000024AD071018000000DD
:10D1700009B504480068044B03441B685B6C0293C8
:10D1800009BD000024AD07101800000009B50448CF
:10D190000068044B03441B68DB68029309BD000070
:10D1A00024AD07102400000009B504480068044BB2
:10D1B00003441B681B69029309BD000024AD0710DE
:10D1C0002400000009B504480068044B03441B68B0
:10D1D0005B69029309BD000024AD07102400000024
:10D1E00009B504480068044B03441B689B6902931B
:10D1F00009BD000024AD07102400000009B5044853
:10D200000068044B03441B68DB69029309BD0000FE
:10D2100024AD07102400000009B504480068044B41
:10D2200003441B681B6A029309BD000024AD07106C
:10D230002400000009B504480068044B03441B683F
:10D240009B6A029309BD000024AD07102400000072
:10D2500009B504480068044B03441B68DB6A029369
:10D2600009BD000024AD07102400000009B50448E2
:10D270000068044B03441B681B6C029309BD00004B
:10D2800024AD07102400000009B504480068044BD1
:10D2900003441B681B68029309BD000024AD0710FE
:10D2A0003400000009B504480068044B03441B68BF
:10D2B0005B68029309BD000024AD07103400000034
:10D2C00009B504480068044B03441B681B690293BA
:10D2D00009BD000024AD07103400000009B5044862
:10D2E0000068044B03441B685B69029309BD00009E
:10D2F00024AD07103400000009B504480068044B51
:10D3000003441B689B69029309BD000024AD07100C
:10D310003400000009B504480068044B03441B684E
:10D32000DB69029309BD000024AD07103400000042
:10D3300009B504480068044B03441B681B6A029348
:10D3400009BD000024AD07103400000009B50448F1
:10D350000068044B03441B685B68029309BD00002E
:10D3600024AD07104800000009B504480068044BCC
:10D3700003441B689B68029309BD000024AD07109D
:10D380004800000009B504480068044B03441B68CA
:10D39000DB68029309BD000024AD071048000000BF
:10D3A00009B504480068044B03441B689B69029359
:10D3B00009BD000024AD07104800000009B504486D
:10D3C0000068044B03441B68DB69029309BD00003D
:10D3D00024AD07104800000009B504480068044B5C
:10D3E00003441B685B6B029309BD000024AD07106A
:10D3F0004800000009B504480068044B03441B685A
:10D400001B6D029309BD000024AD07104800000009
:10D4100009B504480068044B03441B685B68029329
:10D4200009BD000024AD07100800000009B504483C
:10D430000068044B03441B685B69029309BD00004C
:10D4400024AD07100800000009B504480068044B2B
:10D4500003441B68D3F88830029309BD24AD07103C
:10D460000800000009B504480068044B03441B6829
:10D47000D3F89430029309BD24AD071008000000D2
:10D4800009B504480068044B03441B68D3F898307E
:10D49000029309BD24AD07100800000009B5044837
:10D4A0000068044B03441B68D3F8A830029309BDFD
:10D4B00024AD07100800000009B504480068044BBB
:10D4C00003441B68DB6B029309BD000024AD071009
:10D4D0002C00000009B504480068044B03441B6895
:10D4E0005B68029309BD000024AD0710280000000E
:10D4F00009B504480068044B03441B689B68029309
:10D5000009BD000024AD07102800000009B504483B
:10D510000068044B03441B68DB68029309BD0000EC
:10D5200024AD07102800000009B504480068044B2A
:10D5300003441B681B69029309BD000024AD07105A
:10D540002800000009B504480068044B03441B6828
:10D550005B69029309BD000024AD0710280000009C
:10D5600009B504480068044B03441B689B69029397
:10D5700009BD000024AD07102800000009B50448CB
:10D580000068044B03441B68DB69029309BD00007B
:10D5900024AD07102800000009B504480068044BBA
:10D5A00003441B681B6A029309BD000024AD0710E9
:10D5B0002800000009B504480068044B03441B68B8
:10D5C0001B6B029309BD000024AD0710280000006A
:10D5D00009B504480068044B03441B685B6B029365
:10D5E00009BD000024AD07102800000009B504485B
:10D5F0000068044B03441B681B6C029309BD0000C8
:10D6000024AD07102800000009B504480068044B49
:10D6100003441B685B6C029309BD000024AD071036
:10D620002800000009B504480068044B03441B6847
:10D630005B6D029309BD000024AD071028000000B7
:10D6400009B504480068044B03441B689B6D0293B2
:10D6500009BD000024AD07102800000009B50448EA
:10D660000068044B03441B681B68029309BD00005B
:10D6700024AD07100400000009B504480068044BFD
:10D6800003441B685B68029309BD000024AD0710CA
:10D690000400000009B504480068044B03441B68FB
:10D6A0005B6A029309BD000024AD0710040000006E
:10D6B00009B504480068044B03441B681B6C0293C3
:10D6C00009BD000024AD07100400000009B504489E
:10D6D0000068044B03441B685B6C029309BD0000A7
:10D6E00024AD0710040000000021FFF79FBE0000DA
:10D6F000002302480360FFF76DBB00BF8CAE07102C
:10D70000002240681146FFF747BF002240681146DB
:10D71000FFF75EBF00224068FFF74CBF0022406861
:10D7200081F00101FFF72ABF002340681A4619461D
:10D73000FFF716BF002340681A461946FFF702BFDD
:10D74000002240681146FFF7EFBE002240681146F4
:10D75000FFF7CEBE002202214068FFF7D7BE0023AC
:10D7600040681A46FFF7B6BE0322024B5A60024ACF
:10D770001A60704790AE071084FD3F027047F8B5FD
:10D78000064615460C468F18BC4206D03368304614
:10D790009B6814F8011B9847F6E72846F8BD00225D
:10D7A000007CFFF7DBBB0021007CFFF7E5BB00211D
:10D7B000007CFFF7EFBB0021007CFFF7F9BB0021E5
:10D7C000007CFFF703BC10B504461421FDF799FC5B
:10D7D000204610BD0022C0E90022182202800A78EB
:10D7E00002714A688260CA68C2600A7A02610A6984
:10D7F0004261704738B5044615464FF47A730022EB
:10D80000C4E90123094B0846217423602946FFF728
:10D81000F9FBBF3008D16B69DB0705D56868FFF7F6
:10D820002BFFE868FFF728FF204638BDC8FD3F0200
:10D830000022007CFFF75ABB0023007C1A461946E1
:10D84000FFF762BB10B5044686B06846FFF7C2FF1B
:10D8500000226946207CFFF7E3FB06B010BD7FB5D0
:10D860008DF8041000214FF0640C5B1A18BF0123DF
:10D87000CDE904C101A902928DF80C30FFF7E2FF57
:10D8800007B05DF804FB0123FFF7E9BF0022007C2D
:10D89000FFF748BBC9B2FFF7F9BF0022007CFFF7D2
:10D8A0004FBB0121FFF7F9BFFF210022044B0120EC
:10D8B000C3E9001264211A61C3E90201704700BF85
:10D8C00098AE0710704710B504461821FDF719FCF3
:10D8D000204610BDF0B5037D0E46062B4FF0000428
:10D8E0008DB000F1040712D000F1080515F8011DF4
:10D8F0000A22304600F077F9AF42044419D0002CD8
:10D90000F4D02E21304600F055F90444EEE72F23E1
:10D910006A4639460A208DF80040FFF78FFB6846BB
:10D92000FDF7C6FB3368024669463046DB68984718
:10D93000044620460DB0F0BD10B50446044B11223C
:10D94000002140F8043B00F0B8FE204610BD00BFA7
:10D95000F4FD3F020346074A10B543F8042B01F1DA
:10D96000100251F8044B914243F8044BF9D10A7864
:10D970001A7010BDF4FD3F0210B59DF8084044EA4E
:10D98000032343EA0242042342EA01614160037532
:10D9900010BD000007B5064B0360CB7800938B7871
:10D9A0004A780978FFF7E8FF03B05DF804FB00BF91
:10D9B000F4FD3F02014B024A1A607047ACAE0710FB
:10D9C00000FE3F02002340681A46FFF783BD002295
:10D9D00002214068FFF79ABD002240681146FFF718
:10D9E00087BD002240681146FFF79EBD00234068B6
:10D9F0001A461946FFF7A6BD002340681A46194685
:10DA0000FFF7AEBD00214068FFF7F0BD0021406880
:10DA1000FFF7FABD0022406881F00101FFF7AEBDBB
:10DA200000224068FFF7C6BD002240681146FFF79C
:10DA3000CFBD002240681146FFF7AEBD002140680F
:10DA4000FFF7FEBD2DE9F04395B014460D4607469D
:10DA5000FFF772FF00211C220DA8009100F02DFE9F
:10DA6000402320460C9300216B460CAAFFF702FBD3
:10DA7000044600284BD1024601216868FFF754FD97
:10DA80000221804622466868FFF74EFD2146814606
:10DA9000009E002E3BD0002939D17368022B03D0A1
:10DAA0000A2B11D0F669F4E7B8F1000FFAD07169CA
:10DAB00006A804313C1D07ADFFF76CFF0FCD0FC466
:10DAC0002B6841462370EDE7B9F1000FEAD0102230
:10DAD00001A8746900F0F1FD062301AD8DF8143042
:10DAE00004F1080318342A4618685968083303C239
:10DAF000A3421546F7D101A906A83C1D07ADFFF7C3
:10DB000029FF0FCD0FC42B6849462370CAE7009840
:10DB1000FFF7A2FA384615B0BDE8F08303380228B3
:10DB20009ABF024B53F820000148704704FE3F02A1
:10DB3000B0AE071008B500224068FFF773FDBDE8DE
:10DB40000840FFF7EBBF0000024B034A1A600022B7
:10DB50005A607047B0AE071018FE3F02F8B506468F
:10DB60000D4600248F18BD420CD0336830469B68A8
:10DB700015F8011B9847031E01DB1C44F3E7002C3A
:10DB800008BF1C462046F8BD13B50446084659B1E7
:10DB90000191FDF78DFA0246204623680199DB6862
:10DBA00002B0BDE81040184702B010BD08B5FFF73D
:10DBB000EBFF08BD03689B68184738B50D21054683
:10DBC000FFF7F8FF0A2104462846FFF7F3FF204439
:10DBD00038BD38B50546FFF7D7FF04462846FFF79E
:10DBE000ECFF204438BD0023012A98BF0A2230B53B
:10DBF0008BB08DF8243009AC0D46B1FBF2F101FB7E
:10DC0000125303F0FF03092B94BF30333733DBB2D9
:10DC1000AA4204F8013DEFD92146FFF7B5FF0BB04A
:10DC200030BD2DE9F04186B000AF05460E46381DE7
:10DC3000142114463B60FFF72DFD13280ED828460B
:10DC4000391DFFF7A1FF04461EB12846FFF7B5FFB7
:10DC5000044420461837BD46BDE8F08100F10803B2
:10DC600023F00703E846ADEB030D2246411C3B6859
:10DC70006846FFF70FFD69462846FFF785FF044613
:10DC8000C546E1E710B50446FFF78AFB844208D099
:10DC90001CB1BDE81040FFF767BBBDE81040FFF7BF
:10DCA00071BB10BD70B505460E461446FFF778FBF4
:10DCB00050B144EA062444EA0540FFF747FBBDE8BB
:10DCC0007040E720FFF77ABB70BD00000022014BD7
:10DCD0009A607047B8AE07100021FFF749BA0021DB
:10DCE000FFF738BA10B5044608462170FFF7FAF975
:10DCF00000232046636010BD13B504460078FFF78B
:10DD0000EEFF58B920784FF6FF710190FFF7CEF97A
:10DD1000019802B0BDE81040FFF7DEBF02B010BDB1
:10DD20000078FFF7D9BF000030B500244008186024
:10DD30001868E5B2884206D90134082C02D04008A0
:10DD40001860F5E70725024B5B5D137030BD00BF1F
:10DD500054FE3F022DE9F04306468FB000780C4692
:10DD6000FFF7BDFF00281BDB1422002109A835782E
:10DD700000F0A3FC0B230022284609A9ADF82430AB
:10DD8000FFF7CCF99DF82D3013B19DF82C5055B10B
:10DD900000270125B946B84623795DB1C3B10020FB
:10DDA0000FB0BDE8F083DDF830809DF834909DF829
:10DDB0003570F1E7002B35D1A368434508D18DF8C4
:10DDC00020908DF82170BDF82020A3899A42E6D0DA
:10DDD0000023A1688DF80F300A9804AB0DF10F02F3
:10DDE000FFF7A2FF217985B989B9A36843450ED30E
:10DDF0008DF820908DF82170BDF82020A3899A42DB
:10DE000005D1049B434502D1C9E70029F9D100237C
:10DE10000193637B9DF80F200093237B3078FFF7FD
:10DE20008BF9BCE72B462A460121CDE90055F5E7E1
:10DE300008B50078FFF748F9C0B208BD10B5044630
:10DE4000FEF7F2FFE060236820465B6998470028F0
:10DE500008DAFEF7E9FFE368C01AA3689842F2D334
:10DE60004FF0FF3010BD2DE9F04107460C460D463E
:10DE70008E18B542A5EB040807D03846FFF7DEFF41
:10DE8000031E02DB05F8013BF3E74046BDE8F081E5
:10DE900010B50446006818B1FFF7EEFB00232360BD
:10DEA00010BD38B50C460546FFF7F2FF54B1208887
:10DEB000FFF7D4FB286028B121462288BDE838400E
:10DEC00000F0EEBB38BD38B50C46B1F9043005465C
:10DED0008380D1F80630C0F806304B894381FFF7C4
:10DEE000D7FF236813B12B600023236038BD0000E7
:10DEF000F0B52B4D0B7D04468BB00846AF1D002BB3
:10DF000036D00B681B79002B32D00022254B02A99A
:10DF100004300493CDE90222FFF7C0FADDF80E3099
:10DF200000B2C5F80630BDF81230ADF80C00A8807C
:10DF300002992846BB80FFF7B4FF02A8FFF7A8FFAD
:10DF400000232360A380A37123814FF6FF736381B5
:10DF5000B5F904302046A380D5F806302968C4F806
:10DF60000630BB886381FFF79CFF20460BB0F0BDF5
:10DF700000262023CDE902360B4B02AA0093322063
:10DF800033460A49FFF736FA4FF6F262054B04486A
:10DF900002A9CDE903230296FFF795FFCDE700BF65
:10DFA000C8AE07100000FFFF63FE3F025CFE3F02A9
:10DFB00002220020044B1A60044B054AC3E900000A
:10DFC0009A60FFF725BA00BFD4AE0710C8AE07109D
:10DFD0000000FFFF024B1A68024B1A60704700BF37
:10DFE00028AD0710D8AE0710F8B587B204463846FA
:10DFF0000D46164600F0D2F960B102213846FEF710
:10E000002FFF022806D1324629462046BDE8F840B7
:10E01000FFF73EB8F8BD70474174704708B5007C03
:10E02000FFF708F920EAE07008BD08B5007CFFF7AB
:10E03000BBF820EAE07008BD08B5007CFFF7D0F817
:10E0400040EAE07008BD08B5007CFFF7BBF840EA85
:10E05000E07008BD007CFFF7D1B837B5457C0446B9
:10E060002DB1207C03B0BDE83040FFF78FB8007CB5
:10E070000191FFF7DFF800280199F2DC284603B090
:10E0800030BD10B504461421FDF73BF8204610BD05
:10E0900010B54FF47A730446084611460022C4E9CD
:10E0A0000123044B2074236001236374FFF7DEF81F
:10E0B000204610BDB0FE3F020023007CFFF7C8B829
:10E0C0000022FFF7F9BF007CFFF7A6B84174704744
:10E0D0007047704708B50021007CFFF70DF940EA52
:10E0E000E07008BD08B50121007CFFF705F940EAA2
:10E0F000E07008BD08B5007CFFF7F0F820EAE0709A
:10E1000008BD08B5007CFFF7DBF820EAE07008BD29
:10E1100013B50446007C0191FFF7E0F8002801994F
:10E1200001DC607C20B1207CFFF7F4F820EAE0708D
:10E1300002B010BD007CFFF7FBB810B504461421F7
:10E14000FCF7DFFF204610BD10B54FF47A7304468C
:10E1500008460021C4E90113044B20742360012305
:10E1600011466374FFF790F8204610BDE4FE3F02AD
:10E170000022007CFFF796B810B504461422002157
:10E1800000F09BFA204610BD10B588B003A8FFF739
:10E19000F3FF0C4CD4E88F1F11F001010FD1204682
:10E1A0000191FCF7BDFF019948B103AA0648FFF7AA
:10E1B000CBFF2046FCF7B9FF044800F06BFA024899
:10E1C00008B010BDDCAE0710E0AE071069E93F02F1
:10E1D000002240681146FFF7A7B9002240681146A7
:10E1E000FFF7DAB9002240681146FFF7F1B90022C3
:10E1F0004068FFF7DFB90022406881F00101FFF7B6
:10E20000BDB9002340681A461946FFF7A9B9002393
:10E2100040681A461946FFF795B900224068114632
:10E22000FFF766B9002202214068FFF76FB90023AB
:10E2300040681A46FFF74EB90422024B5A60024A60
:10E240001A607047F4AE071018FF3F02014B1860C8
:10E25000704700BF2CAD071008B50F4B43B1FFF757
:10E2600093FF03681B699847002801DD00E000BFA9
:10E270000A4B43B100F07CF903681B6998470028FA
:10E2800001DD00E000BF064B0BB100F0B7F9054B14
:10E290000BB100F0E9F908BD00000000000000002B
:10E2A000000000000000000008B5FFF7D5FFFEF7F2
:10E2B000BBFD014B186008BD04AF07100548064AB6
:10E2C00008B5121A054900F0EBF9054B054A1A602A
:10E2D00008BD00BF00B4071004B40710D4F75F08EE
:10E2E00000B407101E1C279A002307B51A466FF0CA
:10E2F00077010093FFF7B6F803B05DF804FB000068
:10E3000007B543880A2B08D0502B0BD1094B1B684B
:10E310004BB103B05DF804EB1847FFF7E5FF03B01E
:10E320005DF804FB00231A466FF077010093FFF7B6
:10E3300099F8F4E700AF0710002110B51148FFF776
:10E34000C5F9114B1A68114B9A420CBF01220022E9
:10E350000F4B1A7001D0FFF7B1FFFEF749FD0446DD
:10E3600000F0B4F90B4B13B1204600E000BF0021D0
:10E370000848FFF7A1F8BDE8104000210648FFF764
:10E3800063B800BFE5EA3F0200B407101E1C279ADD
:10E39000FCAE07100000000099EB3F021B2837B5C8
:10E3A000044602D9002003B030BDA0F10F03022BB8
:10E3B0000BD9012821D800F087F80021007CFEF756
:10E3C00013FE80F00100C0B2EDE7114DD5E88F1FBC
:10E3D00011F001010BD128460191FCF7A1FE019932
:10E3E00028B10C48FFF77EFC2846FCF79EFE094B3F
:10E3F0001878FEF785FE0028D4D1083C012C05D8FA
:10E4000000F0B6F8007CFEF707FFDAE70120CAE764
:10E410005CAE071060AE07101B2838B504460D46E9
:10E420000AD8FF2908D0FFF7B9FF28B129462046AE
:10E43000BDE83840FEF722BD38BD38B504460D466C
:10E44000FEF72AFDFF2810D0062804D84D2323FA12
:10E4500000F0C30709D42046FFF7A0FF28B12946E2
:10E460002046BDE83840FEF725BD38BD10B504464E
:10E47000FEF712FD031FDBB2012B08D92046FFF780
:10E480008DFF20B12046BDE81040FEF721BD0020E1
:10E4900010BD704738B50A4B044603600123094993
:10E4A0004361202000F0F4F82025606005492846EB
:10E4B000A56000F0EDF8C4E90305204638BD00BFB3
:10E4C0001800010054FF3F0230B50E4D87B0D5E86B
:10E4D0008F1F11F0010411D12846FCF721FE68B10D
:10E4E0006846FFF7D7FF6A4621460748FFF782F9DB
:10E4F0002846FCF71AFE054800F0CCF8024807B0A1
:10E5000030BD00BF08AF07100CAF07102BED3F0266
:10E510007047000038B5142504462A46002100F053
:10E52000CCF825804025074928462581258200F022
:10E53000AFF804496060284600F0AAF8E060204681
:10E5400038BD00BF54FF3F027047704710B5044606
:10E55000FFF7E0FF204610BD10B50446FFF7DAFFD5
:10E56000204610BD10B50446FFF7D4FF204610BD6D
:10E5700030B50E4D87B0D5E88F1F11F0010411D1D1
:10E580002846FCF7CDFD68B101A8FFF7DFFF214663
:10E5900001AA0748FFF77CFD2846FCF7C6FD0548A1
:10E5A00000F078F8024807B030BD00BF20AF071078
:10E5B0002CAF0710A9ED3F0210B50D4C86B0D4E882
:10E5C0008F3FDB0711D42046FCF7AAFD68B101A8F4
:10E5D000FFF7C2FF012101AA0648FFF759FD2046B7
:10E5E000FCF7A3FD044800F055F8024806B010BD42
:10E5F00024AF071040AF0710E3ED3F0210B5FFF75F
:10E60000DBFF074B044653B1FFF75DFD38B12368CC
:10E6100020461B699847002801DD00E000BF10BDBF
:10E620000000000010B50D4C86B0D4E88F3FDB072A
:10E6300011D42046FCF774FD68B101A8FFF792FFE2
:10E64000022101AA0648FFF723FD2046FCF76DFDD5
:10E65000044800F01FF8024806B010BD28AF0710AC
:10E6600054AF0710E1ED3F0210B5FFF7DBFF074B9A
:10E67000044653B1FFF727FD38B1236820461B69D4
:10E680009847002801DD00E000BF10BD0000000039
:10E69000FCF735BD002301461A46184600F044B881
:10E6A0000A44431E914200D1704710B511F8014B46
:10E6B000914203F8014FF9D110BD02440346934241
:10E6C00000D1704703F8011BF9E7000038B5104B83
:10E6D00004461D68AB6BB3B91820FEF7BFFF0246B6
:10E6E000A86320B90B4B42210B48FEF7E1FF0B4911
:10E6F0000B4BC0E900130B4B002183600B2383817C
:10E700000120C2E90401AB6B00221C615A6138BDD3
:10E710002CAD071055FF3F026CFF3F020E33CDAB0F
:10E7200034126DE6ECDE05002DE9F843DFF8BC801D
:10E7300006461F460D46D8F80000914600F058F8EE
:10E74000264B1C6834B9264C1C60264B13B11B6841
:10E75000C4F8883063681F2B07DDD8F8000000F08C
:10E7600049F84FF0FF30BDE8F8835EB3D4F8880075
:10E7700088B91D4B23B9D8F8000000F03AF8F0E74B
:10E780004FF48470FEF76AFF0028F4D00023C0E93C
:10E790004033C4F8880063680122022E40F82390B9
:10E7A00002FA03F200EB8301D0F8003143EA0203DE
:10E7B000C0F80031C1F8807002BFD0F804311343B3
:10E7C000C0F804316368D8F800005A1C0233626054
:10E7D00044F8235000F00EF80020C4E7F4AF07100F
:10E7E00068AF071000000000F5DE3F0290AD071093
:10E7F000704770477047000059B93F0281B93F0226
:10E8000085B93F020000000043616C6C206F6E20F0
:10E8100070757265207669727475616C00436F75EE
:10E820006C646E27742066696E64205348543331DB
:10E8300000436F756C646E27742066696E64207384
:10E84000736431333036006D6964646C65206275C1
:10E8500074746F6E2073686F727420707265737356
:10E860006564006D6964646C6520627574746F6EB4
:10E87000206C6F6E6720707265737300000000007B
:10E88000003E5B4F5B3E3E6B4F6B3E1C3E7C3E1C36
:10E89000183C7E3C181C577D571C1C5E7F5E1C007C
:10E8A000183C1800FFE7C3E7FF0018241800FFE733
:10E8B000DBE7FF30483A060E2629792926407F05F6
:10E8C0000507407F05253F5A3CE73C5A7F3E1C1C0C
:10E8D00008081C1C3E7F14227F22145F5F005F5FCC
:10E8E00006097F017F006689956A606060606094B8
:10E8F000A2FFA29408047E040810207E20100808BD
:10E900002A1C08081C2A08081E101010100C1E0CC7
:10E910001E0C30383E3830060E3E0E060000000059
:10E920000000005F00000007000700147F147F1440
:10E93000242A7F2A12231308646236495620500085
:10E9400008070300001C2241000041221C002A1C71
:10E950007F1C2A08083E080800807030000808085C
:10E960000808000060600020100804023E5149457C
:10E970003E00427F400072494949462141494D339A
:10E980001814127F1027454545393C4A4949314101
:10E99000211109073649494936464949291E0000CF
:10E9A0001400000040340000000814224114141424
:10E9B0001414004122140802015909063E415D5910
:10E9C0004E7C1211127C7F494949363E4141412219
:10E9D0007F4141413E7F494949417F090909013E43
:10E9E000414151737F0808087F00417F410020406A
:10E9F000413F017F081422417F404040407F021C7C
:10EA0000027F7F0408107F3E4141413E7F09090992
:10EA1000063E4151215E7F0919294626494949325E
:10EA200003017F01033F4040403F1F2040201F3F24
:10EA30004038403F631408146303047804036159A9
:10EA4000494D43007F4141410204081020004141EB
:10EA5000417F040201020440404040400003070897
:10EA60000020545478407F28444438384444442893
:10EA7000384444287F385454541800087E0902183A
:10EA8000A4A49C787F0804047800447D40002040C2
:10EA9000403D007F1028440000417F40007C047806
:10EAA00004787C080404783844444438FC1824244E
:10EAB0001818242418FC7C080404084854545424CE
:10EAC00004043F44243C4040207C1C2040201C3C4B
:10EAD0004030403C44281028444C9090907C446442
:10EAE000544C4400083641000000770000004136D5
:10EAF000080002010204023C2623263C1EA1A1615B
:10EB0000123A4040207A385454555921555579418C
:10EB10002254547842215554784020545579400C61
:10EB20001E52721239555555593954545459395544
:10EB30005454580000457C410002457D4200014587
:10EB40007C407D1211127DF0282528F07C5455451B
:10EB5000002054547C547C0A097F49324949493287
:10EB60003A4444443A324A4848303A4141217A3A98
:10EB700042402078009DA0A07D3D4242423D3D4064
:10EB800040403D3C24FF2424487E4943662B2FFC13
:10EB90002F2BFF0929F620C0887E090320545479C1
:10EBA000410000447D413048484A32384040227A92
:10EBB000007A0A0A727D0D19317D2629292F28260F
:10EBC0002929292630484D40203808080808080817
:10EBD0000808382F10C8ACBA2F102834FA00007B70
:10EBE000000008142A142222142A14085500550083
:10EBF00055AA55AA55AAFF55FF55FF000000FF0072
:10EC0000101010FF00141414FF001010FF00FF106C
:10EC100010F010F0141414FC001414F700FF00009E
:10EC2000FF00FF1414F404FC141417101F10101F1D
:10EC3000101F1414141F00101010F0000000001F0B
:10EC4000101010101F10101010F010000000FF1016
:10EC50001010101010101010FF10000000FF140012
:10EC600000FF00FF00001F10170000FC04F4141444
:10EC70001710171414F404F40000FF00F714141410
:10EC800014141414F700F7141414171410101F1090
:10EC90001F141414F4141010F010F000001F101FB3
:10ECA0000000001F14000000FC140000F010F01021
:10ECB00010FF10FF141414FF141010101F00000098
:10ECC00000F010FFFFFFFFFFF0F0F0F0F0FFFFFF9C
:10ECD0000000000000FFFF0F0F0F0F0F38444438F3
:10ECE00044FC4A4A4A347E02020606027E027E0242
:10ECF00063554941633844443C04407E201E20064D
:10ED0000027E020299A5E7A5991C2A492A1C4C7289
:10ED100001724C304A4D4D303048784830BC625A10
:10ED2000463D3E494949007E0101017E2A2A2A2AA0
:10ED30002A44445F444440514A444040444A51407C
:10ED40000000FF0103E080FF000008086B6B08363D
:10ED500012362436060F090F0600001818000000AE
:10ED60001010003040FF0101001F01011E00191D9D
:10ED70001712003C3C3C3C0000000000000000007A
:10ED800000000000000000000000000011C53F026C
:10ED9000F5E33F02A1B93F021BBF3F021DBF3F0287
:10EDA0004FBF3F022BBF3F023DBF3F025DBE3F0250
:10EDB0001BBF3F0245C13F0243C13F0267BF3F0245
:10EDC000A5BF3F02DFBF3F0225C03F0241C03F0257
:10EDD000C3C03F0264656661756C7420004D534288
:10EDE000004C5342003C53504953657474696E673C
:10EDF000732064656661756C743E003C53504953E2
:10EE0000657474696E6773202573257520257320DA
:10EE10004D4F444525753E000000000000000000F5
:10EE200029C83F02FBC73F02FDC73F0200000000A8
:10EE300000018000000000000000000003800000CE
:10EE40000000000000000007C000000000000000FB
:10EE5000000007C00000000000000000000FC0001C
:10EE600000000000000000001FE0000000000000A3
:10EE70000000001FE00000000000000000003FE074
:10EE80000000000000000000003FF0000000000053
:10EE9000000000007FF0000000000000001FF87F6D
:10EEA000F0000000000000003FFE7FF000000000C6
:10EEB0000000003FFF7FF0000000000000001FFF87
:10EEC000FBE0000000000000000FFFF9FFC00000A1
:10EED000000000000FFFF9FFF8000000000000072D
:10EEE000FFF1FFFF00000000000003FC73FFFF8044
:10EEF000000000000001FE3FFFFF80000000000056
:10EF000000FF1E0FFF000000000000007FFE1FFC3E
:10EF1000000000000000003FFFFFF80000000000BC
:10EF200000000FDFFFE0000000000000001F19FFDD
:10EF3000C0000000000000003F3CFF000000000097
:10EF40000000007E7CF800000000000000007FFE52
:10EF50007C0000000000000000FFFFFC000000003B
:10EF600000000000FFFFFE0000000000000000FFA6
:10EF7000FFFE0000000000000001FFEFFE000000A7
:10EF80000000000001FFCFFE0000000000000003B1
:10EF9000FF07FE0000000000000003FC07FE000069
:10EFA000000000000003F003FE000000000000006D
:10EFB000018000FE000000000000000000007E0054
:10EFC0000000000000000000003E00000000000003
:10EFD000000000000C000000000000078000FC00A2
:10EFE0000003C0000000078001FC000003C0000017
:10EFF00000078001FC000003C0000000078001E062
:10F000000000001E000000078001E00000001E005C
:10F010007FE3F79FF9FDE7787BDFC0FFF7FFBFFDD8
:10F02000FDFF787BDFC0FFF7FFBFFDFDFF787BDFD3
:10F03000C0F0F787BC3DE1FF787BDE00F0F787BCCE
:10F040003DE1F0787BDE0000F787803DE1E0787BF2
:10F05000DE007FF7879FFDE1E0787BDE00FFF7872A
:10F06000BFFDE1E0787BDE00F0F787BC3DE1E078B2
:10F070007BDE00F0F787BC3DE1E0787BDE00F0F757
:10F0800087BC3DE1E0787BDE00FFF7FFBFFDE1E0FC
:10F090007FFBDFC0FFF7FFBFFDE1E07FFBDFC07C50
:10F0A000F3F39F3DE1E03E7BCFC000000000000095
:10F0B0000000000000FFFFFFFFFFFFFFFFFFFFC09A
:10F0C000FFFFFFFFFD68DB111A31C0FFFFFFFFFDEF
:10F0D0002B5AFB6AEFC0FFFFFFFFFD4B5B3B1A3370
:10F0E000C0FFFFFFFFFD6B5BDB6AFDC0000060003F
:10F0F00000000000000000000000000000E0000030
:10F10000000000000000000000000001E00000001E
:10F110000000000000000000000001F000000000FE
:10F1200000000000000000000003F00000000000EC
:10F13000000000000000000007F0000000000000D8
:10F140000000000000000007F800000000000000C0
:10F150000000000000000FF800000003C0007E0067
:10F160000001E0007F0FF800000003C000FE000077
:10F1700001E000FFEFF800000003C000FE00000106
:10F18000E000FFFFF800000003C000F00000000FE7
:10F19000007FFE7FC0000003C000F00000000F00F1
:10F1A0003FFE7FF83FF1FBCFFCFEF3BC3DEFE01FDD
:10F1B000FE7FFF7FFBFFDFFEFEFFBC3DEFE01FC6D3
:10F1C000FFFF7FFBFFDFFEFEFFBC3DEFE00FE3C76D
:10F1D000FE787BC3DE1EF0FFBC3DEF0007FF87FC1F
:10F1E000787BC3DE1EF0F83C3DEF0001FFFFF0002E
:10F1F0007BC3C01EF0F03C3DEF0001F37FE03FFB1E
:10F20000C3CFFEF0F03C3DEF0003E33F807FFBC344
:10F21000DFFEF0F03C3DEF0007E73C00787BC3DE0B
:10F220001EF0F03C3DEF0007FFBE00787BC3DE1E02
:10F23000F0F03C3DEF0007FFFE00787BC3DE1EF0E0
:10F24000F03C3DEF000FFFFE007FFBFFDFFEF0F024
:10F250003FFDEFE00FFFFF007FFBFFDFFEF0F03F21
:10F26000FDEFE00FF9FF003E79F9CF9EF0F01F3D72
:10F27000E7E01FF1FF0000000000000000000000B8
:10F28000001F80FF007FFFFFFFFFFFFFFFFFFFE08A
:10F290001C007F007FFFFFFFFEB46D888D18E0002B
:10F2A000001F007FFFFFFFFE95AD7DB577E00000FA
:10F2B0000F007FFFFFFFFEA5AD9D8D19E00000064A
:10F2C000007FFFFFFFFEB5ADEDB57EE00000000062
:10F2D000000000007DC83F0295C83F0211C53F02F3
:10F2E000F5E33F02A9C83F021BBF3F021DBF3F021B
:10F2F0004FBF3F022BBF3F023DBF3F025DBE3F02FB
:10F300001BBF3F0245C13F0247CA3F02ABD03F028D
:10F310005DD03F02DFBF3F0225C03F0241C03F0238
:10F32000C3C03F020080C0E0F0F8FCFE000103070C
:10F330000F1F3F7FAED580A8D300408D2000A1C80D
:10F34000DB40A4A62EAF2200FF2100424D493136FA
:10F350003047656E436C6173733A3A6932635F6933
:10F360006E697428292E2E2E00424D4931363047C1
:10F37000656E436C6173733A3A6932635F696E69B3
:10F380007428293A20493243206661696C65642EED
:10F3900000424D4931363047656E436C6173733AB4
:10F3A0003A6932635F696E697428293A2043484993
:10F3B00050204944203D20307800424D49313630BC
:10F3C00047656E436C6173733A3A6932635F696E85
:10F3D000697428292E2E2E646F6E65006932635F72
:10F3E00078666572286F6666733D3078002C2074ED
:10F3F000783D002C2072783D00293A0057697265EB
:10F400002E656E645472616E736D697373696F6E8D
:10F410002829206661696C65642E00424D493136A9
:10F420003047656E436C6173733A3A7370695F6914
:10F430006E697428292E2E2E00424D4931363047F0
:10F44000656E436C6173733A3A7370695F696E6994
:10F450007428293A205741524E494E473A204E6F60
:10F4600020636869702073656C6563742070696ED1
:10F47000207370656369666965642E00424D493189
:10F48000363047656E436C6173733A3A7370695FE7
:10F49000696E697428292E2E2E646F6E6500424DA8
:10F4A0004931363047656E436C6173733A3A737015
:10F4B000695F7866657228002C000000000000007B
:10F4C000000000004FD63F02D5D43F02EDD53F02E9
:10F4D00000000000000000004FD63F0249D63F0266
:10F4E0004BD63F020000000000000000F7DF3F02A3
:10F4F000EDDF3F02E3DF3F02D9DF3F02CDDF3F0216
:10F50000C1DF3F029DE23F02A5E23F02B5DF3F02BD
:10F51000ADDF3F02A3DF3F0299DF3F02CDE33F02B1
:10F52000D5E23F02DDE23F020000000000000000E3
:10F5300015E03F025FE03F0237E03F0217E03F0285
:10F540003FE03F0247E03F024FE03F0257E03F020B
:10F55000FFE63F0200000000000000006DE13F02F6
:10F560005DE13F025FE13F026170700090AE071005
:10F57000F4AE0710B0AE071000000000000000005D
:10F580005DE23F0267E23F0271E23F027BE23F023F
:10F5900085E23F0291E23F029DE23F02A5E23F0287
:10F5A000ADE23F02B9E23F02C1E23F02CBE23F02DD
:10F5B000CDE33F02D5E23F02DDE23F020008101832
:10F5C00020283038776972696E67005379737465E3
:10F5D0006D20736C65657020636F6E666967757208
:10F5E0006174696F6E20697320696E76616C6964FD
:10F5F0002E0025592D256D2D25645425483A254D7D
:10F600003A2553257A0061736374696D65000000C3
:10F610000000000000000000AFE83F021BE93F02CD
:10F62000F3E83F02F5E33F02C3E83F02DFE83F02B1
:10F63000D1E83F02EDE83F02FFE63F02B1E83F02BA
:10F64000B5E83F0200000000000000006BE93F0247
:10F65000D3E93F02A9E93F02F5E33F029BE93F02FC
:10F660006DE93F027DE93F02CDE93F02FFE63F023F
:10F670008DE93F0265E93F02000000000000000044
:10F68000C7EA3F02BDEA3F02B3EA3F0269EA3F022E
:10F69000A7EA3F029BEA3F029DE23F02A5E23F024A
:10F6A0008FEA3F0287EA3F027DEA3F0273EA3F02A8
:10F6B000CDE33F02D5E23F02DDE23F020052454585
:10F6C0004E54206D616C6C6F632073756363656568
:10F6D000646564002F746D702F6A656E6B696E735C
:10F6E0002D4743432D31302D706970656C696E650F
:10F6F0002D34385F32303230313132345F31363090
:10F70000363138303633392F7372632F6E65776C2C
:10F7100069622F6E65776C69622F6C6962632F7303
:10F7200074646C69622F72616E642E630000000065
:10F73000E1BB3F028DBD3F022DD63F025DD63F02A9
:10F7400089DF3F0201E03F0241E13F024DE23F021B
:10F75000E1E33F0265E53F0249E83F026DE83F0211
:04F76000D1EA3F02A9
:10F76400000000029EFE3F0230AD071000000000C2
:10F774000000000000000000000000000000000085
:10F784000000000000000000000000000000000075
:10F794000000000000000000000000000000000065
:10F7A4000000000000000000000000000000000055
:10F7B4000000000000000000000000000000000045
:10F7C400000000000000000000000000F8AF071077
:04F7D4000000000031
:10FFBE000200100000B05F08A8B05F0840B93F0211
:10FFCE0001000A00FFFFFFFFFFFF00000102030414
:10FFDE0005060708090A0B0C0D0E0F10111213144B
:0EFFEE0015161718191A1B1C1D1E1F203E0089
:04FFFC0078563412ED
:04000005085FB018C8
:00000001FF
