:02000004085F93
:10B0000000B05F08FCFF5F0800000600200005019B
:08B010000401221500000000FC
:10B018001348144908B5884205D0134A824202D021
:10B02800124B121A98471248124A0021124B121A50
:10B03800984712481249884205D0124A824202D0E3
:10B048000A4B121A984710481049884205D0104AEE
:10B05800824202D0054B121A9847014808BD00BF2A
:10B06800ECAC0710B8FB5F0864AD07102D0D11108C
:10B0780064AD0710E8AF0710A10E1110E0B43F024D
:10B08800A8B05F08E8B43F02E8B43F02B0B05F0878
:0CB09800F0FF3F0219B05F08000000004C
:08B0A8009CB05F08A4F03F0218
:10B0B000034613F8012B002AFBD1181A01387047F8
:10B0C00070B503F06BFB0025054E064CA41BA408CD
:10B0D000AC4200D170BD56F8043B98470135F7E704
:10B0E000C4FF3F02F0FF3F0200F074B908B500F062
:10B0F0004FFABDE8084003F009BB02F055BC02F06E
:10B1000053BC02F05FBC00000C2008B5024A0349A2
:10B1100002F024FBFEE700BF55D63F02B4F03F0229
:10B120000078B0FA80F0400970470123037070473F
:10B1300008B50121122003F0B2FB0021062003F024
:10B14000AEFB642002F084FCBDE80840012106202B
:10B1500003F0A5BB0EB403B503AB53F8042B0021D9
:10B16000019302F0E2FE02B05DF804EB03B0704719
:10B1700008B50021152003F081FB0021022003F017
:10B180007DFB01210E2003F079FB00210F2003F04D
:10B1900075FB0021102003F071FB00210A2003F051
:10B1A0006DFB0121122003F069FB0021122003F046
:10B1B00076FB0121062003F061FBBDE80840002179
:10B1C000062003F06CBB07B5014620B103B05DF863
:10B1D00004EBFFF7ADBF0190122003F060FB0620E7
:10B1E000019903B05DF804EB03F059BBF0B50546D7
:10B1F0008DB00E4668462F4902F0CBFF002D40D19E
:10B200002D49684602F0F3FF4FF001172B4C022145
:10B21000204600F03AFF2A4B694608A8C4E90437E3
:10B2200002F0DAFF0A22314604A802F0F2FF04A974
:10B2300008A803F017F80168204602F03BFE04A8B6
:10B2400002F05CFF08A802F059FF204601F010FD53
:10B2500001212046B4F9106000F017FF0F23F6B269
:10B26000022D2682638267611BD81649204602F0B0
:10B2700021FE124801F0FCFC684602F03FFF0DB0D1
:10B28000F0BD012D01D11049BBE7022D01D10F49BD
:10B29000B7E7032D01D10E49B3E7042DB4D10D4911
:10B2A000AFE7032D01D10C49E0E7042DE1D10B49B3
:10B2B000DCE700BF3EF13F02C9F03F02C4AD07101A
:10B2C00001000A00E9F03F02D0F03F02D7F03F0250
:10B2D000DDF03F02E3F03F02EFF03F02F2F03F0209
:10B2E00030B50378422B23D143784D2B20D1002356
:10B2F000421E00F11D0412F8015F2B44A2429BB2D2
:10B30000F9D1847FC27F02EB0422934210D1827A6A
:10B31000C37A03EB02230B80027B437B03EB022304
:10B320004B80827BC37B012003EB02238B8030BDEB
:10B330000020FCE738B5214CD4E88F3FDB070AD466
:10B340002046FFF7EDFE30B101F076FF1C4B186090
:10B350002046FFF7EAFE03F03DFB0368194D1B6929
:10B360009847A8B103F036FB0368174C5B69984710
:10B3700023785A1C2270154AD05401232B7001F0F7
:10B380005BFF0F4B18602378272B84BF2723237084
:10B390002B788BB101F050FF094A1368C01AC728F7
:10B3A0000AD90023084913600B702B70084907481D
:10B3B000BDE83840FFF794BF002038BD70AD0710DE
:10B3C00078AD0710A5AD0710A4AD07107CAD071030
:10B3D000F2AC071007B503F0CDF84FF4165103F0A7
:10B3E000BDF803F0F7FA4FF4165103F05FF8C822E6
:10B3F00040F6B8310E2002F0EDFFFFF7B9FE40F63F
:10B40000B83002F025FBFFF793FE01233C22022116
:10B410001648009301F070F950B903F0ABF81449E5
:10B4200002F048FDC82240F6B8310E2002F0D2FFEB
:10B4300001210E4801F0B8FC0C4801F04EF94421FE
:10B440000C4800F015FF68B903F094F80A4902F0BF
:10B4500044FDC82240F6B8310E2003B05DF804EB7D
:10B4600002F0B8BF03B05DF804FB00BFC4AD071025
:10B47000F5F03F0238AE07100BF13F02094A0128F0
:10B48000137807D10133DBB2042B88BF002313707C
:10B49000107870470228FBD1013BDBB2052B88BF37
:10B4A0000423F4E7A6AD07101FB50024144B154A7A
:10B4B000C3E900449A60032002F06CF903F036FA05
:10B4C000114A12490346CDE901214FF0FF32802194
:10B4D00000920F48202201F005F803F027FA0146F8
:10B4E0000C4800F08DFE0C4B1A1D1A600B4AC3E984
:10B4F00002445A6001221C611A7504B010BD00BFDD
:10B5000064AD07100000FFFF801A0600A08601004E
:10B51000C4AD071038AE0710ACAD07101000030023
:10B5200007B520230122CDE90032002280231146F5
:10B53000044800F002FB034803B05DF804EB01F09F
:10B5400097BB00BFC4AD071070B501250F4801F0CF
:10B55000C4F82C46FFF7E4FF0C4E2246012329468F
:10B56000304600F05DFF0134304601F081FBE4B26B
:10B570004FF47A7002F06CFA202CEED16B1CDDB225
:10B580001B0600D570BD0124E7E700BFC4AD07105E
:10B5900030B5744C87B0D4E88F3FDB070AD420461F
:10B5A000FFF7BEFD30B1704B20461A786F4B1A7012
:10B5B000FFF7BBFD01F040FE6D4B1B68C01A27284A
:10B5C00036D900F0EDF888B114224FF4FA610E205C
:10B5D00002F000FF0120FFF751FF0122634B1870BA
:10B5E000644B1A7001F028FE634B186000F002F9FA
:10B5F00088B114224FF47A710E2002F0EBFE022083
:10B60000FFF73CFF0122594B18705A4B1A7001F09A
:10B6100013FE594B186000F017F9012843D10E2092
:10B62000142240F6B83102F0D5FE0A20FFF78CFF55
:10B63000FFF780FE90B1514C02F09CFF22885049E8
:10B64000FFF788FD02F096FF62884E49FFF782FD02
:10B6500002F090FFA2884C49FFF77CFD01F0ECFD61
:10B66000454D4A4C2B68C01AB0F5FA6F04D301F06F
:10B67000E3FD0123286023703E4A137813B9237831
:10B68000002B6CD000232370384C4148137001F01C
:10B6900024F82078002845D1384B197807B0BDE848
:10B6A0003040FFF7A3BD0228C2D14FF4FA720E203A
:10B6B0001146384C02F08EFE0020FFF784FD237DFA
:10B6C0009BB1032323722368DB68C3B19A88012AE4
:10B6D00006D09B68F9E79B688BB19A88012AFAD15A
:10B6E0009A890A2AF7D102229A7303A8294902F0FB
:10B6F000F5FD039800289BD002F064F998E700213B
:10B70000102002F07FF808B92075EEE7224B0360A5
:10B7100001238380236983600A2383810223837347
:10B720002061E2E7012802D1144B9978B6E702289C
:10B7300002D1124B1979B1E703280AD1174800F05A
:10B740000BFEFCEEC07ACDED017A20789DF8041056
:10B75000A4E7042803D1114800F00CFEF1E707B07C
:10B7600030BD00BF74AD0710A6AD0710A7AD071020
:10B77000A8AD0710F0AC071048AE0710F2AC0710E8
:10B780001FF13F0228F13F0233F13F02F1AC0710F5
:10B79000C4AD0710ACAD07101000030038AE0710A1
:10B7A00070B5124C124D2678012E0BD0022E15D0FA
:10B7B0007EB90F2003F08CF808B901232370002311
:10B7C0002B7006E00F2003F083F820B902232E70BF
:10B7D0002370287870BD00232370F1E70F2003F059
:10B7E00077F80028EBD00023E8E700BF56AE07103B
:10B7F00055AE071070B5124C124D2678012E0BD0A5
:10B80000022E15D07EB9102003F062F808B901238A
:10B81000237000232B7006E0102003F059F820B9A4
:10B8200002232E702370287870BD00232370F1E767
:10B83000102003F04DF80028EBD00023E8E700BF0C
:10B8400058AE071057AE071070B51F4C1F4D237828
:10B85000032B18D8DFE803F0020B1C310A2003F099
:10B8600037F808B90123237000232B700BE00A205E
:10B8700003F02EF8064640B90223237001F0DCFCE9
:10B88000134B2E701860287870BD00232370ECE7EE
:10B890000A2003F01DF818B1002323700123E4E708
:10B8A00001F0CAFC0A4B1B68C01AB0F5FA6FEAD364
:10B8B00002232B7003232370E5E70A2003F008F826
:10B8C0000028D1D00023CEE754AE07104CAE0710AD
:10B8D00050AE07102DE9F04F1F4685B0BDF93880F6
:10B8E000A7EB010AA8EB0209B9F1000FB8BFC9F133
:10B8F0000009BAF1000FB8BFCAF1000AD14583466A
:10B900000C461546BDF83C3004DD3A462C46474609
:10B910000D469046BC4205DD2A46454690462246E5
:10B920003C4617463E1BB2B20092A8EB050282EAE3
:10B93000E271A1EBE271C6F3C03202FA86F6454528
:10B94000B4BF01224FF0FF32019176100292BC4247
:10B950001CDCDBF80020D145D2F81880C7BF29468F
:10B9600022462A46214603935846C047019A039B24
:10B97000B61AB1B236B2002E05DA029A1544009A10
:10B980002DB2561836B2013424B2E0E705B0BDE856
:10B99000F08F704710B404682469A4465DF8044B26
:10B9A000604730B4BDF8085004680295A46BA44603
:10B9B00030BC604730B4BDF8085004680295E46BB1
:10B9C000A44630BC604770B4BDF90C50BDF810609F
:10B9D0000468CDE90356246CA44670BC60472DE989
:10B9E000F3411C46164605460F460368013CBDF868
:10B9F00020805B693444984724B22B68CDF80480DA
:10BA0000009428469C6A32463B463946A047284661
:10BA10002B68DB6A02B0BDE8F04118472DE9F3411D
:10BA2000174604461D460E460368BDF820805B6934
:10BA30009847CDE9007822686B1E33442046956A0A
:10BA400031463A461BB2A84720462368DB6A02B05B
:10BA5000BDE8F04118472DE9F3471E4603680C4640
:10BA60005B6905461746BDF92890BDF82C809847BC
:10BA70002644B4422B680BDACDF800802146D3F877
:10BA800020A03A464B4628460134D04724B2F0E77E
:10BA90002846DB6A02B0BDE8F047184713B50191AC
:10BAA000B0F90E1002680091146C0022B0F90C304D
:10BAB0001146A04702B010BD2DE9F7439942164642
:10BAC00080460D461C46BDF92870BDF82C900268D2
:10BAD00012D1BE42C2BF33463E461F46CDF8289023
:10BAE0007B1C946B9B1B324629464046A4461BB2E6
:10BAF00003B0BDE8F0436047BE420AD19942C2BFDD
:10BB00000B4625461C46CDF82890631C5B1BD46B66
:10BB1000E9E753699847CDE90079D8F80030404605
:10BB20009F6A324623462946B8474046D8F8003037
:10BB3000DB6A03B0BDE8F04318472DE9F34704463C
:10BB40000F4616461D460368BDF82C805B69BDF99B
:10BB5000289098472368CDF8008032463946204621
:10BB6000D3F824A02B46D047236809F1FF32CDF843
:10BB70000080324439462046D3F824A012B22B4626
:10BB8000D0472368CDF80080324639462046D3F8A6
:10BB900020A04B46D0476B1ED9192368CDF80080F2
:10BBA00020461D6A32464B4609B2A8472046236804
:10BBB000DB6A02B0BDE8F0471847704701F00303A5
:10BBC000B0F90A208376B0F90830C90759BF8381DC
:10BBD000C2818281C381704730B501810024818197
:10BBE0004FF0FF31054D4281C281054A4460C0E9F2
:10BBF0000512056004610477046230BD48F63F0217
:10BC0000010100012DE9F04F0026354689B0CDE94C
:10BC1000021204930268BDF94C30BDF948805269A4
:10BC200005930446BDF850A0904718F1070248BF9D
:10BC300008F10E024FEAE20B0196039B019ABDF94F
:10BC400004109A18059B12B28B4227DD4FF00009B1
:10BC5000049B334406930FFA89F080451FFA89F15B
:10BC600017DD4F0705BF069BC0106D001D5C18BF98
:10BC7000EDB22B060AD5029B20681944836907920E
:10BC80001F462046534609B2B847079A09F10109F1
:10BC9000E1E7019B5E4401330193CEE72046236830
:10BCA000DB6A09B0BDE8F04F184700002DE9F04FFE
:10BCB0002DED028B91B016461F46026ABDF870301A
:10BCC0008346BDF874809DF878509DF87C400391C0
:10BCD0000493002A40F0C580B0F90C308B4240F349
:10BCE0004C81B0F90E30B34240F34781062313FB79
:10BCF0000513002B40F3418106EBC403002B40F3F6
:10BD00003C81037F1BB9AF2F84BF0137FFB2DBF843
:10BD1000003058465B699847052209920022059237
:10BD2000984A07EB8703D3180C93B3B20693059A8E
:10BD30000C9B02FB05F99B5C0793ABB20B93BDF820
:10BD40000C300893039B19FA83F90FFA89F308EE74
:10BD5000103A08234FF000090A93039B02EB030AF1
:10BD60000FFA8AFA079ADBF80030D20752D5012D74
:10BD70001FFA89F23ED1012C3CD19B6906991F46DE
:10BD8000049B0A445146584612B2B84709F10103D0
:10BD90004FFA83F9079B5B0807930A9B013B13F05B
:10BDA000FF030A93DED1059F01377BB20593099B00
:10BDB000013B13F0FF030993B9D1049B43450FD016
:10BDC000012DDBF800303BD1012C39D10899CDF899
:10BDD000008005311C6A32460823584609B2A04744
:10BDE0005846DBF80030DB6A11B0BDEC028BBDE8D1
:10BDF000F04F184714FB02F206990A440499019186
:10BE00000094DB6918EE101A1F4658462B4612B2F2
:10BE1000B847BBE7049A4245B8D0012D1FFA89F212
:10BE200007D1012C05D19B6906991F460A44434658
:10BE3000A8E714FB02F20699CDF804800A44DFE774
:10BE40000B9AE40002EB8201089ACDF804800A44C0
:10BE500011460094DC6932462B46584609B2A04789
:10BE6000BEE7137A5168FF1A1268FFB20B9231F8DD
:10BE7000372001EBC70306929A78012D0992DA78F0
:10BE800093F906A00C9293F905200A9201D8012C8F
:10BE900057D9BDF9283008930FFA8AF307934FF06A
:10BEA0000008C1464746DBF8003058465B699847B2
:10BEB000B3B20E931AFA86F30F930C9B9F428FD264
:10BEC000079B0E9A3B4403FB042300221BB208EE9F
:10BED000103A434605920F9A02EB070A0FFA8AFAC4
:10BEE000099A0599914241D25A1CD2B25B070D9230
:10BEF00007D1069B06990B9A01339BB212F8019069
:10BF0000069319F0800F12D0012DDBF80030BDF838
:10BF10000C101AD1012C18D10A9A9B691144059A68
:10BF20001E46114458465246049B09B2B047059E2E
:10BF30004FEA49090136F3B205935FFA89F90D9B7F
:10BF4000CEE70023CDE90733A9E70598089A024414
:10BF500002FB0511049A5846CDE90042DB6918EE50
:10BF6000102A1E4609B22B46B047E0E7099B01376D
:10BF700098445FFA88F8FFB29FE711B0BDEC028BDE
:10BF8000BDE8F08F3FF13F02F0B5026A04460B4670
:10BF900085B0002A34D10A2908D1438A0282427E20
:10BFA00003EBC2036382012005B0F0BD0D29FAD076
:10BFB000E17E007E657E71B10621B4F9106011FB4F
:10BFC0000061B4F90C60B142C1BFB4F91210228211
:10BFD00001EBC5026282E28ACDE902050192A28AE2
:10BFE00020460092B4F91010B4F91220FFF75EFE5B
:10BFF000237E228A03EB430302EB43032382D2E72F
:10C000000A2907D100230382417E127B438A01FB68
:10C010000233C7E70D29C6D0157AA942C3D3917A56
:10C020009942C0D351685D1BEDB201EBC505A878FC
:10C0300028B3E97819B3E17E267E677E91B195F940
:10C0400005100844B4F9101006FB0011B4F90C00F7
:10C05000814207DD00202082B4F91210127B02FB1E
:10C0600007126282E28A20460192A28ACDE9026723
:10C070000092B4F91010B4F91220FFF717FE2979D5
:10C08000227E238A01FB0233B8E7012938BF012150
:10C0900001764176704742600022027220220170D0
:10C0A000C260704710B5037A044653B121786068C6
:10C0B00001F098FD606801F0A0FDB0FA80F0400941
:10C0C00010BD012100F003F80028EFD1F8E738B5E2
:10C0D000044640680D4601F053FD0120207225B151
:10C0E0002046BDE83840FFF7DDBF38BD2DE9F843F5
:10C0F0001F46DDE90896C368154632449A42044655
:10C10000884602D90020BDE8F8830178406801F034
:10C1100069FD7EB960682A4603684146DB68984736
:10C120008542EFD13946606801F063FDB0FA80F0D6
:10C130004009E8E7B9F1000FECD0606832460368C7
:10C140004946DB6898478642DCD1E3E72DE9F041B8
:10C15000154604460E46D2B20178406801F02DFD26
:10C1600085420DD100271FFA87F8A84507F101077E
:10C1700009D2606803685B69984706F80800F2E72F
:10C180000020BDE8F0810120FBE72DE9F8430746D8
:10C190008846164699460025B54212D2FA68741BA5
:10C1A000944228BF1446331BAB4294BF4B46002336
:10C1B0002246384608EB0501FFF7C8FF10B12544B9
:10C1C000EAE70120BDE8F88303780822DB43DBB20D
:10C1D00013F0800F4FEA430301D083F03103013A9B
:10C1E000DBB2F5D140785840082310F0800F4FEAB9
:10C1F000400001D080F03100013BC0B2F5D1704762
:10C200000022C0E90212024A02604260704700BF89
:10C210000000C07F1FB50B0A8DF80C300023CDE95C
:10C2200000338DF80D100123022203A9C068FFF727
:10C230005DFF05B05DF804FB13B504464FF22D31E8
:10C24000FFF7E8FF01230322E06801A9FFF79DFF44
:10C25000BDF8040040BA80B202B010BD08B543F288
:10C26000A201FFF7D7FFBDE808400A2001F0F0BBAC
:10C2700070B50446C0680E4610B11021FEF741FFAC
:10C280001020FEF73AFF054618B13146A268FFF7C5
:10C2900002FF01212846E560FFF719FF50B1204653
:10C2A000FFF7DCFF2046FFF7C7FF4FF6FF73C01A0A
:10C2B00018BF012070BD000037B54FF4105104467F
:10C2C000FFF7A8FF014600283ED0142001F0C0FB74
:10C2D000694601230622E068FFF757FF014698B33D
:10C2E0006846FFF771FF9DF8025085422FD10DF18E
:10C2F0000300FFF769FF9DF80550854227D141F201
:10C300001712BDF800309FED137A5BBA9BB253430E
:10C310009B13A3F58C53143B07EE903A40F2712225
:10C32000F8EEE77ABDF80330C7EE876A5BBA9BB2D6
:10C3300053431B0B07EE903AF8EEE77AC4ED016A1F
:10C34000C7EE876AC4ED006A084603B030BD00211D
:10C35000FAE700BF0000C84210B50446FFF7ACFF83
:10C3600010B194ED010A10BD9FED010AFBE700BF7B
:10C370000000C07F10B50446FFF79EFF10B194ED9A
:10C38000000A10BD9FED010AFBE700BF0000C07F5F
:10C39000704710B504461021FEF7B3FE204610BDCD
:10C3A00073B5044622790846A36832B1A3B90B4994
:10C3B00002B0BDE8704001F07DBD094A267B094D01
:10C3C0000949647B012E18BF2946CDE900140749AD
:10C3D000FEF7C0FE02B070BD054AEFE7A9F63F02C6
:10C3E0003EF13F02A5F63F02A1F63F02BFF63F0233
:10C3F00098F63F0210B5044B04460360C06A08B1CA
:10C4000001F0E0FA204610BD98FB3F0210B504464B
:10C41000FFF7F0FF20467421FEF773FE204610BDA3
:10C42000002910B54BDBB0F90C408C4247DD002AE7
:10C4300045DBB0F90E40944241DD847E022C1FD0D2
:10C44000032C26D0012C04D1D243048914440A467B
:10C4500021B2012B23D0022B32D083BB1346002AFA
:10C460000489B8BFD31DDB1013FB04110123C06A7C
:10C4700002F007029340425C22EA030242541EE0AB
:10C48000D2430489013C611A448909B2224412B2A0
:10C49000DFE74489013C641A114622B2D9E713460A
:10C4A000002A0489B8BFD31DDB1013FB0411C36A33
:10C4B00002F0070001228240585C02435A5410BD2A
:10C4C0001346002A0489B8BFD31DDB1013FB0411E7
:10C4D0000123C06A02F0070203FA02F2435C5A40E9
:10C4E000CCE7000070B504461D460026FFF774FB3C
:10C4F000114B6662236015B902F018FA0546FF2356
:10C5000084F8333084F836309DF910304FF6FF72DE
:10C5100084F83730059B2046A365069BC4E90A567C
:10C52000E365064BA28663660123E66684F86830FD
:10C53000A4F8706070BD00BF98FB3F02E4F63F02B4
:10C5400070B50446806A0D4690B194F9301001F040
:10C550004DFBA06A002103689B689847A06A2946A2
:10C5600003689B689847A06ABDE8704001F045BB2E
:10C57000226C206D136823EA00031360606A18B10F
:10C58000BDE8704001F0B4BD08228021A36BA66C09
:10C5900018680D4214BF3043B0431860E06BE66C7E
:10C5A0000368013A43EA06030360E06BE66C036844
:10C5B0004FEA510123EA06030360E7D170BD38B5A5
:10C5C0000446806A0D4680B1A16D01F0D5FA002DB8
:10C5D000204614BFA721A621FFF7B2FFA06A88B1A9
:10C5E000E16DBDE8384001F0C7BA606A18B104F1E6
:10C5F000640101F00FFD626C616D136823EA0103B1
:10C600001360E4E7626C616D13680B431360606A4A
:10C6100018B1BDE8384001F0E3BC38BDF8B50446B8
:10C62000806A0D468F1840B394F9301001F0DEFA9D
:10C63000A06A0021036801269B689847BD42A06A52
:10C6400017D01F2E0CD901F0D8FA94F93010A06A37
:10C6500001F0CCFAA06A0021036801269B68984784
:10C66000A06A15F8011B036801369B689847B6B2AB
:10C67000E4E7BDE8F84001F0C0BA226C216D136810
:10C6800023EA01031360BD4226D0606A15F8011B3E
:10C6900010B101F02DFDF6E74FF0080E8020A36BDE
:10C6A000D4F848C01E68014214BF46EA0C0626EAC8
:10C6B0000C061E60E66BE26C3368BEF1010E43EAC5
:10C6C00002033360E66BE26C33684FEA500023EA02
:10C6D00002033360E3D1D6E7F8BDB0F90A30002198
:10C6E000DA1D48BF03F10E02B0F90830D2105A43E8
:10C6F000C06A02F014BA00002DE9FF411E46C36A69
:10C7000004460F4615469DF82880C3B12046FFF722
:10C71000E4FFB4F90A00B4F90810202821DC202332
:10C720000122CDE901327323203800EBD070733938
:10C73000009301EBD171B84B40F34F0221E0B0F907
:10C740000A30D81D48BF03F10E00B4F90830C010FC
:10C75000584301F029F9E0620028D7D104B0BDE8C0
:10C76000F0814038C0F3C032402302FA80F2012049
:10C77000CDE90130522352390093A84B01EBD1711E
:10C780005210204641F34F01FFF73CFAA06A84F8AB
:10C790003170002800F09A80002D40F09580B4F9A7
:10C7A0000A30202B0CBF3C253D2584F83050B8F1D1
:10C7B000000F01D001F0E4F9FEB194F93700002830
:10C7C0001BDB012180B202F059F894F937000121F6
:10C7D00080B202F064F8012001F03AF994F93700D0
:10C7E000002180B202F05BF80A2001F031F994F9DF
:10C7F0003700012180B202F052F8A06A002800F050
:10C80000E580A16D01F0B8F9042220468449FFF7C4
:10C8100005FF618920460139C9B2FFF791FE8149C0
:10C8200004222046FFF7FAFE94F931302046012B0E
:10C830000CBF10211421FFF783FE042220467A4901
:10C84000FFF7ECFE8F23794A84F86030A3689342A7
:10C8500000F0D48002F50012934240F0C48094F9B5
:10C8600031301225012B0CBF9F23CF2384F8603079
:10C87000DA212046FFF764FE29462046FFF760FED6
:10C8800081212046FFF75CFE204694F86010FFF7F8
:10C8900057FED9212046FFF753FE94F93130204648
:10C8A000012B0CBF2221F121FFF74AFE2046062270
:10C8B0005F49FFF7B3FEA06A002800F0A180E16D98
:10C8C00001F05AF9012049E76DB26EE794F935009D
:10C8D000012180B201F0D2FF94F93600012180B22B
:10C8E00001F0CCFF00F0B6FC94F93530514D03EB6C
:10C8F000430310F8233055F82330236400F0AAFCDA
:10C9000094F9353003EB430300EB83035B78236535
:10C9100000F0A0FC94F9363003EB430310F8233009
:10C9200055F82330636400F095FC94F93630626C5E
:10C9300003EB430300EB83035B78636511680B43F0
:10C940001360606A30B1B8F1000F3FF435AF01F009
:10C9500033FB31E794F93300012180B201F08EFFFF
:10C9600094F93400012180B201F088FF00F072FCDC
:10C9700094F9333003EB430310F8233055F8233098
:10C98000A36300F067FC94F9333003EB430300EB3F
:10C9900083035B78A36400F05DFC94F9343003EB0F
:10C9A000430310F8233055F82330E36300F052FCC2
:10C9B00094F93430E26B03EB430300EB83035978C3
:10C9C000E164136823EA01031360F5E6606A18B1B5
:10C9D00004F1640101F01EFB626C616D136823EACF
:10C9E0000103136010E7144A934207D194F93130E0
:10C9F000012B0CBF1023AF2384F86030022537E7EA
:10CA0000626C616D13680B431360606A00283FF429
:10CA100059AF01F0E5FA55E7B0F93F02F0F63F02F1
:10CA2000F8FB3F02FCFB3F0200FC3F0280002000BD
:10CA300004FC3F0224001C106000100070B5002AA6
:10CA4000BDF810503FDBB0F90A4094423BDD0029AD
:10CA5000BEBF5B1800211BB2B0F90840CE18A64239
:10CA6000C4BF631A1BB2002B2DDDD61014FB0611B8
:10CA7000C06A012D014402F007004FF0010202FAE2
:10CA800000F2D2B216D0022D0BD0E5B9D2430B443E
:10CA9000D2B2994217D011F8010B104001F8010CE5
:10CAA000F7E70B4499420ED011F8010B504001F802
:10CAB000010CF7E70B44994205D011F8010B104324
:10CAC00001F8010CF7E770BDF0B50029BDF814506E
:10CAD00077DBB0F90860B14273DA002ABEBF9B1859
:10CAE00000221BB2B0F90A40D718A742C4BFA31A4C
:10CAF0001BB2002B65DDC2F3C40416FB0416C76A23
:10CB000012F00702DBB207EB060424D0C2F10802E0
:10CB1000D2B2934238BF4FF0FF0C2C4938BFA2EB82
:10CB2000030E895C3CBF4CFA0EFC0CEA0101012D9E
:10CB300007D0022D2ED04DB917F806C02CEA0101FE
:10CB400003E017F806C041EA0C01B955934238D307
:10CB5000B0F908100C449A1AD2B2072A0ED9022D45
:10CB60001DD113462178083BC9432170B0F9081044
:10CB7000DBB2072B0C44F5D802F007020AB3144BC2
:10CB8000012D9B5C1AD0022D1CD0D5B9227822EA47
:10CB9000030315E017F806C081EA0C01D5E7291E4A
:10CBA00018BF012113464942C9B22170083BB0F9B0
:10CBB0000860DBB2072B3444F7D8DDE72278134353
:10CBC0002370F0BD22785340FAE700BFE8FB3F0234
:10CBD000F0FB3F0270B41446827EBDF80C60022A5E
:10CBE0000DD0032A18D0012A11D1E443028914443C
:10CBF00024B20A460396214670BCFFF765BFE443A2
:10CC00004289058919441444691A24B209B222469A
:10CC1000039670BCFFF712BF45891944691A09B21F
:10CC2000E7E730B41446827EBDF80850022A0DD0E2
:10CC3000032A18D0012A11D1E2180489A41A24B2B7
:10CC40000A460295214630BCFFF7F8BEC943028967
:10CC50001144E218448909B2A41A24B2224602956A
:10CC600030BCFFF731BFC9434289114409B2E7E73D
:10CC7000F8B50446806A002842D0A16D00F07CFF20
:10CC8000052220464749FFF7C9FC21892046013982
:10CC9000C9B2FFF755FCD4E90A05B4F90A30DE1D24
:10CCA00048BF03F10E062389F61013FB06F615FAAA
:10CCB00086F600283BD094F9301000F097FFA06A68
:10CCC0004021036801279B689847AE42A06A24D0A0
:10CCD0001F2F0CD900F091FF94F93010A06A00F0DA
:10CCE00085FFA06A4021036801279B689847A06AD6
:10CCF00015F8011B036801379B689847BFB2E4E74A
:10CD0000606A18B104F1640101F084F9626C616D2C
:10CD1000136823EA01031360B2E700F06EFFA06A14
:10CD2000002832D0E16DBDE8F84000F025BF226C4C
:10CD3000216D13680B431360B542F0D0606A15F89B
:10CD4000011B10B101F0D4F9F6E74FF0080E802076
:10CD5000A36BD4F848C01F68014214BF47EA0C0710
:10CD600027EA0C071F60E76BE26C3B68BEF1010E1F
:10CD700043EA02033B60E76BE26C3B684FEA50001A
:10CD800023EA02033B60E3D1D6E7626C616D13686E
:10CD90000B431360606A18B1BDE8F84001F020B998
:10CDA000F8BD00BF0AFC3F0238B50446806A0D4654
:10CDB00098B1A16D00F0E0FE81212046FFF7C0FB95
:10CDC000C5B994F860102046FFF7BAFBA06A98B185
:10CDD000E16DBDE8384000F0CFBE606A18B104F1E3
:10CDE000640101F017F9626C616D136823EA0103B5
:10CDF0001360E1E70021E6E7626C616D13680B43A5
:10CE00001360606A18B1BDE8384001F0E9B838BD78
:10CE100013B50A4CD4E88F1F11F001010BD1204645
:10CE20000191FEF77DF9019928B1054801F0BAF8A2
:10CE30002046FEF77AF9024802B010BD5CAE07103A
:10CE400060AE071013B503688DF804101C68012349
:10CE500001A91A46A0479DF8040002B010BD0021A8
:10CE6000FFF7F0BF70B506460C4615462AB9BDE877
:10CE700070400368C9B29B68184700290BDA0A2A78
:10CE800009D12D2101F01AF861423046EAB2BDE81D
:10CE9000704001F02CB82146F7E7000038B5044691
:10CEA00001F068FB144901F018F8A069E16800F08E
:10CEB0009DFEA06900F0A1FE20B101F05BFB0F49CF
:10CEC00001F00BF82046FFF7CAFF054601F052FBC0
:10CED0000B4900F0EFFF01F04DFB044629461022FC
:10CEE000FFF7C0FF204600F0ECFF01F043FBBDE878
:10CEF0003840044900F0F1BF0FFC3F022DFC3F0217
:10CF000055FC3F027EFC3F022DE9F0410C461746DE
:10CF10001E46054601F02EFB324900F0CBFF01F022
:10CF200029FB1022217800F0E2FF01F023FB2E49BB
:10CF300000F0C0FF01F01EFB0A22394600F0D7FFC7
:10CF400001F018FB294900F0B5FF01F013FB0A229C
:10CF5000314600F0CCFF01F00DFB254900F0AAFF9F
:10CF6000E968A86900F042FEA0462744B845A869D0
:10CF700005D0036818F8011B9B689847F6E700F096
:10CF80003CFE20B101F0F6FA1A4900F0A6FF0EB3FC
:10CF90003246297BA86900F022FEDFF86080264433
:10CFA000A86903681B699847A0B1B44212D0A86968
:10CFB00003685B699847074604F8010B01F0DAFA49
:10CFC000414600F077FF01F0D5FA1022F9B2FFF7E1
:10CFD00049FFE5E701F0CEFA074900F07EFF0020A7
:10CFE000BDE8F081A0FC3F02B1FC3F02B7FC3F026C
:10CFF000BDFC3F02C0FC3F023EF13F029FF63F02F4
:10D0000010B5044601F0B6FA0D4900F066FFFFF7CF
:10D01000FFFE00F0D1FF206900280ADB012180B269
:10D0200001F02CFC01F0A6FABDE81040054900F023
:10D0300054BF01F09FFA044900F04FFFF2E700BF30
:10D04000DFFC3F0240FD3F02FDFC3F0290F914303F
:10D05000012B02D0022B02D07047FFF71FBFFFF752
:10D06000CFBF00002DE9F3410C4616461D4607468A
:10D0700001F080FA354900F01DFF01F07BFA102223
:10D08000214600F034FF01F075FA314900F012FF3B
:10D0900001F070FA1022217800F029FF01F06AFAFD
:10D0A0002C4900F007FF01F065FA0A22314600F032
:10D0B0001EFF01F05FFA274900F0FCFE01F05AFA6A
:10D0C0000A22294600F013FF01F054FA224900F029
:10D0D000F1FE3869002803DB002180B201F0DFFB9C
:10D0E000A0462644464518D1DFF874802544AC425A
:10D0F0001CD0FFF78DFE002100F0FAFF064604F871
:10D10000010B01F037FA414600F0D4FE01F032FA8B
:10D1100010223146FFF7A6FEE9E718F8011B01913E
:10D12000FFF776FE019900F0E3FFDBE7386900289E
:10D1300003DB012180B201F0B2FB01F01BFA0749C9
:10D1400000F0CBFE002002B0BDE8F08162FD3F029E
:10D15000BBFC3F027CFD3F02BDFC3F023EF13F02B3
:10D160009FF63F02F0B490F914C00546BCF1010FE0
:10D170000C4617461E4605D0BCF1020F05D0F0BC88
:10D1800000207047F0BCFFF7BFBE1BB10B7863F007
:10D190007F030B7033463A4621462846F0BCFFF722
:10D1A00061BF0000044B054A1A604FF0FF32C3E92B
:10D1B00002221A61704700BF68AE071088FD3F0267
:10D1C00070470020704710B40468A468A4465DF856
:10D1D000044B6047014B024A1A60704784AE071047
:10D1E0009CFD3F0209B504480068044B03441B68DA
:10D1F0005B6C029309BD0000ECAC0710300000002E
:10D2000009B504480068044B03441B685B6802933B
:10D2100009BD0000ECAC07100000000009B504488F
:10D220000068044B03441B68DB68029309BD0000DF
:10D23000ECAC07100000000009B504480068044B7E
:10D2400003441B685B69029309BD0000ECAC071046
:10D250000000000009B504480068044B03441B6843
:10D260001B68029309BD0000ECAC0710140000001D
:10D2700009B504480068044B03441B685B680293CB
:10D2800009BD0000ECAC07101400000009B504480B
:10D290000068044B03441B689B68029309BD0000AF
:10D2A000ECAC07101400000009B504480068044BFA
:10D2B00003441B68DB68029309BD0000ECAC071057
:10D2C0001400000009B504480068044B03441B68BF
:10D2D0001B69029309BD0000ECAC071014000000AC
:10D2E00009B504480068044B03441B685B6902935A
:10D2F00009BD0000ECAC07101400000009B504489B
:10D300000068044B03441B681B68029309BD0000BE
:10D31000ECAC07101000000009B504480068044B8D
:10D3200003441B68DB68029309BD0000ECAC0710E6
:10D330001000000009B504480068044B03441B6852
:10D340009B69029309BD0000ECAC071010000000BF
:10D3500009B504480068044B03441B68DB69029369
:10D3600009BD0000ECAC07101000000009B504482E
:10D370000068044B03441B681B6A029309BD00004C
:10D38000ECAC07101000000009B504480068044B1D
:10D3900003441B685B6A029309BD0000ECAC0710F4
:10D3A0001000000009B504480068044B03441B68E2
:10D3B0009B6A029309BD0000ECAC0710100000004E
:10D3C00009B504480068044B03441B68DB6A0293F8
:10D3D00009BD0000ECAC07101000000009B50448BE
:10D3E0000068044B03441B681B6B029309BD0000DB
:10D3F000ECAC07101000000009B504480068044BAD
:10D4000003441B685B6B029309BD0000ECAC071082
:10D410001000000009B504480068044B03441B6871
:10D420001B6C029309BD0000ECAC0710100000005B
:10D4300009B504480068044B03441B681B6D029344
:10D4400009BD0000ECAC07101000000009B504484D
:10D450000068044B03441B685B69029309BD00002C
:10D46000ECAC07104C00000009B504480068044B00
:10D4700003441B689B68029309BD0000ECAC0710D5
:10D480005000000009B504480068044B03441B68C1
:10D49000DB68029309BD0000ECAC071050000000EF
:10D4A00009B504480068044B03441B681B680293D9
:10D4B00009BD0000ECAC07100C00000009B50448E1
:10D4C0000068044B03441B681B68029309BD0000FD
:10D4D000ECAC07101800000009B504480068044BC4
:10D4E00003441B685B69029309BD0000ECAC0710A4
:10D4F0001800000009B504480068044B03441B6889
:10D50000DB69029309BD0000ECAC071018000000B5
:10D5100009B504480068044B03441B681B6A029366
:10D5200009BD0000ECAC07101800000009B5044864
:10D530000068044B03441B685B6A029309BD00004A
:10D54000ECAC07101800000009B504480068044B53
:10D5500003441B68DB6B029309BD0000ECAC0710B1
:10D560001800000009B504480068044B03441B6818
:10D570001B6C029309BD0000ECAC07101800000002
:10D5800009B504480068044B03441B685B6C0293B4
:10D5900009BD0000ECAC07101800000009B50448F4
:10D5A0000068044B03441B68DB68029309BD00005C
:10D5B000ECAC07102400000009B504480068044BD7
:10D5C00003441B681B69029309BD0000ECAC071003
:10D5D0002400000009B504480068044B03441B689C
:10D5E0005B69029309BD0000ECAC07102400000049
:10D5F00009B504480068044B03441B689B69029307
:10D6000009BD0000ECAC07102400000009B5044877
:10D610000068044B03441B68DB69029309BD0000EA
:10D62000ECAC07102400000009B504480068044B66
:10D6300003441B681B6A029309BD0000ECAC071091
:10D640002400000009B504480068044B03441B682B
:10D650009B6A029309BD0000ECAC07102400000097
:10D6600009B504480068044B03441B68DB6A029355
:10D6700009BD0000ECAC07102400000009B5044807
:10D680000068044B03441B681B6C029309BD000037
:10D69000ECAC07102400000009B504480068044BF6
:10D6A00003441B681B68029309BD0000ECAC071023
:10D6B0003400000009B504480068044B03441B68AB
:10D6C0005B68029309BD0000ECAC07103400000059
:10D6D00009B504480068044B03441B681B690293A6
:10D6E00009BD0000ECAC07103400000009B5044887
:10D6F0000068044B03441B685B69029309BD00008A
:10D70000ECAC07103400000009B504480068044B75
:10D7100003441B689B69029309BD0000ECAC071031
:10D720003400000009B504480068044B03441B683A
:10D73000DB69029309BD0000ECAC07103400000067
:10D7400009B504480068044B03441B681B6A029334
:10D7500009BD0000ECAC07103400000009B5044816
:10D760000068044B03441B685B6B029309BD000017
:10D77000ECAC07104800000009B504480068044BF1
:10D7800003441B681B6D029309BD0000ECAC07103D
:10D790004800000009B504480068044B03441B68B6
:10D7A0005B68029309BD0000ECAC071008000000A4
:10D7B00009B504480068044B03441B685B69029385
:10D7C00009BD0000ECAC07100800000009B50448D2
:10D7D0000068044B03441B68D3F88830029309BDEA
:10D7E000ECAC07100800000009B504480068044BC1
:10D7F00003441B68D3F89430029309BDECAC0710C6
:10D800000800000009B504480068044B03441B6885
:10D81000D3F89830029309BDECAC07100800000063
:10D8200009B504480068044B03441B68D3F8A830CA
:10D83000029309BDECAC07100800000009B50448CC
:10D840000068044B03441B68DB6B029309BD0000B6
:10D85000ECAC07102C00000009B504480068044B2C
:10D8600003441B685B68029309BD0000ECAC071021
:10D870002800000009B504480068044B03441B68F5
:10D880009B68029309BD0000ECAC07102800000063
:10D8900009B504480068044B03441B68DB68029325
:10D8A00009BD0000ECAC07102800000009B50448D1
:10D8B0000068044B03441B681B69029309BD000008
:10D8C000ECAC07102800000009B504480068044BC0
:10D8D00003441B685B69029309BD0000ECAC0710B0
:10D8E0002800000009B504480068044B03441B6885
:10D8F0009B69029309BD0000ECAC071028000000F2
:10D9000009B504480068044B03441B68DB690293B3
:10D9100009BD0000ECAC07102800000009B5044860
:10D920000068044B03441B681B6A029309BD000096
:10D93000ECAC07102800000009B504480068044B4F
:10D9400003441B681B6B029309BD0000ECAC07107D
:10D950002800000009B504480068044B03441B6814
:10D960005B6B029309BD0000ECAC071028000000BF
:10D9700009B504480068044B03441B681B6C029300
:10D9800009BD0000ECAC07102800000009B50448F0
:10D990000068044B03441B685B6C029309BD0000E4
:10D9A000ECAC07102800000009B504480068044BDF
:10D9B00003441B681B68029309BD0000ECAC071010
:10D9C0000400000009B504480068044B03441B68C8
:10D9D0005B68029309BD0000ECAC07100400000076
:10D9E00009B504480068044B03441B689B68029314
:10D9F00009BD0000ECAC07100400000009B50448A4
:10DA00000068044B03441B685B6A029309BD000075
:10DA1000ECAC07100400000009B504480068044B92
:10DA200003441B681B6C029309BD0000ECAC07109B
:10DA30000400000009B504480068044B03441B6857
:10DA40005B6C029309BD0000ECAC07100400000001
:10DA50000021FFF7ADBE0000002302480360FFF77E
:10DA6000C1BB00BF8CAE0710002240681146FFF713
:10DA700055BF002240681146FFF76CBF0022406886
:10DA8000FFF75ABF0022406881F00101FFF738BF5D
:10DA9000002340681A461946FFF724BF0023406858
:10DAA0001A461946FFF710BF002240681146FFF7DB
:10DAB000FDBE002240681146FFF7DCBE00220221B5
:10DAC0004068FFF7E5BE002340681A46FFF7C4BE72
:10DAD0000322024B5A60024A1A60704790AE071048
:10DAE000B0FD3F027047F8B5064615460C468F1844
:10DAF000BC4206D0336830469B6814F8011B984737
:10DB0000F6E72846F8BD0022007CFFF72FBC002175
:10DB1000007CFFF739BC0021007CFFF743BC0021EB
:10DB2000007CFFF74DBC0021007CFFF757BC10B50F
:10DB300004461421FDF7E5FA204610BD38B5044629
:10DB400015464FF47A730022C4E90123094B0846B5
:10DB5000217423602946FFF75DFCBF3008D16B6953
:10DB6000DB0705D56868FFF72DFFE868FFF72AFF98
:10DB7000204638BDECFD3F020022007CFFF7BEBB13
:10DB80000023007C1A461946FFF7C6BB7FB500226A
:10DB90001423CDE90122ADF804300B78007C8DF818
:10DBA00008304B680393CB6804930B7A01A9059363
:10DBB000FFF73EFC07B05DF804FB1FB5003B8DF896
:10DBC00000104FF0640118BF0123039169460192D0
:10DBD0008DF80830FFF7DAFF05B05DF804FB01238C
:10DBE000FFF7EBBF0022007CFFF7A4BBC9B2FFF731
:10DBF000F9BF0022007CFFF7ABBB0121FFF7F9BFA3
:10DC0000704710B504461821FDF77BFA204610BD79
:10DC1000F0B5037D0E46062B4FF000048DB000F1E9
:10DC2000040712D000F1080515F8011D0A2230463C
:10DC300000F05DF9AF42044419D0002CF4D02E213D
:10DC4000304600F03BF90444EEE72F236A4639469C
:10DC50000A208DF80040FFF7F9FB6846FDF728FA27
:10DC60003368024669463046DB68984704462046DA
:10DC70000DB0F0BD10B50446044B1122002140F850
:10DC8000043B00F04CFF204610BD00BF14FE3F02D5
:10DC90000346074A10B543F8042B01F1100251F86E
:10DCA000044B914243F8044BF9D10A781A7010BD25
:10DCB00014FE3F0210B59DF8084044EA032343EAEE
:10DCC0000242042342EA01614160037510BD000075
:10DCD00007B5064B0360CB7800938B784A780978B8
:10DCE000FFF7E8FF03B05DF804FB00BF14FE3F023E
:10DCF000014B024A1A60704798AE071020FE3F029F
:10DD0000002340681A46FFF7A7BD002202214068A1
:10DD1000FFF7BEBD002240681146FFF7ABBD0022F1
:10DD200040681146FFF7C2BD002340681A461946F5
:10DD3000FFF7CABD002340681A461946FFF7D2BD57
:10DD400000214068FFF714BE00214068FFF71EBEA7
:10DD50000022406881F00101FFF7D2BD0022406837
:10DD6000FFF7EABD002240681146FFF7F3BD00222D
:10DD700040681146FFF7D2BD2DE9F04395B0144637
:10DD80000D460746FFF776FF00211C220DA80091E3
:10DD900000F0C5FE402320460C9300216B460CAAE0
:10DDA000FFF770FB044600284BD10246012168684A
:10DDB000FFF77CFD0221804622466868FFF776FD6A
:10DDC00021468146009E002E3BD0002939D1736840
:10DDD000022B03D00A2B11D0F669F4E7B8F1000F3B
:10DDE000FAD0716906A804313C1D07ADFFF770FF3A
:10DDF0000FCD0FC42B6841462370EDE7B9F1000F3A
:10DE0000EAD0102201A8746900F089FE062301AD52
:10DE10008DF8143004F1080318342A46186859683C
:10DE2000083303C2A3421546F7D101A906A83C1D39
:10DE300007ADFFF72DFF0FCD0FC42B6849462370A8
:10DE4000CAE70098FFF710FB384615B0BDE8F0832D
:10DE5000024B034A1A6000225A6070479CAE0710BA
:10DE60002CFE3F02F8B506460D4600248F18BD4231
:10DE70000CD0336830469B6815F8011B9847031E89
:10DE800001DB1C44F3E7002C08BF1C462046F8BD0C
:10DE900013B50446084659B10191FDF709F9024648
:10DEA000204623680199DB6802B0BDE8104018479E
:10DEB00002B010BD08B5FFF7EBFF08BD03689B6813
:10DEC000184738B50D210546FFF7F8FF0A2104462B
:10DED0002846FFF7F3FF204438BD38B50546FFF765
:10DEE000D7FF04462846FFF7ECFF204438BD002347
:10DEF000012A98BF0A2230B58BB08DF8243009ACC6
:10DF00000D46B1FBF2F101FB125303F0FF03092BA5
:10DF100094BF30333733DBB2AA4204F8013DEFD966
:10DF20002146FFF7B5FF0BB030BD2DE9F04186B0BB
:10DF300000AF05460E46381D142114463B60FFF71E
:10DF40005DFD13280ED82846391DFFF7A1FF0446B2
:10DF50001EB12846FFF7B5FF044420461837BD46DA
:10DF6000BDE8F08100F1080323F00703E846ADEBBC
:10DF7000030D2246411C3B686846FFF73FFD69469A
:10DF80002846FFF785FF0446C546E1E70022014B1E
:10DF90009A607047A4AE07100021FFF7F1BA002184
:10DFA000FFF7E0BA10B5044608462170FFF7A2FA61
:10DFB00000232046636010BD13B504460078FFF7C8
:10DFC000EEFF58B920784FF6FF710190FFF776FA0F
:10DFD000019802B0BDE81040FFF7DEBF02B010BDEF
:10DFE0000078FFF7D9BF000030B500244008186062
:10DFF0001868E5B2884206D90134082C02D04008DE
:10E000001860F5E70725024B5B5D137030BD00BF5C
:10E0100060FE3F022DE9F04306468FB000780C46C3
:10E02000FFF7BDFF00281BDB1422002109A835786B
:10E0300000F075FD0B230022284609A9ADF8243015
:10E04000FFF774FA9DF82D3013B19DF82C5055B19F
:10E0500000270125B946B84623795DB1C3B1002038
:10E060000FB0BDE8F083DDF830809DF834909DF866
:10E070003570F1E7002B35D1A368434508D18DF801
:10E0800020908DF82170BDF82020A3899A42E6D017
:10E090000023A1688DF80F300A9804AB0DF10F0230
:10E0A000FFF7A2FF217985B989B9A36843450ED34B
:10E0B0008DF820908DF82170BDF82020A3899A4218
:10E0C00005D1049B434502D1C9E70029F9D10023BA
:10E0D0000193637B9DF80F200093237B3078FFF73B
:10E0E00033FABCE72B462A460121CDE90055F5E776
:10E0F00008B50078FFF7F0F9C0B208BD10B50446C6
:10E100000068FFF75FFC204610BD10B504460068AC
:10E1100008B1FFF757FC0023C4E90133236010BDA9
:10E1200038B504460D4600680131FFF759FC10B1BF
:10E13000C4E90005012038BD10B50368044623B1C9
:10E1400043688B4201D3012010BD2046FFF7E8FF52
:10E150000028F9D0A368002BF5D122681370F2E7EC
:10E1600037B50D46114601920446FFF7E5FF019AC7
:10E1700028B92046FFF7C9FF204603B030BD294625
:10E18000A260206800F0BEFC00212268A368D15480
:10E19000F2E7002313B50446C0E90033836003733C
:10E1A00041B108460191FCF783FF019902462046E0
:10E1B000FFF7D6FF204602B010BD884210B50446D6
:10E1C00005D00B682BB18A681946FFF7C9FF2046B6
:10E1D00010BDFFF79AFFFAE7002310B50446C0E927
:10E1E000003383600373FFF7E8FF204610BD13B5CB
:10E1F000044659B108460191FCF75AFF01990246BD
:10E200002046FFF7ADFF204602B010BDFFF77DFFAF
:10E21000F9E71FB5044600230846C4E90033A360AC
:10E22000237301A900F03EFA204601A9FFF7DFFFA2
:10E23000204604B010BD70B505460E4609B9002051
:10E2400070BD6AB1846814442146FFF775FF002849
:10E25000F5D02868AB683146184400F097FCAC60F4
:10E260000120EDE710B58A6809680446FFF7E3FF6F
:10E2700010B92046FFF749FF204610BD10B50446EF
:10E28000006818B1FFF79EFB0023236010BD38B56E
:10E290000C460546FFF7F2FF54B12088FFF784FBD8
:10E2A000286028B121462288BDE8384000F02ABC09
:10E2B00038BD38B50C46B1F9043005468380D1F835
:10E2C0000630C0F806304B894381FFF7D7FF23683B
:10E2D00013B12B600023236038BD0000F0B52B4D37
:10E2E0000B7D04468BB00846AF1D002B36D00B6863
:10E2F0001B79002B32D00022254B02A90430049355
:10E30000CDE90222FFF78CFADDF80E3000B2C5F835
:10E310000630BDF81230ADF80C00A88002992846EE
:10E32000BB80FFF7B4FF02A8FFF7A8FF002323601C
:10E33000A380A37123814FF6FF736381B5F9043085
:10E340002046A380D5F806302968C4F80630BB887B
:10E350006381FFF79CFF20460BB0F0BD0026202311
:10E36000CDE902360B4B02AA0093322033460A490C
:10E37000FFF702FA4FF6F262054B044802A9CDE915
:10E3800003230296FFF795FFCDE700BFB4AE071059
:10E390000000FFFF6FFE3F0268FE3F0202220020E6
:10E3A000044B1A60044B054AC3E900009A60FFF76A
:10E3B000F1B900BFC0AE0710B4AE07100000FFFFF8
:10E3C000024B1A68024B1A60704700BFF8AC071086
:10E3D000C4AE0710F8B587B2044638460D46164657
:10E3E00000F00EFA60B102213846FEF741FF022824
:10E3F00006D1324629462046BDE8F840FFF750B81E
:10E40000F8BD70474174704708B5007CFFF71AF9F2
:10E4100020EAE07008BD08B5007CFFF7CDF820EADF
:10E42000E07008BD08B5007CFFF7E2F840EAE07054
:10E4300008BD08B5007CFFF7CDF840EAE07008BDE4
:10E44000007CFFF7E3B837B5457C04462DB1207C4E
:10E4500003B0BDE83040FFF7A1B8007C0191FFF7A1
:10E46000F1F800280199F2DC284603B030BD10B560
:10E4700004461421FCF745FE204610BD10B54FF4AC
:10E480007A730446084611460022C4E90123044B6E
:10E490002074236001236374FFF7F0F8204610BD59
:10E4A000BCFE3F020023007CFFF7DAB80022FFF732
:10E4B000F9BF007CFFF7B8B84174704770477047E8
:10E4C00008B50021007CFFF71FF940EAE07008BDA5
:10E4D00008B50121007CFFF717F940EAE07008BD9C
:10E4E00008B5007CFFF702F920EAE07008BD08B526
:10E4F000007CFFF7EDF820EAE07008BD13B5044694
:10E50000007C0191FFF7F2F80028019901DC607CA2
:10E5100020B1207CFFF706F920EAE07002B010BDC0
:10E52000007CFFF70DB910B504461421FCF7E9FD96
:10E53000204610BD10B54FF47A73044608460021FA
:10E54000C4E90113044B2074236001231146637452
:10E55000FFF7A2F8204610BDECFE3F020022007C2F
:10E56000FFF7A8B810B504461422002100F0D7FA2E
:10E57000204610BD10B588B003A8FFF7F3FF0C4C80
:10E58000D4E88F1F11F001010FD120460191FCF753
:10E59000C7FD019948B103AA0648FFF7CBFF204603
:10E5A000FCF7C3FD044800F0A7FA024808B010BD0C
:10E5B000C8AE0710CCAE0710F5E83F020022406855
:10E5C0001146FFF773B9002240681146FFF7A6B95C
:10E5D000002240681146FFF7BDB900224068FFF7EE
:10E5E000ABB90022406881F00101FFF789B900232F
:10E5F00040681A461946FFF775B9002340681A4665
:10E600001946FFF761B9002240681146FFF732B999
:10E61000002202214068FFF73BB9002340681A46F8
:10E62000FFF71AB90422024B5A60024A1A60704777
:10E63000E0AE07101CFF3F0210B50446FCF738FDA2
:10E64000013823182046834206D90278197800F849
:10E65000011B03F80129F6E710BD70B50C46911EA9
:10E6600022291DD8254630B9302223449D4210D29C
:10E6700005F8012BFAE7B0FBF2F602FB1600C1B277
:10E68000092894BF30315731C9B2304605F8011B13
:10E69000E9E7002320462B70FFF7CEFF204670BD30
:10E6A0000020FCE708B50123FFF7D7FF08BD0000F5
:10E6B000014B1860704700BFFCAC071008B50F4B4A
:10E6C00043B1FFF757FF03681B699847002801DD36
:10E6D00000E000BF0A4B43B100F07CF903681B69FE
:10E6E0009847002801DD00E000BF064B0BB100F0A9
:10E6F000B7F9054B0BB100F0E9F908BD00000000C7
:10E7000000000000000000000000000008B5FFF756
:10E71000D5FFFEF791FD014B186008BDF0AE071064
:10E720000548064A08B5121A054900F0EBF9054BF1
:10E73000054A1A6008BD00BF00B4071004B40710F2
:10E7400030FC5F0800B407101E1C279A002307B591
:10E750001A466FF077010093FFF746F803B05DF8B3
:10E7600004FB000007B543880A2B08D0502B0BD1BF
:10E77000094B1B684BB103B05DF804EB1847FFF77A
:10E78000E5FF03B05DF804FB00231A466FF0770144
:10E790000093FFF729F8F4E7ECAE0710002110B55D
:10E7A0001148FFF747F9114B1A68114B9A420CBFF9
:10E7B000012200220F4B1A7001D0FFF7B1FFFEF7C4
:10E7C0001FFD044600F0B4F90B4B13B1204600E0E6
:10E7D00000BF00210848FFF731F8BDE810400021D4
:10E7E0000648FEF7F3BF00BFE9EA3F0200B4071096
:10E7F0001E1C279AE8AE0710000000009DEB3F02A8
:10E800001B2837B5044602D9002003B030BDA0F163
:10E810000F03022B0BD9012821D800F087F8002123
:10E82000007CFEF7E9FD80F00100C0B2EDE7114D7C
:10E83000D5E88F1F11F001010BD128460191FCF79B
:10E840006FFC019928B10C48FFF7ACFB2846FCF798
:10E850006CFC094B1878FEF75BFE0028D4D1083C0D
:10E86000012C05D800F0B6F8007CFEF7DDFEDAE7F3
:10E870000120CAE75CAE071060AE07101B2838B550
:10E8800004460D460AD8FF2908D0FFF7B9FF28B182
:10E8900029462046BDE83840FEF7F8BC38BD38B5FB
:10E8A00004460D46FEF700FDFF2810D0062804D8C8
:10E8B0004D2323FA00F0C30709D42046FFF7A0FF39
:10E8C00028B129462046BDE83840FEF7FBBC38BDDC
:10E8D00010B50446FEF7E8FC031FDBB2012B08D994
:10E8E0002046FFF78DFF20B12046BDE81040FEF71F
:10E8F000F7BC002010BD704738B50A4B04460360D2
:10E90000012309494361202000F0F4F820256060CC
:10E9100005492846A56000F0EDF8C4E90305204646
:10E9200038BD00BF1800010050FF3F0230B50E4D4A
:10E9300087B0D5E88F1F11F0010411D12846FCF7EC
:10E94000EFFB68B16846FFF7D7FF6A4621460748E4
:10E95000FFF7F4F82846FCF7E8FB054800F0CCF890
:10E96000024807B030BD00BFF4AE0710F8AE071084
:10E970002FED3F027047000038B5142504462A46A3
:10E98000002100F0CCF82580402507492846258144
:10E99000258200F0AFF804496060284600F0AAF82C
:10E9A000E060204638BD00BF50FF3F02704770470F
:10E9B00010B50446FFF7E0FF204610BD10B5044631
:10E9C000FFF7DAFF204610BD10B50446FFF7D4FF6D
:10E9D000204610BD30B50E4D87B0D5E88F1F11F021
:10E9E000010411D12846FCF79BFB68B101A8FFF791
:10E9F000DFFF214601AA0748FFF740FD2846FCF744
:10EA000094FB054800F078F8024807B030BD00BF1D
:10EA10000CAF071018AF0710ADED3F0210B50D4C4D
:10EA200086B0D4E88F3FDB0711D42046FCF778FB93
:10EA300068B101A8FFF7C2FF012101AA0648FFF74C
:10EA40001DFD2046FCF771FB044800F055F8024814
:10EA500006B010BD10AF07102CAF0710E7ED3F0256
:10EA600010B5FFF7DBFF074B044653B1FFF721FD5D
:10EA700038B1236820461B699847002801DD00E073
:10EA800000BF10BD0000000010B50D4C86B0D4E8EA
:10EA90008F3FDB0711D42046FCF742FB68B101A889
:10EAA000FFF792FF022101AA0648FFF7E7FC204684
:10EAB000FCF73BFB044800F01FF8024806B010BD0D
:10EAC00014AF071040AF0710E5ED3F0210B5FFF798
:10EAD000DBFF074B044653B1FFF7EBFC38B123686B
:10EAE00020461B699847002801DD00E000BF10BDEB
:10EAF00000000000FCF703BB002301461A4618463D
:10EB000000F04CB80A44431E914200D1704710B542
:10EB100011F8014B914203F8014FF9D110BD0244A5
:10EB20000346934200D1704703F8011BF9E7000048
:10EB300038B5104B04461D68AB6BB3B91820FEF70F
:10EB400033FF0246A86320B90B4B42210B48FEF766
:10EB500063FF0B490B4BC0E900130B4B0021836093
:10EB60000B2383810120C2E90401AB6B00221C61ED
:10EB70005A6138BDFCAC071051FF3F0268FF3F02ED
:10EB80000E33CDAB34126DE6ECDE0500034611F812
:10EB9000012B03F8012B002AF9D170472DE9F84326
:10EBA000DFF8BC8006461F460D46D8F800009146A7
:10EBB00000F058F8264B1C6834B9264C1C60264BD4
:10EBC00013B11B68C4F8883063681F2B07DDD8F8C1
:10EBD000000000F049F84FF0FF30BDE8F8835EB365
:10EBE000D4F8880088B91D4B23B9D8F8000000F08C
:10EBF0003AF8F0E74FF48470FEF7D6FE0028F4D020
:10EC00000023C0E94033C4F8880063680122022E63
:10EC100040F8239002FA03F200EB8301D0F80031B0
:10EC200043EA0203C0F80031C1F8807002BFD0F897
:10EC300004311343C0F804316368D8F800005A1C4B
:10EC40000233626044F8235000F00EF80020C4E75D
:10EC5000E0AF071054AF071000000000E1DD3F02F5
:10EC600060AD07107047704770470000F9B43F026D
:10EC700021B53F0225B53F020000000043616C6CE6
:10EC8000206F6E2070757265207669727475616C84
:10EC900000504D312E303A00504D322E353A005052
:10ECA0004D31303A0054454D503A0048554D493A9F
:10ECB0000075672F6D3300206300202500436F75BA
:10ECC0006C646E27742066696E64207373643133DC
:10ECD000303600436F756C646E27742066696E640D
:10ECE00020534854333100706D312E303A25640082
:10ECF0002020706D322E353A2564002020706D3151
:10ED0000303A25640D0A0000000000003E5B4F5BB6
:10ED10003E3E6B4F6B3E1C3E7C3E1C183C7E3C18BE
:10ED20001C577D571C1C5E7F5E1C00183C1800FFA2
:10ED3000E7C3E7FF0018241800FFE7DBE7FF3048D0
:10ED40003A060E2629792926407F050507407F05CA
:10ED5000253F5A3CE73C5A7F3E1C1C08081C1C3EC1
:10ED60007F14227F22145F5F005F5F06097F017FAF
:10ED7000006689956A606060606094A2FFA2940852
:10ED8000047E040810207E201008082A1C08081C95
:10ED90002A08081E101010100C1E0C1E0C30383ED5
:10EDA0003830060E3E0E06000000000000005F0036
:10EDB000000007000700147F147F14242A7F2A1202
:10EDC00023130864623649562050000807030000E8
:10EDD0001C2241000041221C002A1C7F1C2A08081A
:10EDE0003E0808008070300008080808080000602D
:10EDF000600020100804023E5149453E00427F4019
:10EE00000072494949462141494D331814127F1077
:10EE100027454545393C4A494931412111090736C1
:10EE200049494936464949291E000014000000405E
:10EE30003400000008142241141414141400412258
:10EE4000140802015909063E415D594E7C12111207
:10EE50007C7F494949363E414141227F4141413E03
:10EE60007F494949417F090909013E414151737F69
:10EE70000808087F00417F41002040413F017F0892
:10EE80001422417F404040407F021C027F7F0408E3
:10EE9000107F3E4141413E7F090909063E41512113
:10EEA0005E7F09192946264949493203017F01033A
:10EEB0003F4040403F1F2040201F3F4038403F63BD
:10EEC0001408146303047804036159494D43007F17
:10EED0004141410204081020004141417F040201E8
:10EEE000020440404040400003070800205454788A
:10EEF000407F284444383844444428384444287FD8
:10EF0000385454541800087E090218A4A49C787F31
:10EF10000804047800447D40002040403D007F10FC
:10EF200028440000417F40007C047804787C080479
:10EF300004783844444438FC18242418182424182D
:10EF4000FC7C08040408485454542404043F44241A
:10EF50003C4040207C1C2040201C3C4030403C4435
:10EF6000281028444C9090907C4464544C440008F1
:10EF7000364100000077000000413608000201021F
:10EF800004023C2623263C1EA1A161123A404020E7
:10EF90007A38545455592155557941225454784260
:10EFA000215554784020545579400C1E5272123924
:10EFB00055555559395454545939555454580000DD
:10EFC000457C410002457D420001457C407D121197
:10EFD000127DF0282528F07C545545002054547C9F
:10EFE000547C0A097F4932494949323A4444443AF7
:10EFF000324A4848303A4141217A3A42402078002A
:10F000009DA0A07D3D4242423D3D4040403D3C24CC
:10F01000FF2424487E4943662B2FFC2F2BFF092910
:10F02000F620C0887E090320545479410000447DB5
:10F03000413048484A32384040227A007A0A0A72FF
:10F040007D0D19317D2629292F28262929292630A9
:10F05000484D4020380808080808080808382F10CC
:10F06000C8ACBA2F102834FA00007B000008142A1C
:10F07000142222142A14085500550055AA55AA55E1
:10F08000AAFF55FF55FF000000FF00101010FF0001
:10F09000141414FF001010FF00FF1010F010F014F3
:10F0A0001414FC001414F700FF0000FF00FF1414F8
:10F0B000F404FC141417101F10101F101F14141444
:10F0C0001F00101010F0000000001F101010101F83
:10F0D00010101010F010000000FF10101010101091
:10F0E000101010FF10000000FF140000FF00FF00D0
:10F0F000001F10170000FC04F41414171017141448
:10F10000F404F40000FF00F714141414141414F79A
:10F1100000F7141414171410101F101F141414F4F3
:10F12000141010F010F000001F101F0000001F143A
:10F13000000000FC140000F010F01010FF10FF148D
:10F140001414FF141010101F00000000F010FFFF37
:10F15000FFFFFFF0F0F0F0F0FFFFFF000000000005
:10F16000FFFF0F0F0F0F0F3844443844FC4A4A4A40
:10F17000347E02020606027E027E02635549416326
:10F180003844443C04407E201E2006027E02029940
:10F19000A5E7A5991C2A492A1C4C7201724C304AD9
:10F1A0004D4D303048784830BC625A463D3E494962
:10F1B00049007E0101017E2A2A2A2A2A44445F440A
:10F1C0004440514A444040444A51400000FF01033A
:10F1D000E080FF000008086B6B0836123624360604
:10F1E0000F090F0600001818000000101000304032
:10F1F000FF0101001F01011E00191D1712003C3CF8
:10F200003C3C000000000000000000000000000086
:10F210000000000000000000C1C33F029DE23F0269
:10F2200041B53F02CBBD3F02CDBD3F02FFBD3F0216
:10F23000DBBD3F02EDBD3F020DBD3F02CBBD3F0236
:10F24000F5BF3F02F3BF3F0217BE3F0255BE3F026C
:10F250008FBE3F02D5BE3F02F1BE3F0273BF3F02E9
:10F2600064656661756C7420004D5342004C5342D6
:10F27000003C53504953657474696E67732064652C
:10F280006661756C743E003C5350495365747469F3
:10F290006E67732025732575202573204D4F4445D7
:10F2A00025753E000000000000000000D9C73F02A5
:10F2B000C9C73F02CBC73F02000000000001800029
:10F2C00000000000000000000380000000000000BB
:10F2D00000000007C000000000000000000007C0A0
:10F2E0000000000000000000000FC000000000004F
:10F2F000000000001FE00000000000000000001FF0
:10F30000E00000000000000000003FE000000000FE
:10F3100000000000003FF0000000000000000000BE
:10F320007FF0000000000000001FF87FF0000000E8
:10F33000000000003FFE7FF0000000000000003FE2
:10F34000FF7FF0000000000000001FFFFBE0000056
:10F3500000000000000FFFF9FFC0000000000000E7
:10F360000FFFF9FFF800000000000007FFF1FFFFAA
:10F3700000000000000003FC73FFFF80000000009D
:10F380000001FE3FFFFF80000000000000FF1E0F95
:10F39000FF000000000000007FFE1FFC00000000D6
:10F3A0000000003FFFFFF8000000000000000FDF3A
:10F3B000FFE0000000000000001F19FFC000000077
:10F3C000000000003F3CFF00000000000000007E45
:10F3D0007CF800000000000000007FFE7C000000C0
:10F3E0000000000000FFFFFC000000000000000023
:10F3F000FFFFFE0000000000000000FFFFFE000015
:10F40000000000000001FFEFFE000000000000000F
:10F4100001FFCFFE0000000000000003FF07FE0018
:10F4200000000000000003FC07FE000000000000D8
:10F430000003F003FE00000000000000018000FE59
:10F44000000000000000000000007E00000000003E
:10F4500000000000003E000000000000000000006E
:10F460000C000000000000078000FC000003C0004A
:10F470000000078001FC000003C0000000078001BD
:10F48000FC000003C0000000078001E00000001E37
:10F49000000000078001E00000001E007FE3F79FEE
:10F4A000F9FDE7787BDFC0FFF7FFBFFDFDFF787B4D
:10F4B000DFC0FFF7FFBFFDFDFF787BDFC0F0F78700
:10F4C000BC3DE1FF787BDE00F0F787BC3DE1F078E2
:10F4D0007BDE0000F787803DE1E0787BDE007FF790
:10F4E000879FFDE1E0787BDE00FFF787BFFDE1E06D
:10F4F000787BDE00F0F787BC3DE1E0787BDE00F052
:10F50000F787BC3DE1E0787BDE00F0F787BC3DE1AA
:10F51000E0787BDE00FFF7FFBFFDE1E07FFBDFC0AF
:10F52000FFF7FFBFFDE1E07FFBDFC07CF3F39F3D12
:10F53000E1E03E7BCFC000000000000000000000C2
:10F5400000FFFFFFFFFFFFFFFFFFFFC0FFFFFFFF09
:10F55000FD68DB111A31C0FFFFFFFFFD2B5AFB6A6C
:10F56000EFC0FFFFFFFFFD4B5B3B1A33C0FFFFFF08
:10F57000FFFD6B5BDB6AFDC0000060000000000067
:10F58000000000000000000000E00000000000009B
:10F590000000000000000001E0000000000000008A
:10F5A00000000000000001F000000000000000006A
:10F5B000000000000003F000000000000000000058
:10F5C0000000000007F00000000000000000000044
:10F5D00000000007F800000000000000000000002C
:10F5E00000000FF800000003C0007E000001E000F2
:10F5F0007F0FF800000003C000FE000001E000FFE4
:10F60000EFF800000003C000FE000001E000FFFF73
:10F61000F800000003C000F00000000F007FFE7F34
:10F62000C0000003C000F00000000F003FFE7FF8A4
:10F630003FF1FBCFFCFEF3BC3DEFE01FFE7FFF7F01
:10F64000FBFFDFFEFEFFBC3DEFE01FC6FFFF7FFBC1
:10F65000FFDFFEFEFFBC3DEFE00FE3C7FE787BC39C
:10F66000DE1EF0FFBC3DEF0007FF87FC787BC3DEAA
:10F670001EF0F83C3DEF0001FFFFF0007BC3C01E11
:10F68000F0F03C3DEF0001F37FE03FFBC3CFFEF025
:10F69000F03C3DEF0003E33F807FFBC3DFFEF0F073
:10F6A0003C3DEF0007E73C00787BC3DE1EF0F03CFA
:10F6B0003DEF0007FFBE00787BC3DE1EF0F03C3D4F
:10F6C000EF0007FFFE00787BC3DE1EF0F03C3DEF4D
:10F6D000000FFFFE007FFBFFDFFEF0F03FFDEFE0DD
:10F6E0000FFFFF007FFBFFDFFEF0F03FFDEFE00FBD
:10F6F000F9FF003E79F9CF9EF0F01F3DE7E01FF1E2
:10F70000FF0000000000000000000000001F80FF5C
:10F71000007FFFFFFFFFFFFFFFFFFFE01C007F00F8
:10F720007FFFFFFFFEB46D888D18E000001F007F93
:10F73000FFFFFFFE95AD7DB577E000000F007FFF76
:10F74000FFFFFEA5AD9D8D19E0000006007FFFFFC5
:10F75000FFFEB5ADEDB57EE000000000000000004A
:10F760002DC83F0245C83F02C1C33F029DE23F0290
:10F7700059C83F02CBBD3F02CDBD3F02FFBD3F0296
:10F78000DBBD3F02EDBD3F020DBD3F02CBBD3F02E1
:10F79000F5BF3F02F7C93F025BD03F020DD03F02E9
:10F7A0008FBE3F02D5BE3F02F1BE3F0273BF3F0294
:10F7B0000080C0E0F0F8FCFE000103070F1F3F7F50
:10F7C000AED580A8D300408D2000A1C8DB40A4A600
:10F7D0002EAF2200FF2100424D4931363047656E81
:10F7E000436C6173733A3A6932635F696E69742876
:10F7F000292E2E2E00424D4931363047656E436C1E
:10F800006173733A3A6932635F696E697428293AA1
:10F8100020493243206661696C65642E00424D497F
:10F8200031363047656E436C6173733A3A693263BF
:10F830005F696E697428293A204348495020494439
:10F84000203D20307800424D4931363047656E43C7
:10F850006C6173733A3A6932635F696E697428291F
:10F860002E2E2E646F6E65006932635F7866657256
:10F87000286F6666733D3078002C2074783D002C2C
:10F880002072783D00293A00576972652E656E64D2
:10F890005472616E736D697373696F6E2829206687
:10F8A00061696C65642E00424D4931363047656EA2
:10F8B000436C6173733A3A7370695F696E69742857
:10F8C000292E2E2E00424D4931363047656E436C4D
:10F8D0006173733A3A7370695F696E697428293A83
:10F8E000205741524E494E473A204E6F2063686977
:10F8F000702073656C6563742070696E2073706529
:10F900006369666965642E00424D4931363047654A
:10F910006E436C6173733A3A7370695F696E6974B0
:10F9200028292E2E2E646F6E6500424D49313630E7
:10F9300047656E436C6173733A3A7370695F7866BA
:10F94000657228002C00000000000000000000008C
:10F95000FFD53F0285D43F029DD53F020000000045
:10F9600000000000FFD53F02F9D53F02FBD53F0262
:10F970000000000000000000FFDE3F02F5DE3F0255
:10F98000EBDE3F02E1DE3F02D5DE3F02C9DE3F0291
:10F9900079E13F0281E13F02BDDE3F02B5DE3F0279
:10F9A000ABDE3F02A1DE3F02B1E13F0200000000FA
:10F9B000000000001DDF3F0267DF3F023FDF3F0224
:10F9C0001FDF3F0247DF3F024FDF3F0257DF3F02AB
:10F9D0005FDF3F02000000000000000049E03F023E
:10F9E00039E03F023BE03F02617070000000000020
:10F9F0000000000039E13F0243E13F024DE13F02D8
:10FA000057E13F0261E13F026DE13F0279E13F02D0
:10FA100081E13F0289E13F0295E13F029DE13F0222
:10FA2000A7E13F02B1E13F0200081018202830385A
:10FA3000776972696E670053797374656D20736CB2
:10FA400065657020636F6E66696775726174696F52
:10FA50006E20697320696E76616C69642E00255989
:10FA60002D256D2D25645425483A254D3A255325DD
:10FA70007A0061736374696D650000000000000026
:10FA8000000000003BE83F02A7E83F027FE83F029A
:10FA90009DE23F024FE83F026BE83F025DE83F0214
:10FAA00079E83F023DE83F0241E83F0200000000E4
:10FAB00000000000F7E83F025FE93F0235E93F023E
:10FAC0009DE23F0227E93F02F9E83F0209E93F02D0
:10FAD00059E93F0219E93F02F1E83F020000000046
:10FAE0000000000053EA3F0249EA3F023FEA3F02BA
:10FAF000F5E93F0233EA3F0227EA3F0279E13F029C
:10FB000081E13F021BEA3F0213EA3F0209EA3F029A
:10FB1000FFE93F02B1E13F02005245454E54206DDE
:10FB2000616C6C6F63207375636365656465640005
:10FB30002F746D702F6A656E6B696E732D4743432A
:10FB40002D31302D706970656C696E652D34385FAC
:10FB500032303230313132345F3136303631383054
:10FB60003633392F7372632F6E65776C69622F6E2F
:10FB700065776C69622F6C6962632F7374646C695A
:10FB8000622F72616E642E6300000000E1B83F02D4
:10FB9000DDD53F020DD63F0291DE3F0209DF3F0275
:10FBA00029E13F0289E23F02C5E33F02D5E73F0278
:08FBB000F9E73F025DEA3F02A4
:10FBB8000000000201010B000B000B00AAFE3F022F
:10FBC80000AD071000000000000000000000000069
:10FBD800000000000000000000000000000000001D
:10FBE800000000000000000000000000000000000D
:10FBF80000000000000000000000000000000000FD
:10FC080000000000000000000000000000000000EC
:10FC180000000000000000000000000000000000DC
:08FC280000000000E4AF07102A
:04FC300000000000D0
:10FFBE000200100000B05F08A8B05F08E0B43F0276
:10FFCE0001000A00FFFFFFFFFFFF00000102030414
:10FFDE0005060708090A0B0C0D0E0F10111213144B
:0EFFEE0015161718191A1B1C1D1E1F203E0089
:04FFFC0078563412ED
:04000005085FB018C8
:00000001FF
