:02000004085F93
:10A0000000A05F08FCFF5F080000060020000501BB
:08A010000401A8160000000085
:10A018001348144908B5884205D0134A824202D031
:10A02800124B121A98471248124A0021124B121A60
:10A03800984712481249884205D0124A824202D0F3
:10A048000A4B121A984710481049884205D0104AFE
:10A05800824202D0054B121A9847014808BD00BF3A
:10A06800F4AC0710ACF65F0868AD07102D0D1110A1
:10A0780068AD0710FCAF0710A10E1110F8A93F0238
:10A08800A8A05F0800AA3F0200AA3F02B0A05F088C
:0CA09800FCFF3F0219A05F080000000060
:08A0A8009CA05F0840F03F029C
:10A0B000034613F8012B002AFBD1181A0138704708
:10A0C00070B504F095F80025054E064CA41BA408B5
:10A0D000AC4200D170BD56F8043B98470135F7E714
:10A0E000D0FF3F02FCFF3F0200F098B908B500F036
:10A0F000BDFABDE8084004F033B802F027BE02F014
:10A1000025BE02F031BE00000C2008B5024A03490A
:10A1100002F094FCFEE700BF89CD3F0250F03F0201
:10A120000078B0FA80F0400970470123037070474F
:10A1300008B504F025F903F0DBF903F045FF03F05F
:10A1400037FF0021122004F0C3F80021062004F09C
:10A15000BFF80121002004F0BBF80121084604F0FB
:10A16000B7F80021084604F0C4F80021012004F0EB
:10A17000C0F80021062004F0BCF80021062004F0FD
:10A18000B8F8642002F052FE0021084604F0A0F85E
:10A19000BDE808400021012004F09AB80EB403B5D0
:10A1A00003AB53F8042B0021019303F08EFB02B0A4
:10A1B0005DF804EB03B0704708B50221152004F0E8
:10A1C00087F80021022004F083F801210E2004F01A
:10A1D0007FF800210F2004F07BF80021102004F00C
:10A1E00077F800210A2004F073F80121122004F00E
:10A1F0006FF80121122004F07CF80121062004F000
:10A2000067F8BDE808400021062004F072B808B5E0
:10A2100080B10121122004F06CF80121062004F025
:10A2200068F8642002F002FEBDE808400121062023
:10A2300004F05FB8BDE80840FFF77ABFF0B5054607
:10A240008DB00E4668462D4903F0C1FC002D3DD16E
:10A250002B49684603F0E9FC4FF00117294C022115
:10A26000204601F020F8284B694608A8C4E90437C5
:10A2700003F0D0FC0A22314604A803F0E8FC04A94C
:10A2800008A803F016FD0168204603F0E3FA04A8CD
:10A2900003F052FC08A803F04FFC01212046B4F95A
:10A2A000106001F000F80F23F6B2022D26826382BF
:10A2B00067611BD81549204603F0CCFA114801F01C
:10A2C000E5FD684603F038FC0DB0F0BD012D01D16D
:10A2D0000F49BEE7022D01D10E49BAE7032D01D186
:10A2E0000D49B6E7042DB7D10C49B2E7032D01D1D2
:10A2F0000B49E0E7042DE1D10A49DCE7FEF03F021B
:10A3000065F03F02D4AD071001000A0085F03F025E
:10A310006CF03F0273F03F0279F03F027FF03F02A2
:10A320008BF03F028EF03F0230B50378422B23D1F1
:10A3300043784D2B20D10023421E00F11D0412F85A
:10A34000015F2B44A2429BB2F9D1847FC27F02EB12
:10A350000422934210D1827AC37A03EB02230B804A
:10A36000027B437B03EB02234B80827BC37B012078
:10A3700003EB02238B8030BD0020FCE738B5214C75
:10A38000D4E88F3FDB070AD42046FFF7C9FE30B17F
:10A3900002F060F81C4B18602046FFF7C6FE04F080
:10A3A00043F80368194D1B699847A8B104F03CF8BD
:10A3B0000368174C5B69984723785A1C2270154A2A
:10A3C000D05401232B7002F045F80F4B186023780E
:10A3D000272B84BF272323702B788BB102F03AF808
:10A3E000094A1368C01AC7280AD90023084913600C
:10A3F0000B702B7008490748BDE83840FFF794BF41
:10A40000002038BD74AD071080AD0710ADAD07104A
:10A41000ACAD071084AD071048AE071007B5C820D3
:10A4200002F004FD012003F081FA002211461046DB
:10A4300003F08CFA03F0C8FD4FF4165103F0B4FD9D
:10A4400003F0F2FF4FF4165103F056FDFFF7B4FE90
:10A450000120FFF7DCFEC82002F0E8FC4421174889
:10A4600001F014F850B903F0AFFD154903F005FAF7
:10A47000642240F6B8310E2003F0D2FC0F4800F001
:10A48000FBFF01233C2202210E48009301F042FA17
:10A4900050B903F099FD0C4903F0DCF9642240F651
:10A4A000B8310E2003F0BCFC0121064801F08AFD02
:10A4B000044803B05DF804EB01F01DBA50AE07107C
:10A4C00091F03F02D4AD0710A5F03F02094A0128E0
:10A4D000137807D10133DBB2042B88BF002313703C
:10A4E000107870470228FBD1013BDBB2052B88BFF7
:10A4F0000423F4E7AEAD071038B5046805467CB117
:10A500006368013B63605BB9236820469B6898479A
:10A51000A368013BA3601BB923682046DB6898470A
:10A52000284638BD38B50468002002F0BFFA651C23
:10A5300028B12B78DBB213B902F00CFBF9E7D5E8B0
:10A540008F3FDBB20BB9002038BD002002F0AEFA1D
:10A5500028B12B78DBB213B902F0FCFAF9E72378C3
:10A56000DBB2012BEFD1207BEEE700001FB500240A
:10A57000154B164A1C70164B0120C3E900449A6023
:10A5800002F078FA03F0FCFE124A13490346CDE9C3
:10A5900001214FF0FF32802100921048202201F06B
:10A5A000AFF803F0EDFE01460D4800F037FF0D4B0C
:10A5B0001A1D1A600C4AC3E902445A6001221C6148
:10A5C0001A7504B010BD00BF7CAD07100000FFFF7E
:10A5D00068AD0710801A0600A0860100D4AD0710F0
:10A5E00050AE0710BCAD07101000030007B52023C4
:10A5F0000122CDE90032002280231146044800F0F8
:10A60000AAFB034803B05DF804EB01F03FBC00BFB8
:10A61000D4AD071070B50125134801F06CF92C4634
:10A62000FFF7E4FF104E224601232946304601F091
:10A6300005F80134304601F029FCE4B240F29110F3
:10A6400002F0F4FB202CEED16B1CDDB21B0608D50A
:10A650004FF4FA72BDE870404FF42F710E2003F0F2
:10A66000DFBB0124DFE700BFD4AD071030B5AD4C30
:10A670008BB0D4E88F3FDB070AD42046FFF750FDAC
:10A6800030B1A94B20461A78A84B1A70FFF74DFD40
:10A6900001F0E0FE272840F2A48000F08FF9A0B17D
:10A6A00014224FF4FA610E2003F0BAFB0120FFF7E9
:10A6B0000DFF01229D4B18709D4B1A7001F0CAFED0
:10A6C00000229C4B18609C4B1A6000F0A1F9A0B1CD
:10A6D00014224FF47A710E2003F0A2FB0220FFF740
:10A6E000F5FE0122914B1870914B1A7001F0B2FEE9
:10A6F0000022904B1860904B1A6000F0B3F90128CB
:10A7000040F0C380142240F6B8310E208B4D03F088
:10A7100087FB8B4906A803F05AFA2B78069A8949D9
:10A720008DF8003004A83C2302F0E6FC04A8FFF7F3
:10A73000F9FE044605A8FFF7DFFE06A803F0FCF9C2
:10A74000B4B90A240022FF20114603F0FFF84FF4A9
:10A750007A7002F06BFB00221046114603F0F6F807
:10A76000013C4FF47A7002F061FB14F0FF04E9D170
:10A770000A20FFF74FFF744906A803F028FA2B7848
:10A78000069A70498DF8003004A83C2302F0B4FC0E
:10A7900004A8FFF7C7FE044605A8FFF7ADFE06A80C
:10A7A00003F0CAF9B4B90A240022FF20114603F0CD
:10A7B000CDF84FF47A7002F039FB002210461146B2
:10A7C00003F0C4F8013C4FF47A7002F02FFB14F050
:10A7D000FF04E9D101F03EFE0022564B1860564BB3
:10A7E0001A60FFF7CBFD90B1584C03F0EDFB2288C7
:10A7F0005749FFF7D3FC03F0E7FB62885549FFF7A1
:10A80000CDFC03F0E1FBA2885349FFF7C7FC1520FC
:10A8100003F088FD0246B0FA80F0504B40091870F2
:10A820004F4B1978814206D01870002A76D1114614
:10A83000642003F08BF801F00DFE3E4D494C2B686F
:10A84000C01AB0F5FA6F08D301F004FE01233A4AAA
:10A8500023701368286001331360354A13781BB9DD
:10A860002378002B00F0A380002323702F4C3E4858
:10A87000137001F040F8207800287BD1334B197811
:10A880000BB0BDE83040FFF7D9BC0228A9D136484B
:10A8900001F031F8344801F0F9FA344CC8224FF491
:10A8A00096710E2003F0BCFA4FF4967002F0BEFAD7
:10A8B000FFF73EFC237D9BB1032323722368DB68F3
:10A8C000CBB19A88012A06D09B68F9E79B6893B1BF
:10A8D0009A88012AFAD19A890A2AF7D102229A7310
:10A8E00006A8224903F020FA069800283FF479AF21
:10A8F00002F03AFA75E70021102002F00FF908B9CA
:10A900002075EDE71A4B0360012383802369836080
:10A910000A238381022383732061E1E70022114629
:10A92000104686E778AD0710AEAD0710B1AD071041
:10A93000F8AC0710B8AD0710B4AD07107CAD071028
:10A94000BBF03F02C7F03F02D4F03F0248AE071011
:10A95000DFF03F02E8F03F02F3F03F02AFAD071037
:10A96000B0AD0710F9AC0710D4AD0710BCAD07109F
:10A9700010000300012802D10E4B997880E70228CD
:10A9800002D10C4B19797BE703280AD10A4800F061
:10A99000F1FDFCEEC07ACDED037A20789DF80C1025
:10A9A0006EE7042803D1044800F0F2FDF1E70BB094
:10A9B00030BD00BF48AE071050AE071070B5124C46
:10A9C000124D2678012E0BD0022E15D07EB90F2005
:10A9D00003F0A8FC08B90123237000232B7006E0C4
:10A9E0000F2003F09FFC20B902232E7023702878DB
:10A9F00070BD00232370F1E70F2003F093FC0028C3
:10AA0000EBD00023E8E700BF6AAE071069AE07107D
:10AA100070B5124C124D2678012E0BD0022E15D097
:10AA20007EB9102003F07EFC08B9012323700023B7
:10AA30002B7006E0102003F075FC20B902232E7065
:10AA40002370287870BD00232370F1E7102003F0F5
:10AA500069FC0028EBD00023E8E700BF6CAE0710CC
:10AA60006BAE071070B51F4C1F4D2378032B18D801
:10AA7000DFE803F0020B1C310A2003F053FC08B995
:10AA80000123237000232B700BE00A2003F04AFC03
:10AA9000064640B90223237001F0DCFC134B2E70F4
:10AAA0001860287870BD00232370ECE70A2003F0BB
:10AAB00039FC18B1002323700123E4E701F0CAFC3C
:10AAC0000A4B1B68C01AB0F5FA6FEAD302232B7049
:10AAD00003232370E5E70A2003F024FC0028D1D0EB
:10AAE0000023CEE768AE071060AE071064AE071013
:10AAF0002DE9F04F1F4685B0BDF93880A7EB010A5C
:10AB0000A8EB0209B9F1000FB8BFC9F10009BAF109
:10AB1000000FB8BFCAF1000AD14583460C4615465E
:10AB2000BDF83C3004DD3A462C4647460D4690467B
:10AB3000BC4205DD2A464546904622463C4617461D
:10AB40003E1BB2B20092A8EB050282EAE271A1EBD1
:10AB5000E271C6F3C03202FA86F64545B4BF01225F
:10AB60004FF0FF32019176100292BC421CDCDBF800
:10AB70000020D145D2F81880C7BF294622462A4670
:10AB8000214603935846C047019A039BB61AB1B2B7
:10AB900036B2002E05DA029A1544009A2DB25618E4
:10ABA00036B2013424B2E0E705B0BDE8F08F70475B
:10ABB00010B404682469A4465DF8044B604730B4BF
:10ABC000BDF8085004680295A46BA44630BC6047E9
:10ABD00030B4BDF8085004680295E46BA44630BC5C
:10ABE000604770B4BDF90C50BDF810600468CDE941
:10ABF0000356246CA44670BC60472DE9F3411C4603
:10AC0000164605460F460368013CBDF820805B6987
:10AC10003444984724B22B68CDF804800094284629
:10AC20009C6A32463B463946A04728462B68DB6A79
:10AC300002B0BDE8F04118472DE9F341174604463C
:10AC40001D460E460368BDF820805B699847CDE934
:10AC5000007822686B1E33442046956A31463A4696
:10AC60001BB2A84720462368DB6A02B0BDE8F0416A
:10AC700018472DE9F3471E4603680C465B690546F5
:10AC80001746BDF92890BDF82C8098472644B44259
:10AC90002B680BDACDF800802146D3F820A03A4685
:10ACA0004B4628460134D04724B2F0E72846DB6AF9
:10ACB00002B0BDE8F047184713B50191B0F90E1086
:10ACC00002680091146C0022B0F90C301146A047C4
:10ACD00002B010BD2DE9F7439942164680460D4655
:10ACE0001C46BDF92870BDF82C90026812D1BE42F6
:10ACF000C2BF33463E461F46CDF828907B1C946B5E
:10AD00009B1B324629464046A4461BB203B0BDE811
:10AD1000F0436047BE420AD19942C2BF0B46254666
:10AD20001C46CDF82890631C5B1BD46BE9E7536984
:10AD30009847CDE90079D8F8003040469F6A3246FE
:10AD400023462946B8474046D8F80030DB6A03B0AE
:10AD5000BDE8F04318472DE9F34704460F46164671
:10AD60001D460368BDF82C805B69BDF928909847A3
:10AD70002368CDF80080324639462046D3F824A017
:10AD80002B46D047236809F1FF32CDF800803244CA
:10AD900039462046D3F824A012B22B46D047236868
:10ADA000CDF80080324639462046D3F820A04B46E5
:10ADB000D0476B1ED9192368CDF8008020461D6A44
:10ADC00032464B4609B2A84720462368DB6A02B0E8
:10ADD000BDE8F0471847704701F00303B0F90A20B7
:10ADE0008376B0F90830C90759BF8381C281828157
:10ADF000C381704730B50181002481814FF0FF315C
:10AE0000054D4281C281054A4460C0E905120560D2
:10AE100004610477046230BD08F63F0201010001BD
:10AE20002DE9F04F0026354689B0CDE90212049392
:10AE30000268BDF94C30BDF948805269059304465B
:10AE4000BDF850A0904718F1070248BF08F10E0264
:10AE50004FEAE20B0196039B019ABDF904109A1880
:10AE6000059B12B28B4227DD4FF00009049B33444F
:10AE700006930FFA89F080451FFA89F117DD4F0715
:10AE800005BF069BC0106D001D5C18BFEDB22B0600
:10AE90000AD5029B20681944836907921F46204601
:10AEA000534609B2B847079A09F10109E1E7019B46
:10AEB0005E4401330193CEE720462368DB6A09B084
:10AEC000BDE8F04F184700002DE9F04F2DED028B43
:10AED00091B016461F46026ABDF870308346BDF831
:10AEE00074809DF878509DF87C4003910493002A6B
:10AEF00040F0C580B0F90C308B4240F34C81B0F982
:10AF00000E30B34240F34781062313FB0513002B99
:10AF100040F3418106EBC403002B40F33C81037FE7
:10AF20001BB9AF2F84BF0137FFB2DBF800305846A2
:10AF30005B6998470522099200220592984A07EB1F
:10AF40008703D3180C93B3B20693059A0C9B02FBAC
:10AF500005F99B5C0793ABB20B93BDF80C300893DB
:10AF6000039B19FA83F90FFA89F308EE103A0823C4
:10AF70004FF000090A93039B02EB030A0FFA8AFAC7
:10AF8000079ADBF80030D20752D5012D1FFA89F25B
:10AF90003ED1012C3CD19B6906991F46049B0A4473
:10AFA0005146584612B2B84709F101034FFA83F9E6
:10AFB000079B5B0807930A9B013B13F0FF030A936F
:10AFC000DED1059F01377BB20593099B013B13F04E
:10AFD000FF030993B9D1049B43450FD0012DDBF842
:10AFE00000303BD1012C39D10899CDF800800531D2
:10AFF0001C6A32460823584609B2A0475846DBF877
:10B000000030DB6A11B0BDEC028BBDE8F04F184791
:10B0100014FB02F206990A44049901910094DB6939
:10B0200018EE101A1F4658462B4612B2B847BBE717
:10B03000049A4245B8D0012D1FFA89F207D1012C9C
:10B0400005D19B6906991F460A444346A8E714FBAD
:10B0500002F20699CDF804800A44DFE70B9AE40077
:10B0600002EB8201089ACDF804800A44114600944C
:10B07000DC6932462B46584609B2A047BEE7137A30
:10B080005168FF1A1268FFB20B9231F8372001EBBA
:10B09000C70306929A78012D0992DA7893F906A0EF
:10B0A0000C9293F905200A9201D8012C57D9BDF9C9
:10B0B000283008930FFA8AF307934FF00008C1462F
:10B0C0004746DBF8003058465B699847B3B20E93A9
:10B0D0001AFA86F30F930C9B9F428FD2079B0E9A0E
:10B0E0003B4403FB042300221BB208EE103A434604
:10B0F00005920F9A02EB070A0FFA8AFA099A059944
:10B10000914241D25A1CD2B25B070D9207D1069BE5
:10B1100006990B9A01339BB212F80190069319F02D
:10B12000800F12D0012DDBF80030BDF80C101AD1C1
:10B13000012C18D10A9A9B691144059A1E461144A4
:10B1400058465246049B09B2B047059E4FEA49094A
:10B150000136F3B205935FFA89F90D9BCEE7002320
:10B16000CDE90733A9E70598089A024402FB0511C7
:10B17000049A5846CDE90042DB6918EE102A1E46B3
:10B1800009B22B46B047E0E7099B013798445FFAC4
:10B1900088F8FFB29FE711B0BDEC028BBDE8F08FDD
:10B1A000FFF03F02F0B5026A04460B4685B0002A64
:10B1B00034D10A2908D1438A0282427E03EBC203BA
:10B1C0006382012005B0F0BD0D29FAD0E17E007E3A
:10B1D000657E71B10621B4F9106011FB0061B4F90C
:10B1E0000C60B142C1BFB4F91210228201EBC5025A
:10B1F0006282E28ACDE902050192A28A204600928B
:10B20000B4F91010B4F91220FFF75EFE237E228AF3
:10B2100003EB430302EB43032382D2E70A2907D15E
:10B2200000230382417E127B438A01FB0233C7E77E
:10B230000D29C6D0157AA942C3D3917A9942C0D3B9
:10B2400051685D1BEDB201EBC505A87828B3E9781C
:10B2500019B3E17E267E677E91B195F90510084409
:10B26000B4F9101006FB0011B4F90C00814207DD9F
:10B2700000202082B4F91210127B02FB07126282B6
:10B28000E28A20460192A28ACDE902670092B4F9CF
:10B290001010B4F91220FFF717FE2979227E238AB5
:10B2A00001FB0233B8E7012938BF0121017641765D
:10B2B000704742600022027220220170C260704713
:10B2C00010B5037A044653B12178606802F040F962
:10B2D000606802F048F9B0FA80F0400910BD012121
:10B2E00000F003F80028EFD1F8E738B504464068CD
:10B2F0000D4602F0F7F80120207225B12046BDE886
:10B300003840FFF7DDBF38BD2DE9F8431F46DDE9C2
:10B310000896C368154632449A420446884602D9C4
:10B320000020BDE8F8830178406802F011F97EB989
:10B3300060682A4603684146DB6898478542EFD13A
:10B340003946606802F00BF9B0FA80F04009E8E78E
:10B35000B9F1000FECD06068324603684946DB68FB
:10B3600098478642DCD1E3E72DE9F04115460446D3
:10B370000E46D2B20178406802F0D5F885420DD170
:10B3800000271FFA87F8A84507F1010709D260686E
:10B3900003685B69984706F80800F2E70020BDE8FB
:10B3A000F0810120FBE72DE9F84307468846164661
:10B3B00099460025B54212D2FA68741B944228BF00
:10B3C0001446331BAB4294BF4B46002322463846FB
:10B3D00008EB0501FFF7C8FF10B12544EAE701209B
:10B3E000BDE8F88303780822DB43DBB213F0800F5B
:10B3F0004FEA430301D083F03103013ADBB2F5D1C8
:10B4000040785840082310F0800F4FEA400001D0E8
:10B4100080F03100013BC0B2F5D170470022C0E995
:10B420000212024A02604260704700BF0000C07F03
:10B430001FB50B0A8DF80C300023CDE900338DF8D1
:10B440000D100123022203A9C068FFF75DFF05B0BC
:10B450005DF804FB13B504464FF22D31FFF7E8FF0A
:10B4600001230322E06801A9FFF79DFFBDF8040056
:10B4700040BA80B202B010BD08B543F2A201FFF796
:10B48000D7FFBDE808400A2001F0D0BC70B50446E3
:10B49000C0680E4610B11021FEF733FE1020FEF7F3
:10B4A0002CFE054618B13146A268FFF702FF0121C4
:10B4B0002846E560FFF719FF50B12046FFF7DCFF93
:10B4C0002046FFF7C7FF4FF6FF73C01A18BF0120D1
:10B4D00070BD000037B54FF410510446FFF7A8FFC8
:10B4E000014600283ED0142001F0A0FC694601234B
:10B4F0000622E068FFF757FF014698B36846FFF75A
:10B5000071FF9DF8025085422FD10DF10300FFF726
:10B5100069FF9DF80550854227D141F21712BDF809
:10B5200000309FED137A5BBA9BB253439B13A3F594
:10B530008C53143B07EE903A40F27122F8EEE77A12
:10B54000BDF80330C7EE876A5BBA9BB253431B0B4F
:10B5500007EE903AF8EEE77AC4ED016AC7EE876A23
:10B56000C4ED006A084603B030BD0021FAE700BF11
:10B570000000C84210B50446FFF7ACFF10B194EDCF
:10B58000010A10BD9FED010AFBE700BF0000C07F6C
:10B5900010B50446FFF79EFF10B194ED000A10BDF0
:10B5A0009FED010AFBE700BF0000C07F704710B5A8
:10B5B00004461021FEF7A5FD204610BD73B50446D4
:10B5C00022790846A36832B1A3B90B4902B0BDE89D
:10B5D000704002F03FB9094A267B094D0949647B56
:10B5E000012E18BF2946CDE900140749FEF7D6FD04
:10B5F00002B070BD054AEFE769F63F02FEF03F0278
:10B6000065F63F0261F63F027FF63F0258F63F02C1
:10B6100010B5044B04460360C06A08B101F0A4FBF6
:10B62000204610BD58FB3F0210B50446FFF7F0FF5F
:10B6300020467421FEF765FD204610BD002910B597
:10B640004BDBB0F90C408C4247DD002A45DBB0F9FA
:10B650000E40944241DD847E022C1FD0032C26D064
:10B66000012C04D1D243048914440A4621B2012B8F
:10B6700023D0022B32D083BB1346002A0489B8BFE3
:10B68000D31DDB1013FB04110123C06A02F0070273
:10B690009340425C22EA030242541EE0D2430489F2
:10B6A000013C611A448909B2224412B2DFE744899D
:10B6B000013C641A114622B2D9E71346002A0489D4
:10B6C000B8BFD31DDB1013FB0411C36A02F00700DF
:10B6D00001228240585C02435A5410BD1346002A8E
:10B6E0000489B8BFD31DDB1013FB04110123C06A0A
:10B6F00002F0070203FA02F2435C5A40CCE7000072
:10B7000070B504461D460026FFF774FB114B6662B8
:10B71000236015B902F034FE0546FF2384F8333068
:10B7200084F836309DF910304FF6FF7284F83730C8
:10B73000059B2046A365069BC4E90A56E365064BB4
:10B74000A28663660123E66684F86830A4F8706018
:10B7500070BD00BF58FB3F02A4F63F0270B504461F
:10B76000806A0D4690B194F9301001F0F5FEA06AA0
:10B77000002103689B689847A06A294603689B6874
:10B780009847A06ABDE8704001F0EDBE226C206DC4
:10B79000136823EA00031360606A18B1BDE87040C3
:10B7A00002F09AB908228021A36BA66C18680D429A
:10B7B00014BF3043B0431860E06BE66C0368013A95
:10B7C00043EA06030360E06BE66C03684FEA51014D
:10B7D00023EA06030360E7D170BD38B50446806AEA
:10B7E0000D4680B1A16D01F079FE002D204614BFF9
:10B7F000A721A621FFF7B2FFA06A88B1E16DBDE8DD
:10B80000384001F06BBE606A18B104F1640102F0C7
:10B81000F5F8626C616D136823EA01031360E4E7D5
:10B82000626C616D13680B431360606A18B1BDE808
:10B83000384002F0C9B838BDF8B50446806A0D46F4
:10B840008F1840B394F9301001F086FEA06A0021F1
:10B85000036801269B689847BD42A06A17D01F2E37
:10B860000CD901F080FE94F93010A06A01F074FE4A
:10B87000A06A0021036801269B689847A06A15F812
:10B88000011B036801369B689847B6B2E4E7BDE840
:10B89000F84001F068BE226C216D136823EA0103B1
:10B8A0001360BD4226D0606A15F8011B10B102F08A
:10B8B00013F9F6E74FF0080E8020A36BD4F848C0C8
:10B8C0001E68014214BF46EA0C0626EA0C061E60FA
:10B8D000E66BE26C3368BEF1010E43EA02033360AB
:10B8E000E66BE26C33684FEA500023EA02033360F0
:10B8F000E3D1D6E7F8BDB0F90A300021DA1D48BF20
:10B9000003F10E02B0F90830D2105A43C06A02F0B7
:10B9100033BE00002DE9FF411E46C36A04460F46B0
:10B9200015469DF82880C3B12046FFF7E4FFB4F91F
:10B930000A00B4F90810202821DC20230122CDE9D7
:10B9400001327323203800EBD0707339009301EB80
:10B95000D171B84B40F34F0221E0B0F90A30D81D45
:10B9600048BF03F10E00B4F90830C010584301F08D
:10B97000EDF9E0620028D7D104B0BDE8F08140388D
:10B98000C0F3C032402302FA80F20120CDE9013039
:10B99000522352390093A84B01EBD171521020462B
:10B9A00041F34F01FFF73CFAA06A84F83170002898
:10B9B00000F09A80002D40F09580B4F90A30202BD9
:10B9C0000CBF3C253D2584F83050B8F1000F01D064
:10B9D00001F088FDFEB194F9370000281BDB01213E
:10B9E00080B202F075FC94F93700012180B202F0B8
:10B9F00080FC012001F01AFA94F93700002180B28E
:10BA000002F077FC0A2001F011FA94F937000121C5
:10BA100080B202F06EFCA06A002800F0E580A16D03
:10BA200001F05CFD042220468449FFF705FF61898F
:10BA300020460139C9B2FFF791FE81490422204610
:10BA4000FFF7FAFE94F931302046012B0CBF10218C
:10BA50001421FFF783FE042220467A49FFF7ECFE0B
:10BA60008F23794A84F86030A368934200F0D48031
:10BA700002F50012934240F0C48094F9313012254F
:10BA8000012B0CBF9F23CF2384F86030DA2120469E
:10BA9000FFF764FE29462046FFF760FE812120461D
:10BAA000FFF75CFE204694F86010FFF757FED9219F
:10BAB0002046FFF753FE94F931302046012B0CBF8E
:10BAC0002221F121FFF74AFE204606225F49FFF7B7
:10BAD000B3FEA06A002800F0A180E16D01F0FEFC39
:10BAE000012049E76DB26EE794F93500012180B27B
:10BAF00002F0EEFB94F93600012180B202F0E8FB7F
:10BB000000F0B6FC94F93530514D03EB430310F8C7
:10BB1000233055F82330236400F0AAFC94F9353023
:10BB200003EB430300EB83035B78236500F0A0FC89
:10BB300094F9363003EB430310F8233055F82330E3
:10BB4000636400F095FC94F93630626C03EB4303B8
:10BB500000EB83035B78636511680B431360606AD5
:10BB600030B1B8F1000F3FF435AF01F019FF31E704
:10BB700094F93300012180B202F0AAFB94F9340059
:10BB8000012180B202F0A4FB00F072FC94F9333082
:10BB900003EB430310F8233055F82330A36300F080
:10BBA00067FC94F9333003EB430300EB83035B78CA
:10BBB000A36400F05DFC94F9343003EB430310F808
:10BBC000233055F82330E36300F052FC94F934300D
:10BBD000E26B03EB430300EB83035978E1641368E2
:10BBE00023EA01031360F5E6606A18B104F1640109
:10BBF00001F004FF626C616D136823EA01031360B6
:10BC000010E7144A934207D194F93130012B0CBF4D
:10BC10001023AF2384F86030022537E7626C616D32
:10BC200013680B431360606A00283FF459AF01F0BA
:10BC3000CBFE55E770F93F02B0F63F02B8FB3F027A
:10BC4000BCFB3F02C0FB3F0280002000C4FB3F0260
:10BC500024001C106000100070B5002ABDF81050C0
:10BC60003FDBB0F90A4094423BDD0029BEBF5B18C0
:10BC700000211BB2B0F90840CE18A642C4BF631A17
:10BC80001BB2002B2DDDD61014FB0611C06A012D4E
:10BC9000014402F007004FF0010202FA00F2D2B2B2
:10BCA00016D0022D0BD0E5B9D2430B44D2B2994243
:10BCB00017D011F8010B104001F8010CF7E70B4405
:10BCC00099420ED011F8010B504001F8010CF7E732
:10BCD0000B44994205D011F8010B104301F8010CF7
:10BCE000F7E770BDF0B50029BDF8145077DBB0F967
:10BCF0000860B14273DA002ABEBF9B1800221BB253
:10BD0000B0F90A40D718A742C4BFA31A1BB2002B30
:10BD100065DDC2F3C40416FB0416C76A12F00702FD
:10BD2000DBB207EB060424D0C2F10802D2B2934280
:10BD300038BF4FF0FF0C2C4938BFA2EB030E895CD3
:10BD40003CBF4CFA0EFC0CEA0101012D07D0022D7C
:10BD50002ED04DB917F806C02CEA010103E017F800
:10BD600006C041EA0C01B955934238D3B0F9081026
:10BD70000C449A1AD2B2072A0ED9022D1DD11346AD
:10BD80002178083BC9432170B0F90810DBB2072BBA
:10BD90000C44F5D802F007020AB3144B012D9B5C4A
:10BDA0001AD0022D1CD0D5B9227822EA030315E05F
:10BDB00017F806C081EA0C01D5E7291E18BF01213A
:10BDC00013464942C9B22170083BB0F90860DBB2A2
:10BDD000072B3444F7D8DDE7227813432370F0BDF6
:10BDE00022785340FAE700BFA8FB3F02B0FB3F02B6
:10BDF00070B41446827EBDF80C60022A0DD0032A6E
:10BE000018D0012A11D1E4430289144424B20A460D
:10BE10000396214670BCFFF765BFE443428905895C
:10BE200019441444691A24B209B22246039670BC1C
:10BE3000FFF712BF45891944691A09B2E7E730B420
:10BE40001446827EBDF80850022A0DD0032A18D06D
:10BE5000012A11D1E2180489A41A24B20A460295D3
:10BE6000214630BCFFF7F8BEC94302891144E218ED
:10BE7000448909B2A41A24B22246029530BCFFF7C5
:10BE800031BFC9434289114409B2E7E7F8B5044616
:10BE9000806A002842D0A16D01F020FB05222046D7
:10BEA0004749FFF7C9FC218920460139C9B2FFF78C
:10BEB00055FCD4E90A05B4F90A30DE1D48BF03F188
:10BEC0000E062389F61013FB06F615FA86F60028EF
:10BED0003BD094F9301001F03FFBA06A4021036889
:10BEE00001279B689847AE42A06A24D01F2F0CD927
:10BEF00001F039FB94F93010A06A01F02DFBA06A23
:10BF00004021036801279B689847A06A15F8011B28
:10BF1000036801379B689847BFB2E4E7606A18B1CD
:10BF200004F1640101F06AFD626C616D136823EA3B
:10BF300001031360B2E701F016FBA06A002832D0BB
:10BF4000E16DBDE8F84001F0C9BA226C216D1368BB
:10BF50000B431360B542F0D0606A15F8011B10B1B5
:10BF600001F0BAFDF6E74FF0080E8020A36BD4F87D
:10BF700048C01F68014214BF47EA0C0727EA0C07B4
:10BF80001F60E76BE26C3B68BEF1010E43EA0203FF
:10BF90003B60E76BE26C3B684FEA500023EA020328
:10BFA0003B60E3D1D6E7626C616D13680B431360AD
:10BFB000606A18B1BDE8F84001F006BDF8BD00BFE9
:10BFC000CAFB3F0238B50446806A0D4698B1A16DA0
:10BFD00001F084FA81212046FFF7C0FBC5B994F82F
:10BFE00060102046FFF7BAFBA06A98B1E16DBDE88A
:10BFF000384001F073BA606A18B104F1640101F0CD
:10C00000FDFC626C616D136823EA01031360E1E7D4
:10C010000021E6E7626C616D13680B431360606A90
:10C0200018B1BDE8384001F0CFBC38BD13B50A4C9B
:10C03000D4E88F1F11F001010BD120460191FEF7CA
:10C040006FF8019928B1054801F0A0FC2046FEF7E1
:10C050006CF8024802B010BD70AE071074AE071045
:10C0600013B503688DF804101C68012301A91A4652
:10C07000A0479DF8040002B010BD0021FFF7F0BFFB
:10C0800070B506460C4615462AB9BDE870400368EF
:10C09000C9B29B68184700290BDA0A2A09D12D2159
:10C0A00001F0DCFB61423046EAB2BDE8704001F0CD
:10C0B000EEBB2146F7E7000038B5044601F084FFE7
:10C0C000144901F0DAFBA069E16801F045FAA069C2
:10C0D00001F049FA20B101F077FF0F4901F0CDFBE3
:10C0E0002046FFF7CAFF054601F06EFF0B4901F03D
:10C0F000B1FB01F069FF044629461022FFF7C0FF9B
:10C10000204601F0AEFB01F05FFFBDE83840044976
:10C1100001F0B3BBCFFB3F02EDFB3F0215FC3F023A
:10C120003EFC3F022DE9F0410C4617461E460546EF
:10C1300001F04AFF324901F08DFB01F045FF10226A
:10C14000217801F0A4FB01F03FFF2E4901F082FBB2
:10C1500001F03AFF0A22394601F099FB01F034FF61
:10C16000294901F077FB01F02FFF0A22314601F047
:10C170008EFB01F029FF254901F06CFBE968A869F5
:10C1800001F0EAF9A0462744B845A86905D003683C
:10C1900018F8011B9B689847F6E701F0E4F920B115
:10C1A00001F012FF1A4901F068FB0EB33246297BF9
:10C1B000A86901F0CAF9DFF860802644A86903681D
:10C1C0001B699847A0B1B44212D0A86903685B69A3
:10C1D0009847074604F8010B01F0F6FE414601F0CE
:10C1E00039FB01F0F1FE1022F9B2FFF749FFE5E754
:10C1F00001F0EAFE074901F040FB0020BDE8F081B4
:10C2000060FC3F0271FC3F0277FC3F027DFC3F0275
:10C2100080FC3F02FEF03F025FF63F0210B504468D
:10C2200001F0D2FE0D4901F028FBFFF7FFFE01F0FF
:10C23000B7FB206900280ADB012180B202F048F830
:10C2400001F0C2FEBDE81040054901F016BB01F047
:10C25000BBFE044901F011FBF2E700BF9FFC3F0267
:10C2600000FD3F02BDFC3F0290F91430012B02D0CB
:10C27000022B02D07047FFF71FBFFFF7CFBF0000B0
:10C280002DE9F3410C4616461D46074601F09CFE7B
:10C29000354901F0DFFA01F097FE1022214601F046
:10C2A000F6FA01F091FE314901F0D4FA01F08CFE6A
:10C2B0001022217801F0EBFA01F086FE2C4901F002
:10C2C000C9FA01F081FE0A22314601F0E0FA01F0DC
:10C2D0007BFE274901F0BEFA01F076FE0A222946CC
:10C2E00001F0D5FA01F070FE224901F0B3FA386985
:10C2F000002803DB002180B201F0FBFFA0462644AA
:10C30000464518D1DFF874802544AC421CD0FFF7B5
:10C310008DFE002101F0E0FB064604F8010B01F060
:10C3200053FE414601F096FA01F04EFE10223146CE
:10C33000FFF7A6FEE9E718F8011B0191FFF776FE6B
:10C34000019901F0C9FBDBE73869002803DB012113
:10C3500080B201F0CEFF01F037FE074901F08DFAFF
:10C36000002002B0BDE8F08122FD3F027BFC3F02CD
:10C370003CFD3F027DFC3F02FEF03F025FF63F02C4
:10C38000F0B490F914C00546BCF1010F0C461746F5
:10C390001E4605D0BCF1020F05D0F0BC002070474E
:10C3A000F0BCFFF7BFBE1BB10B7863F07F030B70CF
:10C3B00033463A4621462846F0BCFFF761BF0000ED
:10C3C000044B054A1A604FF0FF32C3E902221A619A
:10C3D000704700BF7CAE071048FD3F027047002049
:10C3E000704710B40468A468A4465DF8044B604725
:10C3F000014B024A1A60704798AE07105CFD3F027D
:10C4000009B504480068044B03441B685B6C029345
:10C4100009BD0000F4AC07103000000009B5044865
:10C420000068044B03441B685B68029309BD00006D
:10C43000F4AC07100000000009B504480068044B84
:10C4400003441B68DB68029309BD0000F4AC0710CD
:10C450000000000009B504480068044B03441B6851
:10C460005B69029309BD0000F4AC071000000000F6
:10C4700009B504480068044B03441B681B68029319
:10C4800009BD0000F4AC07101400000009B5044811
:10C490000068044B03441B685B68029309BD0000FD
:10C4A000F4AC07101400000009B504480068044B00
:10C4B00003441B689B68029309BD0000F4AC07109D
:10C4C0001400000009B504480068044B03441B68CD
:10C4D000DB68029309BD0000F4AC071014000000F3
:10C4E00009B504480068044B03441B681B690293A8
:10C4F00009BD0000F4AC07101400000009B50448A1
:10C500000068044B03441B685B69029309BD00008B
:10C51000F4AC07101400000009B504480068044B8F
:10C5200003441B681B68029309BD0000F4AC0710AC
:10C530001000000009B504480068044B03441B6860
:10C54000DB68029309BD0000F4AC07101000000086
:10C5500009B504480068044B03441B681B69029337
:10C5600009BD0000F4AC07101000000009B5044834
:10C570000068044B03441B689B69029309BD0000DB
:10C58000F4AC07101000000009B504480068044B23
:10C5900003441B68DB69029309BD0000F4AC07107B
:10C5A0001000000009B504480068044B03441B68F0
:10C5B0001B6A029309BD0000F4AC071010000000D4
:10C5C00009B504480068044B03441B685B6A029386
:10C5D00009BD0000F4AC07101000000009B50448C4
:10C5E0000068044B03441B689B6A029309BD00006A
:10C5F000F4AC07101000000009B504480068044BB3
:10C6000003441B68DB6A029309BD0000F4AC071009
:10C610001000000009B504480068044B03441B687F
:10C620001B6B029309BD0000F4AC07101000000062
:10C6300009B504480068044B03441B685B6B029314
:10C6400009BD0000F4AC07101000000009B5044853
:10C650000068044B03441B681B6C029309BD000077
:10C66000F4AC07101000000009B504480068044B42
:10C6700003441B681B6D029309BD0000F4AC071056
:10C680001000000009B504480068044B03441B680F
:10C690005B69029309BD0000F4AC07104C00000078
:10C6A00009B504480068044B03441B689B68029367
:10C6B00009BD0000F4AC07105000000009B50448A3
:10C6C0000068044B03441B68DB68029309BD00004B
:10C6D000F4AC07105000000009B504480068044B92
:10C6E00003441B681B68029309BD0000F4AC0710EB
:10C6F0000C00000009B504480068044B03441B68A3
:10C700001B68029309BD0000F4AC0710180000007C
:10C7100009B504480068044B03441B685B69029335
:10C7200009BD0000F4AC07101800000009B504486A
:10C730000068044B03441B68DB69029309BD0000D9
:10C74000F4AC07101800000009B504480068044B59
:10C7500003441B681B6A029309BD0000F4AC071078
:10C760001800000009B504480068044B03441B6826
:10C770005B6A029309BD0000F4AC071018000000CA
:10C7800009B504480068044B03441B68DB6B029343
:10C7900009BD0000F4AC07101800000009B50448FA
:10C7A0000068044B03441B681B6C029309BD000026
:10C7B000F4AC07101800000009B504480068044BE9
:10C7C00003441B685B6C029309BD0000F4AC0710C6
:10C7D0001800000009B504480068044B03441B68B6
:10C7E000DB68029309BD0000F4AC071024000000D0
:10C7F00009B504480068044B03441B681B69029395
:10C8000009BD0000F4AC07102400000009B504487D
:10C810000068044B03441B685B69029309BD000078
:10C82000F4AC07102400000009B504480068044B6C
:10C8300003441B689B69029309BD0000F4AC071018
:10C840002400000009B504480068044B03441B6839
:10C85000DB69029309BD0000F4AC0710240000005E
:10C8600009B504480068044B03441B681B6A029323
:10C8700009BD0000F4AC07102400000009B504480D
:10C880000068044B03441B689B6A029309BD0000C7
:10C89000F4AC07102400000009B504480068044BFC
:10C8A00003441B68DB6A029309BD0000F4AC071067
:10C8B0002400000009B504480068044B03441B68C9
:10C8C0001B6C029309BD0000F4AC071024000000AB
:10C8D00009B504480068044B03441B681B680293B5
:10C8E00009BD0000F4AC07103400000009B504488D
:10C8F0000068044B03441B685B68029309BD000099
:10C90000F4AC07103400000009B504480068044B7B
:10C9100003441B689B68029309BD0000F4AC071038
:10C920003400000009B504480068044B03441B6848
:10C930001B69029309BD0000F4AC0710340000002D
:10C9400009B504480068044B03441B685B69029303
:10C9500009BD0000F4AC07103400000009B504481C
:10C960000068044B03441B689B69029309BD0000E7
:10C97000F4AC07103400000009B504480068044B0B
:10C9800003441B68DB69029309BD0000F4AC071087
:10C990003400000009B504480068044B03441B68D8
:10C9A0001B6A029309BD0000F4AC071034000000BC
:10C9B00009B504480068044B03441B685B68029394
:10C9C00009BD0000F4AC07104800000009B5044898
:10C9D0000068044B03441B689B68029309BD000078
:10C9E000F4AC07104800000009B504480068044B87
:10C9F00003441B68DB68029309BD0000F4AC071018
:10CA00004800000009B504480068044B03441B6853
:10CA10009B69029309BD0000F4AC071048000000B8
:10CA200009B504480068044B03441B68DB690293A2
:10CA300009BD0000F4AC07104800000009B5044827
:10CA40000068044B03441B685B6B029309BD000044
:10CA5000F4AC07104800000009B504480068044B16
:10CA600003441B681B6D029309BD0000F4AC071062
:10CA70004800000009B504480068044B03441B68E3
:10CA80005B68029309BD0000F4AC071008000000C9
:10CA900009B504480068044B03441B685B690293B2
:10CAA00009BD0000F4AC07100800000009B50448F7
:10CAB0000068044B03441B68DB6C029309BD000053
:10CAC000F4AC07100800000009B504480068044BE6
:10CAD00003441B685B6D029309BD0000F4AC0710B2
:10CAE0000800000009B504480068044B03441B68B3
:10CAF000D3F88830029309BDF4AC07100800000099
:10CB000009B504480068044B03441B68D3F894300B
:10CB1000029309BDF4AC07100800000009B50448F1
:10CB20000068044B03441B68D3F89830029309BD96
:10CB3000F4AC07100800000009B504480068044B75
:10CB400003441B68D3F8A830029309BDF4AC071066
:10CB50000800000009B504480068044B03441B6842
:10CB60009B68029309BD0000F4AC07102C00000084
:10CB700009B504480068044B03441B685B690293D1
:10CB800009BD0000F4AC07102C00000009B50448F2
:10CB90000068044B03441B681B6A029309BD000034
:10CBA000F4AC07102C00000009B504480068044BE1
:10CBB00003441B68DB6B029309BD0000F4AC071053
:10CBC0002C00000009B504480068044B03441B68AE
:10CBD0005B68029309BD0000F4AC07102800000058
:10CBE00009B504480068044B03441B689B68029322
:10CBF00009BD0000F4AC07102800000009B5044886
:10CC00000068044B03441B68DB68029309BD000005
:10CC1000F4AC07102800000009B504480068044B74
:10CC200003441B681B69029309BD0000F4AC0710A4
:10CC30002800000009B504480068044B03441B6841
:10CC40005B69029309BD0000F4AC071028000000E6
:10CC500009B504480068044B03441B689B690293B0
:10CC600009BD0000F4AC07102800000009B5044815
:10CC70000068044B03441B68DB69029309BD000094
:10CC8000F4AC07102800000009B504480068044B04
:10CC900003441B681B6A029309BD0000F4AC071033
:10CCA0002800000009B504480068044B03441B68D1
:10CCB0001B6B029309BD0000F4AC071028000000B4
:10CCC00009B504480068044B03441B685B6B02937E
:10CCD00009BD0000F4AC07102800000009B50448A5
:10CCE0000068044B03441B681B6C029309BD0000E1
:10CCF000F4AC07102800000009B504480068044B94
:10CD000003441B685B6C029309BD0000F4AC071080
:10CD10002800000009B504480068044B03441B6860
:10CD20005B6D029309BD0000F4AC07102800000001
:10CD300009B504480068044B03441B689B6D0293CB
:10CD400009BD0000F4AC07102800000009B5044834
:10CD50000068044B03441B681B68029309BD000074
:10CD6000F4AC07100400000009B504480068044B47
:10CD700003441B685B68029309BD0000F4AC071014
:10CD80000400000009B504480068044B03441B6814
:10CD90009B68029309BD0000F4AC0710040000007A
:10CDA00009B504480068044B03441B685B6A02939E
:10CDB00009BD0000F4AC07100400000009B50448E8
:10CDC0000068044B03441B68DB6A029309BD000042
:10CDD000F4AC07100400000009B504480068044BD7
:10CDE00003441B681B6B029309BD0000F4AC0710E1
:10CDF0000400000009B504480068044B03441B68A4
:10CE00001B6C029309BD0000F4AC07100400000085
:10CE100009B504480068044B03441B685B6C02932B
:10CE200009BD0000F4AC0710040000000021FFF76A
:10CE30002FBE10B5836804460BB901F087FBC368A9
:10CE40009847A3681BB103222146204698472046F5
:10CE5000BDE810401021FDF754B910B583680446B1
:10CE600013B1032201469847204610BD13B56C4606
:10CE70000B460246D0E9000184E8030093E8030072
:10CE800082E8030094E8030083E8030002B010BDC9
:10CE9000002302480360FFF7B3BA00BFA0AE07103B
:10CEA00070470020704710B504461021FDF729F99E
:10CEB000204610BD08B5FFF7F6FF08BD002230B5CB
:10CEC0004FF69C74026084808D888C800C6885800D
:10CED00004600A6030BD10B504460068FFF744FFE7
:10CEE000204610BD38B5C46814B32378DBB2022BDA
:10CEF00003D104F10C00FFF7EEFF231D1D6835B1CF
:10CF00002846FFF7AAFF10212846FDF7FAF804F19A
:10CF100008031D6835B12846FFF79FFF10212846FA
:10CF2000FDF7EFF82046BDE838401421FDF7E9B8D9
:10CF300038BD0B6803604B68436013B15A68013217
:10CF40005A60704737B5044668460D46FFF7F1FF53
:10CF5000009B019A23600023626001A80193009363
:10CF6000FDF7CAFA35B1281DFDF7C6FA0821284693
:10CF7000FDF7C7F8204603B030BD826810B50AB986
:10CF800001F0E4FAC368BDE81040184708B500682E
:10CF900000F11001FFF7F1FF08BD826810B50AB972
:10CFA00001F0D4FAC368BDE81040184708B500681E
:10CFB00000F11001FFF7F1FF08BD000038B50023B4
:10CFC0000446036010200D46FDF797F828B10123B1
:10CFD000C0E90133024BC56003602060204638BDC4
:10CFE00070FD3F0238B5002383608B6804460D4610
:10CFF0002BB102229847EB68E360AB68A360204640
:10D0000038BD0000F0B589B004686846FFF756FFE8
:10D010004FF00203D4E84F2F002A03D1C4E8413F68
:10D020000029F7D121D104F10C0569462846FFF704
:10D0300045FF0122631CC3E88F2F002004F1080381
:10D04000D3E8EF6FC3E8E20F002AF9D16EB1FFF722
:10D050002DFD78B129463046FFF78FFF3046FFF7A8
:10D06000FCFE10213046FDF74CF86846FFF733FF11
:10D0700009B0F0BD314602A8FFF7B4FFE068B4F98B
:10D08000105008B101F0AEFA06901020ADF81C5017
:10D09000FDF733F80546E8B1002787601820FDF753
:10D0A0002CF8044688B10146876002A8FFF7DEFE2F
:10D0B000049BA268A360059B0492E26806A9E36052
:10D0C00004F110000592FFF7F9FE084B2C60EB60AD
:10D0D000074BAB6006A8FFF7FEFE02A8FFF7BDFEF8
:10D0E000002229460348FFF7EFFCB7E7DDD83F02EF
:10D0F00059DB3F0283D73F022DE9F04F8BB0054645
:10D100000F46904699469DF850A0FFF731FD07AEB7
:10D11000834638BB4FF62E73059005A93046ADF80F
:10D120001830FFF7CBFE1420FCF7E7FF044648B1A8
:10D13000022303700123C0E901BB437031460C3068
:10D14000FFF7BCFE2846214640F8044BFFF736FFA8
:10D150003046FFF7C0FE05A8FFF7BDFE28460BB01E
:10D16000BDE8F08F0C2300241420CDE90844079378
:10D17000FCF7C3FF014618B1C0E9014404704470D4
:10D1800004A80391FFF71AFF1E4B08200893FCF731
:10D19000B4FF044610B103A9FFF7CBFE4A4641464F
:10D1A000384600965FFA8AF30994FFF7EFFCB8B9A6
:10D1B000039B01331B78DBB293B905934FF69C7345
:10D1C00005A903A8ADF81830FFF71CFF05A8FFF765
:10D1D00082FE05A80999FFF7B5FE06A8FDF78CF9B0
:10D1E00003A905A8FFF7A5FE059B069A2B6000235F
:10D1F0006A6006A806930593FDF77EF904A8FDF77B
:10D200007BF9ABE71DDC3F02012AF8B5054603D1E7
:10D210000B6803600020F8BD022A10D0032AF9D160
:10D220000468002CF6D004F11000FFF754FE2046ED
:10D23000FFF713FE18212046FCF763FFEAE71820EA
:10D240000E68FCF75AFF044650B13146FFF7CAFE9C
:10D250003069B6F9147008B101F0C4F92061A782F1
:10D260002C60D7E738B5002383608B6804460D46F1
:10D270002BB102229847EB68E360AB68A3602046BD
:10D2800038BD012A70B5044603D10B680360002045
:10D2900070BD022A0CD0032AF9D10468002CF6D004
:10D2A0002046FFF7DAFD14212046FCF72AFFEEE7BF
:10D2B00014200E68FCF721FF054620B13146FFF728
:10D2C000D1FF337C2B742560E1E70000F0B5044604
:10D2D00089B00D4601A81146FFF734FEA4B124B26F
:10D2E0001DB1284601F07EF9054601A803A9039562
:10D2F000ADF81040FFF786FE03A8FFF7ECFD02A88B
:10D30000FDF7FAF809B0F0BD0123019DD5E84F2FD4
:10D31000002A03D1C5E8413F0029F7D1EFD12B7393
:10D320000122EB18C3E88F2F2B1DD3E8EF6FC3E862
:10D33000E24F002AF9D1002EE1D02046FFF7B6FBDC
:10D34000074660B1304605F10C01FFF726FE304676
:10D35000FFF783FD10213046FCF7D3FECFE73146BF
:10D3600003A8FFF77FFF2B7B10208DF81C30FCF704
:10D37000C4FE0546D0B187601420FCF7BEFE04460B
:10D3800078B10146876003A8FFF770FD059BA2688E
:10D39000A360069B0592E268E3609DF81C3006924C
:10D3A0002374074B2C60EB60064BAB6003A8FFF7C0
:10D3B00054FD002229460448FFF786FBC7E700BF5B
:10D3C000FDD83F02D3DB3F0283D73F0200224068F3
:10D3D0001146FFF759BC002240681146FFF770BCA8
:10D3E00000224068FFF75EBC0022406881F0010126
:10D3F000FFF73CBC002340681A461946FFF728BCDB
:10D40000002340681A461946FFF714BC0022406802
:10D410001146FFF701BC002240681146FFF7E0BB50
:10D42000002202214068FFF7E9BB002340681A464A
:10D43000FFF7C8BB0322024B5A60024A1A607047CA
:10D44000A4AE07108CFD3F027047F8B5064615469E
:10D450000C468F18BC4206D0336830469B6814F8DF
:10D46000011B9847F6E72846F8BD0022007CFFF72D
:10D4700099B80021007CFFF7A3B80021007CFFF7DA
:10D48000ADB80021007CFFF7B7B80021007CFFF7A2
:10D49000C1B810B504461421FCF733FE204610BD78
:10D4A00038B5044615464FF47A730022C4E90123C7
:10D4B000094B0846217423602946FFF7C7F8BF309F
:10D4C00008D16B69DB0705D56868FFF74DFCE86894
:10D4D000FFF74AFC204638BDD0FD3F020022007C09
:10D4E000FFF71AB80023007C1A461946FFF722B846
:10D4F0000021007CFFF72CB87FB500221423CDE972
:10D500000122ADF804300B78007C8DF808304B68B0
:10D510000393CB6804930B7A01A90593FFF7A4F852
:10D5200007B05DF804FB1FB5003B8DF800104FF00D
:10D53000640118BF01230391694601928DF80830F8
:10D54000FFF7DAFF05B05DF804FB0123FFF7EBBF3F
:10D550000022007CFFF70AB8C9B2FFF7F9BF00222A
:10D56000007CFFF711B80121FFF7F9BF704710B534
:10D5700004461821FCF7C5FD204610BDF0B5037D1B
:10D580000E46062B4FF000048DB000F1040712D0B8
:10D5900000F1080515F8011D0A22304600F077F960
:10D5A000AF42044419D0002CF4D02E21304600F0B4
:10D5B00055F90444EEE72F236A4639460A208DF8D0
:10D5C0000040FFF75FF86846FCF772FD33680246DB
:10D5D00069463046DB689847044620460DB0F0BDEA
:10D5E00010B50446044B1122002140F8043B00F022
:10D5F000C3FF204610BD00BFFCFD3F020346074AA3
:10D6000010B543F8042B01F1100251F8044B91427C
:10D6100043F8044BF9D10A781A7010BDFCFD3F02A3
:10D6200010B59DF8084044EA032343EA024204236C
:10D6300042EA01614160037510BD000007B5064B69
:10D640000360CB7800938B784A780978FFF7E8FF7E
:10D6500003B05DF804FB00BFFCFD3F02014B024A32
:10D660001A607047ACAE071008FE3F020023406806
:10D670001A46FFF7A7BA002202214068FFF7BEBA98
:10D68000002240681146FFF7ABBA002240681146FD
:10D69000FFF7C2BA002340681A461946FFF7CABA14
:10D6A000002340681A461946FFF7D2BA00214068A5
:10D6B000FFF714BB00214068FFF71EBB0022406843
:10D6C00081F00101FFF7D2BA00224068FFF7EABA01
:10D6D000002240681146FFF7F3BA00224068114665
:10D6E000FFF7D2BA00214068FFF722BB2DE9F043D3
:10D6F00095B014460D460746FFF772FF00211C2225
:10D700000DA8009100F038FF402320460C93002123
:10D710006B460CAAFEF7D2FF044600284BD1024606
:10D7200001216868FFF778FA02218046224668687E
:10D73000FFF772FA21468146009E002E3BD0002959
:10D7400039D17368022B03D00A2B11D0F669F4E7A4
:10D75000B8F1000FFAD0716906A804313C1D07AD7D
:10D76000FFF76CFF0FCD0FC42B6841462370EDE728
:10D77000B9F1000FEAD0102201A8746900F0FCFE94
:10D78000062301AD8DF8143004F1080318342A463D
:10D7900018685968083303C2A3421546F7D101A996
:10D7A00006A83C1D07ADFFF729FF0FCD0FC42B685E
:10D7B00049462370CAE70098FEF772FF384615B055
:10D7C000BDE8F083033802289ABF024B53F82000CB
:10D7D000014870470CFE3F02B0AE071008B50022AA
:10D7E0004068FFF797FABDE80840FFF7EBBF00007D
:10D7F000024B034A1A6000225A607047B0AE07100D
:10D8000020FE3F02F8B506460D4600248F18BD42A3
:10D810000CD0336830469B6815F8011B9847031EEF
:10D8200001DB1C44F3E7002C08BF1C462046F8BD72
:10D8300013B50446084659B10191FCF739FC02467C
:10D84000204623680199DB6802B0BDE81040184704
:10D8500002B010BD08B5FFF7EBFF08BD03689B6879
:10D86000184738B50D210546FFF7F8FF0A21044691
:10D870002846FFF7F3FF204438BD38B50546FFF7CB
:10D88000D7FF04462846FFF7ECFF204438BD0023AD
:10D89000012A98BF0A2230B58BB08DF8243009AC2C
:10D8A0000D46B1FBF2F101FB125303F0FF03092B0C
:10D8B00094BF30333733DBB2AA4204F8013DEFD9CD
:10D8C0002146FFF7B5FF0BB030BD2DE9F04186B022
:10D8D00000AF05460E46381D142114463B60FFF785
:10D8E0005FFA13280ED82846391DFFF7A1FF04461A
:10D8F0001EB12846FFF7B5FF044420461837BD4641
:10D90000BDE8F08100F1080323F00703E846ADEB22
:10D91000030D2246411C3B686846FFF741FA694601
:10D920002846FFF785FF0446C546E1E710B50446E3
:10D93000FFF768F8844208D01CB1BDE81040FFF73B
:10D9400045B8BDE81040FFF74FB810BD70B50546AB
:10D950000E461446FFF756F850B144EA062444EA4E
:10D960000540FFF725F8BDE87040E720FFF758B8FD
:10D9700070BD00000022014B9A607047B8AE0710DE
:10D980000021FEF719BF0021FEF708BF10B50446BD
:10D9900008462170FEF7CAFE00232046636010BDD2
:10D9A00013B504460078FFF7EEFF58B920784FF61C
:10D9B000FF710190FEF79EFE019802B0BDE8104095
:10D9C000FFF7DEBF02B010BD0078FFF7D9BF00003F
:10D9D00030B50024400818601868E5B2884206D9BE
:10D9E0000134082C02D040081860F5E70725024BE7
:10D9F0005B5D137030BD00BF5CFE3F022DE9F0435C
:10DA000006468FB000780C46FFF7BDFF00281BDBF1
:10DA10001422002109A8357800F0AEFD0B23002266
:10DA2000284609A9ADF82430FEF79CFE9DF82D305C
:10DA300013B19DF82C5055B100270125B946B846C1
:10DA400023795DB1C3B100200FB0BDE8F083DDF8EC
:10DA500030809DF834909DF83570F1E7002B35D17A
:10DA6000A368434508D18DF820908DF82170BDF84A
:10DA70002020A3899A42E6D00023A1688DF80F30B8
:10DA80000A9804AB0DF10F02FFF7A2FF217985B9C7
:10DA900089B9A36843450ED38DF820908DF8217085
:10DAA000BDF82020A3899A4205D1049B434502D1A9
:10DAB000C9E70029F9D100230193637B9DF80F206A
:10DAC0000093237B3078FEF75BFEBCE72B462A46AB
:10DAD0000121CDE90055F5E708B50078FEF718FEFD
:10DAE000C0B208BD10B50446FEF7B4FCE060236880
:10DAF00020465B699847002808DAFEF7ABFCE3682C
:10DB0000C01AA3689842F2D34FF0FF3010BD2DE940
:10DB1000F04107460C460D468E18B542A5EB0408A9
:10DB200007D03846FFF7DEFF031E02DB05F8013B96
:10DB3000F3E74046BDE8F08110B504460068FFF702
:10DB400013F9204610BD10B50446006808B1FFF770
:10DB50000BF90023C4E90133236010BD38B5044636
:10DB60000D4600680131FFF70DF910B1C4E9000559
:10DB7000012038BD10B50368044623B143688B42C9
:10DB800001D3012010BD2046FFF7E8FF0028F9D09F
:10DB9000A368002BF5D122681370F2E737B50D4664
:10DBA000114601920446FFF7E5FF019A28B9204685
:10DBB000FFF7C9FF204603B030BD2946A2602068A8
:10DBC00000F0CDFC00212268A368D154F2E70023C5
:10DBD00013B50446C0E900338360037341B10846BE
:10DBE0000191FCF765FA019902462046FFF7D6FF3E
:10DBF000204602B010BD884210B5044605D00B681F
:10DC00002BB18A681946FFF7C9FF204610BDFFF700
:10DC10009AFFFAE7002310B50446C0E90033836099
:10DC20000373FFF7E8FF204610BD13B5044659B152
:10DC300008460191FCF73CFA019902462046FFF79D
:10DC4000ADFF204602B010BDFFF77DFFF9E71FB51D
:10DC5000002304460846C4E90033A360237301A9E6
:10DC6000CDE901338DF80C3000F046FA204601A9C9
:10DC7000FFF7DBFF204604B010BDF8B5044616469A
:10DC80000F4609B90020F8BD8AB1856815442946B8
:10DC9000FFF770FF0028F5D0A368206832461844CB
:10DCA000394600F05CFC002223685A55A56001202B
:10DCB000E9E710B58A6809680446FFF7DEFF10B986
:10DCC0002046FFF740FF204610BD10B5044600680F
:10DCD00018B1FFF749F80023236010BD38B50C4692
:10DCE0000546FFF7F2FF54B12088FFF72FF82860B0
:10DCF00028B121462288BDE8384000F030BC38BD4C
:10DD000038B50C46B1F9043005468380D1F80630A9
:10DD1000C0F806304B894381FFF7D7FF236813B162
:10DD20002B600023236038BDF0B52B4D0B7D0446DE
:10DD30008BB00846AF1D002B36D00B681B79002B2B
:10DD400032D00022254B02A904300493CDE90222EF
:10DD5000FEF7F2FEDDF80E3000B2C5F80630BDF871
:10DD60001230ADF80C00A88002992846BB80FFF75E
:10DD7000B5FF02A8FFF7A9FF00232360A380A371CA
:10DD800023814FF6FF736381B5F904302046A380E9
:10DD9000D5F806302968C4F80630BB886381FFF7E0
:10DDA0009DFF20460BB0F0BD00262023CDE90236B2
:10DDB0000B4B02AA0093322033460A49FEF74CFE71
:10DDC0004FF6F262054B044802A9CDE903230296FF
:10DDD000FFF796FFCDE700BFC8AE07100000FFFFBA
:10DDE0006BFE3F0264FE3F0202220020044B1A60D9
:10DDF000044B054AC3E900009A60FEF73BBE00BF32
:10DE0000D4AE0710C8AE07100000FFFF024B1A681F
:10DE1000024B1A60704700BFFCAC0710D8AE071069
:10DE2000F8B587B2044638460D46164600F012FA99
:10DE300060B102213846FEF729FB022806D132469E
:10DE400029462046BDE8F840FEF746BCF8BD7047BD
:10DE50004174704708B5007CFEF710FD20EAE070C1
:10DE600008BD08B5007CFEF7C3FC20EAE07008BDE1
:10DE700008B5007CFEF7D8FC40EAE07008BD08B5A4
:10DE8000007CFEF7C3FC40EAE07008BD007CFEF7B2
:10DE9000D9BC37B5457C04462DB1207C03B0BDE824
:10DEA0003040FEF797BC007C0191FEF7E7FC0028AC
:10DEB0000199F2DC284603B030BD10B504461421A8
:10DEC000FCF71FF9204610BD10B54FF47A730446D5
:10DED000084611460022C4E90123044B2074236044
:10DEE00001236374FEF7E6FC204610BDB8FE3F0236
:10DEF0000023007CFEF7D0BC0022FFF7F9BF007CB6
:10DF0000FEF7AEBC417470477047704708B50021FA
:10DF1000007CFEF723FD40EAE07008BD08B5012152
:10DF2000007CFEF71BFD40EAE07008BD08B5007CF0
:10DF3000FEF706FD20EAE07008BD08B5007CFEF79C
:10DF4000F1FC20EAE07008BD13B50446007C0191A5
:10DF5000FEF7F6FC0028019901DC607C20B1207CF2
:10DF6000FEF70AFD20EAE07002B010BD007CFEF76B
:10DF700011BD10B504461421FCF7C3F8204610BDAE
:10DF800010B54FF47A73044608460021C4E9011322
:10DF9000044B20742360012311466374FEF798FC40
:10DFA000204610BDECFE3F020022007CFEF79EBC26
:10DFB000007CFEF7A9BC10B504461422002100F035
:10DFC000DBFA204610BD000010B588B003A8FFF7AB
:10DFD000F2FF0C4CD4E88F1F11F001010FD1204645
:10DFE0000191FCF79DF8019948B103AA0648FFF793
:10DFF000C7FF2046FCF799F8044800F0AAFA024847
:10E0000008B010BDDCAE0710E0AE071059E83F02C3
:10E01000002240681146FEF7FFBD0022406811460D
:10E02000FEF732BE002240681146FEF749BE0022CC
:10E030004068FEF737BE0022406881F00101FEF71C
:10E0400015BE002340681A461946FEF701BE00239C
:10E0500040681A461946FEF7EDBD00224068114699
:10E06000FEF7BEBD002202214068FEF7C7BD0023B7
:10E0700040681A46FEF7A6BD0422024B5A60024AC7
:10E080001A607047F4AE071020FF3F0210B5044637
:10E09000FCF70EF8013823182046834206D902788F
:10E0A000197800F8011B03F80129F6E710BD70B5D7
:10E0B0000C46911E22291DD8254630B93022234412
:10E0C0009D4210D205F8012BFAE7B0FBF2F602FBF5
:10E0D0001600C1B2092894BF30315731C9B2304659
:10E0E00005F8011BE9E7002320462B70FFF7CEFF60
:10E0F000204670BD0020FCE708B50123FFF7D7FFDD
:10E1000008BD0000014B1860704700BF00AD07104C
:10E1100008B50F4B43B1FFF757FF03681B699847DA
:10E12000002801DD00E000BF0A4B43B100F07CF99C
:10E1300003681B699847002801DD00E000BF064B1B
:10E140000BB100F0B7F9054B0BB100F0E9F908BDD0
:10E1500000000000000000000000000000000000BF
:10E1600008B5FFF7D5FFFEF775F9014B186008BD3C
:10E1700004AF07100548064A08B5121A054900F011
:10E18000EEF9054B054A1A6008BD00BF00B4071040
:10E1900004B4071020F75F0800B407101E1C279A6C
:10E1A000002307B51A466FF077010093FEF7A8FC2D
:10E1B00003B05DF804FB000007B543880A2B08D0C4
:10E1C000502B0BD1094B1B684BB103B05DF804EB2E
:10E1D0001847FFF7E5FF03B05DF804FB00231A467C
:10E1E0006FF077010093FEF78BFCF4E700AF0710A8
:10E1F000002110B51148FEF70BFE114B1A68114BA8
:10E200009A420CBF012200220F4B1A7001D0FFF777
:10E21000B1FFFEF703F9044600F0B6F90B4B13B15A
:10E22000204600E000BF00210848FEF7BDFCBDE825
:10E23000104000210648FEF755BC00BF55EA3F02DA
:10E2400000B407101E1C279AFCAE07100000000047
:10E2500009EB3F021B2837B5044602D9002003B062
:10E2600030BDA0F10F03022B0BD9012821D800F0FB
:10E2700087F80021007CFEF7DBF980F00100C0B2D6
:10E28000EDE7114DD5E88F1F11F001010BD12846A4
:10E290000191FBF745FF019928B10C48FFF776FB88
:10E2A0002846FBF742FF094B1878FEF74DFA002885
:10E2B000D4D1083C012C05D800F0B6F8007CFEF75C
:10E2C000CFFADAE70120CAE770AE071074AE071084
:10E2D0001B2838B504460D460AD8FF2908D0FFF799
:10E2E000B9FF28B129462046BDE83840FEF7DCB822
:10E2F00038BD38B504460D46FEF7E4F8FF2810D0C7
:10E30000062804D84D2323FA00F0C30709D4204679
:10E31000FFF7A0FF28B129462046BDE83840FEF7A8
:10E32000DFB838BD10B50446FEF7CCF8031FDBB2EA
:10E33000012B08D92046FFF78DFF20B12046BDE80C
:10E340001040FEF7DBB8002010BD704738B50A4B0F
:10E3500004460360012309494361202000F0F4F8DA
:10E360002025606005492846A56000F0EDF8C4E965
:10E370000305204638BD00BF180001005CFF3F02C6
:10E3800030B50E4D87B0D5E88F1F11F0010411D1C3
:10E390002846FBF7C5FE68B16846FFF7D7FF6A4617
:10E3A00021460748FFF77CF82846FBF7BEFE0548E4
:10E3B00000F0CFF8024807B030BD00BF08AF07102B
:10E3C0000CAF07109BEC3F027047000038B51425D6
:10E3D00004462A46002100F0CFF825804025074951
:10E3E00028462581258200F0AFF804496060284660
:10E3F00000F0AAF8E060204638BD00BF5CFF3F0295
:10E400007047704710B50446FFF7E0FF204610BD87
:10E4100010B50446FFF7DAFF204610BD10B50446DC
:10E42000FFF7D4FF204610BD30B50E4D87B0D5E8BC
:10E430008F1F11F0010411D12846FBF771FE68B15E
:10E4400001A8FFF7DFFF214601AA0748FFF73CFDBF
:10E450002846FBF76AFE054800F07BF8024807B043
:10E4600030BD00BF20AF07102CAF071019ED3F02E1
:10E4700010B50D4C86B0D4E88F3FDB0711D4204691
:10E48000FBF74EFE68B101A8FFF7C2FF012101AA08
:10E490000648FFF719FD2046FBF747FE044800F049
:10E4A00058F8024806B010BD24AF071040AF07105F
:10E4B00053ED3F0210B5FFF7DBFF074B044653B1A6
:10E4C000FFF71DFD38B1236820461B6998470028D7
:10E4D00001DD00E000BF10BD0000000010B50D4CD4
:10E4E00086B0D4E88F3FDB0711D42046FBF718FE37
:10E4F00068B101A8FFF792FF022101AA0648FFF7C1
:10E50000E3FC2046FBF711FE044800F022F8024825
:10E5100006B010BD28AF071054AF071051ED3F02F1
:10E5200010B5FFF7DBFF074B044653B1FFF7E7FCDD
:10E5300038B1236820461B699847002801DD00E0B8
:10E5400000BF10BD00000000FBF7D9BD08B5FEF705
:10E5500035FC002301461A46184600F061B80A440B
:10E56000431E914200D1704710B511F8014B914202
:10E5700003F8014FF9D110BD02440346934200D184
:10E58000704703F8011BF9E738B5104B04461D68C6
:10E59000AB6BB3B91820FEF7D9FB0246A86320B9CC
:10E5A0000B4B42210B48FEF725FC0B490B4BC0E9F6
:10E5B00000130B4B002183600B2383810120C2E9F0
:10E5C0000401AB6B00221C615A6138BD00AD07101D
:10E5D0005DFF3F0274FF3F020E33CDAB34126DE698
:10E5E000ECDE0500024B0146186800F003B800BFDE
:10E5F00000AD071037B5044608460D46FBF758FD39
:10E60000421C204611460192FEF7E6FB044618B173
:10E61000019A2946FFF7A3FF204603B030BD000052
:10E620002DE9F843DFF8BC8006461F460D46D8F8B2
:10E630000000914600F058F8264B1C6834B9264C6F
:10E640001C60264B13B11B68C4F8883063681F2B0D
:10E6500007DDD8F8000000F049F84FF0FF30BDE8C2
:10E66000F8835EB3D4F8880088B91D4B23B9D8F875
:10E67000000000F03AF8F0E74FF48470FEF766FB14
:10E680000028F4D00023C0E94033C4F88800636850
:10E690000122022E40F8239002FA03F200EB8301DC
:10E6A000D0F8003143EA0203C0F80031C1F88070AD
:10E6B00002BFD0F804311343C0F804316368D8F8BE
:10E6C00000005A1C0233626044F8235000F00EF838
:10E6D0000020C4E7F4AF071068AF07100000000087
:10E6E0009DD63F0264AD0710704770477047000029
:10E6F00011AA3F0239AA3F023DAA3F0200000000D2
:10E7000043616C6C206F6E20707572652076697243
:10E710007475616C00504D312E303A00504D322EE0
:10E72000353A00504D31303A0054454D503A00488A
:10E73000554D493A0075672F6D3300206300202541
:10E7400000436F756C646E27742066696E64205395
:10E750004854333100436F756C646E2774206669CA
:10E760006E64207373643133303600636C6F636B97
:10E770005F737461727400746F6D61746F5F636C4A
:10E780006F636B00636C6F636B5F73746F700070AB
:10E790006D312E303A2564002020706D322E353ACE
:10E7A0002564002020706D31303A25640D0A000088
:10E7B000000000003E5B4F5B3E3E6B4F6B3E1C3EDD
:10E7C0007C3E1C183C7E3C181C577D571C1C5E7FF1
:10E7D0005E1C00183C1800FFE7C3E7FF0018241870
:10E7E00000FFE7DBE7FF30483A060E2629792926A5
:10E7F000407F050507407F05253F5A3CE73C5A7F8F
:10E800003E1C1C08081C1C3E7F14227F22145F5FE4
:10E81000005F5F06097F017F006689956A6060601E
:10E82000606094A2FFA29408047E040810207E2059
:10E830001008082A1C08081C2A08081E10101010AE
:10E840000C1E0C1E0C30383E3830060E3E0E0600F4
:10E850000000000000005F00000007000700147FB8
:10E86000147F14242A7F2A1223130864623649561F
:10E8700020500008070300001C2241000041221C18
:10E88000002A1C7F1C2A08083E08080080703000FF
:10E890000808080808000060600020100804023E14
:10E8A0005149453E00427F40007249494946214155
:10E8B000494D331814127F1027454545393C4A49C4
:10E8C0004931412111090736494949364649492903
:10E8D0001E00001400000040340000000814224113
:10E8E0001414141414004122140802015909063E9C
:10E8F000415D594E7C1211127C7F494949363E4197
:10E900004141227F4141413E7F494949417F0909B7
:10E9100009013E414151737F0808087F00417F4152
:10E92000002040413F017F081422417F4040404089
:10E930007F021C027F7F0408107F3E4141413E7FE1
:10E94000090909063E4151215E7F091929462649D8
:10E9500049493203017F01033F4040403F1F2040AF
:10E96000201F3F4038403F631408146303047804B9
:10E97000036159494D43007F414141020408102081
:10E98000004141417F0402010204404040404000F8
:10E990000307080020545478407F28444438384402
:10E9A000444428384444287F385454541800087E7E
:10E9B000090218A4A49C787F0804047800447D40D0
:10E9C000002040403D007F1028440000417F40006F
:10E9D0007C047804787C080404783844444438FC87
:10E9E0001824241818242418FC7C0804040848540B
:10E9F00054542404043F44243C4040207C1C2040C8
:10EA0000201C3C4030403C44281028444C909090BE
:10EA10007C4464544C4400083641000000770000F8
:10EA2000004136080002010204023C2623263C1E57
:10EA3000A1A161123A4040207A38545455592155C9
:10EA400055794122545478422155547840205455E8
:10EA500079400C1E52721239555555593954545437
:10EA60005939555454580000457C410002457D42B7
:10EA70000001457C407D1211127DF0282528F07C94
:10EA8000545545002054547C547C0A097F4932492E
:10EA90004949323A4444443A324A4848303A41417A
:10EAA000217A3A42402078009DA0A07D3D4242421A
:10EAB0003D3D4040403D3C24FF2424487E49436680
:10EAC0002B2FFC2F2BFF0929F620C0887E0903205D
:10EAD000545479410000447D413048484A3238401E
:10EAE00040227A007A0A0A727D0D19317D26292981
:10EAF0002F28262929292630484D40203808080883
:10EB00000808080808382F10C8ACBA2F102834FAA3
:10EB100000007B000008142A142222142A1408552D
:10EB200000550055AA55AA55AAFF55FF55FF0000EC
:10EB300000FF00101010FF00141414FF001010FF4D
:10EB400000FF1010F010F0141414FC001414F7005F
:10EB5000FF0000FF00FF1414F404FC141417101F2E
:10EB600010101F101F1414141F00101010F00000BC
:10EB700000001F101010101F10101010F0100000D7
:10EB800000FF101010101010101010FF10000000E7
:10EB9000FF140000FF00FF00001F10170000FC041E
:10EBA000F414141710171414F404F40000FF00F701
:10EBB00014141414141414F700F714141417141064
:10EBC000101F101F141414F4141010F010F0000093
:10EBD0001F101F0000001F14000000FC140000F0B4
:10EBE00010F01010FF10FF141414FF141010101F59
:10EBF00000000000F010FFFFFFFFFFF0F0F0F0F06A
:10EC0000FFFFFF0000000000FFFF0F0F0F0F0F3886
:10EC100044443844FC4A4A4A347E02020606027ED4
:10EC2000027E0263554941633844443C04407E20DF
:10EC30001E2006027E020299A5E7A5991C2A492AF0
:10EC40001C4C7201724C304A4D4D3030487848307F
:10EC5000BC625A463D3E494949007E0101017E2A77
:10EC60002A2A2A2A44445F444440514A44404044AA
:10EC70004A51400000FF0103E080FF000008086BDC
:10EC80006B083612362436060F090F0600001818D6
:10EC90000000001010003040FF0101001F01011EA4
:10ECA00000191D1712003C3C3C3C00000000000015
:10ECB0000000000000000000000000000000000054
:10ECC000F5BA3F0255E13F0259AA3F02FFB43F02A5
:10ECD00001B53F0233B53F020FB53F0221B53F02F8
:10ECE00041B43F02FFB43F0229B73F0227B73F02BA
:10ECF0004BB53F0289B53F02C3B53F0209B63F029B
:10ED000025B63F02A7B63F0264656661756C742044
:10ED1000004D5342004C5342003C535049536574DC
:10ED200074696E67732064656661756C743E003C3F
:10ED300053504953657474696E6773202573257544
:10ED4000202573204D4F444525753E0000000000EE
:10ED5000000000000DBF3F02FDBE3F02FFBE3F02AC
:10ED60000000000000018000000000000000000022
:10ED7000038000000000000000000007C000000049
:10ED800000000000000007C00000000000000000BC
:10ED9000000FC00000000000000000001FE00000A5
:10EDA000000000000000001FE00000000000000064
:10EDB00000003FE00000000000000000003FF00005
:10EDC00000000000000000007FF0000000000000D4
:10EDD000001FF87FF0000000000000003FFE7FF001
:10EDE000000000000000003FFF7FF0000000000076
:10EDF00000001FFFFBE0000000000000000FFFF913
:10EE0000FFC00000000000000FFFF9FFF800000045
:10EE100000000007FFF1FFFF00000000000003FCFE
:10EE200073FFFF80000000000001FE3FFFFF800035
:10EE30000000000000FF1E0FFF00000000000000A7
:10EE40007FFE1FFC000000000000003FFFFFF800F5
:10EE50000000000000000FDFFFE0000000000000E5
:10EE6000001F19FFC0000000000000003F3CFF0031
:10EE7000000000000000007E7CF8000000000000A0
:10EE800000007FFE7C0000000000000000FFFFFC8F
:10EE90000000000000000000FFFFFE000000000076
:10EEA000000000FFFFFE0000000000000001FFEF77
:10EEB000FE0000000000000001FFCFFE0000000087
:10EEC00000000003FF07FE0000000000000003FC3C
:10EED00007FE0000000000000003F003FE00000039
:10EEE00000000000018000FE0000000000000000A3
:10EEF00000007E000000000000000000003E000056
:10EF000000000000000000000C00000000000007EE
:10EF10008000FC000003C0000000078001FC00002E
:10EF200003C0000000078001FC000003C0000000D7
:10EF3000078001E00000001E000000078001E000E3
:10EF400000001E007FE3F79FF9FDE7787BDFC0FF3D
:10EF5000F7FFBFFDFDFF787BDFC0FFF7FFBFFDFDC3
:10EF6000FF787BDFC0F0F787BC3DE1FF787BDE00F8
:10EF7000F0F787BC3DE1F0787BDE0000F787803D4D
:10EF8000E1E0787BDE007FF7879FFDE1E0787BDEC4
:10EF900000FFF787BFFDE1E0787BDE00F0F787BC7C
:10EFA0003DE1E0787BDE00F0F787BC3DE1E0787B77
:10EFB000DE00F0F787BC3DE1E0787BDE00FFF7FF85
:10EFC000BFFDE1E07FFBDFC0FFF7FFBFFDE1E07FBA
:10EFD000FBDFC07CF3F39F3DE1E03E7BCFC0000050
:10EFE000000000000000000000FFFFFFFFFFFFFF28
:10EFF000FFFFFFC0FFFFFFFFFD68DB111A31C0FFFD
:10F00000FFFFFFFD2B5AFB6AEFC0FFFFFFFFFD4B29
:10F010005B3B1A33C0FFFFFFFFFD6B5BDB6AFDC08C
:10F020000000600000000000000000000000000080
:10F0300000E00000000000000000000000000001EF
:10F04000E00000000000000000000000000001F0EF
:10F050000000000000000000000000000003F000BD
:10F0600000000000000000000000000007F00000A9
:10F07000000000000000000000000007F800000091
:10F08000000000000000000000000FF80000000376
:10F09000C0007E000001E0007F0FF800000003C008
:10F0A00000FE000001E000FFEFF800000003C000D8
:10F0B000FE000001E000FFFFF800000003C000F0C8
:10F0C0000000000F007FFE7FC0000003C000F000C2
:10F0D00000000F003FFE7FF83FF1FBCFFCFEF3BCCA
:10F0E0003DEFE01FFE7FFF7FFBFFDFFEFEFFBC3D2D
:10F0F000EFE01FC6FFFF7FFBFFDFFEFEFFBC3DEF23
:10F10000E00FE3C7FE787BC3DE1EF0FFBC3DEF00DF
:10F1100007FF87FC787BC3DE1EF0F83C3DEF000163
:10F12000FFFFF0007BC3C01EF0F03C3DEF0001F399
:10F130007FE03FFBC3CFFEF0F03C3DEF0003E33F39
:10F14000807FFBC3DFFEF0F03C3DEF0007E73C00B3
:10F15000787BC3DE1EF0F03C3DEF0007FFBE007879
:10F160007BC3DE1EF0F03C3DEF0007FFFE00787B26
:10F17000C3DE1EF0F03C3DEF000FFFFE007FFBFF03
:10F18000DFFEF0F03FFDEFE00FFFFF007FFBFFDF52
:10F19000FEF0F03FFDEFE00FF9FF003E79F9CF9E62
:10F1A000F0F01F3DE7E01FF1FF000000000000004D
:10F1B00000000000001F80FF007FFFFFFFFFFFFF38
:10F1C000FFFFFFE01C007F007FFFFFFFFEB46D88A4
:10F1D0008D18E000001F007FFFFFFFFE95AD7DB59D
:10F1E00077E000000F007FFFFFFFFEA5AD9D8D19AA
:10F1F000E0000006007FFFFFFFFEB5ADEDB57EE04D
:10F20000000000000000000061BF3F0279BF3F0224
:10F21000F5BA3F0255E13F028DBF3F02FFB43F0206
:10F2200001B53F0233B53F020FB53F0221B53F02A2
:10F2300041B43F02FFB43F0229B73F022BC13F0256
:10F240008FC73F0241C73F02C3B53F0209B63F0225
:10F2500025B63F02A7B63F020080C0E0F0F8FCFEF2
:10F26000000103070F1F3F7FAED580A8D300408D5C
:10F270002000A1C8DB40A4A62EAF2200FF2100423F
:10F280004D4931363047656E436C6173733A3A6964
:10F2900032635F696E697428292E2E2E00424D4913
:10F2A00031363047656E436C6173733A3A69326345
:10F2B0005F696E697428293A204932432066616982
:10F2C0006C65642E00424D4931363047656E436CA3
:10F2D0006173733A3A6932635F696E697428293AD7
:10F2E0002043484950204944203D20307800424D79
:10F2F0004931363047656E436C6173733A3A69320F
:10F30000635F696E697428292E2E2E646F6E650006
:10F310006932635F78666572286F6666733D307820
:10F32000002C2074783D002C2072783D00293A0092
:10F33000576972652E656E645472616E736D697380
:10F3400073696F6E2829206661696C65642E0042BE
:10F350004D4931363047656E436C6173733A3A7389
:10F3600070695F696E697428292E2E2E00424D49FE
:10F3700031363047656E436C6173733A3A73706926
:10F380005F696E697428293A205741524E494E47A9
:10F390003A204E6F20636869702073656C656374F2
:10F3A0002070696E207370656369666965642E00FC
:10F3B000424D4931363047656E436C6173733A3A5A
:10F3C0007370695F696E697428292E2E2E646F6EC2
:10F3D0006500424D4931363047656E436C61737349
:10F3E0003A3A7370695F7866657228002C000000F5
:10F3F000000000000000000033CD3F02B9CB3F0207
:10F40000D1CC3F02000000000000000033CD3F02DD
:10F410002DCD3F022FCD3F02000000000000000074
:10F42000F1D73F02F7D73F0235D83F0205D83F0258
:10F43000F3D73F0200000000000000007BDD3F0228
:10F4400071DD3F0267DD3F025DDD3F0251DD3F02BE
:10F4500045DD3F02FDDF3F0205E03F0239DD3F02AF
:10F4600031DD3F0227DD3F021DDD3F022DE13F027E
:10F4700035E03F023DE03F020000000000000000D8
:10F4800099DD3F02E3DD3F02BBDD3F029BDD3F0232
:10F49000C3DD3F02CBDD3F02D3DD3F02DBDD3F02B8
:10F4A0005FE43F020000000000000000CDDE3F02EC
:10F4B000BDDE3F02BFDE3F0261707000A4AE0710E8
:10F4C000F4AE0710B0AE071000000000000000000E
:10F4D000BDDF3F02C7DF3F02D1DF3F02DBDF3F027C
:10F4E000E5DF3F02F1DF3F02FDDF3F0205E03F02C3
:10F4F0000DE03F0219E03F0221E03F022BE03F0216
:10F500002DE13F0235E03F023DE03F0200081018C8
:10F5100020283038776972696E6700537973746593
:10F520006D20736C65657020636F6E6669677572B8
:10F530006174696F6E20697320696E76616C6964AD
:10F540002E0025592D256D2D25645425483A254D2D
:10F550003A2553257A0061736374696D6500000074
:10F5600000000000000000009FE73F020BE83F02A0
:10F57000E3E73F0255E13F02B3E73F02CFE73F0237
:10F58000C1E73F02DDE73F025FE43F02A1E73F0240
:10F59000A5E73F0200000000000000005BE83F021A
:10F5A000C3E83F0299E83F0255E13F028BE83F0282
:10F5B0005DE83F026DE83F02BDE83F025FE43F02C5
:10F5C0007DE83F0255E83F02000000000000000017
:10F5D000BFE93F02B5E93F02ABE93F0261E93F0203
:10F5E0009FE93F0293E93F02FDDF3F0205E03F0252
:10F5F00087E93F027FE93F0275E93F026BE93F027D
:10F600002DE13F0235E03F023DE03F02005245451B
:10F610004E54206D616C6C6F632073756363656518
:10F62000646564002F746D702F6A656E6B696E730C
:10F630002D4743432D31302D706970656C696E65BF
:10F640002D34385F32303230313132345F31363040
:10F65000363138303633392F7372632F6E65776CDD
:10F6600069622F6E65776C69622F6C6962632F73B4
:10F6700074646C69622F72616E642E630000000016
:10F68000BDAE3F0211CD3F0241CD3F02E1D73F0267
:10F6900085DD3F02ADDF3F0241E13F02C5E23F02AF
:0CF6A00039E73F025DE73F02C9E93F0285
:10F6AC000000000201010000A6FE3F0204AD07109D
:10F6BC00000000000000000000000000000000003E
:10F6CC00000000000000000000000000000000002E
:10F6DC00000000000000000000000000000000001E
:10F6EC00000000000000000000000000000000000E
:10F6FC0000000000000000000000000000000000FE
:10F70C0000000000000000000000000000000000ED
:04F71C00F8AF07102B
:04F7200000000000E5
:10FFBE000200100000A05F08A8A05F08F8A93F0289
:10FFCE0001000A00FFFFFFFFFFFF00000102030414
:10FFDE0005060708090A0B0C0D0E0F10111213144B
:0EFFEE0015161718191A1B1C1D1E1F203E0089
:04FFFC0078563412ED
:04000005085FA018D8
:00000001FF
