:02000004085F93
:10B0000000B05F08FCFF5F0800000600200005019B
:08B0100004017D1500000000A1
:10B018001348144908B5884205D0134A824202D021
:10B02800124B121A98471248124A0021124B121A50
:10B03800984712481249884205D0124A824202D0E3
:10B048000A4B121A984710481049884205D0104AEE
:10B05800824202D0054B121A9847014808BD00BF2A
:10B06800E4AC071044FE5F0858AD07102D0D111011
:10B0780058AD0710E8AF0710A10E111058B23F02E3
:10B08800A8B05F0860B23F0260B23F02B0B05F088C
:0CB09800F4FF3F0219B05F080000000048
:08B0A8009CB05F08A8F03F0214
:10B0B000034613F8012B002AFBD1181A01387047F8
:10B0C00070B503F0B1FC0025054E064CA41BA40886
:10B0D000AC4200D170BD56F8043B98470135F7E704
:10B0E000C8FF3F02F4FF3F0200F0CEB908B500F000
:10B0F000E7FABDE8084003F04FBC02F079BD02F06A
:10B1000077BD02F083BD00000C2008B5024A034958
:10B1100002F048FCFEE700BF51D53F02B8F03F0205
:10B120000078B0FA80F0400970470123037070473F
:10B1300008B503F041FD02F04DFE03F061FB03F0A2
:10B1400053FB0021122003F0DFFC0021062003F056
:10B15000DBFC0121002003F0D7FC0121084603F0AD
:10B16000D3FC0021084603F0E0FC0021012003F09D
:10B17000DCFC0021062003F0D8FC0021062003F0AF
:10B18000D4FC642002F088FD0021084603F0BCFCDA
:10B19000BDE808400021012003F0B6BC70B5037D76
:10B1A00004460E46154683B10368DB6873B19A887E
:10B1B000012A06D09B68F9E79B683BB19A88012A6F
:10B1C000FAD19A89B242F7D19D7370BD0021102047
:10B1D00002F03CFC08B92075F7E7054B036001233A
:10B1E000838023698681836085732061EDE700BFDA
:10B1F000100003000EB403B503AB53F8042B002179
:10B20000019302F0BAFF02B05DF804EB03B070479F
:10B2100010B50446006818B102F0F8FC0023236062
:10B2200010BD08B50221152003F06EFC002102209C
:10B2300003F06AFC01210E2003F066FC00210F20C0
:10B2400003F062FC0021102003F05EFC00210A20C4
:10B2500003F05AFC0121122003F056FC00211220B9
:10B2600003F063FC0121062003F04EFCBDE808401A
:10B270000021062003F059BC08B580B1012112203D
:10B2800003F053FC0121062003F04FFC642002F080
:10B2900003FDBDE808400121062003F046BCBDE8DF
:10B2A0000840FFF745BF0000F0B505468DB00E46DB
:10B2B00068462D4903F0B9F8002D3DD12B49684669
:10B2C00003F0E1F84FF00117294C0221204600F06D
:10B2D0009EFF284B694608A8C4E9043703F0C8F864
:10B2E0000A22314604A803F0E0F804A908A803F0F4
:10B2F00005F90168204602F005FF04A803F04AF8AA
:10B3000008A803F047F801212046B4F9106000F0C6
:10B310007EFF0F23F6B2022D2682638267611BD85F
:10B320001549204602F0EEFE114801F063FD684623
:10B3300003F030F80DB0F0BD012D01D10F49BEE78B
:10B34000022D01D10E49BAE7032D01D10D49B6E70F
:10B35000042DB7D10C49B2E7032D01D10B49E0E729
:10B36000042DE1D10A49DCE742F13F02CDF03F0272
:10B37000C0AD071001000A00EDF03F02D4F03F021B
:10B38000DBF03F02E1F03F02E7F03F02F3F03F0263
:10B39000F6F03F0230B50378422B23D143784D2B92
:10B3A00020D10023421E00F11D0412F8015F2B443E
:10B3B000A2429BB2F9D1847FC27F02EB0422934266
:10B3C00010D1827AC37A03EB02230B80027B437B8A
:10B3D00003EB02234B80827BC37B012003EB022320
:10B3E0008B8030BD0020FCE738B5214CD4E88F3F7E
:10B3F000DB070AD42046FFF793FE30B101F0DEFFF1
:10B400001C4B18602046FFF790FE03F029FC0368F0
:10B41000194D1B699847A8B103F022FC0368174C2B
:10B420005B69984723785A1C2270154AD05401232F
:10B430002B7001F0C3FF0F4B18602378272B84BFBC
:10B44000272323702B788BB101F0B8FF094A1368CA
:10B45000C01AC7280AD90023084913600B702B7043
:10B4600008490748BDE83840FFF794BF002038BDC1
:10B4700064AD07106CAD071099AD071098AD0710BB
:10B4800070AD071034AE071007B5C82002F004FCF9
:10B49000012002F0A3FE00221146104602F0AEFE8B
:10B4A00003F0AEF94FF4165103F09AF903F0D8FB0C
:10B4B0004FF4165103F03CF9FFF7B3FE0120FFF7FC
:10B4C000DBFEC82002F0E8FB4421174800F092FFA1
:10B4D00050B903F095F9154902F027FE642240F6B1
:10B4E000B8310E2003F0B8F80F4800F079FF0123BF
:10B4F0003C2202210E48009301F0C0F950B903F03C
:10B500007FF90C4902F0FEFD642240F6B8310E20AE
:10B5100003F0A2F80121064801F008FD044803B039
:10B520005DF804EB01F09BB93CAE0710F9F03F0267
:10B53000C0AD07100DF13F02094A0128137807D169
:10B540000133DBB2042B88BF0023137010787047DF
:10B550000228FBD1013BDBB2052B88BF0423F4E7B3
:10B560009AAD07101FB50024144B154AC3E90044D7
:10B570009A60032002F032FA03F01EFB114A1249CE
:10B580000346CDE901214FF0FF32802100920F48A0
:10B59000202201F069F803F00FFB01460C4800F08F
:10B5A000F1FE0C4B1A1D1A600B4AC3E902445A60A3
:10B5B00001221C611A7504B010BD00BF58AD071000
:10B5C0000000FFFF801A0600A0860100C0AD071032
:10B5D0003CAE0710A8AD07101000030007B52023EC
:10B5E0000122CDE90032002280231146044800F0F8
:10B5F00066FB034803B05DF804EB01F0FBBB00BF42
:10B60000C0AD0710F0B501252B4885B001F027F932
:10B610002C46FFF7E3FF284E284F012322462946F8
:10B62000304600F0BFFF304601F0E4FB40F29110DD
:10B6300002F032FB0A2003F091FA48BB4FF4FA60A3
:10B6400002F02AFB0A2003F089FA08BB304601F019
:10B6500006F9304601F0CEFBC8224FF496710E2059
:10B6600002F0FAFF4FF4967002F016FBFFF760FD50
:10B670003B7D0BB103233B7202220A213846FFF7C0
:10B680008DFD01A8394602F06BFF01A8FFF7C0FD50
:10B690000134E4B2202CC0D16B1CDDB21B0609D5ED
:10B6A0004FF4FA724FF42F710E2005B0BDE8F04050
:10B6B00002F0D2BF0124B0E7C0AD0710A8AD07105B
:10B6C000F0B5884C87B0D4E88F3FDB070AD420461A
:10B6D000FFF726FD30B1844B20461A78834B1A7051
:10B6E000FFF723FD01F06AFE2728814E814D824C31
:10B6F0003CD900F017F988B114224FF4FA610E20FA
:10B7000002F0AAFF0120FFF717FF784B1870012302
:10B71000337001F053FE00232860236000F02CF901
:10B7200088B114224FF47A710E2002F095FF0220A6
:10B73000FFF702FF6D4B18700123337001F03EFEDE
:10B7400000232860236000F041F9012840F0828046
:10B75000142240F6B8310E2002F07EFF0A20FFF7D7
:10B7600051FF01F02BFE002328602360FFF73CFE11
:10B7700090B1624F03F044F83A886149FFF73AFD0F
:10B7800003F03EF87A885F49FFF734FD03F038F89C
:10B79000BA885D49FFF72EFD152003F0DFF9024658
:10B7A000B0FA80F0594B40091870594B1978814212
:10B7B00006D01870002A73D11146642002F01EFDD5
:10B7C00001F0FCFD2B68534FC01AB0F5FA6F07D398
:10B7D00001F0F4FD01233B702368286001332360EE
:10B7E00033780BB93B786BB10023404D4A48337036
:10B7F0003B7001F034F82878002855D13F4B197878
:10B80000FFF752FD23683B2B22D9434801F027F86C
:10B81000414801F0EFFAC8224FF496710E2002F071
:10B820001BFF4FF4967002F037FAFFF781FC3B4B99
:10B830001A7D0AB103221A7202220A213748FFF741
:10B84000ADFC03A8354902F08BFE03A8FFF7E0FC2E
:10B8500007B0F0BD022889D12F4801F000F82E482A
:10B8600001F0C8FAC8224FF496710E2002F0F4FEDF
:10B870004FF4967002F010FAFFF75AFC274B1A7D2E
:10B880000AB103221A7202220A212448FFF786FC19
:10B8900003A8224902F064FE03A8FFF7B9FC65E79C
:10B8A00000221146104689E7012802D1134B9978EE
:10B8B000A6E7022802D1114B1979A1E703280AD182
:10B8C000174800F00BFEFCEEC07ACDED017A287827
:10B8D0009DF8041094E7042894D1114800F00CFE60
:10B8E000F1E700BF68AD07109AAD07109DAD0710D6
:10B8F000E8AC0710A4AD0710A0AD071034AE0710D8
:10B9000023F13F022CF13F0237F13F029BAD0710BC
:10B910009CAD0710E9AC0710C0AD0710A8AD07102B
:10B920003CAE071070B5124C124D2678012E0BD08C
:10B93000022E15D07EB90F2003F010F908B90123AB
:10B94000237000232B7006E00F2003F007F920B9C5
:10B9500002232E702370287870BD00232370F1E736
:10B960000F2003F0FBF80028EBD00023E8E700BF2E
:10B9700056AE071055AE071070B5124C124D267812
:10B98000012E0BD0022E15D07EB9102003F0E6F860
:10B9900008B90123237000232B7006E0102003F068
:10B9A000DDF820B902232E702370287870BD0023A3
:10B9B0002370F1E7102003F0D1F80028EBD000232A
:10B9C000E8E700BF58AE071057AE071070B51F4C20
:10B9D0001F4D2378032B18D8DFE803F0020B1C312E
:10B9E0000A2003F0BBF808B90123237000232B7051
:10B9F0000BE00A2003F0B2F8064640B90223237098
:10BA000001F0DCFC134B2E701860287870BD002309
:10BA10002370ECE70A2003F0A1F818B1002323708B
:10BA20000123E4E701F0CAFC0A4B1B68C01AB0F519
:10BA3000FA6FEAD302232B7003232370E5E70A2071
:10BA400003F08CF80028D1D00023CEE754AE0710C5
:10BA50004CAE071050AE07102DE9F04F1F4685B0D1
:10BA6000BDF93880A7EB010AA8EB0209B9F1000F74
:10BA7000B8BFC9F10009BAF1000FB8BFCAF1000A96
:10BA8000D14583460C461546BDF83C3004DD3A46A8
:10BA90002C4647460D469046BC4205DD2A464546A3
:10BAA000904622463C4617463E1BB2B20092A8EB97
:10BAB000050282EAE271A1EBE271C6F3C03202FA3A
:10BAC00086F64545B4BF01224FF0FF320191761052
:10BAD0000292BC421CDCDBF80020D145D2F8188071
:10BAE000C7BF294622462A46214603935846C047E7
:10BAF000019A039BB61AB1B236B2002E05DA029A49
:10BB00001544009A2DB2561836B2013424B2E0E73B
:10BB100005B0BDE8F08F704710B404682469A446EE
:10BB20005DF8044B604730B4BDF8085004680295D6
:10BB3000A46BA44630BC604730B4BDF8085004681C
:10BB40000295E46BA44630BC604770B4BDF90C505C
:10BB5000BDF810600468CDE90356246CA44670BC9F
:10BB600060472DE9F3411C46164605460F4603681B
:10BB7000013CBDF820805B693444984724B22B68AF
:10BB8000CDF80480009428469C6A32463B463946EC
:10BB9000A04728462B68DB6A02B0BDE8F041184791
:10BBA0002DE9F341174604461D460E460368BDF8CD
:10BBB00020805B699847CDE9007822686B1E33448A
:10BBC0002046956A31463A461BB2A847204623686C
:10BBD000DB6A02B0BDE8F04118472DE9F3471E4685
:10BBE00003680C465B6905461746BDF92890BDF809
:10BBF0002C8098472644B4422B680BDACDF800809D
:10BC00002146D3F820A03A464B4628460134D04777
:10BC100024B2F0E72846DB6A02B0BDE8F0471847D7
:10BC200013B50191B0F90E1002680091146C002256
:10BC3000B0F90C301146A04702B010BD2DE9F74312
:10BC40009942164680460D461C46BDF92870BDF83F
:10BC50002C90026812D1BE42C2BF33463E461F46F8
:10BC6000CDF828907B1C946B9B1B3246294640469E
:10BC7000A4461BB203B0BDE8F0436047BE420AD100
:10BC80009942C2BF0B4625461C46CDF82890631C3E
:10BC90005B1BD46BE9E753699847CDE90079D8F885
:10BCA000003040469F6A324623462946B847404600
:10BCB000D8F80030DB6A03B0BDE8F04318472DE93F
:10BCC000F34704460F4616461D460368BDF82C8010
:10BCD0005B69BDF9289098472368CDF8008032460B
:10BCE00039462046D3F824A02B46D047236809F1D3
:10BCF000FF32CDF80080324439462046D3F824A0E4
:10BD000012B22B46D0472368CDF800803246394620
:10BD10002046D3F820A04B46D0476B1ED919236884
:10BD2000CDF8008020461D6A32464B4609B2A8472E
:10BD300020462368DB6A02B0BDE8F0471847704729
:10BD400001F00303B0F90A208376B0F90830C9077F
:10BD500059BF8381C2818281C381704730B501811F
:10BD6000002481814FF0FF31054D4281C281054A97
:10BD70004460C0E90512056004610477046230BDC7
:10BD80004CF63F02010100012DE9F04F0026354637
:10BD900089B0CDE9021204930268BDF94C30BDF9B7
:10BDA0004880526905930446BDF850A0904718F1A9
:10BDB000070248BF08F10E024FEAE20B0196039B0F
:10BDC000019ABDF904109A18059B12B28B4227DD27
:10BDD0004FF00009049B334406930FFA89F0804525
:10BDE0001FFA89F117DD4F0705BF069BC0106D00D4
:10BDF0001D5C18BFEDB22B060AD5029B20681944C2
:10BE0000836907921F462046534609B2B847079AEE
:10BE100009F10109E1E7019B5E4401330193CEE79B
:10BE200020462368DB6A09B0BDE8F04F18470000E0
:10BE30002DE9F04F2DED028B91B016461F46026A98
:10BE4000BDF870308346BDF874809DF878509DF839
:10BE50007C4003910493002A40F0C580B0F90C3077
:10BE60008B4240F34C81B0F90E30B34240F347812E
:10BE7000062313FB0513002B40F3418106EBC4039B
:10BE8000002B40F33C81037F1BB9AF2F84BF0137E8
:10BE9000FFB2DBF8003058465B69984705220992EB
:10BEA00000220592984A07EB8703D3180C93B3B28C
:10BEB0000693059A0C9B02FB05F99B5C0793ABB2BA
:10BEC0000B93BDF80C300893039B19FA83F90FFA12
:10BED00089F308EE103A08234FF000090A93039BF8
:10BEE00002EB030A0FFA8AFA079ADBF80030D2074E
:10BEF00052D5012D1FFA89F23ED1012C3CD19B690C
:10BF000006991F46049B0A445146584612B2B84748
:10BF100009F101034FFA83F9079B5B0807930A9B1A
:10BF2000013B13F0FF030A93DED1059F01377BB27B
:10BF30000593099B013B13F0FF030993B9D1049BBF
:10BF400043450FD0012DDBF800303BD1012C39D116
:10BF50000899CDF8008005311C6A324608235846FE
:10BF600009B2A0475846DBF80030DB6A11B0BDECDF
:10BF7000028BBDE8F04F184714FB02F206990A4401
:10BF8000049901910094DB6918EE101A1F46584677
:10BF90002B4612B2B847BBE7049A4245B8D0012DF0
:10BFA0001FFA89F207D1012C05D19B6906991F461A
:10BFB0000A444346A8E714FB02F20699CDF8048030
:10BFC0000A44DFE70B9AE40002EB8201089ACDF8FD
:10BFD00004800A4411460094DC6932462B465846D8
:10BFE00009B2A047BEE7137A5168FF1A1268FFB280
:10BFF0000B9231F8372001EBC70306929A78012D96
:10C000000992DA7893F906A00C9293F905200A9226
:10C0100001D8012C57D9BDF9283008930FFA8AF3BB
:10C0200007934FF00008C1464746DBF800305846FA
:10C030005B699847B3B20E931AFA86F30F930C9B81
:10C040009F428FD2079B0E9A3B4403FB042300229E
:10C050001BB208EE103A434605920F9A02EB070A0C
:10C060000FFA8AFA099A0599914241D25A1CD2B222
:10C070005B070D9207D1069B06990B9A01339BB281
:10C0800012F80190069319F0800F12D0012DDBF801
:10C090000030BDF80C101AD1012C18D10A9A9B69F6
:10C0A0001144059A1E46114458465246049B09B253
:10C0B000B047059E4FEA49090136F3B205935FFA8E
:10C0C00089F90D9BCEE70023CDE90733A9E7059851
:10C0D000089A024402FB0511049A5846CDE9004231
:10C0E000DB6918EE102A1E4609B22B46B047E0E77E
:10C0F000099B013798445FFA88F8FFB29FE711B0B7
:10C10000BDEC028BBDE8F08F43F13F02F0B5026A4F
:10C1100004460B4685B0002A34D10A2908D1438A47
:10C120000282427E03EBC2036382012005B0F0BDB0
:10C130000D29FAD0E17E007E657E71B10621B4F949
:10C14000106011FB0061B4F90C60B142C1BFB4F9D9
:10C150001210228201EBC5026282E28ACDE9020559
:10C160000192A28A20460092B4F91010B4F912206C
:10C17000FFF75EFE237E228A03EB430302EB4303B9
:10C180002382D2E70A2907D100230382417E127B52
:10C19000438A01FB0233C7E70D29C6D0157AA942AD
:10C1A000C3D3917A9942C0D351685D1BEDB201EBC4
:10C1B000C505A87828B3E97819B3E17E267E677EA5
:10C1C00091B195F905100844B4F9101006FB00115F
:10C1D000B4F90C00814207DD00202082B4F912106E
:10C1E000127B02FB07126282E28A20460192A28A37
:10C1F000CDE902670092B4F91010B4F91220FFF7EC
:10C2000017FE2979227E238A01FB0233B8E7012930
:10C2100038BF0121017641767047426000220272E8
:10C2200020220170C260704710B5037A044653B1F2
:10C230002178606801F0FEFD606801F006FEB0FA4A
:10C2400080F0400910BD012100F003F80028EFD173
:10C25000F8E738B5044640680D4601F0B5FD012009
:10C26000207225B12046BDE83840FFF7DDBF38BD5C
:10C270002DE9F8431F46DDE90896C36815463244A8
:10C280009A420446884602D90020BDE8F883017826
:10C29000406801F0CFFD7EB960682A4603684146D8
:10C2A000DB6898478542EFD13946606801F0C9FDE7
:10C2B000B0FA80F04009E8E7B9F1000FECD060680F
:10C2C000324603684946DB6898478642DCD1E3E79B
:10C2D0002DE9F041154604460E46D2B20178406879
:10C2E00001F093FD85420DD100271FFA87F8A8457C
:10C2F00007F1010709D2606803685B69984706F88F
:10C300000800F2E70020BDE8F0810120FBE72DE9FD
:10C31000F84307468846164699460025B54212D28C
:10C32000FA68741B944228BF1446331BAB4294BF77
:10C330004B4600232246384608EB0501FFF7C8FFAD
:10C3400010B12544EAE70120BDE8F883037808220C
:10C35000DB43DBB213F0800F4FEA430301D083F0DD
:10C360003103013ADBB2F5D140785840082310F090
:10C37000800F4FEA400001D080F03100013BC0B295
:10C38000F5D170470022C0E90212024A0260426001
:10C39000704700BF0000C07F1FB50B0A8DF80C303E
:10C3A0000023CDE900338DF80D100123022203A9EB
:10C3B000C068FFF75DFF05B05DF804FB13B50446E8
:10C3C0004FF22D31FFF7E8FF01230322E06801A9B6
:10C3D000FFF79DFFBDF8040040BA80B202B010BD67
:10C3E00008B543F2A201FFF7D7FFBDE808400A20D5
:10C3F00001F052BC70B50446C0680E4610B1102161
:10C40000FEF77FFE1020FEF778FE054618B1314694
:10C41000A268FFF702FF01212846E560FFF719FF38
:10C4200050B12046FFF7DCFF2046FFF7C7FF4FF66D
:10C43000FF73C01A18BF012070BD000037B54FF45C
:10C4400010510446FFF7A8FF014600283ED01420F3
:10C4500001F022FC694601230622E068FFF757FF3E
:10C46000014698B36846FFF771FF9DF80250854278
:10C470002FD10DF10300FFF769FF9DF805508542AC
:10C4800027D141F21712BDF800309FED137A5BBA45
:10C490009BB253439B13A3F58C53143B07EE903A86
:10C4A00040F27122F8EEE77ABDF80330C7EE876AF2
:10C4B0005BBA9BB253431B0B07EE903AF8EEE77A58
:10C4C000C4ED016AC7EE876AC4ED006A084603B08E
:10C4D00030BD0021FAE700BF0000C84210B5044695
:10C4E000FFF7ACFF10B194ED010A10BD9FED010AFA
:10C4F000FBE700BF0000C07F10B50446FFF79EFFBA
:10C5000010B194ED000A10BD9FED010AFBE700BFDA
:10C510000000C07F704710B504461021FEF7F1FD02
:10C52000204610BD73B5044622790846A36832B18F
:10C53000A3B90B4902B0BDE8704001F0E3BD094A60
:10C54000267B094D0949647B012E18BF2946CDE998
:10C5500000140749FEF74EFE02B070BD054AEFE732
:10C56000ADF63F0242F13F02A9F63F02A5F63F02B7
:10C57000C3F63F029CF63F0210B5044B044603602D
:10C58000C06A08B101F042FB204610BD9CFB3F028F
:10C5900010B50446FFF7F0FF20467421FEF7B1FD09
:10C5A000204610BD002910B54BDBB0F90C408C4281
:10C5B00047DD002A45DBB0F90E40944241DD847E20
:10C5C000022C1FD0032C26D0012C04D1D243048985
:10C5D00014440A4621B2012B23D0022B32D083BB54
:10C5E0001346002A0489B8BFD31DDB1013FB0411C6
:10C5F0000123C06A02F007029340425C22EA030270
:10C6000042541EE0D2430489013C611A448909B2B4
:10C61000224412B2DFE74489013C641A114622B277
:10C62000D9E71346002A0489B8BFD31DDB1013FBDA
:10C630000411C36A02F0070001228240585C0243E1
:10C640005A5410BD1346002A0489B8BFD31DDB100D
:10C6500013FB04110123C06A02F0070203FA02F27D
:10C66000435C5A40CCE7000070B504461D460026E6
:10C67000FFF774FB114B6662236015B902F09CFA58
:10C680000546FF2384F8333084F836309DF91030A6
:10C690004FF6FF7284F83730059B2046A365069B52
:10C6A000C4E90A56E365064BA28663660123E66683
:10C6B00084F86830A4F8706070BD00BF9CFB3F0236
:10C6C000E8F63F0270B50446806A0D4690B194F9D1
:10C6D000301001F0B3FBA06A002103689B68984703
:10C6E000A06A294603689B689847A06ABDE8704025
:10C6F00001F0ABBB226C206D136823EA00031360CA
:10C70000606A18B1BDE8704001F03EBE0822802189
:10C71000A36BA66C18680D4214BF3043B043186079
:10C72000E06BE66C0368013A43EA06030360E06BE2
:10C73000E66C03684FEA510123EA06030360E7D180
:10C7400070BD38B50446806A0D4680B1A16D01F018
:10C7500037FB002D204614BFA721A621FFF7B2FF0B
:10C76000A06A88B1E16DBDE8384001F029BB606A7C
:10C7700018B104F1640101F099FD626C616D1368F8
:10C7800023EA01031360E4E7626C616D13680B43F5
:10C790001360606A18B1BDE8384001F06DBD38BD66
:10C7A000F8B50446806A0D468F1840B394F93010EE
:10C7B00001F044FBA06A0021036801269B689847AA
:10C7C000BD42A06A17D01F2E0CD901F03EFB94F990
:10C7D0003010A06A01F032FBA06A00210368012634
:10C7E0009B689847A06A15F8011B036801369B688F
:10C7F0009847B6B2E4E7BDE8F84001F026BB226CEA
:10C80000216D136823EA01031360BD4226D0606ADC
:10C8100015F8011B10B101F0B7FDF6E74FF0080E57
:10C820008020A36BD4F848C01E68014214BF46EABA
:10C830000C0626EA0C061E60E66BE26C3368BEF15D
:10C84000010E43EA02033360E66BE26C33684FEAA1
:10C85000500023EA02033360E3D1D6E7F8BDB0F914
:10C860000A300021DA1D48BF03F10E02B0F908308A
:10C87000D2105A43C06A02F098BA00002DE9FF4175
:10C880001E46C36A04460F4615469DF82880C3B16C
:10C890002046FFF7E4FFB4F90A00B4F90810202895
:10C8A00021DC20230122CDE901327323203800EB63
:10C8B000D0707339009301EBD171B84B40F34F0244
:10C8C00021E0B0F90A30D81D48BF03F10E00B4F9D9
:10C8D0000830C010584301F08BF9E0620028D7D12E
:10C8E00004B0BDE8F0814038C0F3C032402302FA02
:10C8F00080F20120CDE90130522352390093A84B38
:10C9000001EBD1715210204641F34F01FFF73CFA81
:10C91000A06A84F83170002800F09A80002D40F061
:10C920009580B4F90A30202B0CBF3C253D2584F8B6
:10C930003050B8F1000F01D001F046FAFEB194F981
:10C94000370000281BDB012180B202F0DDF894F9EA
:10C950003700012180B202F0E8F8012001F09CF9D3
:10C9600094F93700002180B202F0DFF80A2001F0CC
:10C9700093F994F93700012180B202F0D6F8A06A49
:10C98000002800F0E580A16D01F01AFA042220468B
:10C990008449FFF705FF618920460139C9B2FFF7D5
:10C9A00091FE814904222046FFF7FAFE94F93130C6
:10C9B0002046012B0CBF10211421FFF783FE042217
:10C9C00020467A49FFF7ECFE8F23794A84F86030DD
:10C9D000A368934200F0D48002F50012934240F025
:10C9E000C48094F931301225012B0CBF9F23CF2333
:10C9F00084F86030DA212046FFF764FE294620469D
:10CA0000FFF760FE81212046FFF75CFE204694F888
:10CA10006010FFF757FED9212046FFF753FE94F927
:10CA200031302046012B0CBF2221F121FFF74AFEB5
:10CA3000204606225F49FFF7B3FEA06A002800F0F7
:10CA4000A180E16D01F0BCF9012049E76DB26EE70C
:10CA500094F93500012180B202F056F894F93600BD
:10CA6000012180B202F050F800F0B6FC94F93530A4
:10CA7000514D03EB430310F8233055F82330236462
:10CA800000F0AAFC94F9353003EB430300EB830379
:10CA90005B78236500F0A0FC94F9363003EB430388
:10CAA00010F8233055F82330636400F095FC94F9B6
:10CAB0003630626C03EB430300EB83035B78636502
:10CAC00011680B431360606A30B1B8F1000F3FF496
:10CAD00035AF01F0BDFB31E794F93300012180B29D
:10CAE00002F012F894F93400012180B202F00CF83F
:10CAF00000F072FC94F9333003EB430310F8233059
:10CB000055F82330A36300F067FC94F9333003EB4E
:10CB1000430300EB83035B78A36400F05DFC94F9AE
:10CB2000343003EB430310F8233055F82330E3632C
:10CB300000F052FC94F93430E26B03EB430300EB5A
:10CB400083035978E164136823EA01031360F5E66F
:10CB5000606A18B104F1640101F0A8FB626C616DB8
:10CB6000136823EA0103136010E7144A934207D1C4
:10CB700094F93130012B0CBF1023AF2384F86030BF
:10CB8000022537E7626C616D13680B431360606ABE
:10CB900000283FF459AF01F06FFB55E7B4F93F02AD
:10CBA000F4F63F02FCFB3F0200FC3F0204FC3F02A4
:10CBB0008000200008FC3F0224001C1060001000D0
:10CBC00070B5002ABDF810503FDBB0F90A4094421E
:10CBD0003BDD0029BEBF5B1800211BB2B0F9084045
:10CBE000CE18A642C4BF631A1BB2002B2DDDD6108F
:10CBF00014FB0611C06A012D014402F007004FF03A
:10CC0000010202FA00F2D2B216D0022D0BD0E5B921
:10CC1000D2430B44D2B2994217D011F8010B104005
:10CC200001F8010CF7E70B4499420ED011F8010B03
:10CC3000504001F8010CF7E70B44994205D011F878
:10CC4000010B104301F8010CF7E770BDF0B50029A6
:10CC5000BDF8145077DBB0F90860B14273DA002AEE
:10CC6000BEBF9B1800221BB2B0F90A40D718A742DA
:10CC7000C4BFA31A1BB2002B65DDC2F3C40416FBAC
:10CC80000416C76A12F00702DBB207EB060424D0D1
:10CC9000C2F10802D2B2934238BF4FF0FF0C2C49C8
:10CCA00038BFA2EB030E895C3CBF4CFA0EFC0CEAC9
:10CCB0000101012D07D0022D2ED04DB917F806C065
:10CCC0002CEA010103E017F806C041EA0C01B9554E
:10CCD000934238D3B0F908100C449A1AD2B2072AFA
:10CCE0000ED9022D1DD113462178083BC94321706E
:10CCF000B0F90810DBB2072B0C44F5D802F007029C
:10CD00000AB3144B012D9B5C1AD0022D1CD0D5B94F
:10CD1000227822EA030315E017F806C081EA0C0125
:10CD2000D5E7291E18BF012113464942C9B2217017
:10CD3000083BB0F90860DBB2072B3444F7D8DDE7D5
:10CD4000227813432370F0BD22785340FAE700BFE6
:10CD5000ECFB3F02F4FB3F0270B41446827EBDF848
:10CD60000C60022A0DD0032A18D0012A11D1E44305
:10CD70000289144424B20A460396214670BCFFF788
:10CD800065BFE4434289058919441444691A24B2F1
:10CD900009B22246039670BCFFF712BF45891944B9
:10CDA000691A09B2E7E730B41446827EBDF808502C
:10CDB000022A0DD0032A18D0012A11D1E2180489C1
:10CDC000A41A24B20A460295214630BCFFF7F8BEE9
:10CDD000C94302891144E218448909B2A41A24B251
:10CDE0002246029530BCFFF731BFC9434289114446
:10CDF00009B2E7E7F8B50446806A002842D0A16D81
:10CE000000F0DEFF052220464749FFF7C9FC2189D3
:10CE100020460139C9B2FFF755FCD4E90A05B4F937
:10CE20000A30DE1D48BF03F10E062389F61013FBFE
:10CE300006F615FA86F600283BD094F9301000F07B
:10CE4000FDFFA06A4021036801279B689847AE4216
:10CE5000A06A24D01F2F0CD900F0F7FF94F93010EE
:10CE6000A06A00F0EBFFA06A4021036801279B68DD
:10CE70009847A06A15F8011B036801379B6898471B
:10CE8000BFB2E4E7606A18B104F1640101F00EFA80
:10CE9000626C616D136823EA01031360B2E700F06E
:10CEA000D4FFA06A002832D0E16DBDE8F84000F060
:10CEB00087BF226C216D13680B431360B542F0D01D
:10CEC000606A15F8011B10B101F05EFAF6E74FF049
:10CED000080E8020A36BD4F848C01F68014214BF1D
:10CEE00047EA0C0727EA0C071F60E76BE26C3B6818
:10CEF000BEF1010E43EA02033B60E76BE26C3B6864
:10CF00004FEA500023EA02033B60E3D1D6E7626CAC
:10CF1000616D13680B431360606A18B1BDE8F84097
:10CF200001F0AAB9F8BD00BF0EFC3F0238B50446B7
:10CF3000806A0D4698B1A16D00F042FF8121204624
:10CF4000FFF7C0FBC5B994F860102046FFF7BAFBA5
:10CF5000A06A98B1E16DBDE8384000F031BF606A69
:10CF600018B104F1640101F0A1F9626C616D1368FC
:10CF700023EA01031360E1E70021E6E7626C616DDB
:10CF800013680B431360606A18B1BDE8384001F0C4
:10CF900073B938BD13B50A4CD4E88F1F11F00101E5
:10CFA0000BD120460191FEF7BBF8019928B1054845
:10CFB00001F044F92046FEF7B8F8024802B010BD6F
:10CFC0005CAE071060AE071013B503688DF804104F
:10CFD0001C68012301A91A46A0479DF8040002B06D
:10CFE00010BD0021FFF7F0BF70B506460C46154690
:10CFF0002AB9BDE870400368C9B29B681847002988
:10D000000BDA0A2A09D12D2101F080F8614230465D
:10D01000EAB2BDE8704001F092B82146F7E700009F
:10D0200038B5044601F0ECFB144901F07EF8A06924
:10D03000E16800F003FFA06900F007FF20B101F0F4
:10D04000DFFB0F4901F071F82046FFF7CAFF0546E4
:10D0500001F0D6FB0B4901F055F801F0D1FB044675
:10D0600029461022FFF7C0FF204601F052F801F0D8
:10D07000C7FBBDE83840044901F057B813FC3F0234
:10D0800031FC3F0259FC3F0282FC3F022DE9F04196
:10D090000C4617461E46054601F0B2FB324901F028
:10D0A00031F801F0ADFB1022217801F048F801F0D1
:10D0B000A7FB2E4901F026F801F0A2FB0A2239460F
:10D0C00001F03DF801F09CFB294901F01BF801F04B
:10D0D00097FB0A22314601F032F801F091FB254915
:10D0E00001F010F8E968A86900F0A8FEA0462744FE
:10D0F000B845A86905D0036818F8011B9B689847D4
:10D10000F6E700F0A2FE20B101F07AFB1A4901F027
:10D110000CF80EB33246297BA86900F088FEDFF8D0
:10D1200060802644A86903681B699847A0B1B4428F
:10D1300012D0A86903685B699847074604F8010B99
:10D1400001F05EFB414600F0DDFF01F059FB1022CB
:10D15000F9B2FFF749FFE5E701F052FB074900F09C
:10D16000E4FF0020BDE8F081A4FC3F02B5FC3F02D3
:10D17000BBFC3F02C1FC3F02C4FC3F0242F13F0244
:10D18000A3F63F0210B5044601F03AFB0D4900F04A
:10D19000CCFFFFF7FFFE01F05BF8206900280ADBF7
:10D1A000012180B201F0B0FC01F02AFBBDE8104083
:10D1B000054900F0BABF01F023FB044900F0B5FFB8
:10D1C000F2E700BFE3FC3F0244FD3F0201FD3F02E6
:10D1D00090F91430012B02D0022B02D07047FFF7D8
:10D1E0001FBFFFF7CFBF00002DE9F3410C461646E5
:10D1F0001D46074601F004FB354900F083FF01F0AE
:10D20000FFFA1022214600F09AFF01F0F9FA3149A5
:10D2100000F078FF01F0F4FA1022217800F08FFF7F
:10D2200001F0EEFA2C4900F06DFF01F0E9FA0A2254
:10D23000314600F084FF01F0E3FA274900F062FF75
:10D2400001F0DEFA0A22294600F079FF01F0D8FA4F
:10D25000224900F057FF3869002803DB002180B223
:10D2600001F063FCA0462644464518D1DFF87480DF
:10D270002544AC421CD0FFF78DFE002101F084F85C
:10D28000064604F8010B01F0BBFA414600F03AFFF4
:10D2900001F0B6FA10223146FFF7A6FEE9E718F8CA
:10D2A000011B0191FFF776FE019901F06DF8DBE7B4
:10D2B0003869002803DB012180B201F036FC01F05F
:10D2C0009FFA074900F031FF002002B0BDE8F0816D
:10D2D00066FD3F02BFFC3F0280FD3F02C1FC3F02F2
:10D2E00042F13F02A3F63F02F0B490F914C00546A4
:10D2F000BCF1010F0C4617461E4605D0BCF1020FCB
:10D3000005D0F0BC00207047F0BCFFF7BFBE1BB1DA
:10D310000B7863F07F030B7033463A46214628466C
:10D32000F0BCFFF761BF0000044B054A1A604FF0E4
:10D33000FF32C3E902221A61704700BF68AE0710CE
:10D340008CFD3F0270470020704710B40468A46849
:10D35000A4465DF8044B6047014B024A1A607047CF
:10D3600084AE0710A0FD3F0209B504480068044BD5
:10D3700003441B685B6C029309BD0000E4AC07101A
:10D380003000000009B504480068044B03441B68E2
:10D390005B68029309BD0000E4AC071000000000C8
:10D3A00009B504480068044B03441B68DB6802931A
:10D3B00009BD0000E4AC07100000000009B50448F6
:10D3C0000068044B03441B685B69029309BD0000BD
:10D3D000E4AC07100000000009B504480068044BE5
:10D3E00003441B681B68029309BD0000E4AC0710EE
:10D3F0001400000009B504480068044B03441B688E
:10D400005B68029309BD0000E4AC07101400000043
:10D4100009B504480068044B03441B689B680293E9
:10D4200009BD0000E4AC07101400000009B5044871
:10D430000068044B03441B68DB68029309BD0000CD
:10D44000E4AC07101400000009B504480068044B60
:10D4500003441B681B69029309BD0000E4AC07107C
:10D460001400000009B504480068044B03441B681D
:10D470005B69029309BD0000E4AC071014000000D2
:10D4800009B504480068044B03441B681B680293F9
:10D4900009BD0000E4AC07101000000009B5044805
:10D4A0000068044B03441B68DB68029309BD00005D
:10D4B000E4AC07101000000009B504480068044BF4
:10D4C00003441B681B69029309BD0000E4AC07100C
:10D4D0001000000009B504480068044B03441B68B1
:10D4E0009B69029309BD0000E4AC07101000000026
:10D4F00009B504480068044B03441B68DB690293C8
:10D5000009BD0000E4AC07101000000009B5044894
:10D510000068044B03441B681B6A029309BD0000AA
:10D52000E4AC07101000000009B504480068044B83
:10D5300003441B685B6A029309BD0000E4AC07105A
:10D540001000000009B504480068044B03441B6840
:10D550009B6A029309BD0000E4AC071010000000B4
:10D5600009B504480068044B03441B68DB6A029356
:10D5700009BD0000E4AC07101000000009B5044824
:10D580000068044B03441B681B6B029309BD000039
:10D59000E4AC07101000000009B504480068044B13
:10D5A00003441B685B6B029309BD0000E4AC0710E9
:10D5B0001000000009B504480068044B03441B68D0
:10D5C0001B6C029309BD0000E4AC071010000000C2
:10D5D00009B504480068044B03441B681B6D0293A3
:10D5E00009BD0000E4AC07101000000009B50448B4
:10D5F0000068044B03441B685B69029309BD00008B
:10D60000E4AC07104C00000009B504480068044B66
:10D6100003441B689B68029309BD0000E4AC07103B
:10D620005000000009B504480068044B03441B681F
:10D63000DB68029309BD0000E4AC07105000000055
:10D6400009B504480068044B03441B681B68029337
:10D6500009BD0000E4AC07100C00000009B5044847
:10D660000068044B03441B681B68029309BD00005B
:10D67000E4AC07101800000009B504480068044B2A
:10D6800003441B685B69029309BD0000E4AC07100A
:10D690001800000009B504480068044B03441B68E7
:10D6A000DB69029309BD0000E4AC0710180000001C
:10D6B00009B504480068044B03441B681B6A0293C5
:10D6C00009BD0000E4AC07101800000009B50448CB
:10D6D0000068044B03441B685B6A029309BD0000A9
:10D6E000E4AC07101800000009B504480068044BBA
:10D6F00003441B68DB6B029309BD0000E4AC071018
:10D700001800000009B504480068044B03441B6876
:10D710001B6C029309BD0000E4AC07101800000068
:10D7200009B504480068044B03441B685B6C029312
:10D7300009BD0000E4AC07101800000009B504485A
:10D740000068044B03441B68DB68029309BD0000BA
:10D75000E4AC07102400000009B504480068044B3D
:10D7600003441B681B69029309BD0000E4AC071069
:10D770002400000009B504480068044B03441B68FA
:10D780005B69029309BD0000E4AC071024000000AF
:10D7900009B504480068044B03441B689B69029365
:10D7A00009BD0000E4AC07102400000009B50448DE
:10D7B0000068044B03441B68DB69029309BD000049
:10D7C000E4AC07102400000009B504480068044BCD
:10D7D00003441B681B6A029309BD0000E4AC0710F8
:10D7E0002400000009B504480068044B03441B688A
:10D7F0009B6A029309BD0000E4AC071024000000FE
:10D8000009B504480068044B03441B68DB6A0293B3
:10D8100009BD0000E4AC07102400000009B504486D
:10D820000068044B03441B681B6C029309BD000095
:10D83000E4AC07102400000009B504480068044B5C
:10D8400003441B681B68029309BD0000E4AC071089
:10D850003400000009B504480068044B03441B6809
:10D860005B68029309BD0000E4AC071034000000BF
:10D8700009B504480068044B03441B689B68029385
:10D8800009BD0000E4AC07103400000009B50448ED
:10D890000068044B03441B681B69029309BD000028
:10D8A000E4AC07103400000009B504480068044BDC
:10D8B00003441B685B69029309BD0000E4AC0710D8
:10D8C0003400000009B504480068044B03441B6899
:10D8D0009B69029309BD0000E4AC0710340000000E
:10D8E00009B504480068044B03441B68DB690293D4
:10D8F00009BD0000E4AC07103400000009B504487D
:10D900000068044B03441B681B6A029309BD0000B6
:10D91000E4AC07103400000009B504480068044B6B
:10D9200003441B685B68029309BD0000E4AC071068
:10D930004800000009B504480068044B03441B6814
:10D940009B68029309BD0000E4AC0710480000008A
:10D9500009B504480068044B03441B68DB68029364
:10D9600009BD0000E4AC07104800000009B50448F8
:10D970000068044B03441B689B69029309BD0000C7
:10D98000E4AC07104800000009B504480068044BE7
:10D9900003441B68DB69029309BD0000E4AC071077
:10D9A0004800000009B504480068044B03441B68A4
:10D9B0005B6B029309BD0000E4AC07104800000057
:10D9C00009B504480068044B03441B681B6D0293AF
:10D9D00009BD0000E4AC07104800000009B5044888
:10D9E0000068044B03441B685B68029309BD000098
:10D9F000E4AC07100800000009B504480068044BB7
:10DA000003441B685B69029309BD0000E4AC071086
:10DA10000800000009B504480068044B03441B6873
:10DA2000D3F88830029309BDE4AC07100800000069
:10DA300009B504480068044B03441B68D3F89430CC
:10DA4000029309BDE4AC07100800000009B50448C2
:10DA50000068044B03441B68D3F89830029309BD57
:10DA6000E4AC07100800000009B504480068044B46
:10DA700003441B68D3F8A830029309BDE4AC071037
:10DA80000800000009B504480068044B03441B6803
:10DA9000DB6B029309BD0000E4AC07102C00000012
:10DAA00009B504480068044B03441B685B68029393
:10DAB00009BD0000E4AC07102800000009B50448C7
:10DAC0000068044B03441B689B68029309BD000077
:10DAD000E4AC07102800000009B504480068044BB6
:10DAE00003441B68DB68029309BD0000E4AC071027
:10DAF0002800000009B504480068044B03441B6873
:10DB00001B69029309BD0000E4AC07102800000067
:10DB100009B504480068044B03441B685B69029321
:10DB200009BD0000E4AC07102800000009B5044856
:10DB30000068044B03441B689B69029309BD000005
:10DB4000E4AC07102800000009B504480068044B45
:10DB500003441B68DB69029309BD0000E4AC0710B5
:10DB60002800000009B504480068044B03441B6802
:10DB70001B6A029309BD0000E4AC071028000000F6
:10DB800009B504480068044B03441B681B6B0293EF
:10DB900009BD0000E4AC07102800000009B50448E6
:10DBA0000068044B03441B685B6B029309BD0000D3
:10DBB000E4AC07102800000009B504480068044BD5
:10DBC00003441B681B6C029309BD0000E4AC071002
:10DBD0002800000009B504480068044B03441B6892
:10DBE0005B6C029309BD0000E4AC07102800000044
:10DBF00009B504480068044B03441B681B68029382
:10DC000009BD0000E4AC07100400000009B5044899
:10DC10000068044B03441B685B68029309BD000065
:10DC2000E4AC07100400000009B504480068044B88
:10DC300003441B689B68029309BD0000E4AC071015
:10DC40000400000009B504480068044B03441B6845
:10DC50005B6A029309BD0000E4AC071004000000F9
:10DC600009B504480068044B03441B681B6C02930D
:10DC700009BD0000E4AC07100400000009B5044829
:10DC80000068044B03441B685B6C029309BD0000F1
:10DC9000E4AC0710040000000021FFF7ADBE000057
:10DCA000002302480360FFF75FBB00BF8CAE071084
:10DCB000002240681146FFF755BF00224068114618
:10DCC000FFF76CBF00224068FFF75ABF0022406890
:10DCD00081F00101FFF738BF002340681A4619465A
:10DCE000FFF724BF002340681A461946FFF710BF0C
:10DCF000002240681146FFF7FDBE00224068114631
:10DD0000FFF7DCBE002202214068FFF7E5BE0023DA
:10DD100040681A46FFF7C4BE0322024B5A60024A0B
:10DD20001A60704790AE0710B4FD3F027047F8B517
:10DD3000064615460C468F18BC4206D0336830465E
:10DD40009B6814F8011B9847F6E72846F8BD0022A7
:10DD5000007CFFF7DBBB0021007CFFF7E5BB002167
:10DD6000007CFFF7EFBB0021007CFFF7F9BB00212F
:10DD7000007CFFF703BC10B504461421FDF7C1F980
:10DD8000204610BD38B5044615464FF47A7300227C
:10DD9000C4E90123094B0846217423602946FFF793
:10DDA00009FCBF3008D16B69DB0705D56868FFF750
:10DDB0002DFFE868FFF72AFF204638BDF0FD3F023F
:10DDC0000022007CFFF75CBB0023007C1A4619464A
:10DDD000FFF764BB0021007CFFF76EBB7FB500221C
:10DDE0001423CDE90122ADF804300B78007C8DF8C6
:10DDF00008304B680393CB6804930B7A01A9059311
:10DE0000FFF7E6FB07B05DF804FB1FB5003B8DF89C
:10DE100000104FF0640118BF01230391694601927D
:10DE20008DF80830FFF7DAFF05B05DF804FB012339
:10DE3000FFF7EBBF0022007CFFF74CBBC9B2FFF736
:10DE4000F9BF0022007CFFF753BB0121FFF7F9BFA8
:10DE5000704710B504461821FDF753F9204610BD50
:10DE6000F0B5037D0E46062B4FF000048DB000F197
:10DE7000040712D000F1080515F8011D0A223046EA
:10DE800000F05DF9AF42044419D0002CF4D02E21EB
:10DE9000304600F03BF90444EEE72F236A4639464A
:10DEA0000A208DF80040FFF7A1FB6846FDF700F956
:10DEB0003368024669463046DB6898470446204688
:10DEC0000DB0F0BD10B50446044B1122002140F8FE
:10DED000043B00F06AFF204610BD00BF18FE3F0261
:10DEE0000346074A10B543F8042B01F1100251F81C
:10DEF000044B914243F8044BF9D10A781A7010BDD3
:10DF000018FE3F0210B59DF8084044EA032343EA97
:10DF10000242042342EA01614160037510BD000022
:10DF200007B5064B0360CB7800938B784A78097865
:10DF3000FFF7E8FF03B05DF804FB00BF18FE3F02E7
:10DF4000014B024A1A60704798AE071024FE3F0248
:10DF5000002340681A46FFF7A3BD00220221406853
:10DF6000FFF7BABD002240681146FFF7A7BD0022A7
:10DF700040681146FFF7BEBD002340681A461946A7
:10DF8000FFF7C6BD002340681A461946FFF7CEBD0D
:10DF900000214068FFF710BE00214068FFF71ABE5D
:10DFA0000022406881F00101FFF7CEBD00224068E9
:10DFB000FFF7E6BD002240681146FFF7EFBD0022E3
:10DFC00040681146FFF7CEBD2DE9F04395B01446E9
:10DFD0000D460746FFF776FF00211C220DA8009191
:10DFE00000F0E3FE402320460C9300216B460CAA70
:10DFF000FFF718FB044600284BD102460121686850
:10E00000FFF778FD0221804622466868FFF772FD1F
:10E0100021468146009E002E3BD0002939D17368ED
:10E02000022B03D00A2B11D0F669F4E7B8F1000FE8
:10E03000FAD0716906A804313C1D07ADFFF770FFE7
:10E040000FCD0FC42B6841462370EDE7B9F1000FE7
:10E05000EAD0102201A8746900F0A7FE062301ADE2
:10E060008DF8143004F1080318342A4618685968EA
:10E07000083303C2A3421546F7D101A906A83C1DE7
:10E0800007ADFFF72DFF0FCD0FC42B684946237056
:10E09000CAE70098FFF7B8FA384615B0BDE8F08334
:10E0A000024B034A1A6000225A6070479CAE071068
:10E0B00030FE3F02F8B506460D4600248F18BD42DB
:10E0C0000CD0336830469B6815F8011B9847031E37
:10E0D00001DB1C44F3E7002C08BF1C462046F8BDBA
:10E0E00013B50446084659B10191FCF7E1FF024619
:10E0F000204623680199DB6802B0BDE8104018474C
:10E1000002B010BD08B5FFF7EBFF08BD03689B68C0
:10E11000184738B50D210546FFF7F8FF0A210446D8
:10E120002846FFF7F3FF204438BD38B50546FFF712
:10E13000D7FF04462846FFF7ECFF204438BD0023F4
:10E14000012A98BF0A2230B58BB08DF8243009AC73
:10E150000D46B1FBF2F101FB125303F0FF03092B53
:10E1600094BF30333733DBB2AA4204F8013DEFD914
:10E170002146FFF7B5FF0BB030BD2DE9F04186B069
:10E1800000AF05460E46381D142114463B60FFF7CC
:10E1900059FD13280ED82846391DFFF7A1FF044664
:10E1A0001EB12846FFF7B5FF044420461837BD4688
:10E1B000BDE8F08100F1080323F00703E846ADEB6A
:10E1C000030D2246411C3B686846FFF73BFD69464C
:10E1D0002846FFF785FF0446C546E1E710B504462B
:10E1E000FFF7C4FB844208D01CB1BDE81040FFF724
:10E1F000A1BBBDE81040FFF7ABBB10BD70B5054635
:10E200000E461446FFF7B2FB50B144EA062444EA36
:10E210000540FFF781FBBDE87040E720FFF7B4BB86
:10E2200070BD00000022014B9A607047A4AE071039
:10E230000021FFF775BA0021FFF764BA10B5044654
:10E2400008462170FFF726FA00232046636010BDC0
:10E2500013B504460078FFF7EEFF58B920784FF663
:10E26000FF710190FFF7FAF9019802B0BDE8104084
:10E27000FFF7DEBF02B010BD0078FFF7D9BF000086
:10E2800030B50024400818601868E5B2884206D905
:10E290000134082C02D040081860F5E70725024B2E
:10E2A0005B5D137030BD00BF64FE3F022DE9F0439B
:10E2B00006468FB000780C46FFF7BDFF00281BDB39
:10E2C0001422002109A8357800F06FFD0B230022ED
:10E2D000284609A9ADF82430FFF7F8F99DF82D304C
:10E2E00013B19DF82C5055B100270125B946B84609
:10E2F00023795DB1C3B100200FB0BDE8F083DDF834
:10E3000030809DF834909DF83570F1E7002B35D1C1
:10E31000A368434508D18DF820908DF82170BDF891
:10E320002020A3899A42E6D00023A1688DF80F30FF
:10E330000A9804AB0DF10F02FFF7A2FF217985B90E
:10E3400089B9A36843450ED38DF820908DF82170CC
:10E35000BDF82020A3899A4205D1049B434502D1F0
:10E36000C9E70029F9D100230193637B9DF80F20B1
:10E370000093237B3078FFF7B7F9BCE72B462A469A
:10E380000121CDE90055F5E708B50078FFF774F9EC
:10E39000C0B208BD10B504460068FFF737FC204640
:10E3A00010BD10B50446006808B1FFF72FFC00232C
:10E3B000C4E90133236010BD38B504460D4600683A
:10E3C0000131FFF731FC10B1C4E90005012038BD6F
:10E3D00010B50368044623B143688B4201D3012082
:10E3E00010BD2046FFF7E8FF0028F9D0A368002BF6
:10E3F000F5D122681370F2E737B50D461146019248
:10E400000446FFF7E5FF019A28B92046FFF7C9FF48
:10E41000204603B030BD2946A260206800F0B8FC59
:10E4200000212268A368D154F2E7002313B5044603
:10E43000C0E900338360037341B108460191FCF7E2
:10E4400037FE019902462046FFF7D6FF204602B06C
:10E4500010BD884210B5044605D00B682BB18A6800
:10E460001946FFF7C9FF204610BDFFF79AFFFAE7EC
:10E47000002310B50446C0E9003383600373FFF73F
:10E48000E8FF204610BD13B5044659B10846019176
:10E49000FCF70EFE019902462046FFF7ADFF20462D
:10E4A00002B010BDFFF77DFFF9E71FB5044600235A
:10E4B0000846C4E90033A360237301A900F038FAC9
:10E4C000204601A9FFF7DFFF204604B010BD70B55C
:10E4D00005460E4609B9002070BD6AB1846814442F
:10E4E0002146FFF775FF0028F5D02868AB68314654
:10E4F000184400F091FCAC600120EDE710B58A688B
:10E5000009680446FFF7E3FF10B92046FFF749FF0B
:10E51000204610BD38B50C460546FCF779FE54B1CF
:10E520002088FFF765FB286028B121462288BDE8D6
:10E53000384000F02DBC38BD38B50C46B1F9043078
:10E5400005468380D1F80630C0F806304B894381F8
:10E55000FCF75EFE236813B12B600023236038BDF7
:10E56000F0B52B4D0B7D04468BB00846AF1D002B3C
:10E5700036D00B681B79002B32D00022254B02A924
:10E5800004300493CDE90222FFF76EFADDF80E3075
:10E5900000B2C5F80630BDF81230ADF80C00A88006
:10E5A00002992846BB80FFF7B5FF02A8FCF730FEB2
:10E5B00000232360A380A37123814FF6FF7363813F
:10E5C000B5F904302046A380D5F806302968C4F890
:10E5D0000630BB886381FFF79DFF20460BB0F0BD7E
:10E5E00000262023CDE902360B4B02AA00933220ED
:10E5F00033460A49FFF7E4F94FF6F262054B044847
:10E6000002A9CDE903230296FFF796FFCDE700BFED
:10E61000B4AE07100000FFFF73FE3F026CFE3F0226
:10E6200002220020044B1A60044B054AC3E9000093
:10E630009A60FFF7D3B900BFC0AE0710B4AE0710A1
:10E640000000FFFF024B1A68024B1A60704700BFC0
:10E65000ECAC0710C4AE0710F8B587B204463846D4
:10E660000D46164600F012FA60B102213846FEF758
:10E67000C1FE022806D1324629462046BDE8F840B0
:10E68000FEF7DEBFF8BD70474174704708B5007CE7
:10E69000FFF7A8F820EAE07008BD08B5007CFFF796
:10E6A0005BF820EAE07008BD08B5007CFFF770F861
:10E6B00040EAE07008BD08B5007CFFF75BF840EA6F
:10E6C000E07008BD007CFFF771B837B5457C0446A3
:10E6D0002DB1207C03B0BDE83040FFF72FB8007C9F
:10E6E0000191FFF77FF800280199F2DC284603B07A
:10E6F00030BD10B504461421FCF703FD204610BDC3
:10E7000010B54FF47A730446084611460022C4E956
:10E710000123044B2074236001236374FFF77EF808
:10E72000204610BDC0FE3F020023007CFFF768B802
:10E730000022FFF7F9BF007CFFF746B8417470472D
:10E740007047704708B50021007CFFF7BBF840EA2E
:10E75000E07008BD08B50121007CFFF7B3F840EA7E
:10E76000E07008BD08B5007CFFF79EF820EAE07075
:10E7700008BD08B5007CFFF789F820EAE07008BD05
:10E7800013B50446007C0191FFF78EF8002801992B
:10E7900001DC607C20B1207CFFF7A2F820EAE07069
:10E7A00002B010BD007CFFF7A9B810B504461421D3
:10E7B000FCF7A7FC204610BD10B54FF47A73044651
:10E7C00008460021C4E90113044B2074236001238F
:10E7D00011466374FFF730F8204610BDF0FE3F028B
:10E7E0000022007CFFF736B8007CFFF741B810B577
:10E7F00004461422002100F0D8FA204610BD000083
:10E8000010B588B003A8FFF7F2FF0C4CD4E88F1FB7
:10E8100011F001010FD120460191FCF781FC019913
:10E8200048B103AA0648FFF7C7FF2046FCF77DFC66
:10E83000044800F0A7FA024808B010BDC8AE07109F
:10E84000CCAE0710F1E83F02002240681146FFF706
:10E8500051B9002240681146FFF784B90022406890
:10E860001146FFF79BB900224068FFF789B90022E3
:10E87000406881F00101FFF767B9002340681A463C
:10E880001946FFF753B9002340681A461946FFF7A7
:10E890003FB9002240681146FFF710B9002202215B
:10E8A0004068FFF719B9002340681A46FFF7F8B827
:10E8B0000422024B5A60024A1A607047E0AE071009
:10E8C00020FF3F0210B50446FCF7F2FB0138231885
:10E8D0002046834206D90278197800F8011B03F814
:10E8E0000129F6E710BD70B50C46911E22291DD8EE
:10E8F000254630B9302223449D4210D205F8012B21
:10E90000FAE7B0FBF2F602FB1600C1B2092894BF89
:10E9100030315731C9B2304605F8011BE9E7002311
:10E9200020462B70FFF7CEFF204670BD0020FCE78D
:10E9300008B50123FFF7D7FF08BD0000014B1860A1
:10E94000704700BFF0AC071008B50F4B43B1FFF79D
:10E9500057FF03681B699847002801DD00E000BFEE
:10E960000A4B43B100F07CF903681B699847002803
:10E9700001DD00E000BF064B0BB100F0B7F9054B1D
:10E980000BB100F0E9F908BD000000000000000034
:10E99000000000000000000008B5FFF7D5FFFEF7FB
:10E9A0000DFD014B186008BDF0AE07100548064A82
:10E9B00008B5121A054900F0EBF9054B054A1A6033
:10E9C00008BD00BF00B4071004B40710B8FE5F080C
:10E9D00000B407101E1C279A002307B51A466FF0D3
:10E9E00077010093FFF724F803B05DF804FB000003
:10E9F00007B543880A2B08D0502B0BD1094B1B6855
:10EA00004BB103B05DF804EB1847FFF7E5FF03B027
:10EA10005DF804FB00231A466FF077010093FFF7BF
:10EA200007F8F4E7ECAE0710002110B51148FFF726
:10EA300025F9114B1A68114B9A420CBF0122002292
:10EA40000F4B1A7001D0FFF7B1FFFEF79BFC044695
:10EA500000F0B4F90B4B13B1204600E000BF0021D9
:10EA60000848FFF70FF8BDE8104000210648FEF700
:10EA7000D1BF00BFEDEA3F0200B407101E1C279A69
:10EA8000E8AE071000000000A1EB3F021B2837B5DD
:10EA9000044602D9002003B030BDA0F10F03022BC1
:10EAA0000BD9012821D800F087F80021007CFEF75F
:10EAB00073FD80F00100C0B2EDE7114DD5E88F1F66
:10EAC00011F001010BD128460191FCF729FB0199B6
:10EAD00028B10C48FFF7B2FB2846FCF726FB094B90
:10EAE0001878FEF7E5FD0028D4D1083C012C05D8A4
:10EAF00000F0B6F8007CFEF767FEDAE70120CAE70F
:10EB00005CAE071060AE07101B2838B504460D46F2
:10EB10000AD8FF2908D0FFF7B9FF28B129462046B7
:10EB2000BDE83840FEF774BC38BD38B504460D4624
:10EB3000FEF77CFCFF2810D0062804D84D2323FACA
:10EB400000F0C30709D42046FFF7A0FF28B12946EB
:10EB50002046BDE83840FEF777BC38BD10B5044606
:10EB6000FEF764FC031FDBB2012B08D92046FFF738
:10EB70008DFF20B12046BDE81040FEF773BC002099
:10EB800010BD704738B50A4B04460360012309499C
:10EB90004361202000F0F4F82025606005492846F4
:10EBA000A56000F0EDF8C4E90305204638BD00BFBC
:10EBB0001800010054FF3F0230B50E4D87B0D5E874
:10EBC0008F1F11F0010411D12846FCF7A9FA68B192
:10EBD0006846FFF7D7FF6A4621460748FFF7D2F895
:10EBE0002846FCF7A2FA054800F0CCF8024807B026
:10EBF00030BD00BFF4AE0710F8AE071033ED3F0292
:10EC00007047000038B5142504462A46002100F05C
:10EC1000CCF825804025074928462581258200F02B
:10EC2000AFF804496060284600F0AAF8E06020468A
:10EC300038BD00BF54FF3F027047704710B504460F
:10EC4000FFF7E0FF204610BD10B50446FFF7DAFFDE
:10EC5000204610BD10B50446FFF7D4FF204610BD76
:10EC600030B50E4D87B0D5E88F1F11F0010411D1DA
:10EC70002846FCF755FA68B101A8FFF7DFFF2146E7
:10EC800001AA0748FFF73CFD2846FCF74EFA054865
:10EC900000F078F8024807B030BD00BF0CAF071095
:10ECA00018AF0710B1ED3F0210B50D4C86B0D4E897
:10ECB0008F3FDB0711D42046FCF732FA68B101A878
:10ECC000FFF7C2FF012101AA0648FFF719FD204600
:10ECD000FCF72BFA044800F055F8024806B010BDC6
:10ECE00010AF07102CAF0710EBED3F0210B5FFF788
:10ECF000DBFF074B044653B1FFF71DFD38B1236816
:10ED000020461B699847002801DD00E000BF10BDC8
:10ED10000000000010B50D4C86B0D4E88F3FDB0733
:10ED200011D42046FCF7FCF968B101A8FFF792FF67
:10ED3000022101AA0648FFF7E3FC2046FCF7F5F99B
:10ED4000044800F01FF8024806B010BD14AF0710C9
:10ED500040AF0710E9ED3F0210B5FFF7DBFF074BAF
:10ED6000044653B1FFF7E7FC38B1236820461B691E
:10ED70009847002801DD00E000BF10BD0000000042
:10ED8000FCF7BDB9002301461A46184600F04CB8FE
:10ED90000A44431E914200D1704710B511F8014B4F
:10EDA000914203F8014FF9D110BD0244034693424A
:10EDB00000D1704703F8011BF9E7000038B5104B8C
:10EDC00004461D68AB6BB3B91820FEF711FF02466D
:10EDD000A86320B90B4B42210B48FEF741FF0B49BA
:10EDE0000B4BC0E900130B4B002183600B23838185
:10EDF0000120C2E90401AB6B00221C615A6138BDDD
:10EE0000F0AC071055FF3F026CFF3F020E33CDAB55
:10EE100034126DE6ECDE0500034611F8012B03F811
:10EE2000012B002AF9D170472DE9F843DFF8BC80A7
:10EE300006461F460D46D8F80000914600F058F8E7
:10EE4000264B1C6834B9264C1C60264B13B11B683A
:10EE5000C4F8883063681F2B07DDD8F8000000F085
:10EE600049F84FF0FF30BDE8F8835EB3D4F888006E
:10EE700088B91D4B23B9D8F8000000F03AF8F0E744
:10EE80004FF48470FEF7B4FE0028F4D00023C0E9EC
:10EE90004033C4F8880063680122022E40F82390B2
:10EEA00002FA03F200EB8301D0F8003143EA0203D7
:10EEB000C0F80031C1F8807002BFD0F804311343AC
:10EEC000C0F804316368D8F800005A1C023362604D
:10EED00044F8235000F00EF80020C4E7E0AF07101C
:10EEE00054AF071000000000A1DD3F0254AD071031
:10EEF000704770477047000071B23F0299B23F02FD
:10EF00009DB23F020000000043616C6C206F6E20D8
:10EF100070757265207669727475616C00504D3140
:10EF20002E303A00504D322E353A00504D31303AA5
:10EF30000054454D503A0048554D493A0075672FE9
:10EF40006D3300206300202500436F756C646E27CD
:10EF5000742066696E6420534854333100436F75E2
:10EF60006C646E27742066696E6420737364313339
:10EF7000303600706D312E303A2564002020706DDF
:10EF8000322E353A2564002020706D31303A2564E8
:10EF90000D0A0000000000003E5B4F5B3E3E6B4FE1
:10EFA0006B3E1C3E7C3E1C183C7E3C181C577D571B
:10EFB0001C1C5E7F5E1C00183C1800FFE7C3E7FFC7
:10EFC0000018241800FFE7DBE7FF30483A060E265A
:10EFD00029792926407F050507407F05253F5A3CB2
:10EFE000E73C5A7F3E1C1C08081C1C3E7F14227FF5
:10EFF00022145F5F005F5F06097F017F00668995CD
:10F000006A606060606094A2FFA29408047E0408B5
:10F0100010207E201008082A1C08081C2A08081E38
:10F02000101010100C1E0C1E0C30383E3830060E1E
:10F030003E0E06000000000000005F000000070018
:10F040000700147F147F14242A7F2A1223130864D4
:10F050006236495620500008070300001C22410078
:10F060000041221C002A1C7F1C2A08083E080800B8
:10F070008070300008080808080000606000201058
:10F080000804023E5149453E00427F400072494912
:10F0900049462141494D331814127F1027454545F3
:10F0A000393C4A4949314121110907364949493614
:10F0B000464949291E0000140000004034000000A9
:10F0C00008142241141414141400412214080201DB
:10F0D0005909063E415D594E7C1211127C7F494907
:10F0E00049363E414141227F4141413E7F494949A4
:10F0F000417F090909013E414151737F0808087F9A
:10F1000000417F41002040413F017F081422417FA0
:10F11000404040407F021C027F7F0408107F3E4138
:10F1200041413E7F090909063E4151215E7F09198F
:10F130002946264949493203017F01033F404040A7
:10F140003F1F2040201F3F4038403F631408146396
:10F1500003047804036159494D43007F4141410252
:10F1600004081020004141417F0402010204404094
:10F17000404040000307080020545478407F284452
:10F1800044383844444428384444287F385454543C
:10F190001800087E090218A4A49C787F080404784B
:10F1A00000447D40002040403D007F102844000086
:10F1B000417F40007C047804787C0804047838445B
:10F1C000444438FC1824241818242418FC7C08040F
:10F1D0000408485454542404043F44243C40402030
:10F1E0007C1C2040201C3C4030403C4428102844DB
:10F1F0004C9090907C4464544C440008364100008C
:10F2000000770000004136080002010204023C269B
:10F2100023263C1EA1A161123A4040207A38545462
:10F2200055592155557941225454784221555478E5
:10F230004020545579400C1E52721239555555597B
:10F24000395454545939555454580000457C4100A0
:10F2500002457D420001457C407D1211127DF0285F
:10F260002528F07C545545002054547C547C0A09D0
:10F270007F4932494949323A4444443A324A48483B
:10F28000303A4141217A3A42402078009DA0A07D49
:10F290003D4242423D3D4040403D3C24FF24244805
:10F2A0007E4943662B2FFC2F2BFF0929F620C088AF
:10F2B0007E090320545479410000447D4130484880
:10F2C0004A32384040227A007A0A0A727D0D19319A
:10F2D0007D2629292F28262929292630484D4020F6
:10F2E000380808080808080808382F10C8ACBA2FD2
:10F2F000102834FA00007B000008142A142222147B
:10F300002A14085500550055AA55AA55AAFF55FFBD
:10F3100055FF000000FF00101010FF00141414FF30
:10F32000001010FF00FF1010F010F0141414FC0077
:10F330001414F700FF0000FF00FF1414F404FC1481
:10F340001417101F10101F101F1414141F0010107A
:10F3500010F0000000001F101010101F10101010EF
:10F36000F010000000FF101010101010101010FF0F
:10F3700010000000FF140000FF00FF00001F101726
:10F380000000FC04F414141710171414F404F4000F
:10F3900000FF00F714141414141414F700F71414D5
:10F3A00014171410101F101F141414F4141010F05C
:10F3B00010F000001F101F0000001F14000000FCD0
:10F3C000140000F010F01010FF10FF141414FF14BC
:10F3D0001010101F00000000F010FFFFFFFFFFF0F3
:10F3E000F0F0F0F0FFFFFF0000000000FFFF0F0F44
:10F3F0000F0F0F3844443844FC4A4A4A347E020214
:10F400000606027E027E0263554941633844443C4D
:10F4100004407E201E2006027E020299A5E7A599DF
:10F420001C2A492A1C4C7201724C304A4D4D303016
:10F4300048784830BC625A463D3E494949007E0101
:10F4400001017E2A2A2A2A2A44445F444440514A20
:10F45000444040444A51400000FF0103E080FF0067
:10F460000008086B6B083612362436060F090F06A3
:10F47000000018180000001010003040FF010100CB
:10F480001F01011E00191D1712003C3C3C3C0000EE
:10F49000000000000000000000000000000000006C
:10F4A00000000000BDC23F0265E23F02B9B23F0268
:10F4B000C7BC3F02C9BC3F02FBBC3F02D7BC3F02F6
:10F4C000E9BC3F0209BC3F02C7BC3F02F1BE3F029C
:10F4D000EFBE3F0213BD3F0251BD3F028BBD3F0255
:10F4E000D1BD3F02EDBD3F026FBE3F026465666164
:10F4F000756C7420004D5342004C5342003C5350F5
:10F500004953657474696E67732064656661756CD0
:10F51000743E003C53504953657474696E677320A0
:10F5200025732575202573204D4F444525753E00D4
:10F530000000000000000000D5C63F02C5C63F0223
:10F54000C7C63F020000000000018000000000006C
:10F550000000000003800000000000000000000721
:10F56000C000000000000000000007C00000000014
:10F5700000000000000FC0000000000000000000BC
:10F580001FE00000000000000000001FE00000007D
:10F590000000000000003FE000000000000000004C
:10F5A000003FF00000000000000000007FF00000BD
:10F5B00000000000001FF87FF000000000000000C5
:10F5C0003FFE7FF0000000000000003FFF7FF000E2
:10F5D0000000000000001FFFFBE000000000000032
:10F5E000000FFFF9FFC00000000000000FFFF9FF4F
:10F5F000F800000000000007FFF1FFFF000000001E
:10F60000000003FC73FFFF80000000000001FE3FCC
:10F61000FFFF80000000000000FF1E0FFF00000041
:10F62000000000007FFE1FFC000000000000003F03
:10F63000FFFFF8000000000000000FDFFFE0000007
:10F6400000000000001F19FFC000000000000000C3
:10F650003F3CFF00000000000000007E7CF800003E
:10F660000000000000007FFE7C00000000000000A1
:10F6700000FFFFFC0000000000000000FFFFFE0094
:10F6800000000000000000FFFFFE0000000000007E
:10F690000001FFEFFE0000000000000001FFCFFEB0
:10F6A0000000000000000003FF07FE000000000053
:10F6B000000003FC07FE0000000000000003F00350
:10F6C000FE00000000000000018000FE00000000BD
:10F6D0000000000000007E000000000000000000AC
:10F6E000003E000000000000000000000C000000D0
:10F6F000000000078000FC000003C000000007803D
:10F7000001FC000003C0000000078001FC000003B2
:10F71000C0000000078001E00000001E000000079C
:10F720008001E00000001E007FE3F79FF9FDE7780D
:10F730007BDFC0FFF7FFBFFDFDFF787BDFC0FFF77A
:10F74000FFBFFDFDFF787BDFC0F0F787BC3DE1FF29
:10F75000787BDE00F0F787BC3DE1F0787BDE0000CF
:10F76000F787803DE1E0787BDE007FF7879FFDE152
:10F77000E0787BDE00FFF787BFFDE1E0787BDE000D
:10F78000F0F787BC3DE1E0787BDE00F0F787BC3D19
:10F79000E1E0787BDE00F0F787BC3DE1E0787BDEDE
:10F7A00000FFF7FFBFFDE1E07FFBDFC0FFF7FFBF1A
:10F7B000FDE1E07FFBDFC07CF3F39F3DE1E03E7BBA
:10F7C000CFC00000000000000000000000FFFFFFAD
:10F7D000FFFFFFFFFFFFFFC0FFFFFFFFFD68DB1123
:10F7E0001A31C0FFFFFFFFFD2B5AFB6AEFC0FFFF7E
:10F7F000FFFFFD4B5B3B1A33C0FFFFFFFFFD6B5B61
:10F80000DB6AFDC000006000000000000000000096
:10F810000000000000E00000000000000000000008
:10F8200000000001E00000000000000000000000F7
:10F83000000001F0000000000000000000000000D7
:10F840000003F000000000000000000000000000C5
:10F8500007F00000000000000000000000000007AA
:10F86000F8000000000000000000000000000FF899
:10F8700000000003C0007E000001E0007F0FF800E0
:10F88000000003C000FE000001E000FFEFF80000F0
:10F890000003C000FE000001E000FFFFF8000000D0
:10F8A00003C000F00000000F007FFE7FC0000003D7
:10F8B000C000F00000000F003FFE7FF83FF1FBCFDB
:10F8C000FCFEF3BC3DEFE01FFE7FFF7FFBFFDFFE92
:10F8D000FEFFBC3DEFE01FC6FFFF7FFBFFDFFEFE2C
:10F8E000FFBC3DEFE00FE3C7FE787BC3DE1EF0FFF9
:10F8F000BC3DEF0007FF87FC787BC3DE1EF0F83CC1
:10F900003DEF0001FFFFF0007BC3C01EF0F03C3D67
:10F91000EF0001F37FE03FFBC3CFFEF0F03C3DEF93
:10F920000003E33F807FFBC3DFFEF0F03C3DEF00D0
:10F9300007E73C00787BC3DE1EF0F03C3DEF00079C
:10F94000FFBE00787BC3DE1EF0F03C3DEF0007FFFA
:10F95000FE00787BC3DE1EF0F03C3DEF000FFFFEA3
:10F96000007FFBFFDFFEF0F03FFDEFE00FFFFF0049
:10F970007FFBFFDFFEF0F03FFDEFE00FF9FF003E01
:10F9800079F9CF9EF0F01F3DE7E01FF1FF00000086
:10F990000000000000000000001F80FF007FFFFF4C
:10F9A000FFFFFFFFFFFFFFE01C007F007FFFFFFF67
:10F9B000FEB46D888D18E000001F007FFFFFFFFE82
:10F9C00095AD7DB577E000000F007FFFFFFFFEA53E
:10F9D000AD9D8D19E0000006007FFFFFFFFEB5AD75
:10F9E000EDB57EE0000000000000000029C73F02E6
:10F9F00041C73F02BDC23F0265E23F0255C73F0219
:10FA0000C7BC3F02C9BC3F02FBBC3F02D7BC3F02A0
:10FA1000E9BC3F0209BC3F02C7BC3F02F1BE3F0246
:10FA2000F3C83F0257CF3F0209CF3F028BBD3F02D1
:10FA3000D1BD3F02EDBD3F026FBE3F020080C0E07E
:10FA4000F0F8FCFE000103070F1F3F7FAED580A832
:10FA5000D300408D2000A1C8DB40A4A62EAF220019
:10FA6000FF2100424D4931363047656E436C61736A
:10FA7000733A3A6932635F696E697428292E2E2EB3
:10FA800000424D4931363047656E436C6173733ABD
:10FA90003A6932635F696E697428293A20493243B2
:10FAA000206661696C65642E00424D4931363047ED
:10FAB000656E436C6173733A3A6932635F696E696C
:10FAC0007428293A2043484950204944203D203099
:10FAD0007800424D4931363047656E436C6173732F
:10FAE0003A3A6932635F696E697428292E2E2E6452
:10FAF0006F6E65006932635F78666572286F66664F
:10FB0000733D3078002C2074783D002C2072783DB5
:10FB100000293A00576972652E656E645472616EF1
:10FB2000736D697373696F6E2829206661696C65EE
:10FB3000642E00424D4931363047656E436C617327
:10FB4000733A3A7370695F696E697428292E2E2E94
:10FB500000424D4931363047656E436C6173733AEC
:10FB60003A7370695F696E697428293A2057415267
:10FB70004E494E473A204E6F206368697020736586
:10FB80006C6563742070696E207370656369666963
:10FB900065642E00424D4931363047656E436C61D5
:10FBA00073733A3A7370695F696E697428292E2EEF
:10FBB0002E646F6E6500424D4931363047656E43A5
:10FBC0006C6173733A3A7370695F78666572280086
:10FBD0002C0000000000000000000000FBD43F02E9
:10FBE00081D33F0299D43F020000000000000000D2
:10FBF000FBD43F02F5D43F02F7D43F0200000000DF
:10FC000000000000BFDE3F02B5DE3F02ABDE3F0278
:10FC1000A1DE3F0295DE3F0289DE3F0241E13F0265
:10FC200049E13F027DDE3F0275DE3F026BDE3F02AF
:10FC300061DE3F0279E13F020000000000000000A9
:10FC4000DDDE3F0227DF3F02FFDE3F02DFDE3F0255
:10FC500007DF3F020FDF3F0217DF3F021FDF3F02D8
:10FC6000000000000000000011E03F0201E03F0240
:10FC700003E03F026170700000000000000000001F
:10FC800001E13F020BE13F0215E13F021FE13F02AC
:10FC900029E13F0235E13F0241E13F0249E13F02F4
:10FCA00051E13F025DE13F0265E13F026FE13F024A
:10FCB00079E13F020008101820283038776972690E
:10FCC0006E670053797374656D20736C6565702081
:10FCD000636F6E66696775726174696F6E206973B0
:10FCE00020696E76616C69642E0025592D256D2D75
:10FCF00025645425483A254D3A2553257A006173E9
:10FD00006374696D650000000000000000000000E1
:10FD100037E83F02A3E83F027BE83F0265E23F028B
:10FD20004BE83F0267E83F0259E83F0275E83F02AF
:10FD300039E83F023DE83F020000000000000000FB
:10FD4000F3E83F025BE93F0231E93F0265E23F022F
:10FD500023E93F02F5E83F0205E93F0255E93F028A
:10FD600015E93F02EDE83F0200000000000000003E
:10FD700057EA3F024DEA3F0243EA3F02F9E93F02F8
:10FD800037EA3F022BEA3F0241E13F0249E13F02ED
:10FD90001FEA3F0217EA3F020DEA3F0203EA3F0271
:10FDA00079E13F02005245454E54206D616C6C6F05
:10FDB0006320737563636565646564002F746D709B
:10FDC0002F6A656E6B696E732D4743432D31302D5D
:10FDD000706970656C696E652D34385F3230323011
:10FDE000313132345F313630363138303633392FB5
:10FDF0007372632F6E65776C69622F6E65776C69BD
:10FE0000622F6C6962632F7374646C69622F726114
:10FE10006E642E630000000015B73F02D9D43F0284
:10FE200009D53F0251DE3F02C9DE3F02F1E03F0249
:10FE300051E23F02D5E33F02D1E73F02F5E73F023F
:04FE400061EA3F0232
:10FE44000000000201010000AEFE3F02F4AC071006
:10FE5400000000000000000000000000000000009E
:10FE6400000000000000000000000000000000008E
:10FE7400000000000000000000000000000000007E
:10FE8400000000000000000000000000000000006E
:10FE9400000000000000000000000000000000005E
:10FEA400000000000000000000000000000000004E
:04FEB400E4AF0710A0
:04FEB8000000000046
:10FFBE000200100000B05F08A8B05F0858B23F0200
:10FFCE0001000A00FFFFFFFFFFFF00000102030414
:10FFDE0005060708090A0B0C0D0E0F10111213144B
:0EFFEE0015161718191A1B1C1D1E1F203E0089
:04FFFC0078563412ED
:04000005085FB018C8
:00000001FF
